{
	"contract/XProof.sol": {
		"XProof": {
			"abi": [
				{
					"inputs": [
						{
							"internalType": "address",
							"name": "_tokenAddress",
							"type": "address"
						}
					],
					"stateMutability": "nonpayable",
					"type": "constructor"
				},
				{
					"anonymous": false,
					"inputs": [
						{
							"indexed": true,
							"internalType": "uint256",
							"name": "contentId",
							"type": "uint256"
						},
						{
							"indexed": true,
							"internalType": "address",
							"name": "remover",
							"type": "address"
						},
						{
							"indexed": false,
							"internalType": "string",
							"name": "title",
							"type": "string"
						}
					],
					"name": "ContentRemoved",
					"type": "event"
				},
				{
					"anonymous": false,
					"inputs": [
						{
							"indexed": true,
							"internalType": "address",
							"name": "creator",
							"type": "address"
						},
						{
							"indexed": true,
							"internalType": "uint256",
							"name": "contentId",
							"type": "uint256"
						},
						{
							"indexed": false,
							"internalType": "uint256",
							"name": "timestamp",
							"type": "uint256"
						},
						{
							"indexed": false,
							"internalType": "enum XProof.ContentStatus",
							"name": "status",
							"type": "uint8"
						},
						{
							"indexed": false,
							"internalType": "string",
							"name": "hash",
							"type": "string"
						}
					],
					"name": "ContentUploaded",
					"type": "event"
				},
				{
					"anonymous": false,
					"inputs": [
						{
							"indexed": true,
							"internalType": "uint256",
							"name": "contentId",
							"type": "uint256"
						},
						{
							"indexed": true,
							"internalType": "address",
							"name": "verifier",
							"type": "address"
						},
						{
							"indexed": false,
							"internalType": "string",
							"name": "title",
							"type": "string"
						}
					],
					"name": "ContentVerified",
					"type": "event"
				},
				{
					"anonymous": false,
					"inputs": [
						{
							"indexed": true,
							"internalType": "uint256",
							"name": "contentId",
							"type": "uint256"
						},
						{
							"indexed": true,
							"internalType": "address",
							"name": "licensee",
							"type": "address"
						},
						{
							"indexed": false,
							"internalType": "string",
							"name": "title",
							"type": "string"
						}
					],
					"name": "LicenseExpired",
					"type": "event"
				},
				{
					"anonymous": false,
					"inputs": [
						{
							"indexed": true,
							"internalType": "uint256",
							"name": "contentId",
							"type": "uint256"
						},
						{
							"indexed": true,
							"internalType": "address",
							"name": "licensee",
							"type": "address"
						},
						{
							"indexed": false,
							"internalType": "string",
							"name": "title",
							"type": "string"
						}
					],
					"name": "LicensePurchased",
					"type": "event"
				},
				{
					"anonymous": false,
					"inputs": [
						{
							"indexed": true,
							"internalType": "uint256",
							"name": "contentId",
							"type": "uint256"
						},
						{
							"indexed": true,
							"internalType": "address",
							"name": "revoker",
							"type": "address"
						},
						{
							"indexed": true,
							"internalType": "address",
							"name": "licensee",
							"type": "address"
						}
					],
					"name": "LicenseRevoked",
					"type": "event"
				},
				{
					"anonymous": false,
					"inputs": [
						{
							"indexed": true,
							"internalType": "uint256",
							"name": "contentId",
							"type": "uint256"
						},
						{
							"indexed": true,
							"internalType": "address",
							"name": "licensee",
							"type": "address"
						},
						{
							"indexed": false,
							"internalType": "string",
							"name": "title",
							"type": "string"
						}
					],
					"name": "LicenseUsed",
					"type": "event"
				},
				{
					"anonymous": false,
					"inputs": [
						{
							"indexed": true,
							"internalType": "address",
							"name": "previousOwner",
							"type": "address"
						},
						{
							"indexed": true,
							"internalType": "address",
							"name": "newOwner",
							"type": "address"
						}
					],
					"name": "OwnershipTransferred",
					"type": "event"
				},
				{
					"anonymous": false,
					"inputs": [
						{
							"indexed": true,
							"internalType": "address",
							"name": "user",
							"type": "address"
						},
						{
							"indexed": false,
							"internalType": "uint256",
							"name": "newReputation",
							"type": "uint256"
						}
					],
					"name": "ReputationDecreased",
					"type": "event"
				},
				{
					"anonymous": false,
					"inputs": [
						{
							"indexed": true,
							"internalType": "address",
							"name": "user",
							"type": "address"
						},
						{
							"indexed": false,
							"internalType": "uint256",
							"name": "newReputation",
							"type": "uint256"
						}
					],
					"name": "ReputationIncreased",
					"type": "event"
				},
				{
					"anonymous": false,
					"inputs": [
						{
							"indexed": true,
							"internalType": "uint256",
							"name": "contentId",
							"type": "uint256"
						},
						{
							"indexed": true,
							"internalType": "address",
							"name": "voter",
							"type": "address"
						},
						{
							"indexed": false,
							"internalType": "uint256",
							"name": "votes",
							"type": "uint256"
						}
					],
					"name": "VoteCast",
					"type": "event"
				},
				{
					"inputs": [
						{
							"internalType": "uint256",
							"name": "",
							"type": "uint256"
						},
						{
							"internalType": "address",
							"name": "",
							"type": "address"
						}
					],
					"name": "contentLicensees",
					"outputs": [
						{
							"internalType": "bool",
							"name": "",
							"type": "bool"
						}
					],
					"stateMutability": "view",
					"type": "function"
				},
				{
					"inputs": [
						{
							"internalType": "uint256",
							"name": "",
							"type": "uint256"
						}
					],
					"name": "contents",
					"outputs": [
						{
							"internalType": "address",
							"name": "creator",
							"type": "address"
						},
						{
							"internalType": "string",
							"name": "title",
							"type": "string"
						},
						{
							"internalType": "string",
							"name": "description",
							"type": "string"
						},
						{
							"internalType": "uint256",
							"name": "timestamp",
							"type": "uint256"
						},
						{
							"internalType": "enum XProof.ContentStatus",
							"name": "status",
							"type": "uint8"
						},
						{
							"internalType": "uint256",
							"name": "votes",
							"type": "uint256"
						}
					],
					"stateMutability": "view",
					"type": "function"
				},
				{
					"inputs": [
						{
							"internalType": "uint256",
							"name": "contentId",
							"type": "uint256"
						},
						{
							"internalType": "address",
							"name": "licensee",
							"type": "address"
						}
					],
					"name": "expireLicense",
					"outputs": [],
					"stateMutability": "nonpayable",
					"type": "function"
				},
				{
					"inputs": [
						{
							"internalType": "address",
							"name": "user",
							"type": "address"
						}
					],
					"name": "getReputation",
					"outputs": [
						{
							"internalType": "uint256",
							"name": "",
							"type": "uint256"
						}
					],
					"stateMutability": "view",
					"type": "function"
				},
				{
					"inputs": [
						{
							"internalType": "uint256",
							"name": "contentId",
							"type": "uint256"
						},
						{
							"internalType": "address",
							"name": "licensee",
							"type": "address"
						}
					],
					"name": "grantLicense",
					"outputs": [],
					"stateMutability": "nonpayable",
					"type": "function"
				},
				{
					"inputs": [
						{
							"internalType": "uint256",
							"name": "contentId",
							"type": "uint256"
						},
						{
							"internalType": "address",
							"name": "licensee",
							"type": "address"
						}
					],
					"name": "isLicenseValid",
					"outputs": [
						{
							"internalType": "bool",
							"name": "",
							"type": "bool"
						}
					],
					"stateMutability": "view",
					"type": "function"
				},
				{
					"inputs": [],
					"name": "maxReputation",
					"outputs": [
						{
							"internalType": "uint256",
							"name": "",
							"type": "uint256"
						}
					],
					"stateMutability": "view",
					"type": "function"
				},
				{
					"inputs": [],
					"name": "maxVotes",
					"outputs": [
						{
							"internalType": "uint256",
							"name": "",
							"type": "uint256"
						}
					],
					"stateMutability": "view",
					"type": "function"
				},
				{
					"inputs": [],
					"name": "owner",
					"outputs": [
						{
							"internalType": "address",
							"name": "",
							"type": "address"
						}
					],
					"stateMutability": "view",
					"type": "function"
				},
				{
					"inputs": [],
					"name": "pause",
					"outputs": [],
					"stateMutability": "nonpayable",
					"type": "function"
				},
				{
					"inputs": [],
					"name": "paused",
					"outputs": [
						{
							"internalType": "bool",
							"name": "",
							"type": "bool"
						}
					],
					"stateMutability": "view",
					"type": "function"
				},
				{
					"inputs": [
						{
							"internalType": "uint256",
							"name": "contentId",
							"type": "uint256"
						}
					],
					"name": "purchaseLicense",
					"outputs": [],
					"stateMutability": "nonpayable",
					"type": "function"
				},
				{
					"inputs": [
						{
							"internalType": "uint256",
							"name": "contentId",
							"type": "uint256"
						}
					],
					"name": "removeContent",
					"outputs": [],
					"stateMutability": "nonpayable",
					"type": "function"
				},
				{
					"inputs": [],
					"name": "renounceOwnership",
					"outputs": [],
					"stateMutability": "nonpayable",
					"type": "function"
				},
				{
					"inputs": [
						{
							"internalType": "address",
							"name": "",
							"type": "address"
						}
					],
					"name": "reputation",
					"outputs": [
						{
							"internalType": "uint256",
							"name": "",
							"type": "uint256"
						}
					],
					"stateMutability": "view",
					"type": "function"
				},
				{
					"inputs": [
						{
							"internalType": "uint256",
							"name": "contentId",
							"type": "uint256"
						},
						{
							"internalType": "address",
							"name": "licensee",
							"type": "address"
						}
					],
					"name": "revokeLicense",
					"outputs": [],
					"stateMutability": "nonpayable",
					"type": "function"
				},
				{
					"inputs": [
						{
							"internalType": "uint256",
							"name": "newMax",
							"type": "uint256"
						}
					],
					"name": "setMaxReputation",
					"outputs": [],
					"stateMutability": "nonpayable",
					"type": "function"
				},
				{
					"inputs": [
						{
							"internalType": "uint256",
							"name": "newMax",
							"type": "uint256"
						}
					],
					"name": "setMaxVotes",
					"outputs": [],
					"stateMutability": "nonpayable",
					"type": "function"
				},
				{
					"inputs": [],
					"name": "token",
					"outputs": [
						{
							"internalType": "contract IERC20",
							"name": "",
							"type": "address"
						}
					],
					"stateMutability": "view",
					"type": "function"
				},
				{
					"inputs": [],
					"name": "totalContent",
					"outputs": [
						{
							"internalType": "uint256",
							"name": "",
							"type": "uint256"
						}
					],
					"stateMutability": "view",
					"type": "function"
				},
				{
					"inputs": [
						{
							"internalType": "address",
							"name": "newOwner",
							"type": "address"
						}
					],
					"name": "transferOwnership",
					"outputs": [],
					"stateMutability": "nonpayable",
					"type": "function"
				},
				{
					"inputs": [],
					"name": "unpause",
					"outputs": [],
					"stateMutability": "nonpayable",
					"type": "function"
				},
				{
					"inputs": [
						{
							"internalType": "string",
							"name": "title",
							"type": "string"
						},
						{
							"internalType": "string",
							"name": "description",
							"type": "string"
						}
					],
					"name": "uploadContent",
					"outputs": [],
					"stateMutability": "nonpayable",
					"type": "function"
				},
				{
					"inputs": [
						{
							"internalType": "uint256",
							"name": "contentId",
							"type": "uint256"
						}
					],
					"name": "useLicense",
					"outputs": [],
					"stateMutability": "nonpayable",
					"type": "function"
				},
				{
					"inputs": [
						{
							"internalType": "address",
							"name": "",
							"type": "address"
						},
						{
							"internalType": "uint256",
							"name": "",
							"type": "uint256"
						}
					],
					"name": "userContentIds",
					"outputs": [
						{
							"internalType": "uint256",
							"name": "",
							"type": "uint256"
						}
					],
					"stateMutability": "view",
					"type": "function"
				},
				{
					"inputs": [
						{
							"internalType": "uint256",
							"name": "contentId",
							"type": "uint256"
						}
					],
					"name": "verifyContent",
					"outputs": [],
					"stateMutability": "nonpayable",
					"type": "function"
				},
				{
					"inputs": [
						{
							"internalType": "uint256",
							"name": "contentId",
							"type": "uint256"
						}
					],
					"name": "voteForVerification",
					"outputs": [],
					"stateMutability": "nonpayable",
					"type": "function"
				}
			],
			"devdoc": {
				"kind": "dev",
				"methods": {
					"owner()": {
						"details": "Returns the address of the current owner."
					},
					"renounceOwnership()": {
						"details": "Leaves the contract without owner. It will not be possible to call `onlyOwner` functions. Can only be called by the current owner. NOTE: Renouncing ownership will leave the contract without an owner, thereby disabling any functionality that is only available to the owner."
					},
					"transferOwnership(address)": {
						"details": "Transfers ownership of the contract to a new account (`newOwner`). Can only be called by the current owner."
					}
				},
				"version": 1
			},
			"evm": {
				"assembly": "    /* \"contract/XProof.sol\":230:9104  contract XProof is Ownable, ReentrancyGuard {... */\n  mstore(0x40, 0x80)\n    /* \"contract/XProof.sol\":2133:2134  3 */\n  0x03\n    /* \"contract/XProof.sol\":2107:2134  uint256 public maxVotes = 3 */\n  0x08\n  sstore\n    /* \"contract/XProof.sol\":2225:2228  100 */\n  0x64\n    /* \"contract/XProof.sol\":2194:2228  uint256 public maxReputation = 100 */\n  0x09\n  sstore\n    /* \"contract/XProof.sol\":2274:2355  constructor(address _tokenAddress) {... */\n  callvalue\n  dup1\n  iszero\n  tag_1\n  jumpi\n  0x00\n  dup1\n  revert\ntag_1:\n  pop\n  mload(0x40)\n  sub(codesize, bytecodeSize)\n  dup1\n  bytecodeSize\n  dup4\n  codecopy\n  dup2\n  dup2\n  add\n  0x40\n  mstore\n  dup2\n  add\n  swap1\n  tag_2\n  swap2\n  swap1\n  tag_3\n  jump\t// in\ntag_2:\n    /* \"@openzeppelin/contracts/access/Ownable.sol\":936:968  _transferOwnership(_msgSender()) */\n  tag_8\n    /* \"@openzeppelin/contracts/access/Ownable.sol\":955:967  _msgSender() */\n  tag_9\n    /* \"@openzeppelin/contracts/access/Ownable.sol\":955:965  _msgSender */\n  shl(0x20, tag_10)\n    /* \"@openzeppelin/contracts/access/Ownable.sol\":955:967  _msgSender() */\n  0x20\n  shr\n  jump\t// in\ntag_9:\n    /* \"@openzeppelin/contracts/access/Ownable.sol\":936:954  _transferOwnership */\n  shl(0x20, tag_11)\n    /* \"@openzeppelin/contracts/access/Ownable.sol\":936:968  _transferOwnership(_msgSender()) */\n  0x20\n  shr\n  jump\t// in\ntag_8:\n    /* \"@openzeppelin/contracts/security/ReentrancyGuard.sol\":1716:1717  1 */\n  0x01\n    /* \"@openzeppelin/contracts/security/ReentrancyGuard.sol\":1821:1828  _status */\n  dup1\n    /* \"@openzeppelin/contracts/security/ReentrancyGuard.sol\":1821:1843  _status = _NOT_ENTERED */\n  dup2\n  swap1\n  sstore\n  pop\n    /* \"contract/XProof.sol\":2334:2347  _tokenAddress */\n  dup1\n    /* \"contract/XProof.sol\":2319:2324  token */\n  0x07\n  0x00\n    /* \"contract/XProof.sol\":2319:2348  token = IERC20(_tokenAddress) */\n  0x0100\n  exp\n  dup2\n  sload\n  dup2\n  0xffffffffffffffffffffffffffffffffffffffff\n  mul\n  not\n  and\n  swap1\n  dup4\n  0xffffffffffffffffffffffffffffffffffffffff\n  and\n  mul\n  or\n  swap1\n  sstore\n  pop\n    /* \"contract/XProof.sol\":2274:2355  constructor(address _tokenAddress) {... */\n  pop\n    /* \"contract/XProof.sol\":230:9104  contract XProof is Ownable, ReentrancyGuard {... */\n  jump(tag_14)\n    /* \"@openzeppelin/contracts/utils/Context.sol\":640:736  function _msgSender() internal view virtual returns (address) {... */\ntag_10:\n    /* \"@openzeppelin/contracts/utils/Context.sol\":693:700  address */\n  0x00\n    /* \"@openzeppelin/contracts/utils/Context.sol\":719:729  msg.sender */\n  caller\n    /* \"@openzeppelin/contracts/utils/Context.sol\":712:729  return msg.sender */\n  swap1\n  pop\n    /* \"@openzeppelin/contracts/utils/Context.sol\":640:736  function _msgSender() internal view virtual returns (address) {... */\n  swap1\n  jump\t// out\n    /* \"@openzeppelin/contracts/access/Ownable.sol\":2426:2613  function _transferOwnership(address newOwner) internal virtual {... */\ntag_11:\n    /* \"@openzeppelin/contracts/access/Ownable.sol\":2499:2515  address oldOwner */\n  0x00\n    /* \"@openzeppelin/contracts/access/Ownable.sol\":2518:2524  _owner */\n  dup1\n  0x00\n  swap1\n  sload\n  swap1\n  0x0100\n  exp\n  swap1\n  div\n  0xffffffffffffffffffffffffffffffffffffffff\n  and\n    /* \"@openzeppelin/contracts/access/Ownable.sol\":2499:2524  address oldOwner = _owner */\n  swap1\n  pop\n    /* \"@openzeppelin/contracts/access/Ownable.sol\":2543:2551  newOwner */\n  dup2\n    /* \"@openzeppelin/contracts/access/Ownable.sol\":2534:2540  _owner */\n  0x00\n  dup1\n    /* \"@openzeppelin/contracts/access/Ownable.sol\":2534:2551  _owner = newOwner */\n  0x0100\n  exp\n  dup2\n  sload\n  dup2\n  0xffffffffffffffffffffffffffffffffffffffff\n  mul\n  not\n  and\n  swap1\n  dup4\n  0xffffffffffffffffffffffffffffffffffffffff\n  and\n  mul\n  or\n  swap1\n  sstore\n  pop\n    /* \"@openzeppelin/contracts/access/Ownable.sol\":2597:2605  newOwner */\n  dup2\n    /* \"@openzeppelin/contracts/access/Ownable.sol\":2566:2606  OwnershipTransferred(oldOwner, newOwner) */\n  0xffffffffffffffffffffffffffffffffffffffff\n  and\n    /* \"@openzeppelin/contracts/access/Ownable.sol\":2587:2595  oldOwner */\n  dup2\n    /* \"@openzeppelin/contracts/access/Ownable.sol\":2566:2606  OwnershipTransferred(oldOwner, newOwner) */\n  0xffffffffffffffffffffffffffffffffffffffff\n  and\n  0x8be0079c531659141344cd1fd0a4f28419497f9722a3daafe3b4186f6b6457e0\n  mload(0x40)\n  mload(0x40)\n  dup1\n  swap2\n  sub\n  swap1\n  log3\n    /* \"@openzeppelin/contracts/access/Ownable.sol\":2489:2613  {... */\n  pop\n    /* \"@openzeppelin/contracts/access/Ownable.sol\":2426:2613  function _transferOwnership(address newOwner) internal virtual {... */\n  pop\n  jump\t// out\n    /* \"#utility.yul\":88:205   */\ntag_18:\n    /* \"#utility.yul\":197:198   */\n  0x00\n    /* \"#utility.yul\":194:195   */\n  dup1\n    /* \"#utility.yul\":187:199   */\n  revert\n    /* \"#utility.yul\":334:460   */\ntag_20:\n    /* \"#utility.yul\":371:378   */\n  0x00\n    /* \"#utility.yul\":411:453   */\n  0xffffffffffffffffffffffffffffffffffffffff\n    /* \"#utility.yul\":404:409   */\n  dup3\n    /* \"#utility.yul\":400:454   */\n  and\n    /* \"#utility.yul\":389:454   */\n  swap1\n  pop\n    /* \"#utility.yul\":334:460   */\n  swap2\n  swap1\n  pop\n  jump\t// out\n    /* \"#utility.yul\":466:562   */\ntag_21:\n    /* \"#utility.yul\":503:510   */\n  0x00\n    /* \"#utility.yul\":532:556   */\n  tag_30\n    /* \"#utility.yul\":550:555   */\n  dup3\n    /* \"#utility.yul\":532:556   */\n  tag_20\n  jump\t// in\ntag_30:\n    /* \"#utility.yul\":521:556   */\n  swap1\n  pop\n    /* \"#utility.yul\":466:562   */\n  swap2\n  swap1\n  pop\n  jump\t// out\n    /* \"#utility.yul\":568:690   */\ntag_22:\n    /* \"#utility.yul\":641:665   */\n  tag_32\n    /* \"#utility.yul\":659:664   */\n  dup2\n    /* \"#utility.yul\":641:665   */\n  tag_21\n  jump\t// in\ntag_32:\n    /* \"#utility.yul\":634:639   */\n  dup2\n    /* \"#utility.yul\":631:666   */\n  eq\n    /* \"#utility.yul\":621:684   */\n  tag_33\n  jumpi\n    /* \"#utility.yul\":680:681   */\n  0x00\n    /* \"#utility.yul\":677:678   */\n  dup1\n    /* \"#utility.yul\":670:682   */\n  revert\n    /* \"#utility.yul\":621:684   */\ntag_33:\n    /* \"#utility.yul\":568:690   */\n  pop\n  jump\t// out\n    /* \"#utility.yul\":696:839   */\ntag_23:\n    /* \"#utility.yul\":753:758   */\n  0x00\n    /* \"#utility.yul\":784:790   */\n  dup2\n    /* \"#utility.yul\":778:791   */\n  mload\n    /* \"#utility.yul\":769:791   */\n  swap1\n  pop\n    /* \"#utility.yul\":800:833   */\n  tag_35\n    /* \"#utility.yul\":827:832   */\n  dup2\n    /* \"#utility.yul\":800:833   */\n  tag_22\n  jump\t// in\ntag_35:\n    /* \"#utility.yul\":696:839   */\n  swap3\n  swap2\n  pop\n  pop\n  jump\t// out\n    /* \"#utility.yul\":845:1196   */\ntag_3:\n    /* \"#utility.yul\":915:921   */\n  0x00\n    /* \"#utility.yul\":964:966   */\n  0x20\n    /* \"#utility.yul\":952:961   */\n  dup3\n    /* \"#utility.yul\":943:950   */\n  dup5\n    /* \"#utility.yul\":939:962   */\n  sub\n    /* \"#utility.yul\":935:967   */\n  slt\n    /* \"#utility.yul\":932:1051   */\n  iszero\n  tag_37\n  jumpi\n    /* \"#utility.yul\":970:1049   */\n  tag_38\n  tag_18\n  jump\t// in\ntag_38:\n    /* \"#utility.yul\":932:1051   */\ntag_37:\n    /* \"#utility.yul\":1090:1091   */\n  0x00\n    /* \"#utility.yul\":1115:1179   */\n  tag_39\n    /* \"#utility.yul\":1171:1178   */\n  dup5\n    /* \"#utility.yul\":1162:1168   */\n  dup3\n    /* \"#utility.yul\":1151:1160   */\n  dup6\n    /* \"#utility.yul\":1147:1169   */\n  add\n    /* \"#utility.yul\":1115:1179   */\n  tag_23\n  jump\t// in\ntag_39:\n    /* \"#utility.yul\":1105:1179   */\n  swap2\n  pop\n    /* \"#utility.yul\":1061:1189   */\n  pop\n    /* \"#utility.yul\":845:1196   */\n  swap3\n  swap2\n  pop\n  pop\n  jump\t// out\n    /* \"contract/XProof.sol\":230:9104  contract XProof is Ownable, ReentrancyGuard {... */\ntag_14:\n  dataSize(sub_0)\n  dup1\n  dataOffset(sub_0)\n  0x00\n  codecopy\n  0x00\n  return\nstop\n\nsub_0: assembly {\n        /* \"contract/XProof.sol\":230:9104  contract XProof is Ownable, ReentrancyGuard {... */\n      mstore(0x40, 0x80)\n      callvalue\n      dup1\n      iszero\n      tag_1\n      jumpi\n      0x00\n      dup1\n      revert\n    tag_1:\n      pop\n      jumpi(tag_2, lt(calldatasize, 0x04))\n      shr(0xe0, calldataload(0x00))\n      dup1\n      0x8456cb59\n      gt\n      tag_30\n      jumpi\n      dup1\n      0xc8a028a8\n      gt\n      tag_31\n      jumpi\n      dup1\n      0xee6c9db4\n      gt\n      tag_32\n      jumpi\n      dup1\n      0xee6c9db4\n      eq\n      tag_26\n      jumpi\n      dup1\n      0xf2fde38b\n      eq\n      tag_27\n      jumpi\n      dup1\n      0xfc0c546a\n      eq\n      tag_28\n      jumpi\n      dup1\n      0xfd2a176e\n      eq\n      tag_29\n      jumpi\n      jump(tag_2)\n    tag_32:\n      dup1\n      0xc8a028a8\n      eq\n      tag_23\n      jumpi\n      dup1\n      0xc8d80ada\n      eq\n      tag_24\n      jumpi\n      dup1\n      0xda41ea93\n      eq\n      tag_25\n      jumpi\n      jump(tag_2)\n    tag_31:\n      dup1\n      0x9c89a0e2\n      gt\n      tag_33\n      jumpi\n      dup1\n      0x9c89a0e2\n      eq\n      tag_19\n      jumpi\n      dup1\n      0xa1672a67\n      eq\n      tag_20\n      jumpi\n      dup1\n      0xb5ecf912\n      eq\n      tag_21\n      jumpi\n      dup1\n      0xb9f79451\n      eq\n      tag_22\n      jumpi\n      jump(tag_2)\n    tag_33:\n      dup1\n      0x8456cb59\n      eq\n      tag_16\n      jumpi\n      dup1\n      0x8da5cb5b\n      eq\n      tag_17\n      jumpi\n      dup1\n      0x8efc5e9a\n      eq\n      tag_18\n      jumpi\n      jump(tag_2)\n    tag_30:\n      dup1\n      0x3ad3d548\n      gt\n      tag_34\n      jumpi\n      dup1\n      0x5c975abb\n      gt\n      tag_35\n      jumpi\n      dup1\n      0x5c975abb\n      eq\n      tag_12\n      jumpi\n      dup1\n      0x6e4d6230\n      eq\n      tag_13\n      jumpi\n      dup1\n      0x715018a6\n      eq\n      tag_14\n      jumpi\n      dup1\n      0x777c3acf\n      eq\n      tag_15\n      jumpi\n      jump(tag_2)\n    tag_35:\n      dup1\n      0x3ad3d548\n      eq\n      tag_9\n      jumpi\n      dup1\n      0x3f193016\n      eq\n      tag_10\n      jumpi\n      dup1\n      0x3f4ba83a\n      eq\n      tag_11\n      jumpi\n      jump(tag_2)\n    tag_34:\n      dup1\n      0x0f64253d\n      eq\n      tag_3\n      jumpi\n      dup1\n      0x1d22899b\n      eq\n      tag_4\n      jumpi\n      dup1\n      0x1ec923f2\n      eq\n      tag_5\n      jumpi\n      dup1\n      0x27572f43\n      eq\n      tag_6\n      jumpi\n      dup1\n      0x2c59d163\n      eq\n      tag_7\n      jumpi\n      dup1\n      0x32b1d75d\n      eq\n      tag_8\n      jumpi\n    tag_2:\n      0x00\n      dup1\n      revert\n        /* \"contract/XProof.sol\":5985:6716  function removeContent(uint256 contentId) public onlyOwner {... */\n    tag_3:\n      tag_36\n      0x04\n      dup1\n      calldatasize\n      sub\n      dup2\n      add\n      swap1\n      tag_37\n      swap2\n      swap1\n      tag_38\n      jump\t// in\n    tag_37:\n      tag_39\n      jump\t// in\n    tag_36:\n      stop\n        /* \"contract/XProof.sol\":2194:2228  uint256 public maxReputation = 100 */\n    tag_4:\n      tag_40\n      tag_41\n      jump\t// in\n    tag_40:\n      mload(0x40)\n      tag_42\n      swap2\n      swap1\n      tag_43\n      jump\t// in\n    tag_42:\n      mload(0x40)\n      dup1\n      swap2\n      sub\n      swap1\n      return\n        /* \"contract/XProof.sol\":8934:9102  function setMaxReputation(uint256 newMax) public onlyOwner {... */\n    tag_5:\n      tag_44\n      0x04\n      dup1\n      calldatasize\n      sub\n      dup2\n      add\n      swap1\n      tag_45\n      swap2\n      swap1\n      tag_38\n      jump\t// in\n    tag_45:\n      tag_46\n      jump\t// in\n    tag_44:\n      stop\n        /* \"contract/XProof.sol\":703:754  mapping(address => uint256[]) public userContentIds */\n    tag_6:\n      tag_47\n      0x04\n      dup1\n      calldatasize\n      sub\n      dup2\n      add\n      swap1\n      tag_48\n      swap2\n      swap1\n      tag_49\n      jump\t// in\n    tag_48:\n      tag_50\n      jump\t// in\n    tag_47:\n      mload(0x40)\n      tag_51\n      swap2\n      swap1\n      tag_43\n      jump\t// in\n    tag_51:\n      mload(0x40)\n      dup1\n      swap2\n      sub\n      swap1\n      return\n        /* \"contract/XProof.sol\":280:307  uint256 public totalContent */\n    tag_7:\n      tag_52\n      tag_53\n      jump\t// in\n    tag_52:\n      mload(0x40)\n      tag_54\n      swap2\n      swap1\n      tag_43\n      jump\t// in\n    tag_54:\n      mload(0x40)\n      dup1\n      swap2\n      sub\n      swap1\n      return\n        /* \"contract/XProof.sol\":5579:5979  function expireLicense(uint256 contentId, address licensee)... */\n    tag_8:\n      tag_55\n      0x04\n      dup1\n      calldatasize\n      sub\n      dup2\n      add\n      swap1\n      tag_56\n      swap2\n      swap1\n      tag_57\n      jump\t// in\n    tag_56:\n      tag_58\n      jump\t// in\n    tag_55:\n      stop\n        /* \"contract/XProof.sol\":3244:4063  function uploadContent(string memory title, string memory description)... */\n    tag_9:\n      tag_59\n      0x04\n      dup1\n      calldatasize\n      sub\n      dup2\n      add\n      swap1\n      tag_60\n      swap2\n      swap1\n      tag_61\n      jump\t// in\n    tag_60:\n      tag_62\n      jump\t// in\n    tag_59:\n      stop\n        /* \"contract/XProof.sol\":5235:5388  function useLicense(uint256 contentId) public onlyLicensee(contentId) {... */\n    tag_10:\n      tag_63\n      0x04\n      dup1\n      calldatasize\n      sub\n      dup2\n      add\n      swap1\n      tag_64\n      swap2\n      swap1\n      tag_38\n      jump\t// in\n    tag_64:\n      tag_65\n      jump\t// in\n    tag_63:\n      stop\n        /* \"contract/XProof.sol\":3171:3238  function unpause() public onlyOwner {... */\n    tag_11:\n      tag_66\n      tag_67\n      jump\t// in\n    tag_66:\n      stop\n        /* \"contract/XProof.sol\":3076:3094  bool public paused */\n    tag_12:\n      tag_68\n      tag_69\n      jump\t// in\n    tag_68:\n      mload(0x40)\n      tag_70\n      swap2\n      swap1\n      tag_71\n      jump\t// in\n    tag_70:\n      mload(0x40)\n      dup1\n      swap2\n      sub\n      swap1\n      return\n        /* \"contract/XProof.sol\":6722:6971  function grantLicense(uint256 contentId, address licensee)... */\n    tag_13:\n      tag_72\n      0x04\n      dup1\n      calldatasize\n      sub\n      dup2\n      add\n      swap1\n      tag_73\n      swap2\n      swap1\n      tag_57\n      jump\t// in\n    tag_73:\n      tag_74\n      jump\t// in\n    tag_72:\n      stop\n        /* \"@openzeppelin/contracts/access/Ownable.sol\":1824:1925  function renounceOwnership() public virtual onlyOwner {... */\n    tag_14:\n      tag_75\n      tag_76\n      jump\t// in\n    tag_75:\n      stop\n        /* \"contract/XProof.sol\":2107:2134  uint256 public maxVotes = 3 */\n    tag_15:\n      tag_77\n      tag_78\n      jump\t// in\n    tag_77:\n      mload(0x40)\n      tag_79\n      swap2\n      swap1\n      tag_43\n      jump\t// in\n    tag_79:\n      mload(0x40)\n      dup1\n      swap2\n      sub\n      swap1\n      return\n        /* \"contract/XProof.sol\":3101:3165  function pause() public onlyOwner {... */\n    tag_16:\n      tag_80\n      tag_81\n      jump\t// in\n    tag_80:\n      stop\n        /* \"@openzeppelin/contracts/access/Ownable.sol\":1201:1286  function owner() public view virtual returns (address) {... */\n    tag_17:\n      tag_82\n      tag_83\n      jump\t// in\n    tag_82:\n      mload(0x40)\n      tag_84\n      swap2\n      swap1\n      tag_85\n      jump\t// in\n    tag_84:\n      mload(0x40)\n      dup1\n      swap2\n      sub\n      swap1\n      return\n        /* \"contract/XProof.sol\":7217:7913  function voteForVerification(uint256 contentId) public {... */\n    tag_18:\n      tag_86\n      0x04\n      dup1\n      calldatasize\n      sub\n      dup2\n      add\n      swap1\n      tag_87\n      swap2\n      swap1\n      tag_38\n      jump\t// in\n    tag_87:\n      tag_88\n      jump\t// in\n    tag_86:\n      stop\n        /* \"contract/XProof.sol\":8735:8842  function getReputation(address user) public view returns (uint256) {... */\n    tag_19:\n      tag_89\n      0x04\n      dup1\n      calldatasize\n      sub\n      dup2\n      add\n      swap1\n      tag_90\n      swap2\n      swap1\n      tag_91\n      jump\t// in\n    tag_90:\n      tag_92\n      jump\t// in\n    tag_89:\n      mload(0x40)\n      tag_93\n      swap2\n      swap1\n      tag_43\n      jump\t// in\n    tag_93:\n      mload(0x40)\n      dup1\n      swap2\n      sub\n      swap1\n      return\n        /* \"contract/XProof.sol\":6977:7211  function revokeLicense(uint256 contentId, address licensee)... */\n    tag_20:\n      tag_94\n      0x04\n      dup1\n      calldatasize\n      sub\n      dup2\n      add\n      swap1\n      tag_95\n      swap2\n      swap1\n      tag_57\n      jump\t// in\n    tag_95:\n      tag_96\n      jump\t// in\n    tag_94:\n      stop\n        /* \"contract/XProof.sol\":654:697  mapping(uint256 => Content) public contents */\n    tag_21:\n      tag_97\n      0x04\n      dup1\n      calldatasize\n      sub\n      dup2\n      add\n      swap1\n      tag_98\n      swap2\n      swap1\n      tag_38\n      jump\t// in\n    tag_98:\n      tag_99\n      jump\t// in\n    tag_97:\n      mload(0x40)\n      tag_100\n      swap7\n      swap6\n      swap5\n      swap4\n      swap3\n      swap2\n      swap1\n      tag_101\n      jump\t// in\n    tag_100:\n      mload(0x40)\n      dup1\n      swap2\n      sub\n      swap1\n      return\n        /* \"contract/XProof.sol\":834:879  mapping(address => uint256) public reputation */\n    tag_22:\n      tag_102\n      0x04\n      dup1\n      calldatasize\n      sub\n      dup2\n      add\n      swap1\n      tag_103\n      swap2\n      swap1\n      tag_91\n      jump\t// in\n    tag_103:\n      tag_104\n      jump\t// in\n    tag_102:\n      mload(0x40)\n      tag_105\n      swap2\n      swap1\n      tag_43\n      jump\t// in\n    tag_105:\n      mload(0x40)\n      dup1\n      swap2\n      sub\n      swap1\n      return\n        /* \"contract/XProof.sol\":4570:5229  function purchaseLicense(uint256 contentId) public whenNotPaused {... */\n    tag_23:\n      tag_106\n      0x04\n      dup1\n      calldatasize\n      sub\n      dup2\n      add\n      swap1\n      tag_107\n      swap2\n      swap1\n      tag_38\n      jump\t// in\n    tag_107:\n      tag_108\n      jump\t// in\n    tag_106:\n      stop\n        /* \"contract/XProof.sol\":760:828  mapping(uint256 => mapping(address => bool)) public contentLicensees */\n    tag_24:\n      tag_109\n      0x04\n      dup1\n      calldatasize\n      sub\n      dup2\n      add\n      swap1\n      tag_110\n      swap2\n      swap1\n      tag_57\n      jump\t// in\n    tag_110:\n      tag_111\n      jump\t// in\n    tag_109:\n      mload(0x40)\n      tag_112\n      swap2\n      swap1\n      tag_71\n      jump\t// in\n    tag_112:\n      mload(0x40)\n      dup1\n      swap2\n      sub\n      swap1\n      return\n        /* \"contract/XProof.sol\":8003:8156  function setMaxVotes(uint256 newMax) public onlyOwner {... */\n    tag_25:\n      tag_113\n      0x04\n      dup1\n      calldatasize\n      sub\n      dup2\n      add\n      swap1\n      tag_114\n      swap2\n      swap1\n      tag_38\n      jump\t// in\n    tag_114:\n      tag_115\n      jump\t// in\n    tag_113:\n      stop\n        /* \"contract/XProof.sol\":5394:5573  function isLicenseValid(uint256 contentId, address licensee)... */\n    tag_26:\n      tag_116\n      0x04\n      dup1\n      calldatasize\n      sub\n      dup2\n      add\n      swap1\n      tag_117\n      swap2\n      swap1\n      tag_57\n      jump\t// in\n    tag_117:\n      tag_118\n      jump\t// in\n    tag_116:\n      mload(0x40)\n      tag_119\n      swap2\n      swap1\n      tag_71\n      jump\t// in\n    tag_119:\n      mload(0x40)\n      dup1\n      swap2\n      sub\n      swap1\n      return\n        /* \"@openzeppelin/contracts/access/Ownable.sol\":2074:2272  function transferOwnership(address newOwner) public virtual onlyOwner {... */\n    tag_27:\n      tag_120\n      0x04\n      dup1\n      calldatasize\n      sub\n      dup2\n      add\n      swap1\n      tag_121\n      swap2\n      swap1\n      tag_91\n      jump\t// in\n    tag_121:\n      tag_122\n      jump\t// in\n    tag_120:\n      stop\n        /* \"contract/XProof.sol\":886:905  IERC20 public token */\n    tag_28:\n      tag_123\n      tag_124\n      jump\t// in\n    tag_123:\n      mload(0x40)\n      tag_125\n      swap2\n      swap1\n      tag_126\n      jump\t// in\n    tag_125:\n      mload(0x40)\n      dup1\n      swap2\n      sub\n      swap1\n      return\n        /* \"contract/XProof.sol\":4069:4564  function verifyContent(uint256 contentId)... */\n    tag_29:\n      tag_127\n      0x04\n      dup1\n      calldatasize\n      sub\n      dup2\n      add\n      swap1\n      tag_128\n      swap2\n      swap1\n      tag_38\n      jump\t// in\n    tag_128:\n      tag_129\n      jump\t// in\n    tag_127:\n      stop\n        /* \"contract/XProof.sol\":5985:6716  function removeContent(uint256 contentId) public onlyOwner {... */\n    tag_39:\n        /* \"@openzeppelin/contracts/access/Ownable.sol\":1094:1107  _checkOwner() */\n      tag_131\n        /* \"@openzeppelin/contracts/access/Ownable.sol\":1094:1105  _checkOwner */\n      tag_132\n        /* \"@openzeppelin/contracts/access/Ownable.sol\":1094:1107  _checkOwner() */\n      jump\t// in\n    tag_131:\n        /* \"contract/XProof.sol\":6054:6077  Content storage content */\n      0x00\n        /* \"contract/XProof.sol\":6080:6088  contents */\n      0x03\n        /* \"contract/XProof.sol\":6080:6099  contents[contentId] */\n      0x00\n        /* \"contract/XProof.sol\":6089:6098  contentId */\n      dup4\n        /* \"contract/XProof.sol\":6080:6099  contents[contentId] */\n      dup2\n      mstore\n      0x20\n      add\n      swap1\n      dup2\n      mstore\n      0x20\n      add\n      0x00\n      keccak256\n        /* \"contract/XProof.sol\":6054:6099  Content storage content = contents[contentId] */\n      swap1\n      pop\n        /* \"contract/XProof.sol\":6144:6145  0 */\n      0x00\n        /* \"contract/XProof.sol\":6117:6146  content.creator != address(0) */\n      0xffffffffffffffffffffffffffffffffffffffff\n      and\n        /* \"contract/XProof.sol\":6117:6124  content */\n      dup2\n        /* \"contract/XProof.sol\":6117:6132  content.creator */\n      0x00\n      add\n      0x00\n      swap1\n      sload\n      swap1\n      0x0100\n      exp\n      swap1\n      div\n      0xffffffffffffffffffffffffffffffffffffffff\n      and\n        /* \"contract/XProof.sol\":6117:6146  content.creator != address(0) */\n      0xffffffffffffffffffffffffffffffffffffffff\n      and\n      sub\n        /* \"contract/XProof.sol\":6109:6173  require(content.creator != address(0), \"Content does not exist\") */\n      tag_134\n      jumpi\n      mload(0x40)\n      0x08c379a000000000000000000000000000000000000000000000000000000000\n      dup2\n      mstore\n      0x04\n      add\n      tag_135\n      swap1\n      tag_136\n      jump\t// in\n    tag_135:\n      mload(0x40)\n      dup1\n      swap2\n      sub\n      swap1\n      revert\n    tag_134:\n        /* \"contract/XProof.sol\":6201:6225  ContentStatus.Unverified */\n      0x00\n        /* \"contract/XProof.sol\":6184:6191  content */\n      dup2\n        /* \"contract/XProof.sol\":6184:6198  content.status */\n      0x04\n      add\n      0x00\n        /* \"contract/XProof.sol\":6184:6225  content.status = ContentStatus.Unverified */\n      0x0100\n      exp\n      dup2\n      sload\n      dup2\n      0xff\n      mul\n      not\n      and\n      swap1\n      dup4\n      0x01\n      dup2\n      gt\n      iszero\n      tag_137\n      jumpi\n      tag_138\n      tag_139\n      jump\t// in\n    tag_138:\n    tag_137:\n      mul\n      or\n      swap1\n      sstore\n      pop\n        /* \"contract/XProof.sol\":6240:6249  uint256 i */\n      0x00\n        /* \"contract/XProof.sol\":6235:6642  for (uint256 i = 0; i < userContentIds[content.creator].length; i++) {... */\n    tag_140:\n        /* \"contract/XProof.sol\":6259:6273  userContentIds */\n      0x04\n        /* \"contract/XProof.sol\":6259:6290  userContentIds[content.creator] */\n      0x00\n        /* \"contract/XProof.sol\":6274:6281  content */\n      dup4\n        /* \"contract/XProof.sol\":6274:6289  content.creator */\n      0x00\n      add\n      0x00\n      swap1\n      sload\n      swap1\n      0x0100\n      exp\n      swap1\n      div\n      0xffffffffffffffffffffffffffffffffffffffff\n      and\n        /* \"contract/XProof.sol\":6259:6290  userContentIds[content.creator] */\n      0xffffffffffffffffffffffffffffffffffffffff\n      and\n      0xffffffffffffffffffffffffffffffffffffffff\n      and\n      dup2\n      mstore\n      0x20\n      add\n      swap1\n      dup2\n      mstore\n      0x20\n      add\n      0x00\n      keccak256\n        /* \"contract/XProof.sol\":6259:6297  userContentIds[content.creator].length */\n      dup1\n      sload\n      swap1\n      pop\n        /* \"contract/XProof.sol\":6255:6256  i */\n      dup2\n        /* \"contract/XProof.sol\":6255:6297  i < userContentIds[content.creator].length */\n      lt\n        /* \"contract/XProof.sol\":6235:6642  for (uint256 i = 0; i < userContentIds[content.creator].length; i++) {... */\n      iszero\n      tag_141\n      jumpi\n        /* \"contract/XProof.sol\":6360:6369  contentId */\n      dup3\n        /* \"contract/XProof.sol\":6322:6336  userContentIds */\n      0x04\n        /* \"contract/XProof.sol\":6322:6353  userContentIds[content.creator] */\n      0x00\n        /* \"contract/XProof.sol\":6337:6344  content */\n      dup5\n        /* \"contract/XProof.sol\":6337:6352  content.creator */\n      0x00\n      add\n      0x00\n      swap1\n      sload\n      swap1\n      0x0100\n      exp\n      swap1\n      div\n      0xffffffffffffffffffffffffffffffffffffffff\n      and\n        /* \"contract/XProof.sol\":6322:6353  userContentIds[content.creator] */\n      0xffffffffffffffffffffffffffffffffffffffff\n      and\n      0xffffffffffffffffffffffffffffffffffffffff\n      and\n      dup2\n      mstore\n      0x20\n      add\n      swap1\n      dup2\n      mstore\n      0x20\n      add\n      0x00\n      keccak256\n        /* \"contract/XProof.sol\":6354:6355  i */\n      dup3\n        /* \"contract/XProof.sol\":6322:6356  userContentIds[content.creator][i] */\n      dup2\n      sload\n      dup2\n      lt\n      tag_143\n      jumpi\n      tag_144\n      tag_145\n      jump\t// in\n    tag_144:\n    tag_143:\n      swap1\n      0x00\n      mstore\n      keccak256(0x00, 0x20)\n      add\n      sload\n        /* \"contract/XProof.sol\":6322:6369  userContentIds[content.creator][i] == contentId */\n      sub\n        /* \"contract/XProof.sol\":6318:6632  if (userContentIds[content.creator][i] == contentId) {... */\n      tag_147\n      jumpi\n        /* \"contract/XProof.sol\":6426:6440  userContentIds */\n      0x04\n        /* \"contract/XProof.sol\":6426:6495  userContentIds[... */\n      0x00\n        /* \"contract/XProof.sol\":6462:6469  content */\n      dup4\n        /* \"contract/XProof.sol\":6462:6477  content.creator */\n      0x00\n      add\n      0x00\n      swap1\n      sload\n      swap1\n      0x0100\n      exp\n      swap1\n      div\n      0xffffffffffffffffffffffffffffffffffffffff\n      and\n        /* \"contract/XProof.sol\":6426:6495  userContentIds[... */\n      0xffffffffffffffffffffffffffffffffffffffff\n      and\n      0xffffffffffffffffffffffffffffffffffffffff\n      and\n      dup2\n      mstore\n      0x20\n      add\n      swap1\n      dup2\n      mstore\n      0x20\n      add\n      0x00\n      keccak256\n        /* \"contract/XProof.sol\":6537:6538  1 */\n      0x01\n        /* \"contract/XProof.sol\":6496:6510  userContentIds */\n      0x04\n        /* \"contract/XProof.sol\":6496:6527  userContentIds[content.creator] */\n      0x00\n        /* \"contract/XProof.sol\":6511:6518  content */\n      dup6\n        /* \"contract/XProof.sol\":6511:6526  content.creator */\n      0x00\n      add\n      0x00\n      swap1\n      sload\n      swap1\n      0x0100\n      exp\n      swap1\n      div\n      0xffffffffffffffffffffffffffffffffffffffff\n      and\n        /* \"contract/XProof.sol\":6496:6527  userContentIds[content.creator] */\n      0xffffffffffffffffffffffffffffffffffffffff\n      and\n      0xffffffffffffffffffffffffffffffffffffffff\n      and\n      dup2\n      mstore\n      0x20\n      add\n      swap1\n      dup2\n      mstore\n      0x20\n      add\n      0x00\n      keccak256\n        /* \"contract/XProof.sol\":6496:6534  userContentIds[content.creator].length */\n      dup1\n      sload\n      swap1\n      pop\n        /* \"contract/XProof.sol\":6496:6538  userContentIds[content.creator].length - 1 */\n      tag_148\n      swap2\n      swap1\n      tag_149\n      jump\t// in\n    tag_148:\n        /* \"contract/XProof.sol\":6426:6539  userContentIds[... */\n      dup2\n      sload\n      dup2\n      lt\n      tag_150\n      jumpi\n      tag_151\n      tag_145\n      jump\t// in\n    tag_151:\n    tag_150:\n      swap1\n      0x00\n      mstore\n      keccak256(0x00, 0x20)\n      add\n      sload\n        /* \"contract/XProof.sol\":6389:6403  userContentIds */\n      0x04\n        /* \"contract/XProof.sol\":6389:6420  userContentIds[content.creator] */\n      0x00\n        /* \"contract/XProof.sol\":6404:6411  content */\n      dup5\n        /* \"contract/XProof.sol\":6404:6419  content.creator */\n      0x00\n      add\n      0x00\n      swap1\n      sload\n      swap1\n      0x0100\n      exp\n      swap1\n      div\n      0xffffffffffffffffffffffffffffffffffffffff\n      and\n        /* \"contract/XProof.sol\":6389:6420  userContentIds[content.creator] */\n      0xffffffffffffffffffffffffffffffffffffffff\n      and\n      0xffffffffffffffffffffffffffffffffffffffff\n      and\n      dup2\n      mstore\n      0x20\n      add\n      swap1\n      dup2\n      mstore\n      0x20\n      add\n      0x00\n      keccak256\n        /* \"contract/XProof.sol\":6421:6422  i */\n      dup3\n        /* \"contract/XProof.sol\":6389:6423  userContentIds[content.creator][i] */\n      dup2\n      sload\n      dup2\n      lt\n      tag_153\n      jumpi\n      tag_154\n      tag_145\n      jump\t// in\n    tag_154:\n    tag_153:\n      swap1\n      0x00\n      mstore\n      keccak256(0x00, 0x20)\n      add\n        /* \"contract/XProof.sol\":6389:6539  userContentIds[content.creator][i] = userContentIds[... */\n      dup2\n      swap1\n      sstore\n      pop\n        /* \"contract/XProof.sol\":6557:6571  userContentIds */\n      0x04\n        /* \"contract/XProof.sol\":6557:6588  userContentIds[content.creator] */\n      0x00\n        /* \"contract/XProof.sol\":6572:6579  content */\n      dup4\n        /* \"contract/XProof.sol\":6572:6587  content.creator */\n      0x00\n      add\n      0x00\n      swap1\n      sload\n      swap1\n      0x0100\n      exp\n      swap1\n      div\n      0xffffffffffffffffffffffffffffffffffffffff\n      and\n        /* \"contract/XProof.sol\":6557:6588  userContentIds[content.creator] */\n      0xffffffffffffffffffffffffffffffffffffffff\n      and\n      0xffffffffffffffffffffffffffffffffffffffff\n      and\n      dup2\n      mstore\n      0x20\n      add\n      swap1\n      dup2\n      mstore\n      0x20\n      add\n      0x00\n      keccak256\n        /* \"contract/XProof.sol\":6557:6594  userContentIds[content.creator].pop() */\n      dup1\n      sload\n      dup1\n      tag_156\n      jumpi\n      tag_157\n      tag_158\n      jump\t// in\n    tag_157:\n    tag_156:\n      0x01\n      swap1\n      sub\n      dup2\n      dup2\n      swap1\n      0x00\n      mstore\n      keccak256(0x00, 0x20)\n      add\n      0x00\n      swap1\n      sstore\n      swap1\n      sstore\n        /* \"contract/XProof.sol\":6612:6617  break */\n      jump(tag_141)\n        /* \"contract/XProof.sol\":6318:6632  if (userContentIds[content.creator][i] == contentId) {... */\n    tag_147:\n        /* \"contract/XProof.sol\":6299:6302  i++ */\n      dup1\n      dup1\n      tag_160\n      swap1\n      tag_161\n      jump\t// in\n    tag_160:\n      swap2\n      pop\n      pop\n        /* \"contract/XProof.sol\":6235:6642  for (uint256 i = 0; i < userContentIds[content.creator].length; i++) {... */\n      jump(tag_140)\n    tag_141:\n      pop\n        /* \"contract/XProof.sol\":6683:6693  msg.sender */\n      caller\n        /* \"contract/XProof.sol\":6657:6709  ContentRemoved(contentId, msg.sender, content.title) */\n      0xffffffffffffffffffffffffffffffffffffffff\n      and\n        /* \"contract/XProof.sol\":6672:6681  contentId */\n      dup3\n        /* \"contract/XProof.sol\":6657:6709  ContentRemoved(contentId, msg.sender, content.title) */\n      0x400c9e2673cc1f32cc720493b4552fdcc572bda73f654b69fab24890574ab371\n        /* \"contract/XProof.sol\":6695:6702  content */\n      dup4\n        /* \"contract/XProof.sol\":6695:6708  content.title */\n      0x01\n      add\n        /* \"contract/XProof.sol\":6657:6709  ContentRemoved(contentId, msg.sender, content.title) */\n      mload(0x40)\n      tag_162\n      swap2\n      swap1\n      tag_163\n      jump\t// in\n    tag_162:\n      mload(0x40)\n      dup1\n      swap2\n      sub\n      swap1\n      log3\n        /* \"contract/XProof.sol\":6044:6716  {... */\n      pop\n        /* \"contract/XProof.sol\":5985:6716  function removeContent(uint256 contentId) public onlyOwner {... */\n      pop\n      jump\t// out\n        /* \"contract/XProof.sol\":2194:2228  uint256 public maxReputation = 100 */\n    tag_41:\n      sload(0x09)\n      dup2\n      jump\t// out\n        /* \"contract/XProof.sol\":8934:9102  function setMaxReputation(uint256 newMax) public onlyOwner {... */\n    tag_46:\n        /* \"@openzeppelin/contracts/access/Ownable.sol\":1094:1107  _checkOwner() */\n      tag_165\n        /* \"@openzeppelin/contracts/access/Ownable.sol\":1094:1105  _checkOwner */\n      tag_132\n        /* \"@openzeppelin/contracts/access/Ownable.sol\":1094:1107  _checkOwner() */\n      jump\t// in\n    tag_165:\n        /* \"contract/XProof.sol\":9020:9021  0 */\n      0x00\n        /* \"contract/XProof.sol\":9011:9017  newMax */\n      dup2\n        /* \"contract/XProof.sol\":9011:9021  newMax > 0 */\n      gt\n        /* \"contract/XProof.sol\":9003:9063  require(newMax > 0, \"Max reputation must be greater than 0\") */\n      tag_167\n      jumpi\n      mload(0x40)\n      0x08c379a000000000000000000000000000000000000000000000000000000000\n      dup2\n      mstore\n      0x04\n      add\n      tag_168\n      swap1\n      tag_169\n      jump\t// in\n    tag_168:\n      mload(0x40)\n      dup1\n      swap2\n      sub\n      swap1\n      revert\n    tag_167:\n        /* \"contract/XProof.sol\":9089:9095  newMax */\n      dup1\n        /* \"contract/XProof.sol\":9073:9086  maxReputation */\n      0x09\n        /* \"contract/XProof.sol\":9073:9095  maxReputation = newMax */\n      dup2\n      swap1\n      sstore\n      pop\n        /* \"contract/XProof.sol\":8934:9102  function setMaxReputation(uint256 newMax) public onlyOwner {... */\n      pop\n      jump\t// out\n        /* \"contract/XProof.sol\":703:754  mapping(address => uint256[]) public userContentIds */\n    tag_50:\n      mstore(0x20, 0x04)\n      dup2\n      0x00\n      mstore\n      keccak256(0x00, 0x40)\n      dup2\n      dup2\n      sload\n      dup2\n      lt\n      tag_170\n      jumpi\n      0x00\n      dup1\n      revert\n    tag_170:\n      swap1\n      0x00\n      mstore\n      keccak256(0x00, 0x20)\n      add\n      0x00\n      swap2\n      pop\n      swap2\n      pop\n      pop\n      sload\n      dup2\n      jump\t// out\n        /* \"contract/XProof.sol\":280:307  uint256 public totalContent */\n    tag_53:\n      sload(0x02)\n      dup2\n      jump\t// out\n        /* \"contract/XProof.sol\":5579:5979  function expireLicense(uint256 contentId, address licensee)... */\n    tag_58:\n        /* \"@openzeppelin/contracts/access/Ownable.sol\":1094:1107  _checkOwner() */\n      tag_173\n        /* \"@openzeppelin/contracts/access/Ownable.sol\":1094:1105  _checkOwner */\n      tag_132\n        /* \"@openzeppelin/contracts/access/Ownable.sol\":1094:1107  _checkOwner() */\n      jump\t// in\n    tag_173:\n        /* \"contract/XProof.sol\":5686:5709  Content storage content */\n      0x00\n        /* \"contract/XProof.sol\":5712:5720  contents */\n      0x03\n        /* \"contract/XProof.sol\":5712:5731  contents[contentId] */\n      0x00\n        /* \"contract/XProof.sol\":5721:5730  contentId */\n      dup5\n        /* \"contract/XProof.sol\":5712:5731  contents[contentId] */\n      dup2\n      mstore\n      0x20\n      add\n      swap1\n      dup2\n      mstore\n      0x20\n      add\n      0x00\n      keccak256\n        /* \"contract/XProof.sol\":5686:5731  Content storage content = contents[contentId] */\n      swap1\n      pop\n        /* \"contract/XProof.sol\":5776:5777  0 */\n      0x00\n        /* \"contract/XProof.sol\":5749:5778  content.creator != address(0) */\n      0xffffffffffffffffffffffffffffffffffffffff\n      and\n        /* \"contract/XProof.sol\":5749:5756  content */\n      dup2\n        /* \"contract/XProof.sol\":5749:5764  content.creator */\n      0x00\n      add\n      0x00\n      swap1\n      sload\n      swap1\n      0x0100\n      exp\n      swap1\n      div\n      0xffffffffffffffffffffffffffffffffffffffff\n      and\n        /* \"contract/XProof.sol\":5749:5778  content.creator != address(0) */\n      0xffffffffffffffffffffffffffffffffffffffff\n      and\n      sub\n        /* \"contract/XProof.sol\":5741:5805  require(content.creator != address(0), \"Content does not exist\") */\n      tag_175\n      jumpi\n      mload(0x40)\n      0x08c379a000000000000000000000000000000000000000000000000000000000\n      dup2\n      mstore\n      0x04\n      add\n      tag_176\n      swap1\n      tag_136\n      jump\t// in\n    tag_176:\n      mload(0x40)\n      dup1\n      swap2\n      sub\n      swap1\n      revert\n    tag_175:\n        /* \"contract/XProof.sol\":5846:5851  false */\n      0x00\n        /* \"contract/XProof.sol\":5816:5823  content */\n      dup2\n        /* \"contract/XProof.sol\":5816:5833  content.licensees */\n      0x05\n      add\n        /* \"contract/XProof.sol\":5816:5843  content.licensees[licensee] */\n      0x00\n        /* \"contract/XProof.sol\":5834:5842  licensee */\n      dup5\n        /* \"contract/XProof.sol\":5816:5843  content.licensees[licensee] */\n      0xffffffffffffffffffffffffffffffffffffffff\n      and\n      0xffffffffffffffffffffffffffffffffffffffff\n      and\n      dup2\n      mstore\n      0x20\n      add\n      swap1\n      dup2\n      mstore\n      0x20\n      add\n      0x00\n      keccak256\n      0x00\n        /* \"contract/XProof.sol\":5816:5851  content.licensees[licensee] = false */\n      0x0100\n      exp\n      dup2\n      sload\n      dup2\n      0xff\n      mul\n      not\n      and\n      swap1\n      dup4\n      iszero\n      iszero\n      mul\n      or\n      swap1\n      sstore\n      pop\n        /* \"contract/XProof.sol\":5901:5906  false */\n      0x00\n        /* \"contract/XProof.sol\":5861:5877  contentLicensees */\n      0x05\n        /* \"contract/XProof.sol\":5861:5888  contentLicensees[contentId] */\n      0x00\n        /* \"contract/XProof.sol\":5878:5887  contentId */\n      dup6\n        /* \"contract/XProof.sol\":5861:5888  contentLicensees[contentId] */\n      dup2\n      mstore\n      0x20\n      add\n      swap1\n      dup2\n      mstore\n      0x20\n      add\n      0x00\n      keccak256\n        /* \"contract/XProof.sol\":5861:5898  contentLicensees[contentId][licensee] */\n      0x00\n        /* \"contract/XProof.sol\":5889:5897  licensee */\n      dup5\n        /* \"contract/XProof.sol\":5861:5898  contentLicensees[contentId][licensee] */\n      0xffffffffffffffffffffffffffffffffffffffff\n      and\n      0xffffffffffffffffffffffffffffffffffffffff\n      and\n      dup2\n      mstore\n      0x20\n      add\n      swap1\n      dup2\n      mstore\n      0x20\n      add\n      0x00\n      keccak256\n      0x00\n        /* \"contract/XProof.sol\":5861:5906  contentLicensees[contentId][licensee] = false */\n      0x0100\n      exp\n      dup2\n      sload\n      dup2\n      0xff\n      mul\n      not\n      and\n      swap1\n      dup4\n      iszero\n      iszero\n      mul\n      or\n      swap1\n      sstore\n      pop\n        /* \"contract/XProof.sol\":5948:5956  licensee */\n      dup2\n        /* \"contract/XProof.sol\":5922:5972  LicenseExpired(contentId, licensee, content.title) */\n      0xffffffffffffffffffffffffffffffffffffffff\n      and\n        /* \"contract/XProof.sol\":5937:5946  contentId */\n      dup4\n        /* \"contract/XProof.sol\":5922:5972  LicenseExpired(contentId, licensee, content.title) */\n      0x408b0ea595edcded7cd47ed07984001fe85c0df60f6521171bd044d76d87ab3b\n        /* \"contract/XProof.sol\":5958:5965  content */\n      dup4\n        /* \"contract/XProof.sol\":5958:5971  content.title */\n      0x01\n      add\n        /* \"contract/XProof.sol\":5922:5972  LicenseExpired(contentId, licensee, content.title) */\n      mload(0x40)\n      tag_177\n      swap2\n      swap1\n      tag_163\n      jump\t// in\n    tag_177:\n      mload(0x40)\n      dup1\n      swap2\n      sub\n      swap1\n      log3\n        /* \"contract/XProof.sol\":5676:5979  {... */\n      pop\n        /* \"contract/XProof.sol\":5579:5979  function expireLicense(uint256 contentId, address licensee)... */\n      pop\n      pop\n      jump\t// out\n        /* \"contract/XProof.sol\":3244:4063  function uploadContent(string memory title, string memory description)... */\n    tag_62:\n        /* \"contract/XProof.sol\":3023:3029  paused */\n      0x0a\n      0x00\n      swap1\n      sload\n      swap1\n      0x0100\n      exp\n      swap1\n      div\n      0xff\n      and\n        /* \"contract/XProof.sol\":3022:3029  !paused */\n      iszero\n        /* \"contract/XProof.sol\":3014:3052  require(!paused, \"Contract is paused\") */\n      tag_179\n      jumpi\n      mload(0x40)\n      0x08c379a000000000000000000000000000000000000000000000000000000000\n      dup2\n      mstore\n      0x04\n      add\n      tag_180\n      swap1\n      tag_181\n      jump\t// in\n    tag_180:\n      mload(0x40)\n      dup1\n      swap2\n      sub\n      swap1\n      revert\n    tag_179:\n        /* \"contract/XProof.sol\":3409:3410  0 */\n      0x00\n        /* \"contract/XProof.sol\":3393:3398  title */\n      dup3\n        /* \"contract/XProof.sol\":3387:3406  bytes(title).length */\n      mload\n        /* \"contract/XProof.sol\":3387:3410  bytes(title).length > 0 */\n      gt\n        /* \"contract/XProof.sol\":3387:3443  bytes(title).length > 0 && bytes(description).length > 0 */\n      dup1\n      iszero\n      tag_183\n      jumpi\n      pop\n        /* \"contract/XProof.sol\":3442:3443  0 */\n      0x00\n        /* \"contract/XProof.sol\":3420:3431  description */\n      dup2\n        /* \"contract/XProof.sol\":3414:3439  bytes(description).length */\n      mload\n        /* \"contract/XProof.sol\":3414:3443  bytes(description).length > 0 */\n      gt\n        /* \"contract/XProof.sol\":3387:3443  bytes(title).length > 0 && bytes(description).length > 0 */\n    tag_183:\n        /* \"contract/XProof.sol\":3366:3506  require(... */\n      tag_184\n      jumpi\n      mload(0x40)\n      0x08c379a000000000000000000000000000000000000000000000000000000000\n      dup2\n      mstore\n      0x04\n      add\n      tag_185\n      swap1\n      tag_186\n      jump\t// in\n    tag_185:\n      mload(0x40)\n      dup1\n      swap2\n      sub\n      swap1\n      revert\n    tag_184:\n        /* \"contract/XProof.sol\":3517:3534  uint256 contentId */\n      0x00\n        /* \"contract/XProof.sol\":3537:3549  totalContent */\n      0x02\n      0x00\n        /* \"contract/XProof.sol\":3537:3551  totalContent++ */\n      dup2\n      sload\n      dup1\n      swap3\n      swap2\n      swap1\n      tag_187\n      swap1\n      tag_161\n      jump\t// in\n    tag_187:\n      swap2\n      swap1\n      pop\n      sstore\n        /* \"contract/XProof.sol\":3517:3551  uint256 contentId = totalContent++ */\n      swap1\n      pop\n        /* \"contract/XProof.sol\":3561:3587  Content storage newContent */\n      0x00\n        /* \"contract/XProof.sol\":3590:3598  contents */\n      0x03\n        /* \"contract/XProof.sol\":3590:3609  contents[contentId] */\n      0x00\n        /* \"contract/XProof.sol\":3599:3608  contentId */\n      dup4\n        /* \"contract/XProof.sol\":3590:3609  contents[contentId] */\n      dup2\n      mstore\n      0x20\n      add\n      swap1\n      dup2\n      mstore\n      0x20\n      add\n      0x00\n      keccak256\n        /* \"contract/XProof.sol\":3561:3609  Content storage newContent = contents[contentId] */\n      swap1\n      pop\n        /* \"contract/XProof.sol\":3640:3650  msg.sender */\n      caller\n        /* \"contract/XProof.sol\":3619:3629  newContent */\n      dup2\n        /* \"contract/XProof.sol\":3619:3637  newContent.creator */\n      0x00\n      add\n      0x00\n        /* \"contract/XProof.sol\":3619:3650  newContent.creator = msg.sender */\n      0x0100\n      exp\n      dup2\n      sload\n      dup2\n      0xffffffffffffffffffffffffffffffffffffffff\n      mul\n      not\n      and\n      swap1\n      dup4\n      0xffffffffffffffffffffffffffffffffffffffff\n      and\n      mul\n      or\n      swap1\n      sstore\n      pop\n        /* \"contract/XProof.sol\":3679:3684  title */\n      dup4\n        /* \"contract/XProof.sol\":3660:3670  newContent */\n      dup2\n        /* \"contract/XProof.sol\":3660:3676  newContent.title */\n      0x01\n      add\n        /* \"contract/XProof.sol\":3660:3684  newContent.title = title */\n      swap1\n      dup2\n      tag_188\n      swap2\n      swap1\n      tag_189\n      jump\t// in\n    tag_188:\n      pop\n        /* \"contract/XProof.sol\":3719:3730  description */\n      dup3\n        /* \"contract/XProof.sol\":3694:3704  newContent */\n      dup2\n        /* \"contract/XProof.sol\":3694:3716  newContent.description */\n      0x02\n      add\n        /* \"contract/XProof.sol\":3694:3730  newContent.description = description */\n      swap1\n      dup2\n      tag_190\n      swap2\n      swap1\n      tag_189\n      jump\t// in\n    tag_190:\n      pop\n        /* \"contract/XProof.sol\":3763:3778  block.timestamp */\n      timestamp\n        /* \"contract/XProof.sol\":3740:3750  newContent */\n      dup2\n        /* \"contract/XProof.sol\":3740:3760  newContent.timestamp */\n      0x03\n      add\n        /* \"contract/XProof.sol\":3740:3778  newContent.timestamp = block.timestamp */\n      dup2\n      swap1\n      sstore\n      pop\n        /* \"contract/XProof.sol\":3808:3832  ContentStatus.Unverified */\n      0x00\n        /* \"contract/XProof.sol\":3788:3798  newContent */\n      dup2\n        /* \"contract/XProof.sol\":3788:3805  newContent.status */\n      0x04\n      add\n      0x00\n        /* \"contract/XProof.sol\":3788:3832  newContent.status = ContentStatus.Unverified */\n      0x0100\n      exp\n      dup2\n      sload\n      dup2\n      0xff\n      mul\n      not\n      and\n      swap1\n      dup4\n      0x01\n      dup2\n      gt\n      iszero\n      tag_191\n      jumpi\n      tag_192\n      tag_139\n      jump\t// in\n    tag_192:\n    tag_191:\n      mul\n      or\n      swap1\n      sstore\n      pop\n        /* \"contract/XProof.sol\":3843:3857  userContentIds */\n      0x04\n        /* \"contract/XProof.sol\":3843:3869  userContentIds[msg.sender] */\n      0x00\n        /* \"contract/XProof.sol\":3858:3868  msg.sender */\n      caller\n        /* \"contract/XProof.sol\":3843:3869  userContentIds[msg.sender] */\n      0xffffffffffffffffffffffffffffffffffffffff\n      and\n      0xffffffffffffffffffffffffffffffffffffffff\n      and\n      dup2\n      mstore\n      0x20\n      add\n      swap1\n      dup2\n      mstore\n      0x20\n      add\n      0x00\n      keccak256\n        /* \"contract/XProof.sol\":3875:3884  contentId */\n      dup3\n        /* \"contract/XProof.sol\":3843:3885  userContentIds[msg.sender].push(contentId) */\n      swap1\n      dup1\n      0x01\n      dup2\n      sload\n      add\n      dup1\n      dup3\n      sstore\n      dup1\n      swap2\n      pop\n      pop\n      0x01\n      swap1\n      sub\n      swap1\n      0x00\n      mstore\n      keccak256(0x00, 0x20)\n      add\n      0x00\n      swap1\n      swap2\n      swap1\n      swap2\n      swap1\n      swap2\n      pop\n      sstore\n        /* \"contract/XProof.sol\":3954:3963  contentId */\n      dup2\n        /* \"contract/XProof.sol\":3930:3940  msg.sender */\n      caller\n        /* \"contract/XProof.sol\":3901:4056  ContentUploaded(... */\n      0xffffffffffffffffffffffffffffffffffffffff\n      and\n      0xef9bb80da46315f206c1d36c494217072b7bf89dbdec9e2851d4ee60c6be336f\n        /* \"contract/XProof.sol\":3977:3992  block.timestamp */\n      timestamp\n        /* \"contract/XProof.sol\":4006:4030  ContentStatus.Unverified */\n      0x00\n        /* \"contract/XProof.sol\":3901:4056  ContentUploaded(... */\n      mload(0x40)\n      tag_194\n      swap3\n      swap2\n      swap1\n      tag_195\n      jump\t// in\n    tag_194:\n      mload(0x40)\n      dup1\n      swap2\n      sub\n      swap1\n      log3\n        /* \"contract/XProof.sol\":3356:4063  {... */\n      pop\n      pop\n        /* \"contract/XProof.sol\":3244:4063  function uploadContent(string memory title, string memory description)... */\n      pop\n      pop\n      jump\t// out\n        /* \"contract/XProof.sol\":5235:5388  function useLicense(uint256 contentId) public onlyLicensee(contentId) {... */\n    tag_65:\n        /* \"contract/XProof.sol\":5294:5303  contentId */\n      dup1\n        /* \"contract/XProof.sol\":2433:2449  contentLicensees */\n      0x05\n        /* \"contract/XProof.sol\":2433:2460  contentLicensees[contentId] */\n      0x00\n        /* \"contract/XProof.sol\":2450:2459  contentId */\n      dup3\n        /* \"contract/XProof.sol\":2433:2460  contentLicensees[contentId] */\n      dup2\n      mstore\n      0x20\n      add\n      swap1\n      dup2\n      mstore\n      0x20\n      add\n      0x00\n      keccak256\n        /* \"contract/XProof.sol\":2433:2472  contentLicensees[contentId][msg.sender] */\n      0x00\n        /* \"contract/XProof.sol\":2461:2471  msg.sender */\n      caller\n        /* \"contract/XProof.sol\":2433:2472  contentLicensees[contentId][msg.sender] */\n      0xffffffffffffffffffffffffffffffffffffffff\n      and\n      0xffffffffffffffffffffffffffffffffffffffff\n      and\n      dup2\n      mstore\n      0x20\n      add\n      swap1\n      dup2\n      mstore\n      0x20\n      add\n      0x00\n      keccak256\n      0x00\n      swap1\n      sload\n      swap1\n      0x0100\n      exp\n      swap1\n      div\n      0xff\n      and\n        /* \"contract/XProof.sol\":2412:2546  require(... */\n      tag_197\n      jumpi\n      mload(0x40)\n      0x08c379a000000000000000000000000000000000000000000000000000000000\n      dup2\n      mstore\n      0x04\n      add\n      tag_198\n      swap1\n      tag_199\n      jump\t// in\n    tag_198:\n      mload(0x40)\n      dup1\n      swap2\n      sub\n      swap1\n      revert\n    tag_197:\n        /* \"contract/XProof.sol\":5343:5353  msg.sender */\n      caller\n        /* \"contract/XProof.sol\":5320:5381  LicenseUsed(contentId, msg.sender, contents[contentId].title) */\n      0xffffffffffffffffffffffffffffffffffffffff\n      and\n        /* \"contract/XProof.sol\":5332:5341  contentId */\n      dup3\n        /* \"contract/XProof.sol\":5320:5381  LicenseUsed(contentId, msg.sender, contents[contentId].title) */\n      0x2a5bc347297320b19b7d9df75456f5e8d02660e2b9efb6a88432a06cae2aac9d\n        /* \"contract/XProof.sol\":5355:5363  contents */\n      0x03\n        /* \"contract/XProof.sol\":5355:5374  contents[contentId] */\n      0x00\n        /* \"contract/XProof.sol\":5364:5373  contentId */\n      dup7\n        /* \"contract/XProof.sol\":5355:5374  contents[contentId] */\n      dup2\n      mstore\n      0x20\n      add\n      swap1\n      dup2\n      mstore\n      0x20\n      add\n      0x00\n      keccak256\n        /* \"contract/XProof.sol\":5355:5380  contents[contentId].title */\n      0x01\n      add\n        /* \"contract/XProof.sol\":5320:5381  LicenseUsed(contentId, msg.sender, contents[contentId].title) */\n      mload(0x40)\n      tag_201\n      swap2\n      swap1\n      tag_163\n      jump\t// in\n    tag_201:\n      mload(0x40)\n      dup1\n      swap2\n      sub\n      swap1\n      log3\n        /* \"contract/XProof.sol\":5235:5388  function useLicense(uint256 contentId) public onlyLicensee(contentId) {... */\n      pop\n      pop\n      jump\t// out\n        /* \"contract/XProof.sol\":3171:3238  function unpause() public onlyOwner {... */\n    tag_67:\n        /* \"@openzeppelin/contracts/access/Ownable.sol\":1094:1107  _checkOwner() */\n      tag_203\n        /* \"@openzeppelin/contracts/access/Ownable.sol\":1094:1105  _checkOwner */\n      tag_132\n        /* \"@openzeppelin/contracts/access/Ownable.sol\":1094:1107  _checkOwner() */\n      jump\t// in\n    tag_203:\n        /* \"contract/XProof.sol\":3226:3231  false */\n      0x00\n        /* \"contract/XProof.sol\":3217:3223  paused */\n      0x0a\n      0x00\n        /* \"contract/XProof.sol\":3217:3231  paused = false */\n      0x0100\n      exp\n      dup2\n      sload\n      dup2\n      0xff\n      mul\n      not\n      and\n      swap1\n      dup4\n      iszero\n      iszero\n      mul\n      or\n      swap1\n      sstore\n      pop\n        /* \"contract/XProof.sol\":3171:3238  function unpause() public onlyOwner {... */\n      jump\t// out\n        /* \"contract/XProof.sol\":3076:3094  bool public paused */\n    tag_69:\n      0x0a\n      0x00\n      swap1\n      sload\n      swap1\n      0x0100\n      exp\n      swap1\n      div\n      0xff\n      and\n      dup2\n      jump\t// out\n        /* \"contract/XProof.sol\":6722:6971  function grantLicense(uint256 contentId, address licensee)... */\n    tag_74:\n        /* \"contract/XProof.sol\":6816:6825  contentId */\n      dup2\n        /* \"contract/XProof.sol\":2880:2890  msg.sender */\n      caller\n        /* \"contract/XProof.sol\":2849:2890  contents[contentId].creator == msg.sender */\n      0xffffffffffffffffffffffffffffffffffffffff\n      and\n        /* \"contract/XProof.sol\":2849:2857  contents */\n      0x03\n        /* \"contract/XProof.sol\":2849:2868  contents[contentId] */\n      0x00\n        /* \"contract/XProof.sol\":2858:2867  contentId */\n      dup4\n        /* \"contract/XProof.sol\":2849:2868  contents[contentId] */\n      dup2\n      mstore\n      0x20\n      add\n      swap1\n      dup2\n      mstore\n      0x20\n      add\n      0x00\n      keccak256\n        /* \"contract/XProof.sol\":2849:2876  contents[contentId].creator */\n      0x00\n      add\n      0x00\n      swap1\n      sload\n      swap1\n      0x0100\n      exp\n      swap1\n      div\n      0xffffffffffffffffffffffffffffffffffffffff\n      and\n        /* \"contract/XProof.sol\":2849:2890  contents[contentId].creator == msg.sender */\n      0xffffffffffffffffffffffffffffffffffffffff\n      and\n      eq\n        /* \"contract/XProof.sol\":2828:2955  require(... */\n      tag_206\n      jumpi\n      mload(0x40)\n      0x08c379a000000000000000000000000000000000000000000000000000000000\n      dup2\n      mstore\n      0x04\n      add\n      tag_207\n      swap1\n      tag_208\n      jump\t// in\n    tag_207:\n      mload(0x40)\n      dup1\n      swap2\n      sub\n      swap1\n      revert\n    tag_206:\n        /* \"contract/XProof.sol\":6881:6885  true */\n      0x01\n        /* \"contract/XProof.sol\":6841:6857  contentLicensees */\n      0x05\n        /* \"contract/XProof.sol\":6841:6868  contentLicensees[contentId] */\n      0x00\n        /* \"contract/XProof.sol\":6858:6867  contentId */\n      dup6\n        /* \"contract/XProof.sol\":6841:6868  contentLicensees[contentId] */\n      dup2\n      mstore\n      0x20\n      add\n      swap1\n      dup2\n      mstore\n      0x20\n      add\n      0x00\n      keccak256\n        /* \"contract/XProof.sol\":6841:6878  contentLicensees[contentId][licensee] */\n      0x00\n        /* \"contract/XProof.sol\":6869:6877  licensee */\n      dup5\n        /* \"contract/XProof.sol\":6841:6878  contentLicensees[contentId][licensee] */\n      0xffffffffffffffffffffffffffffffffffffffff\n      and\n      0xffffffffffffffffffffffffffffffffffffffff\n      and\n      dup2\n      mstore\n      0x20\n      add\n      swap1\n      dup2\n      mstore\n      0x20\n      add\n      0x00\n      keccak256\n      0x00\n        /* \"contract/XProof.sol\":6841:6885  contentLicensees[contentId][licensee] = true */\n      0x0100\n      exp\n      dup2\n      sload\n      dup2\n      0xff\n      mul\n      not\n      and\n      swap1\n      dup4\n      iszero\n      iszero\n      mul\n      or\n      swap1\n      sstore\n      pop\n        /* \"contract/XProof.sol\":6928:6936  licensee */\n      dup2\n        /* \"contract/XProof.sol\":6900:6964  LicensePurchased(contentId, licensee, contents[contentId].title) */\n      0xffffffffffffffffffffffffffffffffffffffff\n      and\n        /* \"contract/XProof.sol\":6917:6926  contentId */\n      dup4\n        /* \"contract/XProof.sol\":6900:6964  LicensePurchased(contentId, licensee, contents[contentId].title) */\n      0xe6ac684b05c889713c90ae79d1e12df895cfe074e63697374f7d9d3d195b9d01\n        /* \"contract/XProof.sol\":6938:6946  contents */\n      0x03\n        /* \"contract/XProof.sol\":6938:6957  contents[contentId] */\n      0x00\n        /* \"contract/XProof.sol\":6947:6956  contentId */\n      dup8\n        /* \"contract/XProof.sol\":6938:6957  contents[contentId] */\n      dup2\n      mstore\n      0x20\n      add\n      swap1\n      dup2\n      mstore\n      0x20\n      add\n      0x00\n      keccak256\n        /* \"contract/XProof.sol\":6938:6963  contents[contentId].title */\n      0x01\n      add\n        /* \"contract/XProof.sol\":6900:6964  LicensePurchased(contentId, licensee, contents[contentId].title) */\n      mload(0x40)\n      tag_210\n      swap2\n      swap1\n      tag_163\n      jump\t// in\n    tag_210:\n      mload(0x40)\n      dup1\n      swap2\n      sub\n      swap1\n      log3\n        /* \"contract/XProof.sol\":6722:6971  function grantLicense(uint256 contentId, address licensee)... */\n      pop\n      pop\n      pop\n      jump\t// out\n        /* \"@openzeppelin/contracts/access/Ownable.sol\":1824:1925  function renounceOwnership() public virtual onlyOwner {... */\n    tag_76:\n        /* \"@openzeppelin/contracts/access/Ownable.sol\":1094:1107  _checkOwner() */\n      tag_212\n        /* \"@openzeppelin/contracts/access/Ownable.sol\":1094:1105  _checkOwner */\n      tag_132\n        /* \"@openzeppelin/contracts/access/Ownable.sol\":1094:1107  _checkOwner() */\n      jump\t// in\n    tag_212:\n        /* \"@openzeppelin/contracts/access/Ownable.sol\":1888:1918  _transferOwnership(address(0)) */\n      tag_214\n        /* \"@openzeppelin/contracts/access/Ownable.sol\":1915:1916  0 */\n      0x00\n        /* \"@openzeppelin/contracts/access/Ownable.sol\":1888:1906  _transferOwnership */\n      tag_215\n        /* \"@openzeppelin/contracts/access/Ownable.sol\":1888:1918  _transferOwnership(address(0)) */\n      jump\t// in\n    tag_214:\n        /* \"@openzeppelin/contracts/access/Ownable.sol\":1824:1925  function renounceOwnership() public virtual onlyOwner {... */\n      jump\t// out\n        /* \"contract/XProof.sol\":2107:2134  uint256 public maxVotes = 3 */\n    tag_78:\n      sload(0x08)\n      dup2\n      jump\t// out\n        /* \"contract/XProof.sol\":3101:3165  function pause() public onlyOwner {... */\n    tag_81:\n        /* \"@openzeppelin/contracts/access/Ownable.sol\":1094:1107  _checkOwner() */\n      tag_217\n        /* \"@openzeppelin/contracts/access/Ownable.sol\":1094:1105  _checkOwner */\n      tag_132\n        /* \"@openzeppelin/contracts/access/Ownable.sol\":1094:1107  _checkOwner() */\n      jump\t// in\n    tag_217:\n        /* \"contract/XProof.sol\":3154:3158  true */\n      0x01\n        /* \"contract/XProof.sol\":3145:3151  paused */\n      0x0a\n      0x00\n        /* \"contract/XProof.sol\":3145:3158  paused = true */\n      0x0100\n      exp\n      dup2\n      sload\n      dup2\n      0xff\n      mul\n      not\n      and\n      swap1\n      dup4\n      iszero\n      iszero\n      mul\n      or\n      swap1\n      sstore\n      pop\n        /* \"contract/XProof.sol\":3101:3165  function pause() public onlyOwner {... */\n      jump\t// out\n        /* \"@openzeppelin/contracts/access/Ownable.sol\":1201:1286  function owner() public view virtual returns (address) {... */\n    tag_83:\n        /* \"@openzeppelin/contracts/access/Ownable.sol\":1247:1254  address */\n      0x00\n        /* \"@openzeppelin/contracts/access/Ownable.sol\":1273:1279  _owner */\n      dup1\n      0x00\n      swap1\n      sload\n      swap1\n      0x0100\n      exp\n      swap1\n      div\n      0xffffffffffffffffffffffffffffffffffffffff\n      and\n        /* \"@openzeppelin/contracts/access/Ownable.sol\":1266:1279  return _owner */\n      swap1\n      pop\n        /* \"@openzeppelin/contracts/access/Ownable.sol\":1201:1286  function owner() public view virtual returns (address) {... */\n      swap1\n      jump\t// out\n        /* \"contract/XProof.sol\":7217:7913  function voteForVerification(uint256 contentId) public {... */\n    tag_88:\n        /* \"contract/XProof.sol\":7282:7305  Content storage content */\n      0x00\n        /* \"contract/XProof.sol\":7308:7316  contents */\n      0x03\n        /* \"contract/XProof.sol\":7308:7327  contents[contentId] */\n      0x00\n        /* \"contract/XProof.sol\":7317:7326  contentId */\n      dup4\n        /* \"contract/XProof.sol\":7308:7327  contents[contentId] */\n      dup2\n      mstore\n      0x20\n      add\n      swap1\n      dup2\n      mstore\n      0x20\n      add\n      0x00\n      keccak256\n        /* \"contract/XProof.sol\":7282:7327  Content storage content = contents[contentId] */\n      swap1\n      pop\n        /* \"contract/XProof.sol\":7372:7373  0 */\n      0x00\n        /* \"contract/XProof.sol\":7345:7374  content.creator != address(0) */\n      0xffffffffffffffffffffffffffffffffffffffff\n      and\n        /* \"contract/XProof.sol\":7345:7352  content */\n      dup2\n        /* \"contract/XProof.sol\":7345:7360  content.creator */\n      0x00\n      add\n      0x00\n      swap1\n      sload\n      swap1\n      0x0100\n      exp\n      swap1\n      div\n      0xffffffffffffffffffffffffffffffffffffffff\n      and\n        /* \"contract/XProof.sol\":7345:7374  content.creator != address(0) */\n      0xffffffffffffffffffffffffffffffffffffffff\n      and\n      sub\n        /* \"contract/XProof.sol\":7337:7401  require(content.creator != address(0), \"Content does not exist\") */\n      tag_221\n      jumpi\n      mload(0x40)\n      0x08c379a000000000000000000000000000000000000000000000000000000000\n      dup2\n      mstore\n      0x04\n      add\n      tag_222\n      swap1\n      tag_136\n      jump\t// in\n    tag_222:\n      mload(0x40)\n      dup1\n      swap2\n      sub\n      swap1\n      revert\n    tag_221:\n        /* \"contract/XProof.sol\":7450:7474  ContentStatus.Unverified */\n      0x00\n        /* \"contract/XProof.sol\":7432:7474  content.status == ContentStatus.Unverified */\n      0x01\n      dup2\n      gt\n      iszero\n      tag_223\n      jumpi\n      tag_224\n      tag_139\n      jump\t// in\n    tag_224:\n    tag_223:\n        /* \"contract/XProof.sol\":7432:7439  content */\n      dup2\n        /* \"contract/XProof.sol\":7432:7446  content.status */\n      0x04\n      add\n      0x00\n      swap1\n      sload\n      swap1\n      0x0100\n      exp\n      swap1\n      div\n      0xff\n      and\n        /* \"contract/XProof.sol\":7432:7474  content.status == ContentStatus.Unverified */\n      0x01\n      dup2\n      gt\n      iszero\n      tag_225\n      jumpi\n      tag_226\n      tag_139\n      jump\t// in\n    tag_226:\n    tag_225:\n      eq\n        /* \"contract/XProof.sol\":7411:7527  require(... */\n      tag_227\n      jumpi\n      mload(0x40)\n      0x08c379a000000000000000000000000000000000000000000000000000000000\n      dup2\n      mstore\n      0x04\n      add\n      tag_228\n      swap1\n      tag_229\n      jump\t// in\n    tag_228:\n      mload(0x40)\n      dup1\n      swap2\n      sub\n      swap1\n      revert\n    tag_227:\n        /* \"contract/XProof.sol\":7546:7553  content */\n      dup1\n        /* \"contract/XProof.sol\":7546:7563  content.verifiers */\n      0x06\n      add\n        /* \"contract/XProof.sol\":7546:7575  content.verifiers[msg.sender] */\n      0x00\n        /* \"contract/XProof.sol\":7564:7574  msg.sender */\n      caller\n        /* \"contract/XProof.sol\":7546:7575  content.verifiers[msg.sender] */\n      0xffffffffffffffffffffffffffffffffffffffff\n      and\n      0xffffffffffffffffffffffffffffffffffffffff\n      and\n      dup2\n      mstore\n      0x20\n      add\n      swap1\n      dup2\n      mstore\n      0x20\n      add\n      0x00\n      keccak256\n      0x00\n      swap1\n      sload\n      swap1\n      0x0100\n      exp\n      swap1\n      div\n      0xff\n      and\n        /* \"contract/XProof.sol\":7545:7575  !content.verifiers[msg.sender] */\n      iszero\n        /* \"contract/XProof.sol\":7537:7602  require(!content.verifiers[msg.sender], \"You have already voted\") */\n      tag_230\n      jumpi\n      mload(0x40)\n      0x08c379a000000000000000000000000000000000000000000000000000000000\n      dup2\n      mstore\n      0x04\n      add\n      tag_231\n      swap1\n      tag_232\n      jump\t// in\n    tag_231:\n      mload(0x40)\n      dup1\n      swap2\n      sub\n      swap1\n      revert\n    tag_230:\n        /* \"contract/XProof.sol\":7645:7649  true */\n      0x01\n        /* \"contract/XProof.sol\":7613:7620  content */\n      dup2\n        /* \"contract/XProof.sol\":7613:7630  content.verifiers */\n      0x06\n      add\n        /* \"contract/XProof.sol\":7613:7642  content.verifiers[msg.sender] */\n      0x00\n        /* \"contract/XProof.sol\":7631:7641  msg.sender */\n      caller\n        /* \"contract/XProof.sol\":7613:7642  content.verifiers[msg.sender] */\n      0xffffffffffffffffffffffffffffffffffffffff\n      and\n      0xffffffffffffffffffffffffffffffffffffffff\n      and\n      dup2\n      mstore\n      0x20\n      add\n      swap1\n      dup2\n      mstore\n      0x20\n      add\n      0x00\n      keccak256\n      0x00\n        /* \"contract/XProof.sol\":7613:7649  content.verifiers[msg.sender] = true */\n      0x0100\n      exp\n      dup2\n      sload\n      dup2\n      0xff\n      mul\n      not\n      and\n      swap1\n      dup4\n      iszero\n      iszero\n      mul\n      or\n      swap1\n      sstore\n      pop\n        /* \"contract/XProof.sol\":7659:7666  content */\n      dup1\n        /* \"contract/XProof.sol\":7659:7672  content.votes */\n      0x07\n      add\n      0x00\n        /* \"contract/XProof.sol\":7659:7674  content.votes++ */\n      dup2\n      sload\n      dup1\n      swap3\n      swap2\n      swap1\n      tag_233\n      swap1\n      tag_161\n      jump\t// in\n    tag_233:\n      swap2\n      swap1\n      pop\n      sstore\n      pop\n        /* \"contract/XProof.sol\":7710:7720  msg.sender */\n      caller\n        /* \"contract/XProof.sol\":7690:7736  VoteCast(contentId, msg.sender, content.votes) */\n      0xffffffffffffffffffffffffffffffffffffffff\n      and\n        /* \"contract/XProof.sol\":7699:7708  contentId */\n      dup3\n        /* \"contract/XProof.sol\":7690:7736  VoteCast(contentId, msg.sender, content.votes) */\n      0x2acce567deca3aabf56327adbb4524bd5318936eaefa69e3a5208ffda0cfec09\n        /* \"contract/XProof.sol\":7722:7729  content */\n      dup4\n        /* \"contract/XProof.sol\":7722:7735  content.votes */\n      0x07\n      add\n      sload\n        /* \"contract/XProof.sol\":7690:7736  VoteCast(contentId, msg.sender, content.votes) */\n      mload(0x40)\n      tag_234\n      swap2\n      swap1\n      tag_43\n      jump\t// in\n    tag_234:\n      mload(0x40)\n      dup1\n      swap2\n      sub\n      swap1\n      log3\n        /* \"contract/XProof.sol\":7768:7769  3 */\n      0x03\n        /* \"contract/XProof.sol\":7751:7758  content */\n      dup2\n        /* \"contract/XProof.sol\":7751:7764  content.votes */\n      0x07\n      add\n      sload\n        /* \"contract/XProof.sol\":7751:7769  content.votes >= 3 */\n      lt\n        /* \"contract/XProof.sol\":7747:7907  if (content.votes >= 3) {... */\n      tag_235\n      jumpi\n        /* \"contract/XProof.sol\":7802:7824  ContentStatus.Verified */\n      0x01\n        /* \"contract/XProof.sol\":7785:7792  content */\n      dup2\n        /* \"contract/XProof.sol\":7785:7799  content.status */\n      0x04\n      add\n      0x00\n        /* \"contract/XProof.sol\":7785:7824  content.status = ContentStatus.Verified */\n      0x0100\n      exp\n      dup2\n      sload\n      dup2\n      0xff\n      mul\n      not\n      and\n      swap1\n      dup4\n      0x01\n      dup2\n      gt\n      iszero\n      tag_236\n      jumpi\n      tag_237\n      tag_139\n      jump\t// in\n    tag_237:\n    tag_236:\n      mul\n      or\n      swap1\n      sstore\n      pop\n        /* \"contract/XProof.sol\":7870:7880  msg.sender */\n      caller\n        /* \"contract/XProof.sol\":7843:7896  ContentVerified(contentId, msg.sender, content.title) */\n      0xffffffffffffffffffffffffffffffffffffffff\n      and\n        /* \"contract/XProof.sol\":7859:7868  contentId */\n      dup3\n        /* \"contract/XProof.sol\":7843:7896  ContentVerified(contentId, msg.sender, content.title) */\n      0x13051e52e773c6237b9e19fc0ae74b0c150cb6357b286ffeef34cbb32d1213ab\n        /* \"contract/XProof.sol\":7882:7889  content */\n      dup4\n        /* \"contract/XProof.sol\":7882:7895  content.title */\n      0x01\n      add\n        /* \"contract/XProof.sol\":7843:7896  ContentVerified(contentId, msg.sender, content.title) */\n      mload(0x40)\n      tag_238\n      swap2\n      swap1\n      tag_163\n      jump\t// in\n    tag_238:\n      mload(0x40)\n      dup1\n      swap2\n      sub\n      swap1\n      log3\n        /* \"contract/XProof.sol\":7747:7907  if (content.votes >= 3) {... */\n    tag_235:\n        /* \"contract/XProof.sol\":7272:7913  {... */\n      pop\n        /* \"contract/XProof.sol\":7217:7913  function voteForVerification(uint256 contentId) public {... */\n      pop\n      jump\t// out\n        /* \"contract/XProof.sol\":8735:8842  function getReputation(address user) public view returns (uint256) {... */\n    tag_92:\n        /* \"contract/XProof.sol\":8793:8800  uint256 */\n      0x00\n        /* \"contract/XProof.sol\":8819:8829  reputation */\n      0x06\n        /* \"contract/XProof.sol\":8819:8835  reputation[user] */\n      0x00\n        /* \"contract/XProof.sol\":8830:8834  user */\n      dup4\n        /* \"contract/XProof.sol\":8819:8835  reputation[user] */\n      0xffffffffffffffffffffffffffffffffffffffff\n      and\n      0xffffffffffffffffffffffffffffffffffffffff\n      and\n      dup2\n      mstore\n      0x20\n      add\n      swap1\n      dup2\n      mstore\n      0x20\n      add\n      0x00\n      keccak256\n      sload\n        /* \"contract/XProof.sol\":8812:8835  return reputation[user] */\n      swap1\n      pop\n        /* \"contract/XProof.sol\":8735:8842  function getReputation(address user) public view returns (uint256) {... */\n      swap2\n      swap1\n      pop\n      jump\t// out\n        /* \"contract/XProof.sol\":6977:7211  function revokeLicense(uint256 contentId, address licensee)... */\n    tag_96:\n        /* \"contract/XProof.sol\":7072:7081  contentId */\n      dup2\n        /* \"contract/XProof.sol\":2880:2890  msg.sender */\n      caller\n        /* \"contract/XProof.sol\":2849:2890  contents[contentId].creator == msg.sender */\n      0xffffffffffffffffffffffffffffffffffffffff\n      and\n        /* \"contract/XProof.sol\":2849:2857  contents */\n      0x03\n        /* \"contract/XProof.sol\":2849:2868  contents[contentId] */\n      0x00\n        /* \"contract/XProof.sol\":2858:2867  contentId */\n      dup4\n        /* \"contract/XProof.sol\":2849:2868  contents[contentId] */\n      dup2\n      mstore\n      0x20\n      add\n      swap1\n      dup2\n      mstore\n      0x20\n      add\n      0x00\n      keccak256\n        /* \"contract/XProof.sol\":2849:2876  contents[contentId].creator */\n      0x00\n      add\n      0x00\n      swap1\n      sload\n      swap1\n      0x0100\n      exp\n      swap1\n      div\n      0xffffffffffffffffffffffffffffffffffffffff\n      and\n        /* \"contract/XProof.sol\":2849:2890  contents[contentId].creator == msg.sender */\n      0xffffffffffffffffffffffffffffffffffffffff\n      and\n      eq\n        /* \"contract/XProof.sol\":2828:2955  require(... */\n      tag_241\n      jumpi\n      mload(0x40)\n      0x08c379a000000000000000000000000000000000000000000000000000000000\n      dup2\n      mstore\n      0x04\n      add\n      tag_242\n      swap1\n      tag_208\n      jump\t// in\n    tag_242:\n      mload(0x40)\n      dup1\n      swap2\n      sub\n      swap1\n      revert\n    tag_241:\n        /* \"contract/XProof.sol\":7137:7142  false */\n      0x00\n        /* \"contract/XProof.sol\":7097:7113  contentLicensees */\n      0x05\n        /* \"contract/XProof.sol\":7097:7124  contentLicensees[contentId] */\n      0x00\n        /* \"contract/XProof.sol\":7114:7123  contentId */\n      dup6\n        /* \"contract/XProof.sol\":7097:7124  contentLicensees[contentId] */\n      dup2\n      mstore\n      0x20\n      add\n      swap1\n      dup2\n      mstore\n      0x20\n      add\n      0x00\n      keccak256\n        /* \"contract/XProof.sol\":7097:7134  contentLicensees[contentId][licensee] */\n      0x00\n        /* \"contract/XProof.sol\":7125:7133  licensee */\n      dup5\n        /* \"contract/XProof.sol\":7097:7134  contentLicensees[contentId][licensee] */\n      0xffffffffffffffffffffffffffffffffffffffff\n      and\n      0xffffffffffffffffffffffffffffffffffffffff\n      and\n      dup2\n      mstore\n      0x20\n      add\n      swap1\n      dup2\n      mstore\n      0x20\n      add\n      0x00\n      keccak256\n      0x00\n        /* \"contract/XProof.sol\":7097:7142  contentLicensees[contentId][licensee] = false */\n      0x0100\n      exp\n      dup2\n      sload\n      dup2\n      0xff\n      mul\n      not\n      and\n      swap1\n      dup4\n      iszero\n      iszero\n      mul\n      or\n      swap1\n      sstore\n      pop\n        /* \"contract/XProof.sol\":7195:7203  licensee */\n      dup2\n        /* \"contract/XProof.sol\":7157:7204  LicenseRevoked(contentId, msg.sender, licensee) */\n      0xffffffffffffffffffffffffffffffffffffffff\n      and\n        /* \"contract/XProof.sol\":7183:7193  msg.sender */\n      caller\n        /* \"contract/XProof.sol\":7157:7204  LicenseRevoked(contentId, msg.sender, licensee) */\n      0xffffffffffffffffffffffffffffffffffffffff\n      and\n        /* \"contract/XProof.sol\":7172:7181  contentId */\n      dup5\n        /* \"contract/XProof.sol\":7157:7204  LicenseRevoked(contentId, msg.sender, licensee) */\n      0x58982691f8028698415b80190ad6b11bb594d64a5ad0fe9a1cec01e61c8afcdd\n      mload(0x40)\n      mload(0x40)\n      dup1\n      swap2\n      sub\n      swap1\n      log4\n        /* \"contract/XProof.sol\":6977:7211  function revokeLicense(uint256 contentId, address licensee)... */\n      pop\n      pop\n      pop\n      jump\t// out\n        /* \"contract/XProof.sol\":654:697  mapping(uint256 => Content) public contents */\n    tag_99:\n      mstore(0x20, 0x03)\n      dup1\n      0x00\n      mstore\n      keccak256(0x00, 0x40)\n      0x00\n      swap2\n      pop\n      swap1\n      pop\n      dup1\n      0x00\n      add\n      0x00\n      swap1\n      sload\n      swap1\n      0x0100\n      exp\n      swap1\n      div\n      0xffffffffffffffffffffffffffffffffffffffff\n      and\n      swap1\n      dup1\n      0x01\n      add\n      dup1\n      sload\n      tag_244\n      swap1\n      tag_245\n      jump\t// in\n    tag_244:\n      dup1\n      0x1f\n      add\n      0x20\n      dup1\n      swap2\n      div\n      mul\n      0x20\n      add\n      mload(0x40)\n      swap1\n      dup2\n      add\n      0x40\n      mstore\n      dup1\n      swap3\n      swap2\n      swap1\n      dup2\n      dup2\n      mstore\n      0x20\n      add\n      dup3\n      dup1\n      sload\n      tag_246\n      swap1\n      tag_245\n      jump\t// in\n    tag_246:\n      dup1\n      iszero\n      tag_247\n      jumpi\n      dup1\n      0x1f\n      lt\n      tag_248\n      jumpi\n      0x0100\n      dup1\n      dup4\n      sload\n      div\n      mul\n      dup4\n      mstore\n      swap2\n      0x20\n      add\n      swap2\n      jump(tag_247)\n    tag_248:\n      dup3\n      add\n      swap2\n      swap1\n      0x00\n      mstore\n      keccak256(0x00, 0x20)\n      swap1\n    tag_249:\n      dup2\n      sload\n      dup2\n      mstore\n      swap1\n      0x01\n      add\n      swap1\n      0x20\n      add\n      dup1\n      dup4\n      gt\n      tag_249\n      jumpi\n      dup3\n      swap1\n      sub\n      0x1f\n      and\n      dup3\n      add\n      swap2\n    tag_247:\n      pop\n      pop\n      pop\n      pop\n      pop\n      swap1\n      dup1\n      0x02\n      add\n      dup1\n      sload\n      tag_250\n      swap1\n      tag_245\n      jump\t// in\n    tag_250:\n      dup1\n      0x1f\n      add\n      0x20\n      dup1\n      swap2\n      div\n      mul\n      0x20\n      add\n      mload(0x40)\n      swap1\n      dup2\n      add\n      0x40\n      mstore\n      dup1\n      swap3\n      swap2\n      swap1\n      dup2\n      dup2\n      mstore\n      0x20\n      add\n      dup3\n      dup1\n      sload\n      tag_251\n      swap1\n      tag_245\n      jump\t// in\n    tag_251:\n      dup1\n      iszero\n      tag_252\n      jumpi\n      dup1\n      0x1f\n      lt\n      tag_253\n      jumpi\n      0x0100\n      dup1\n      dup4\n      sload\n      div\n      mul\n      dup4\n      mstore\n      swap2\n      0x20\n      add\n      swap2\n      jump(tag_252)\n    tag_253:\n      dup3\n      add\n      swap2\n      swap1\n      0x00\n      mstore\n      keccak256(0x00, 0x20)\n      swap1\n    tag_254:\n      dup2\n      sload\n      dup2\n      mstore\n      swap1\n      0x01\n      add\n      swap1\n      0x20\n      add\n      dup1\n      dup4\n      gt\n      tag_254\n      jumpi\n      dup3\n      swap1\n      sub\n      0x1f\n      and\n      dup3\n      add\n      swap2\n    tag_252:\n      pop\n      pop\n      pop\n      pop\n      pop\n      swap1\n      dup1\n      0x03\n      add\n      sload\n      swap1\n      dup1\n      0x04\n      add\n      0x00\n      swap1\n      sload\n      swap1\n      0x0100\n      exp\n      swap1\n      div\n      0xff\n      and\n      swap1\n      dup1\n      0x07\n      add\n      sload\n      swap1\n      pop\n      dup7\n      jump\t// out\n        /* \"contract/XProof.sol\":834:879  mapping(address => uint256) public reputation */\n    tag_104:\n      mstore(0x20, 0x06)\n      dup1\n      0x00\n      mstore\n      keccak256(0x00, 0x40)\n      0x00\n      swap2\n      pop\n      swap1\n      pop\n      sload\n      dup2\n      jump\t// out\n        /* \"contract/XProof.sol\":4570:5229  function purchaseLicense(uint256 contentId) public whenNotPaused {... */\n    tag_108:\n        /* \"contract/XProof.sol\":3023:3029  paused */\n      0x0a\n      0x00\n      swap1\n      sload\n      swap1\n      0x0100\n      exp\n      swap1\n      div\n      0xff\n      and\n        /* \"contract/XProof.sol\":3022:3029  !paused */\n      iszero\n        /* \"contract/XProof.sol\":3014:3052  require(!paused, \"Contract is paused\") */\n      tag_256\n      jumpi\n      mload(0x40)\n      0x08c379a000000000000000000000000000000000000000000000000000000000\n      dup2\n      mstore\n      0x04\n      add\n      tag_257\n      swap1\n      tag_181\n      jump\t// in\n    tag_257:\n      mload(0x40)\n      dup1\n      swap2\n      sub\n      swap1\n      revert\n    tag_256:\n        /* \"contract/XProof.sol\":4645:4668  Content storage content */\n      0x00\n        /* \"contract/XProof.sol\":4671:4679  contents */\n      0x03\n        /* \"contract/XProof.sol\":4671:4690  contents[contentId] */\n      0x00\n        /* \"contract/XProof.sol\":4680:4689  contentId */\n      dup4\n        /* \"contract/XProof.sol\":4671:4690  contents[contentId] */\n      dup2\n      mstore\n      0x20\n      add\n      swap1\n      dup2\n      mstore\n      0x20\n      add\n      0x00\n      keccak256\n        /* \"contract/XProof.sol\":4645:4690  Content storage content = contents[contentId] */\n      swap1\n      pop\n        /* \"contract/XProof.sol\":4735:4736  0 */\n      0x00\n        /* \"contract/XProof.sol\":4708:4737  content.creator != address(0) */\n      0xffffffffffffffffffffffffffffffffffffffff\n      and\n        /* \"contract/XProof.sol\":4708:4715  content */\n      dup2\n        /* \"contract/XProof.sol\":4708:4723  content.creator */\n      0x00\n      add\n      0x00\n      swap1\n      sload\n      swap1\n      0x0100\n      exp\n      swap1\n      div\n      0xffffffffffffffffffffffffffffffffffffffff\n      and\n        /* \"contract/XProof.sol\":4708:4737  content.creator != address(0) */\n      0xffffffffffffffffffffffffffffffffffffffff\n      and\n      sub\n        /* \"contract/XProof.sol\":4700:4764  require(content.creator != address(0), \"Content does not exist\") */\n      tag_259\n      jumpi\n      mload(0x40)\n      0x08c379a000000000000000000000000000000000000000000000000000000000\n      dup2\n      mstore\n      0x04\n      add\n      tag_260\n      swap1\n      tag_136\n      jump\t// in\n    tag_260:\n      mload(0x40)\n      dup1\n      swap2\n      sub\n      swap1\n      revert\n    tag_259:\n        /* \"contract/XProof.sol\":4813:4835  ContentStatus.Verified */\n      0x01\n        /* \"contract/XProof.sol\":4795:4835  content.status == ContentStatus.Verified */\n      dup1\n      dup2\n      gt\n      iszero\n      tag_261\n      jumpi\n      tag_262\n      tag_139\n      jump\t// in\n    tag_262:\n    tag_261:\n        /* \"contract/XProof.sol\":4795:4802  content */\n      dup2\n        /* \"contract/XProof.sol\":4795:4809  content.status */\n      0x04\n      add\n      0x00\n      swap1\n      sload\n      swap1\n      0x0100\n      exp\n      swap1\n      div\n      0xff\n      and\n        /* \"contract/XProof.sol\":4795:4835  content.status == ContentStatus.Verified */\n      0x01\n      dup2\n      gt\n      iszero\n      tag_263\n      jumpi\n      tag_264\n      tag_139\n      jump\t// in\n    tag_264:\n    tag_263:\n      eq\n        /* \"contract/XProof.sol\":4774:4907  require(... */\n      tag_265\n      jumpi\n      mload(0x40)\n      0x08c379a000000000000000000000000000000000000000000000000000000000\n      dup2\n      mstore\n      0x04\n      add\n      tag_266\n      swap1\n      tag_267\n      jump\t// in\n    tag_266:\n      mload(0x40)\n      dup1\n      swap2\n      sub\n      swap1\n      revert\n    tag_265:\n        /* \"contract/XProof.sol\":4926:4933  content */\n      dup1\n        /* \"contract/XProof.sol\":4926:4943  content.licensees */\n      0x05\n      add\n        /* \"contract/XProof.sol\":4926:4955  content.licensees[msg.sender] */\n      0x00\n        /* \"contract/XProof.sol\":4944:4954  msg.sender */\n      caller\n        /* \"contract/XProof.sol\":4926:4955  content.licensees[msg.sender] */\n      0xffffffffffffffffffffffffffffffffffffffff\n      and\n      0xffffffffffffffffffffffffffffffffffffffff\n      and\n      dup2\n      mstore\n      0x20\n      add\n      swap1\n      dup2\n      mstore\n      0x20\n      add\n      0x00\n      keccak256\n      0x00\n      swap1\n      sload\n      swap1\n      0x0100\n      exp\n      swap1\n      div\n      0xff\n      and\n        /* \"contract/XProof.sol\":4925:4955  !content.licensees[msg.sender] */\n      iszero\n        /* \"contract/XProof.sol\":4917:4985  require(!content.licensees[msg.sender], \"License already purchased\") */\n      tag_268\n      jumpi\n      mload(0x40)\n      0x08c379a000000000000000000000000000000000000000000000000000000000\n      dup2\n      mstore\n      0x04\n      add\n      tag_269\n      swap1\n      tag_270\n      jump\t// in\n    tag_269:\n      mload(0x40)\n      dup1\n      swap2\n      sub\n      swap1\n      revert\n    tag_268:\n        /* \"contract/XProof.sol\":4996:5001  token */\n      0x07\n      0x00\n      swap1\n      sload\n      swap1\n      0x0100\n      exp\n      swap1\n      div\n      0xffffffffffffffffffffffffffffffffffffffff\n      and\n        /* \"contract/XProof.sol\":4996:5014  token.transferFrom */\n      0xffffffffffffffffffffffffffffffffffffffff\n      and\n      0x23b872dd\n        /* \"contract/XProof.sol\":5015:5025  msg.sender */\n      caller\n        /* \"contract/XProof.sol\":5035:5039  this */\n      address\n        /* \"contract/XProof.sol\":5042:5049  1 ether */\n      0x0de0b6b3a7640000\n        /* \"contract/XProof.sol\":4996:5050  token.transferFrom(msg.sender, address(this), 1 ether) */\n      mload(0x40)\n      dup5\n      0xffffffff\n      and\n      0xe0\n      shl\n      dup2\n      mstore\n      0x04\n      add\n      tag_271\n      swap4\n      swap3\n      swap2\n      swap1\n      tag_272\n      jump\t// in\n    tag_271:\n      0x20\n      mload(0x40)\n      dup1\n      dup4\n      sub\n      dup2\n      0x00\n      dup8\n      gas\n      call\n      iszero\n      dup1\n      iszero\n      tag_274\n      jumpi\n      returndatasize\n      0x00\n      dup1\n      returndatacopy\n      revert(0x00, returndatasize)\n    tag_274:\n      pop\n      pop\n      pop\n      pop\n      mload(0x40)\n      returndatasize\n      not(0x1f)\n      0x1f\n      dup3\n      add\n      and\n      dup3\n      add\n      dup1\n      0x40\n      mstore\n      pop\n      dup2\n      add\n      swap1\n      tag_275\n      swap2\n      swap1\n      tag_276\n      jump\t// in\n    tag_275:\n      pop\n        /* \"contract/XProof.sol\":5092:5096  true */\n      0x01\n        /* \"contract/XProof.sol\":5060:5067  content */\n      dup2\n        /* \"contract/XProof.sol\":5060:5077  content.licensees */\n      0x05\n      add\n        /* \"contract/XProof.sol\":5060:5089  content.licensees[msg.sender] */\n      0x00\n        /* \"contract/XProof.sol\":5078:5088  msg.sender */\n      caller\n        /* \"contract/XProof.sol\":5060:5089  content.licensees[msg.sender] */\n      0xffffffffffffffffffffffffffffffffffffffff\n      and\n      0xffffffffffffffffffffffffffffffffffffffff\n      and\n      dup2\n      mstore\n      0x20\n      add\n      swap1\n      dup2\n      mstore\n      0x20\n      add\n      0x00\n      keccak256\n      0x00\n        /* \"contract/XProof.sol\":5060:5096  content.licensees[msg.sender] = true */\n      0x0100\n      exp\n      dup2\n      sload\n      dup2\n      0xff\n      mul\n      not\n      and\n      swap1\n      dup4\n      iszero\n      iszero\n      mul\n      or\n      swap1\n      sstore\n      pop\n        /* \"contract/XProof.sol\":5148:5152  true */\n      0x01\n        /* \"contract/XProof.sol\":5106:5122  contentLicensees */\n      0x05\n        /* \"contract/XProof.sol\":5106:5133  contentLicensees[contentId] */\n      0x00\n        /* \"contract/XProof.sol\":5123:5132  contentId */\n      dup5\n        /* \"contract/XProof.sol\":5106:5133  contentLicensees[contentId] */\n      dup2\n      mstore\n      0x20\n      add\n      swap1\n      dup2\n      mstore\n      0x20\n      add\n      0x00\n      keccak256\n        /* \"contract/XProof.sol\":5106:5145  contentLicensees[contentId][msg.sender] */\n      0x00\n        /* \"contract/XProof.sol\":5134:5144  msg.sender */\n      caller\n        /* \"contract/XProof.sol\":5106:5145  contentLicensees[contentId][msg.sender] */\n      0xffffffffffffffffffffffffffffffffffffffff\n      and\n      0xffffffffffffffffffffffffffffffffffffffff\n      and\n      dup2\n      mstore\n      0x20\n      add\n      swap1\n      dup2\n      mstore\n      0x20\n      add\n      0x00\n      keccak256\n      0x00\n        /* \"contract/XProof.sol\":5106:5152  contentLicensees[contentId][msg.sender] = true */\n      0x0100\n      exp\n      dup2\n      sload\n      dup2\n      0xff\n      mul\n      not\n      and\n      swap1\n      dup4\n      iszero\n      iszero\n      mul\n      or\n      swap1\n      sstore\n      pop\n        /* \"contract/XProof.sol\":5196:5206  msg.sender */\n      caller\n        /* \"contract/XProof.sol\":5168:5222  LicensePurchased(contentId, msg.sender, content.title) */\n      0xffffffffffffffffffffffffffffffffffffffff\n      and\n        /* \"contract/XProof.sol\":5185:5194  contentId */\n      dup3\n        /* \"contract/XProof.sol\":5168:5222  LicensePurchased(contentId, msg.sender, content.title) */\n      0xe6ac684b05c889713c90ae79d1e12df895cfe074e63697374f7d9d3d195b9d01\n        /* \"contract/XProof.sol\":5208:5215  content */\n      dup4\n        /* \"contract/XProof.sol\":5208:5221  content.title */\n      0x01\n      add\n        /* \"contract/XProof.sol\":5168:5222  LicensePurchased(contentId, msg.sender, content.title) */\n      mload(0x40)\n      tag_277\n      swap2\n      swap1\n      tag_163\n      jump\t// in\n    tag_277:\n      mload(0x40)\n      dup1\n      swap2\n      sub\n      swap1\n      log3\n        /* \"contract/XProof.sol\":4635:5229  {... */\n      pop\n        /* \"contract/XProof.sol\":4570:5229  function purchaseLicense(uint256 contentId) public whenNotPaused {... */\n      pop\n      jump\t// out\n        /* \"contract/XProof.sol\":760:828  mapping(uint256 => mapping(address => bool)) public contentLicensees */\n    tag_111:\n      mstore(0x20, 0x05)\n      dup2\n      0x00\n      mstore\n      mstore(0x20, keccak256(0x00, 0x40))\n      dup1\n      0x00\n      mstore\n      keccak256(0x00, 0x40)\n      0x00\n      swap2\n      pop\n      swap2\n      pop\n      swap1\n      sload\n      swap1\n      0x0100\n      exp\n      swap1\n      div\n      0xff\n      and\n      dup2\n      jump\t// out\n        /* \"contract/XProof.sol\":8003:8156  function setMaxVotes(uint256 newMax) public onlyOwner {... */\n    tag_115:\n        /* \"@openzeppelin/contracts/access/Ownable.sol\":1094:1107  _checkOwner() */\n      tag_279\n        /* \"@openzeppelin/contracts/access/Ownable.sol\":1094:1105  _checkOwner */\n      tag_132\n        /* \"@openzeppelin/contracts/access/Ownable.sol\":1094:1107  _checkOwner() */\n      jump\t// in\n    tag_279:\n        /* \"contract/XProof.sol\":8084:8085  0 */\n      0x00\n        /* \"contract/XProof.sol\":8075:8081  newMax */\n      dup2\n        /* \"contract/XProof.sol\":8075:8085  newMax > 0 */\n      gt\n        /* \"contract/XProof.sol\":8067:8122  require(newMax > 0, \"Max votes must be greater than 0\") */\n      tag_281\n      jumpi\n      mload(0x40)\n      0x08c379a000000000000000000000000000000000000000000000000000000000\n      dup2\n      mstore\n      0x04\n      add\n      tag_282\n      swap1\n      tag_283\n      jump\t// in\n    tag_282:\n      mload(0x40)\n      dup1\n      swap2\n      sub\n      swap1\n      revert\n    tag_281:\n        /* \"contract/XProof.sol\":8143:8149  newMax */\n      dup1\n        /* \"contract/XProof.sol\":8132:8140  maxVotes */\n      0x08\n        /* \"contract/XProof.sol\":8132:8149  maxVotes = newMax */\n      dup2\n      swap1\n      sstore\n      pop\n        /* \"contract/XProof.sol\":8003:8156  function setMaxVotes(uint256 newMax) public onlyOwner {... */\n      pop\n      jump\t// out\n        /* \"contract/XProof.sol\":5394:5573  function isLicenseValid(uint256 contentId, address licensee)... */\n    tag_118:\n        /* \"contract/XProof.sol\":5500:5504  bool */\n      0x00\n        /* \"contract/XProof.sol\":5527:5535  contents */\n      0x03\n        /* \"contract/XProof.sol\":5527:5546  contents[contentId] */\n      0x00\n        /* \"contract/XProof.sol\":5536:5545  contentId */\n      dup5\n        /* \"contract/XProof.sol\":5527:5546  contents[contentId] */\n      dup2\n      mstore\n      0x20\n      add\n      swap1\n      dup2\n      mstore\n      0x20\n      add\n      0x00\n      keccak256\n        /* \"contract/XProof.sol\":5527:5556  contents[contentId].licensees */\n      0x05\n      add\n        /* \"contract/XProof.sol\":5527:5566  contents[contentId].licensees[licensee] */\n      0x00\n        /* \"contract/XProof.sol\":5557:5565  licensee */\n      dup4\n        /* \"contract/XProof.sol\":5527:5566  contents[contentId].licensees[licensee] */\n      0xffffffffffffffffffffffffffffffffffffffff\n      and\n      0xffffffffffffffffffffffffffffffffffffffff\n      and\n      dup2\n      mstore\n      0x20\n      add\n      swap1\n      dup2\n      mstore\n      0x20\n      add\n      0x00\n      keccak256\n      0x00\n      swap1\n      sload\n      swap1\n      0x0100\n      exp\n      swap1\n      div\n      0xff\n      and\n        /* \"contract/XProof.sol\":5520:5566  return contents[contentId].licensees[licensee] */\n      swap1\n      pop\n        /* \"contract/XProof.sol\":5394:5573  function isLicenseValid(uint256 contentId, address licensee)... */\n      swap3\n      swap2\n      pop\n      pop\n      jump\t// out\n        /* \"@openzeppelin/contracts/access/Ownable.sol\":2074:2272  function transferOwnership(address newOwner) public virtual onlyOwner {... */\n    tag_122:\n        /* \"@openzeppelin/contracts/access/Ownable.sol\":1094:1107  _checkOwner() */\n      tag_286\n        /* \"@openzeppelin/contracts/access/Ownable.sol\":1094:1105  _checkOwner */\n      tag_132\n        /* \"@openzeppelin/contracts/access/Ownable.sol\":1094:1107  _checkOwner() */\n      jump\t// in\n    tag_286:\n        /* \"@openzeppelin/contracts/access/Ownable.sol\":2182:2183  0 */\n      0x00\n        /* \"@openzeppelin/contracts/access/Ownable.sol\":2162:2184  newOwner != address(0) */\n      0xffffffffffffffffffffffffffffffffffffffff\n      and\n        /* \"@openzeppelin/contracts/access/Ownable.sol\":2162:2170  newOwner */\n      dup2\n        /* \"@openzeppelin/contracts/access/Ownable.sol\":2162:2184  newOwner != address(0) */\n      0xffffffffffffffffffffffffffffffffffffffff\n      and\n      sub\n        /* \"@openzeppelin/contracts/access/Ownable.sol\":2154:2227  require(newOwner != address(0), \"Ownable: new owner is the zero address\") */\n      tag_288\n      jumpi\n      mload(0x40)\n      0x08c379a000000000000000000000000000000000000000000000000000000000\n      dup2\n      mstore\n      0x04\n      add\n      tag_289\n      swap1\n      tag_290\n      jump\t// in\n    tag_289:\n      mload(0x40)\n      dup1\n      swap2\n      sub\n      swap1\n      revert\n    tag_288:\n        /* \"@openzeppelin/contracts/access/Ownable.sol\":2237:2265  _transferOwnership(newOwner) */\n      tag_291\n        /* \"@openzeppelin/contracts/access/Ownable.sol\":2256:2264  newOwner */\n      dup2\n        /* \"@openzeppelin/contracts/access/Ownable.sol\":2237:2255  _transferOwnership */\n      tag_215\n        /* \"@openzeppelin/contracts/access/Ownable.sol\":2237:2265  _transferOwnership(newOwner) */\n      jump\t// in\n    tag_291:\n        /* \"@openzeppelin/contracts/access/Ownable.sol\":2074:2272  function transferOwnership(address newOwner) public virtual onlyOwner {... */\n      pop\n      jump\t// out\n        /* \"contract/XProof.sol\":886:905  IERC20 public token */\n    tag_124:\n      0x07\n      0x00\n      swap1\n      sload\n      swap1\n      0x0100\n      exp\n      swap1\n      div\n      0xffffffffffffffffffffffffffffffffffffffff\n      and\n      dup2\n      jump\t// out\n        /* \"contract/XProof.sol\":4069:4564  function verifyContent(uint256 contentId)... */\n    tag_129:\n        /* \"contract/XProof.sol\":4147:4156  contentId */\n      dup1\n        /* \"contract/XProof.sol\":2642:2650  contents */\n      0x03\n        /* \"contract/XProof.sol\":2642:2661  contents[contentId] */\n      0x00\n        /* \"contract/XProof.sol\":2651:2660  contentId */\n      dup3\n        /* \"contract/XProof.sol\":2642:2661  contents[contentId] */\n      dup2\n      mstore\n      0x20\n      add\n      swap1\n      dup2\n      mstore\n      0x20\n      add\n      0x00\n      keccak256\n        /* \"contract/XProof.sol\":2642:2671  contents[contentId].verifiers */\n      0x06\n      add\n        /* \"contract/XProof.sol\":2642:2683  contents[contentId].verifiers[msg.sender] */\n      0x00\n        /* \"contract/XProof.sol\":2672:2682  msg.sender */\n      caller\n        /* \"contract/XProof.sol\":2642:2683  contents[contentId].verifiers[msg.sender] */\n      0xffffffffffffffffffffffffffffffffffffffff\n      and\n      0xffffffffffffffffffffffffffffffffffffffff\n      and\n      dup2\n      mstore\n      0x20\n      add\n      swap1\n      dup2\n      mstore\n      0x20\n      add\n      0x00\n      keccak256\n      0x00\n      swap1\n      sload\n      swap1\n      0x0100\n      exp\n      swap1\n      div\n      0xff\n      and\n        /* \"contract/XProof.sol\":2621:2754  require(... */\n      tag_293\n      jumpi\n      mload(0x40)\n      0x08c379a000000000000000000000000000000000000000000000000000000000\n      dup2\n      mstore\n      0x04\n      add\n      tag_294\n      swap1\n      tag_295\n      jump\t// in\n    tag_294:\n      mload(0x40)\n      dup1\n      swap2\n      sub\n      swap1\n      revert\n    tag_293:\n        /* \"contract/XProof.sol\":3023:3029  paused */\n      0x0a\n      0x00\n      swap1\n      sload\n      swap1\n      0x0100\n      exp\n      swap1\n      div\n      0xff\n      and\n        /* \"contract/XProof.sol\":3022:3029  !paused */\n      iszero\n        /* \"contract/XProof.sol\":3014:3052  require(!paused, \"Contract is paused\") */\n      tag_297\n      jumpi\n      mload(0x40)\n      0x08c379a000000000000000000000000000000000000000000000000000000000\n      dup2\n      mstore\n      0x04\n      add\n      tag_298\n      swap1\n      tag_181\n      jump\t// in\n    tag_298:\n      mload(0x40)\n      dup1\n      swap2\n      sub\n      swap1\n      revert\n    tag_297:\n        /* \"contract/XProof.sol\":4194:4217  Content storage content */\n      0x00\n        /* \"contract/XProof.sol\":4220:4228  contents */\n      0x03\n        /* \"contract/XProof.sol\":4220:4239  contents[contentId] */\n      0x00\n        /* \"contract/XProof.sol\":4229:4238  contentId */\n      dup5\n        /* \"contract/XProof.sol\":4220:4239  contents[contentId] */\n      dup2\n      mstore\n      0x20\n      add\n      swap1\n      dup2\n      mstore\n      0x20\n      add\n      0x00\n      keccak256\n        /* \"contract/XProof.sol\":4194:4239  Content storage content = contents[contentId] */\n      swap1\n      pop\n        /* \"contract/XProof.sol\":4284:4285  0 */\n      0x00\n        /* \"contract/XProof.sol\":4257:4286  content.creator != address(0) */\n      0xffffffffffffffffffffffffffffffffffffffff\n      and\n        /* \"contract/XProof.sol\":4257:4264  content */\n      dup2\n        /* \"contract/XProof.sol\":4257:4272  content.creator */\n      0x00\n      add\n      0x00\n      swap1\n      sload\n      swap1\n      0x0100\n      exp\n      swap1\n      div\n      0xffffffffffffffffffffffffffffffffffffffff\n      and\n        /* \"contract/XProof.sol\":4257:4286  content.creator != address(0) */\n      0xffffffffffffffffffffffffffffffffffffffff\n      and\n      sub\n        /* \"contract/XProof.sol\":4249:4313  require(content.creator != address(0), \"Content does not exist\") */\n      tag_300\n      jumpi\n      mload(0x40)\n      0x08c379a000000000000000000000000000000000000000000000000000000000\n      dup2\n      mstore\n      0x04\n      add\n      tag_301\n      swap1\n      tag_136\n      jump\t// in\n    tag_301:\n      mload(0x40)\n      dup1\n      swap2\n      sub\n      swap1\n      revert\n    tag_300:\n        /* \"contract/XProof.sol\":4362:4386  ContentStatus.Unverified */\n      0x00\n        /* \"contract/XProof.sol\":4344:4386  content.status == ContentStatus.Unverified */\n      0x01\n      dup2\n      gt\n      iszero\n      tag_302\n      jumpi\n      tag_303\n      tag_139\n      jump\t// in\n    tag_303:\n    tag_302:\n        /* \"contract/XProof.sol\":4344:4351  content */\n      dup2\n        /* \"contract/XProof.sol\":4344:4358  content.status */\n      0x04\n      add\n      0x00\n      swap1\n      sload\n      swap1\n      0x0100\n      exp\n      swap1\n      div\n      0xff\n      and\n        /* \"contract/XProof.sol\":4344:4386  content.status == ContentStatus.Unverified */\n      0x01\n      dup2\n      gt\n      iszero\n      tag_304\n      jumpi\n      tag_305\n      tag_139\n      jump\t// in\n    tag_305:\n    tag_304:\n      eq\n        /* \"contract/XProof.sol\":4323:4439  require(... */\n      tag_306\n      jumpi\n      mload(0x40)\n      0x08c379a000000000000000000000000000000000000000000000000000000000\n      dup2\n      mstore\n      0x04\n      add\n      tag_307\n      swap1\n      tag_229\n      jump\t// in\n    tag_307:\n      mload(0x40)\n      dup1\n      swap2\n      sub\n      swap1\n      revert\n    tag_306:\n        /* \"contract/XProof.sol\":4467:4489  ContentStatus.Verified */\n      0x01\n        /* \"contract/XProof.sol\":4450:4457  content */\n      dup2\n        /* \"contract/XProof.sol\":4450:4464  content.status */\n      0x04\n      add\n      0x00\n        /* \"contract/XProof.sol\":4450:4489  content.status = ContentStatus.Verified */\n      0x0100\n      exp\n      dup2\n      sload\n      dup2\n      0xff\n      mul\n      not\n      and\n      swap1\n      dup4\n      0x01\n      dup2\n      gt\n      iszero\n      tag_308\n      jumpi\n      tag_309\n      tag_139\n      jump\t// in\n    tag_309:\n    tag_308:\n      mul\n      or\n      swap1\n      sstore\n      pop\n        /* \"contract/XProof.sol\":4531:4541  msg.sender */\n      caller\n        /* \"contract/XProof.sol\":4504:4557  ContentVerified(contentId, msg.sender, content.title) */\n      0xffffffffffffffffffffffffffffffffffffffff\n      and\n        /* \"contract/XProof.sol\":4520:4529  contentId */\n      dup4\n        /* \"contract/XProof.sol\":4504:4557  ContentVerified(contentId, msg.sender, content.title) */\n      0x13051e52e773c6237b9e19fc0ae74b0c150cb6357b286ffeef34cbb32d1213ab\n        /* \"contract/XProof.sol\":4543:4550  content */\n      dup4\n        /* \"contract/XProof.sol\":4543:4556  content.title */\n      0x01\n      add\n        /* \"contract/XProof.sol\":4504:4557  ContentVerified(contentId, msg.sender, content.title) */\n      mload(0x40)\n      tag_310\n      swap2\n      swap1\n      tag_163\n      jump\t// in\n    tag_310:\n      mload(0x40)\n      dup1\n      swap2\n      sub\n      swap1\n      log3\n        /* \"contract/XProof.sol\":4184:4564  {... */\n      pop\n        /* \"contract/XProof.sol\":4069:4564  function verifyContent(uint256 contentId)... */\n      pop\n      pop\n      jump\t// out\n        /* \"@openzeppelin/contracts/access/Ownable.sol\":1359:1489  function _checkOwner() internal view virtual {... */\n    tag_132:\n        /* \"@openzeppelin/contracts/access/Ownable.sol\":1433:1445  _msgSender() */\n      tag_312\n        /* \"@openzeppelin/contracts/access/Ownable.sol\":1433:1443  _msgSender */\n      tag_313\n        /* \"@openzeppelin/contracts/access/Ownable.sol\":1433:1445  _msgSender() */\n      jump\t// in\n    tag_312:\n        /* \"@openzeppelin/contracts/access/Ownable.sol\":1422:1445  owner() == _msgSender() */\n      0xffffffffffffffffffffffffffffffffffffffff\n      and\n        /* \"@openzeppelin/contracts/access/Ownable.sol\":1422:1429  owner() */\n      tag_314\n        /* \"@openzeppelin/contracts/access/Ownable.sol\":1422:1427  owner */\n      tag_83\n        /* \"@openzeppelin/contracts/access/Ownable.sol\":1422:1429  owner() */\n      jump\t// in\n    tag_314:\n        /* \"@openzeppelin/contracts/access/Ownable.sol\":1422:1445  owner() == _msgSender() */\n      0xffffffffffffffffffffffffffffffffffffffff\n      and\n      eq\n        /* \"@openzeppelin/contracts/access/Ownable.sol\":1414:1482  require(owner() == _msgSender(), \"Ownable: caller is not the owner\") */\n      tag_315\n      jumpi\n      mload(0x40)\n      0x08c379a000000000000000000000000000000000000000000000000000000000\n      dup2\n      mstore\n      0x04\n      add\n      tag_316\n      swap1\n      tag_317\n      jump\t// in\n    tag_316:\n      mload(0x40)\n      dup1\n      swap2\n      sub\n      swap1\n      revert\n    tag_315:\n        /* \"@openzeppelin/contracts/access/Ownable.sol\":1359:1489  function _checkOwner() internal view virtual {... */\n      jump\t// out\n        /* \"@openzeppelin/contracts/access/Ownable.sol\":2426:2613  function _transferOwnership(address newOwner) internal virtual {... */\n    tag_215:\n        /* \"@openzeppelin/contracts/access/Ownable.sol\":2499:2515  address oldOwner */\n      0x00\n        /* \"@openzeppelin/contracts/access/Ownable.sol\":2518:2524  _owner */\n      dup1\n      0x00\n      swap1\n      sload\n      swap1\n      0x0100\n      exp\n      swap1\n      div\n      0xffffffffffffffffffffffffffffffffffffffff\n      and\n        /* \"@openzeppelin/contracts/access/Ownable.sol\":2499:2524  address oldOwner = _owner */\n      swap1\n      pop\n        /* \"@openzeppelin/contracts/access/Ownable.sol\":2543:2551  newOwner */\n      dup2\n        /* \"@openzeppelin/contracts/access/Ownable.sol\":2534:2540  _owner */\n      0x00\n      dup1\n        /* \"@openzeppelin/contracts/access/Ownable.sol\":2534:2551  _owner = newOwner */\n      0x0100\n      exp\n      dup2\n      sload\n      dup2\n      0xffffffffffffffffffffffffffffffffffffffff\n      mul\n      not\n      and\n      swap1\n      dup4\n      0xffffffffffffffffffffffffffffffffffffffff\n      and\n      mul\n      or\n      swap1\n      sstore\n      pop\n        /* \"@openzeppelin/contracts/access/Ownable.sol\":2597:2605  newOwner */\n      dup2\n        /* \"@openzeppelin/contracts/access/Ownable.sol\":2566:2606  OwnershipTransferred(oldOwner, newOwner) */\n      0xffffffffffffffffffffffffffffffffffffffff\n      and\n        /* \"@openzeppelin/contracts/access/Ownable.sol\":2587:2595  oldOwner */\n      dup2\n        /* \"@openzeppelin/contracts/access/Ownable.sol\":2566:2606  OwnershipTransferred(oldOwner, newOwner) */\n      0xffffffffffffffffffffffffffffffffffffffff\n      and\n      0x8be0079c531659141344cd1fd0a4f28419497f9722a3daafe3b4186f6b6457e0\n      mload(0x40)\n      mload(0x40)\n      dup1\n      swap2\n      sub\n      swap1\n      log3\n        /* \"@openzeppelin/contracts/access/Ownable.sol\":2489:2613  {... */\n      pop\n        /* \"@openzeppelin/contracts/access/Ownable.sol\":2426:2613  function _transferOwnership(address newOwner) internal virtual {... */\n      pop\n      jump\t// out\n        /* \"@openzeppelin/contracts/utils/Context.sol\":640:736  function _msgSender() internal view virtual returns (address) {... */\n    tag_313:\n        /* \"@openzeppelin/contracts/utils/Context.sol\":693:700  address */\n      0x00\n        /* \"@openzeppelin/contracts/utils/Context.sol\":719:729  msg.sender */\n      caller\n        /* \"@openzeppelin/contracts/utils/Context.sol\":712:729  return msg.sender */\n      swap1\n      pop\n        /* \"@openzeppelin/contracts/utils/Context.sol\":640:736  function _msgSender() internal view virtual returns (address) {... */\n      swap1\n      jump\t// out\n        /* \"#utility.yul\":7:82   */\n    tag_320:\n        /* \"#utility.yul\":40:46   */\n      0x00\n        /* \"#utility.yul\":73:75   */\n      0x40\n        /* \"#utility.yul\":67:76   */\n      mload\n        /* \"#utility.yul\":57:76   */\n      swap1\n      pop\n        /* \"#utility.yul\":7:82   */\n      swap1\n      jump\t// out\n        /* \"#utility.yul\":88:205   */\n    tag_321:\n        /* \"#utility.yul\":197:198   */\n      0x00\n        /* \"#utility.yul\":194:195   */\n      dup1\n        /* \"#utility.yul\":187:199   */\n      revert\n        /* \"#utility.yul\":211:328   */\n    tag_322:\n        /* \"#utility.yul\":320:321   */\n      0x00\n        /* \"#utility.yul\":317:318   */\n      dup1\n        /* \"#utility.yul\":310:322   */\n      revert\n        /* \"#utility.yul\":334:411   */\n    tag_323:\n        /* \"#utility.yul\":371:378   */\n      0x00\n        /* \"#utility.yul\":400:405   */\n      dup2\n        /* \"#utility.yul\":389:405   */\n      swap1\n      pop\n        /* \"#utility.yul\":334:411   */\n      swap2\n      swap1\n      pop\n      jump\t// out\n        /* \"#utility.yul\":417:539   */\n    tag_324:\n        /* \"#utility.yul\":490:514   */\n      tag_415\n        /* \"#utility.yul\":508:513   */\n      dup2\n        /* \"#utility.yul\":490:514   */\n      tag_323\n      jump\t// in\n    tag_415:\n        /* \"#utility.yul\":483:488   */\n      dup2\n        /* \"#utility.yul\":480:515   */\n      eq\n        /* \"#utility.yul\":470:533   */\n      tag_416\n      jumpi\n        /* \"#utility.yul\":529:530   */\n      0x00\n        /* \"#utility.yul\":526:527   */\n      dup1\n        /* \"#utility.yul\":519:531   */\n      revert\n        /* \"#utility.yul\":470:533   */\n    tag_416:\n        /* \"#utility.yul\":417:539   */\n      pop\n      jump\t// out\n        /* \"#utility.yul\":545:684   */\n    tag_325:\n        /* \"#utility.yul\":591:596   */\n      0x00\n        /* \"#utility.yul\":629:635   */\n      dup2\n        /* \"#utility.yul\":616:636   */\n      calldataload\n        /* \"#utility.yul\":607:636   */\n      swap1\n      pop\n        /* \"#utility.yul\":645:678   */\n      tag_418\n        /* \"#utility.yul\":672:677   */\n      dup2\n        /* \"#utility.yul\":645:678   */\n      tag_324\n      jump\t// in\n    tag_418:\n        /* \"#utility.yul\":545:684   */\n      swap3\n      swap2\n      pop\n      pop\n      jump\t// out\n        /* \"#utility.yul\":690:1019   */\n    tag_38:\n        /* \"#utility.yul\":749:755   */\n      0x00\n        /* \"#utility.yul\":798:800   */\n      0x20\n        /* \"#utility.yul\":786:795   */\n      dup3\n        /* \"#utility.yul\":777:784   */\n      dup5\n        /* \"#utility.yul\":773:796   */\n      sub\n        /* \"#utility.yul\":769:801   */\n      slt\n        /* \"#utility.yul\":766:885   */\n      iszero\n      tag_420\n      jumpi\n        /* \"#utility.yul\":804:883   */\n      tag_421\n      tag_321\n      jump\t// in\n    tag_421:\n        /* \"#utility.yul\":766:885   */\n    tag_420:\n        /* \"#utility.yul\":924:925   */\n      0x00\n        /* \"#utility.yul\":949:1002   */\n      tag_422\n        /* \"#utility.yul\":994:1001   */\n      dup5\n        /* \"#utility.yul\":985:991   */\n      dup3\n        /* \"#utility.yul\":974:983   */\n      dup6\n        /* \"#utility.yul\":970:992   */\n      add\n        /* \"#utility.yul\":949:1002   */\n      tag_325\n      jump\t// in\n    tag_422:\n        /* \"#utility.yul\":939:1002   */\n      swap2\n      pop\n        /* \"#utility.yul\":895:1012   */\n      pop\n        /* \"#utility.yul\":690:1019   */\n      swap3\n      swap2\n      pop\n      pop\n      jump\t// out\n        /* \"#utility.yul\":1025:1143   */\n    tag_326:\n        /* \"#utility.yul\":1112:1136   */\n      tag_424\n        /* \"#utility.yul\":1130:1135   */\n      dup2\n        /* \"#utility.yul\":1112:1136   */\n      tag_323\n      jump\t// in\n    tag_424:\n        /* \"#utility.yul\":1107:1110   */\n      dup3\n        /* \"#utility.yul\":1100:1137   */\n      mstore\n        /* \"#utility.yul\":1025:1143   */\n      pop\n      pop\n      jump\t// out\n        /* \"#utility.yul\":1149:1371   */\n    tag_43:\n        /* \"#utility.yul\":1242:1246   */\n      0x00\n        /* \"#utility.yul\":1280:1282   */\n      0x20\n        /* \"#utility.yul\":1269:1278   */\n      dup3\n        /* \"#utility.yul\":1265:1283   */\n      add\n        /* \"#utility.yul\":1257:1283   */\n      swap1\n      pop\n        /* \"#utility.yul\":1293:1364   */\n      tag_426\n        /* \"#utility.yul\":1361:1362   */\n      0x00\n        /* \"#utility.yul\":1350:1359   */\n      dup4\n        /* \"#utility.yul\":1346:1363   */\n      add\n        /* \"#utility.yul\":1337:1343   */\n      dup5\n        /* \"#utility.yul\":1293:1364   */\n      tag_326\n      jump\t// in\n    tag_426:\n        /* \"#utility.yul\":1149:1371   */\n      swap3\n      swap2\n      pop\n      pop\n      jump\t// out\n        /* \"#utility.yul\":1377:1503   */\n    tag_327:\n        /* \"#utility.yul\":1414:1421   */\n      0x00\n        /* \"#utility.yul\":1454:1496   */\n      0xffffffffffffffffffffffffffffffffffffffff\n        /* \"#utility.yul\":1447:1452   */\n      dup3\n        /* \"#utility.yul\":1443:1497   */\n      and\n        /* \"#utility.yul\":1432:1497   */\n      swap1\n      pop\n        /* \"#utility.yul\":1377:1503   */\n      swap2\n      swap1\n      pop\n      jump\t// out\n        /* \"#utility.yul\":1509:1605   */\n    tag_328:\n        /* \"#utility.yul\":1546:1553   */\n      0x00\n        /* \"#utility.yul\":1575:1599   */\n      tag_429\n        /* \"#utility.yul\":1593:1598   */\n      dup3\n        /* \"#utility.yul\":1575:1599   */\n      tag_327\n      jump\t// in\n    tag_429:\n        /* \"#utility.yul\":1564:1599   */\n      swap1\n      pop\n        /* \"#utility.yul\":1509:1605   */\n      swap2\n      swap1\n      pop\n      jump\t// out\n        /* \"#utility.yul\":1611:1733   */\n    tag_329:\n        /* \"#utility.yul\":1684:1708   */\n      tag_431\n        /* \"#utility.yul\":1702:1707   */\n      dup2\n        /* \"#utility.yul\":1684:1708   */\n      tag_328\n      jump\t// in\n    tag_431:\n        /* \"#utility.yul\":1677:1682   */\n      dup2\n        /* \"#utility.yul\":1674:1709   */\n      eq\n        /* \"#utility.yul\":1664:1727   */\n      tag_432\n      jumpi\n        /* \"#utility.yul\":1723:1724   */\n      0x00\n        /* \"#utility.yul\":1720:1721   */\n      dup1\n        /* \"#utility.yul\":1713:1725   */\n      revert\n        /* \"#utility.yul\":1664:1727   */\n    tag_432:\n        /* \"#utility.yul\":1611:1733   */\n      pop\n      jump\t// out\n        /* \"#utility.yul\":1739:1878   */\n    tag_330:\n        /* \"#utility.yul\":1785:1790   */\n      0x00\n        /* \"#utility.yul\":1823:1829   */\n      dup2\n        /* \"#utility.yul\":1810:1830   */\n      calldataload\n        /* \"#utility.yul\":1801:1830   */\n      swap1\n      pop\n        /* \"#utility.yul\":1839:1872   */\n      tag_434\n        /* \"#utility.yul\":1866:1871   */\n      dup2\n        /* \"#utility.yul\":1839:1872   */\n      tag_329\n      jump\t// in\n    tag_434:\n        /* \"#utility.yul\":1739:1878   */\n      swap3\n      swap2\n      pop\n      pop\n      jump\t// out\n        /* \"#utility.yul\":1884:2358   */\n    tag_49:\n        /* \"#utility.yul\":1952:1958   */\n      0x00\n        /* \"#utility.yul\":1960:1966   */\n      dup1\n        /* \"#utility.yul\":2009:2011   */\n      0x40\n        /* \"#utility.yul\":1997:2006   */\n      dup4\n        /* \"#utility.yul\":1988:1995   */\n      dup6\n        /* \"#utility.yul\":1984:2007   */\n      sub\n        /* \"#utility.yul\":1980:2012   */\n      slt\n        /* \"#utility.yul\":1977:2096   */\n      iszero\n      tag_436\n      jumpi\n        /* \"#utility.yul\":2015:2094   */\n      tag_437\n      tag_321\n      jump\t// in\n    tag_437:\n        /* \"#utility.yul\":1977:2096   */\n    tag_436:\n        /* \"#utility.yul\":2135:2136   */\n      0x00\n        /* \"#utility.yul\":2160:2213   */\n      tag_438\n        /* \"#utility.yul\":2205:2212   */\n      dup6\n        /* \"#utility.yul\":2196:2202   */\n      dup3\n        /* \"#utility.yul\":2185:2194   */\n      dup7\n        /* \"#utility.yul\":2181:2203   */\n      add\n        /* \"#utility.yul\":2160:2213   */\n      tag_330\n      jump\t// in\n    tag_438:\n        /* \"#utility.yul\":2150:2213   */\n      swap3\n      pop\n        /* \"#utility.yul\":2106:2223   */\n      pop\n        /* \"#utility.yul\":2262:2264   */\n      0x20\n        /* \"#utility.yul\":2288:2341   */\n      tag_439\n        /* \"#utility.yul\":2333:2340   */\n      dup6\n        /* \"#utility.yul\":2324:2330   */\n      dup3\n        /* \"#utility.yul\":2313:2322   */\n      dup7\n        /* \"#utility.yul\":2309:2331   */\n      add\n        /* \"#utility.yul\":2288:2341   */\n      tag_325\n      jump\t// in\n    tag_439:\n        /* \"#utility.yul\":2278:2341   */\n      swap2\n      pop\n        /* \"#utility.yul\":2233:2351   */\n      pop\n        /* \"#utility.yul\":1884:2358   */\n      swap3\n      pop\n      swap3\n      swap1\n      pop\n      jump\t// out\n        /* \"#utility.yul\":2364:2838   */\n    tag_57:\n        /* \"#utility.yul\":2432:2438   */\n      0x00\n        /* \"#utility.yul\":2440:2446   */\n      dup1\n        /* \"#utility.yul\":2489:2491   */\n      0x40\n        /* \"#utility.yul\":2477:2486   */\n      dup4\n        /* \"#utility.yul\":2468:2475   */\n      dup6\n        /* \"#utility.yul\":2464:2487   */\n      sub\n        /* \"#utility.yul\":2460:2492   */\n      slt\n        /* \"#utility.yul\":2457:2576   */\n      iszero\n      tag_441\n      jumpi\n        /* \"#utility.yul\":2495:2574   */\n      tag_442\n      tag_321\n      jump\t// in\n    tag_442:\n        /* \"#utility.yul\":2457:2576   */\n    tag_441:\n        /* \"#utility.yul\":2615:2616   */\n      0x00\n        /* \"#utility.yul\":2640:2693   */\n      tag_443\n        /* \"#utility.yul\":2685:2692   */\n      dup6\n        /* \"#utility.yul\":2676:2682   */\n      dup3\n        /* \"#utility.yul\":2665:2674   */\n      dup7\n        /* \"#utility.yul\":2661:2683   */\n      add\n        /* \"#utility.yul\":2640:2693   */\n      tag_325\n      jump\t// in\n    tag_443:\n        /* \"#utility.yul\":2630:2693   */\n      swap3\n      pop\n        /* \"#utility.yul\":2586:2703   */\n      pop\n        /* \"#utility.yul\":2742:2744   */\n      0x20\n        /* \"#utility.yul\":2768:2821   */\n      tag_444\n        /* \"#utility.yul\":2813:2820   */\n      dup6\n        /* \"#utility.yul\":2804:2810   */\n      dup3\n        /* \"#utility.yul\":2793:2802   */\n      dup7\n        /* \"#utility.yul\":2789:2811   */\n      add\n        /* \"#utility.yul\":2768:2821   */\n      tag_330\n      jump\t// in\n    tag_444:\n        /* \"#utility.yul\":2758:2821   */\n      swap2\n      pop\n        /* \"#utility.yul\":2713:2831   */\n      pop\n        /* \"#utility.yul\":2364:2838   */\n      swap3\n      pop\n      swap3\n      swap1\n      pop\n      jump\t// out\n        /* \"#utility.yul\":2844:2961   */\n    tag_331:\n        /* \"#utility.yul\":2953:2954   */\n      0x00\n        /* \"#utility.yul\":2950:2951   */\n      dup1\n        /* \"#utility.yul\":2943:2955   */\n      revert\n        /* \"#utility.yul\":2967:3084   */\n    tag_332:\n        /* \"#utility.yul\":3076:3077   */\n      0x00\n        /* \"#utility.yul\":3073:3074   */\n      dup1\n        /* \"#utility.yul\":3066:3078   */\n      revert\n        /* \"#utility.yul\":3090:3192   */\n    tag_333:\n        /* \"#utility.yul\":3131:3137   */\n      0x00\n        /* \"#utility.yul\":3182:3184   */\n      0x1f\n        /* \"#utility.yul\":3178:3185   */\n      not\n        /* \"#utility.yul\":3173:3175   */\n      0x1f\n        /* \"#utility.yul\":3166:3171   */\n      dup4\n        /* \"#utility.yul\":3162:3176   */\n      add\n        /* \"#utility.yul\":3158:3186   */\n      and\n        /* \"#utility.yul\":3148:3186   */\n      swap1\n      pop\n        /* \"#utility.yul\":3090:3192   */\n      swap2\n      swap1\n      pop\n      jump\t// out\n        /* \"#utility.yul\":3198:3378   */\n    tag_334:\n        /* \"#utility.yul\":3246:3323   */\n      0x4e487b7100000000000000000000000000000000000000000000000000000000\n        /* \"#utility.yul\":3243:3244   */\n      0x00\n        /* \"#utility.yul\":3236:3324   */\n      mstore\n        /* \"#utility.yul\":3343:3347   */\n      0x41\n        /* \"#utility.yul\":3340:3341   */\n      0x04\n        /* \"#utility.yul\":3333:3348   */\n      mstore\n        /* \"#utility.yul\":3367:3371   */\n      0x24\n        /* \"#utility.yul\":3364:3365   */\n      0x00\n        /* \"#utility.yul\":3357:3372   */\n      revert\n        /* \"#utility.yul\":3384:3665   */\n    tag_335:\n        /* \"#utility.yul\":3467:3494   */\n      tag_450\n        /* \"#utility.yul\":3489:3493   */\n      dup3\n        /* \"#utility.yul\":3467:3494   */\n      tag_333\n      jump\t// in\n    tag_450:\n        /* \"#utility.yul\":3459:3465   */\n      dup2\n        /* \"#utility.yul\":3455:3495   */\n      add\n        /* \"#utility.yul\":3597:3603   */\n      dup2\n        /* \"#utility.yul\":3585:3595   */\n      dup2\n        /* \"#utility.yul\":3582:3604   */\n      lt\n        /* \"#utility.yul\":3561:3579   */\n      0xffffffffffffffff\n        /* \"#utility.yul\":3549:3559   */\n      dup3\n        /* \"#utility.yul\":3546:3580   */\n      gt\n        /* \"#utility.yul\":3543:3605   */\n      or\n        /* \"#utility.yul\":3540:3628   */\n      iszero\n      tag_451\n      jumpi\n        /* \"#utility.yul\":3608:3626   */\n      tag_452\n      tag_334\n      jump\t// in\n    tag_452:\n        /* \"#utility.yul\":3540:3628   */\n    tag_451:\n        /* \"#utility.yul\":3648:3658   */\n      dup1\n        /* \"#utility.yul\":3644:3646   */\n      0x40\n        /* \"#utility.yul\":3637:3659   */\n      mstore\n        /* \"#utility.yul\":3427:3665   */\n      pop\n        /* \"#utility.yul\":3384:3665   */\n      pop\n      pop\n      jump\t// out\n        /* \"#utility.yul\":3671:3800   */\n    tag_336:\n        /* \"#utility.yul\":3705:3711   */\n      0x00\n        /* \"#utility.yul\":3732:3752   */\n      tag_454\n      tag_320\n      jump\t// in\n    tag_454:\n        /* \"#utility.yul\":3722:3752   */\n      swap1\n      pop\n        /* \"#utility.yul\":3761:3794   */\n      tag_455\n        /* \"#utility.yul\":3789:3793   */\n      dup3\n        /* \"#utility.yul\":3781:3787   */\n      dup3\n        /* \"#utility.yul\":3761:3794   */\n      tag_335\n      jump\t// in\n    tag_455:\n        /* \"#utility.yul\":3671:3800   */\n      swap2\n      swap1\n      pop\n      jump\t// out\n        /* \"#utility.yul\":3806:4114   */\n    tag_337:\n        /* \"#utility.yul\":3868:3872   */\n      0x00\n        /* \"#utility.yul\":3958:3976   */\n      0xffffffffffffffff\n        /* \"#utility.yul\":3950:3956   */\n      dup3\n        /* \"#utility.yul\":3947:3977   */\n      gt\n        /* \"#utility.yul\":3944:4000   */\n      iszero\n      tag_457\n      jumpi\n        /* \"#utility.yul\":3980:3998   */\n      tag_458\n      tag_334\n      jump\t// in\n    tag_458:\n        /* \"#utility.yul\":3944:4000   */\n    tag_457:\n        /* \"#utility.yul\":4018:4047   */\n      tag_459\n        /* \"#utility.yul\":4040:4046   */\n      dup3\n        /* \"#utility.yul\":4018:4047   */\n      tag_333\n      jump\t// in\n    tag_459:\n        /* \"#utility.yul\":4010:4047   */\n      swap1\n      pop\n        /* \"#utility.yul\":4102:4106   */\n      0x20\n        /* \"#utility.yul\":4096:4100   */\n      dup2\n        /* \"#utility.yul\":4092:4107   */\n      add\n        /* \"#utility.yul\":4084:4107   */\n      swap1\n      pop\n        /* \"#utility.yul\":3806:4114   */\n      swap2\n      swap1\n      pop\n      jump\t// out\n        /* \"#utility.yul\":4120:4266   */\n    tag_338:\n        /* \"#utility.yul\":4217:4223   */\n      dup3\n        /* \"#utility.yul\":4212:4215   */\n      dup2\n        /* \"#utility.yul\":4207:4210   */\n      dup4\n        /* \"#utility.yul\":4194:4224   */\n      calldatacopy\n        /* \"#utility.yul\":4258:4259   */\n      0x00\n        /* \"#utility.yul\":4249:4255   */\n      dup4\n        /* \"#utility.yul\":4244:4247   */\n      dup4\n        /* \"#utility.yul\":4240:4256   */\n      add\n        /* \"#utility.yul\":4233:4260   */\n      mstore\n        /* \"#utility.yul\":4120:4266   */\n      pop\n      pop\n      pop\n      jump\t// out\n        /* \"#utility.yul\":4272:4697   */\n    tag_339:\n        /* \"#utility.yul\":4350:4355   */\n      0x00\n        /* \"#utility.yul\":4375:4441   */\n      tag_462\n        /* \"#utility.yul\":4391:4440   */\n      tag_463\n        /* \"#utility.yul\":4433:4439   */\n      dup5\n        /* \"#utility.yul\":4391:4440   */\n      tag_337\n      jump\t// in\n    tag_463:\n        /* \"#utility.yul\":4375:4441   */\n      tag_336\n      jump\t// in\n    tag_462:\n        /* \"#utility.yul\":4366:4441   */\n      swap1\n      pop\n        /* \"#utility.yul\":4464:4470   */\n      dup3\n        /* \"#utility.yul\":4457:4462   */\n      dup2\n        /* \"#utility.yul\":4450:4471   */\n      mstore\n        /* \"#utility.yul\":4502:4506   */\n      0x20\n        /* \"#utility.yul\":4495:4500   */\n      dup2\n        /* \"#utility.yul\":4491:4507   */\n      add\n        /* \"#utility.yul\":4540:4543   */\n      dup5\n        /* \"#utility.yul\":4531:4537   */\n      dup5\n        /* \"#utility.yul\":4526:4529   */\n      dup5\n        /* \"#utility.yul\":4522:4538   */\n      add\n        /* \"#utility.yul\":4519:4544   */\n      gt\n        /* \"#utility.yul\":4516:4628   */\n      iszero\n      tag_464\n      jumpi\n        /* \"#utility.yul\":4547:4626   */\n      tag_465\n      tag_332\n      jump\t// in\n    tag_465:\n        /* \"#utility.yul\":4516:4628   */\n    tag_464:\n        /* \"#utility.yul\":4637:4691   */\n      tag_466\n        /* \"#utility.yul\":4684:4690   */\n      dup5\n        /* \"#utility.yul\":4679:4682   */\n      dup3\n        /* \"#utility.yul\":4674:4677   */\n      dup6\n        /* \"#utility.yul\":4637:4691   */\n      tag_338\n      jump\t// in\n    tag_466:\n        /* \"#utility.yul\":4356:4697   */\n      pop\n        /* \"#utility.yul\":4272:4697   */\n      swap4\n      swap3\n      pop\n      pop\n      pop\n      jump\t// out\n        /* \"#utility.yul\":4717:5057   */\n    tag_340:\n        /* \"#utility.yul\":4773:4778   */\n      0x00\n        /* \"#utility.yul\":4822:4825   */\n      dup3\n        /* \"#utility.yul\":4815:4819   */\n      0x1f\n        /* \"#utility.yul\":4807:4813   */\n      dup4\n        /* \"#utility.yul\":4803:4820   */\n      add\n        /* \"#utility.yul\":4799:4826   */\n      slt\n        /* \"#utility.yul\":4789:4911   */\n      tag_468\n      jumpi\n        /* \"#utility.yul\":4830:4909   */\n      tag_469\n      tag_331\n      jump\t// in\n    tag_469:\n        /* \"#utility.yul\":4789:4911   */\n    tag_468:\n        /* \"#utility.yul\":4947:4953   */\n      dup2\n        /* \"#utility.yul\":4934:4954   */\n      calldataload\n        /* \"#utility.yul\":4972:5051   */\n      tag_470\n        /* \"#utility.yul\":5047:5050   */\n      dup5\n        /* \"#utility.yul\":5039:5045   */\n      dup3\n        /* \"#utility.yul\":5032:5036   */\n      0x20\n        /* \"#utility.yul\":5024:5030   */\n      dup7\n        /* \"#utility.yul\":5020:5037   */\n      add\n        /* \"#utility.yul\":4972:5051   */\n      tag_339\n      jump\t// in\n    tag_470:\n        /* \"#utility.yul\":4963:5051   */\n      swap2\n      pop\n        /* \"#utility.yul\":4779:5057   */\n      pop\n        /* \"#utility.yul\":4717:5057   */\n      swap3\n      swap2\n      pop\n      pop\n      jump\t// out\n        /* \"#utility.yul\":5063:5897   */\n    tag_61:\n        /* \"#utility.yul\":5151:5157   */\n      0x00\n        /* \"#utility.yul\":5159:5165   */\n      dup1\n        /* \"#utility.yul\":5208:5210   */\n      0x40\n        /* \"#utility.yul\":5196:5205   */\n      dup4\n        /* \"#utility.yul\":5187:5194   */\n      dup6\n        /* \"#utility.yul\":5183:5206   */\n      sub\n        /* \"#utility.yul\":5179:5211   */\n      slt\n        /* \"#utility.yul\":5176:5295   */\n      iszero\n      tag_472\n      jumpi\n        /* \"#utility.yul\":5214:5293   */\n      tag_473\n      tag_321\n      jump\t// in\n    tag_473:\n        /* \"#utility.yul\":5176:5295   */\n    tag_472:\n        /* \"#utility.yul\":5362:5363   */\n      0x00\n        /* \"#utility.yul\":5351:5360   */\n      dup4\n        /* \"#utility.yul\":5347:5364   */\n      add\n        /* \"#utility.yul\":5334:5365   */\n      calldataload\n        /* \"#utility.yul\":5392:5410   */\n      0xffffffffffffffff\n        /* \"#utility.yul\":5384:5390   */\n      dup2\n        /* \"#utility.yul\":5381:5411   */\n      gt\n        /* \"#utility.yul\":5378:5495   */\n      iszero\n      tag_474\n      jumpi\n        /* \"#utility.yul\":5414:5493   */\n      tag_475\n      tag_322\n      jump\t// in\n    tag_475:\n        /* \"#utility.yul\":5378:5495   */\n    tag_474:\n        /* \"#utility.yul\":5519:5582   */\n      tag_476\n        /* \"#utility.yul\":5574:5581   */\n      dup6\n        /* \"#utility.yul\":5565:5571   */\n      dup3\n        /* \"#utility.yul\":5554:5563   */\n      dup7\n        /* \"#utility.yul\":5550:5572   */\n      add\n        /* \"#utility.yul\":5519:5582   */\n      tag_340\n      jump\t// in\n    tag_476:\n        /* \"#utility.yul\":5509:5582   */\n      swap3\n      pop\n        /* \"#utility.yul\":5305:5592   */\n      pop\n        /* \"#utility.yul\":5659:5661   */\n      0x20\n        /* \"#utility.yul\":5648:5657   */\n      dup4\n        /* \"#utility.yul\":5644:5662   */\n      add\n        /* \"#utility.yul\":5631:5663   */\n      calldataload\n        /* \"#utility.yul\":5690:5708   */\n      0xffffffffffffffff\n        /* \"#utility.yul\":5682:5688   */\n      dup2\n        /* \"#utility.yul\":5679:5709   */\n      gt\n        /* \"#utility.yul\":5676:5793   */\n      iszero\n      tag_477\n      jumpi\n        /* \"#utility.yul\":5712:5791   */\n      tag_478\n      tag_322\n      jump\t// in\n    tag_478:\n        /* \"#utility.yul\":5676:5793   */\n    tag_477:\n        /* \"#utility.yul\":5817:5880   */\n      tag_479\n        /* \"#utility.yul\":5872:5879   */\n      dup6\n        /* \"#utility.yul\":5863:5869   */\n      dup3\n        /* \"#utility.yul\":5852:5861   */\n      dup7\n        /* \"#utility.yul\":5848:5870   */\n      add\n        /* \"#utility.yul\":5817:5880   */\n      tag_340\n      jump\t// in\n    tag_479:\n        /* \"#utility.yul\":5807:5880   */\n      swap2\n      pop\n        /* \"#utility.yul\":5602:5890   */\n      pop\n        /* \"#utility.yul\":5063:5897   */\n      swap3\n      pop\n      swap3\n      swap1\n      pop\n      jump\t// out\n        /* \"#utility.yul\":5903:5993   */\n    tag_341:\n        /* \"#utility.yul\":5937:5944   */\n      0x00\n        /* \"#utility.yul\":5980:5985   */\n      dup2\n        /* \"#utility.yul\":5973:5986   */\n      iszero\n        /* \"#utility.yul\":5966:5987   */\n      iszero\n        /* \"#utility.yul\":5955:5987   */\n      swap1\n      pop\n        /* \"#utility.yul\":5903:5993   */\n      swap2\n      swap1\n      pop\n      jump\t// out\n        /* \"#utility.yul\":5999:6108   */\n    tag_342:\n        /* \"#utility.yul\":6080:6101   */\n      tag_482\n        /* \"#utility.yul\":6095:6100   */\n      dup2\n        /* \"#utility.yul\":6080:6101   */\n      tag_341\n      jump\t// in\n    tag_482:\n        /* \"#utility.yul\":6075:6078   */\n      dup3\n        /* \"#utility.yul\":6068:6102   */\n      mstore\n        /* \"#utility.yul\":5999:6108   */\n      pop\n      pop\n      jump\t// out\n        /* \"#utility.yul\":6114:6324   */\n    tag_71:\n        /* \"#utility.yul\":6201:6205   */\n      0x00\n        /* \"#utility.yul\":6239:6241   */\n      0x20\n        /* \"#utility.yul\":6228:6237   */\n      dup3\n        /* \"#utility.yul\":6224:6242   */\n      add\n        /* \"#utility.yul\":6216:6242   */\n      swap1\n      pop\n        /* \"#utility.yul\":6252:6317   */\n      tag_484\n        /* \"#utility.yul\":6314:6315   */\n      0x00\n        /* \"#utility.yul\":6303:6312   */\n      dup4\n        /* \"#utility.yul\":6299:6316   */\n      add\n        /* \"#utility.yul\":6290:6296   */\n      dup5\n        /* \"#utility.yul\":6252:6317   */\n      tag_342\n      jump\t// in\n    tag_484:\n        /* \"#utility.yul\":6114:6324   */\n      swap3\n      swap2\n      pop\n      pop\n      jump\t// out\n        /* \"#utility.yul\":6330:6448   */\n    tag_343:\n        /* \"#utility.yul\":6417:6441   */\n      tag_486\n        /* \"#utility.yul\":6435:6440   */\n      dup2\n        /* \"#utility.yul\":6417:6441   */\n      tag_328\n      jump\t// in\n    tag_486:\n        /* \"#utility.yul\":6412:6415   */\n      dup3\n        /* \"#utility.yul\":6405:6442   */\n      mstore\n        /* \"#utility.yul\":6330:6448   */\n      pop\n      pop\n      jump\t// out\n        /* \"#utility.yul\":6454:6676   */\n    tag_85:\n        /* \"#utility.yul\":6547:6551   */\n      0x00\n        /* \"#utility.yul\":6585:6587   */\n      0x20\n        /* \"#utility.yul\":6574:6583   */\n      dup3\n        /* \"#utility.yul\":6570:6588   */\n      add\n        /* \"#utility.yul\":6562:6588   */\n      swap1\n      pop\n        /* \"#utility.yul\":6598:6669   */\n      tag_488\n        /* \"#utility.yul\":6666:6667   */\n      0x00\n        /* \"#utility.yul\":6655:6664   */\n      dup4\n        /* \"#utility.yul\":6651:6668   */\n      add\n        /* \"#utility.yul\":6642:6648   */\n      dup5\n        /* \"#utility.yul\":6598:6669   */\n      tag_343\n      jump\t// in\n    tag_488:\n        /* \"#utility.yul\":6454:6676   */\n      swap3\n      swap2\n      pop\n      pop\n      jump\t// out\n        /* \"#utility.yul\":6682:7011   */\n    tag_91:\n        /* \"#utility.yul\":6741:6747   */\n      0x00\n        /* \"#utility.yul\":6790:6792   */\n      0x20\n        /* \"#utility.yul\":6778:6787   */\n      dup3\n        /* \"#utility.yul\":6769:6776   */\n      dup5\n        /* \"#utility.yul\":6765:6788   */\n      sub\n        /* \"#utility.yul\":6761:6793   */\n      slt\n        /* \"#utility.yul\":6758:6877   */\n      iszero\n      tag_490\n      jumpi\n        /* \"#utility.yul\":6796:6875   */\n      tag_491\n      tag_321\n      jump\t// in\n    tag_491:\n        /* \"#utility.yul\":6758:6877   */\n    tag_490:\n        /* \"#utility.yul\":6916:6917   */\n      0x00\n        /* \"#utility.yul\":6941:6994   */\n      tag_492\n        /* \"#utility.yul\":6986:6993   */\n      dup5\n        /* \"#utility.yul\":6977:6983   */\n      dup3\n        /* \"#utility.yul\":6966:6975   */\n      dup6\n        /* \"#utility.yul\":6962:6984   */\n      add\n        /* \"#utility.yul\":6941:6994   */\n      tag_330\n      jump\t// in\n    tag_492:\n        /* \"#utility.yul\":6931:6994   */\n      swap2\n      pop\n        /* \"#utility.yul\":6887:7004   */\n      pop\n        /* \"#utility.yul\":6682:7011   */\n      swap3\n      swap2\n      pop\n      pop\n      jump\t// out\n        /* \"#utility.yul\":7017:7116   */\n    tag_344:\n        /* \"#utility.yul\":7069:7075   */\n      0x00\n        /* \"#utility.yul\":7103:7108   */\n      dup2\n        /* \"#utility.yul\":7097:7109   */\n      mload\n        /* \"#utility.yul\":7087:7109   */\n      swap1\n      pop\n        /* \"#utility.yul\":7017:7116   */\n      swap2\n      swap1\n      pop\n      jump\t// out\n        /* \"#utility.yul\":7122:7291   */\n    tag_345:\n        /* \"#utility.yul\":7206:7217   */\n      0x00\n        /* \"#utility.yul\":7240:7246   */\n      dup3\n        /* \"#utility.yul\":7235:7238   */\n      dup3\n        /* \"#utility.yul\":7228:7247   */\n      mstore\n        /* \"#utility.yul\":7280:7284   */\n      0x20\n        /* \"#utility.yul\":7275:7278   */\n      dup3\n        /* \"#utility.yul\":7271:7285   */\n      add\n        /* \"#utility.yul\":7256:7285   */\n      swap1\n      pop\n        /* \"#utility.yul\":7122:7291   */\n      swap3\n      swap2\n      pop\n      pop\n      jump\t// out\n        /* \"#utility.yul\":7297:7543   */\n    tag_346:\n        /* \"#utility.yul\":7378:7379   */\n      0x00\n        /* \"#utility.yul\":7388:7501   */\n    tag_496:\n        /* \"#utility.yul\":7402:7408   */\n      dup4\n        /* \"#utility.yul\":7399:7400   */\n      dup2\n        /* \"#utility.yul\":7396:7409   */\n      lt\n        /* \"#utility.yul\":7388:7501   */\n      iszero\n      tag_498\n      jumpi\n        /* \"#utility.yul\":7487:7488   */\n      dup1\n        /* \"#utility.yul\":7482:7485   */\n      dup3\n        /* \"#utility.yul\":7478:7489   */\n      add\n        /* \"#utility.yul\":7472:7490   */\n      mload\n        /* \"#utility.yul\":7468:7469   */\n      dup2\n        /* \"#utility.yul\":7463:7466   */\n      dup5\n        /* \"#utility.yul\":7459:7470   */\n      add\n        /* \"#utility.yul\":7452:7491   */\n      mstore\n        /* \"#utility.yul\":7424:7426   */\n      0x20\n        /* \"#utility.yul\":7421:7422   */\n      dup2\n        /* \"#utility.yul\":7417:7427   */\n      add\n        /* \"#utility.yul\":7412:7427   */\n      swap1\n      pop\n        /* \"#utility.yul\":7388:7501   */\n      jump(tag_496)\n    tag_498:\n        /* \"#utility.yul\":7535:7536   */\n      0x00\n        /* \"#utility.yul\":7526:7532   */\n      dup5\n        /* \"#utility.yul\":7521:7524   */\n      dup5\n        /* \"#utility.yul\":7517:7533   */\n      add\n        /* \"#utility.yul\":7510:7537   */\n      mstore\n        /* \"#utility.yul\":7359:7543   */\n      pop\n        /* \"#utility.yul\":7297:7543   */\n      pop\n      pop\n      pop\n      jump\t// out\n        /* \"#utility.yul\":7549:7926   */\n    tag_347:\n        /* \"#utility.yul\":7637:7640   */\n      0x00\n        /* \"#utility.yul\":7665:7704   */\n      tag_500\n        /* \"#utility.yul\":7698:7703   */\n      dup3\n        /* \"#utility.yul\":7665:7704   */\n      tag_344\n      jump\t// in\n    tag_500:\n        /* \"#utility.yul\":7720:7791   */\n      tag_501\n        /* \"#utility.yul\":7784:7790   */\n      dup2\n        /* \"#utility.yul\":7779:7782   */\n      dup6\n        /* \"#utility.yul\":7720:7791   */\n      tag_345\n      jump\t// in\n    tag_501:\n        /* \"#utility.yul\":7713:7791   */\n      swap4\n      pop\n        /* \"#utility.yul\":7800:7865   */\n      tag_502\n        /* \"#utility.yul\":7858:7864   */\n      dup2\n        /* \"#utility.yul\":7853:7856   */\n      dup6\n        /* \"#utility.yul\":7846:7850   */\n      0x20\n        /* \"#utility.yul\":7839:7844   */\n      dup7\n        /* \"#utility.yul\":7835:7851   */\n      add\n        /* \"#utility.yul\":7800:7865   */\n      tag_346\n      jump\t// in\n    tag_502:\n        /* \"#utility.yul\":7890:7919   */\n      tag_503\n        /* \"#utility.yul\":7912:7918   */\n      dup2\n        /* \"#utility.yul\":7890:7919   */\n      tag_333\n      jump\t// in\n    tag_503:\n        /* \"#utility.yul\":7885:7888   */\n      dup5\n        /* \"#utility.yul\":7881:7920   */\n      add\n        /* \"#utility.yul\":7874:7920   */\n      swap2\n      pop\n        /* \"#utility.yul\":7641:7926   */\n      pop\n        /* \"#utility.yul\":7549:7926   */\n      swap3\n      swap2\n      pop\n      pop\n      jump\t// out\n        /* \"#utility.yul\":7932:8112   */\n    tag_139:\n        /* \"#utility.yul\":7980:8057   */\n      0x4e487b7100000000000000000000000000000000000000000000000000000000\n        /* \"#utility.yul\":7977:7978   */\n      0x00\n        /* \"#utility.yul\":7970:8058   */\n      mstore\n        /* \"#utility.yul\":8077:8081   */\n      0x21\n        /* \"#utility.yul\":8074:8075   */\n      0x04\n        /* \"#utility.yul\":8067:8082   */\n      mstore\n        /* \"#utility.yul\":8101:8105   */\n      0x24\n        /* \"#utility.yul\":8098:8099   */\n      0x00\n        /* \"#utility.yul\":8091:8106   */\n      revert\n        /* \"#utility.yul\":8118:8240   */\n    tag_348:\n        /* \"#utility.yul\":8208:8209   */\n      0x02\n        /* \"#utility.yul\":8201:8206   */\n      dup2\n        /* \"#utility.yul\":8198:8210   */\n      lt\n        /* \"#utility.yul\":8188:8234   */\n      tag_506\n      jumpi\n        /* \"#utility.yul\":8214:8232   */\n      tag_507\n      tag_139\n      jump\t// in\n    tag_507:\n        /* \"#utility.yul\":8188:8234   */\n    tag_506:\n        /* \"#utility.yul\":8118:8240   */\n      pop\n      jump\t// out\n        /* \"#utility.yul\":8246:8391   */\n    tag_349:\n        /* \"#utility.yul\":8300:8307   */\n      0x00\n        /* \"#utility.yul\":8329:8334   */\n      dup2\n        /* \"#utility.yul\":8318:8334   */\n      swap1\n      pop\n        /* \"#utility.yul\":8335:8385   */\n      tag_509\n        /* \"#utility.yul\":8379:8384   */\n      dup3\n        /* \"#utility.yul\":8335:8385   */\n      tag_348\n      jump\t// in\n    tag_509:\n        /* \"#utility.yul\":8246:8391   */\n      swap2\n      swap1\n      pop\n      jump\t// out\n        /* \"#utility.yul\":8397:8542   */\n    tag_350:\n        /* \"#utility.yul\":8462:8471   */\n      0x00\n        /* \"#utility.yul\":8495:8536   */\n      tag_511\n        /* \"#utility.yul\":8530:8535   */\n      dup3\n        /* \"#utility.yul\":8495:8536   */\n      tag_349\n      jump\t// in\n    tag_511:\n        /* \"#utility.yul\":8482:8536   */\n      swap1\n      pop\n        /* \"#utility.yul\":8397:8542   */\n      swap2\n      swap1\n      pop\n      jump\t// out\n        /* \"#utility.yul\":8548:8709   */\n    tag_351:\n        /* \"#utility.yul\":8650:8702   */\n      tag_513\n        /* \"#utility.yul\":8696:8701   */\n      dup2\n        /* \"#utility.yul\":8650:8702   */\n      tag_350\n      jump\t// in\n    tag_513:\n        /* \"#utility.yul\":8645:8648   */\n      dup3\n        /* \"#utility.yul\":8638:8703   */\n      mstore\n        /* \"#utility.yul\":8548:8709   */\n      pop\n      pop\n      jump\t// out\n        /* \"#utility.yul\":8715:9702   */\n    tag_101:\n        /* \"#utility.yul\":9003:9007   */\n      0x00\n        /* \"#utility.yul\":9041:9044   */\n      0xc0\n        /* \"#utility.yul\":9030:9039   */\n      dup3\n        /* \"#utility.yul\":9026:9045   */\n      add\n        /* \"#utility.yul\":9018:9045   */\n      swap1\n      pop\n        /* \"#utility.yul\":9055:9126   */\n      tag_515\n        /* \"#utility.yul\":9123:9124   */\n      0x00\n        /* \"#utility.yul\":9112:9121   */\n      dup4\n        /* \"#utility.yul\":9108:9125   */\n      add\n        /* \"#utility.yul\":9099:9105   */\n      dup10\n        /* \"#utility.yul\":9055:9126   */\n      tag_343\n      jump\t// in\n    tag_515:\n        /* \"#utility.yul\":9173:9182   */\n      dup2\n        /* \"#utility.yul\":9167:9171   */\n      dup2\n        /* \"#utility.yul\":9163:9183   */\n      sub\n        /* \"#utility.yul\":9158:9160   */\n      0x20\n        /* \"#utility.yul\":9147:9156   */\n      dup4\n        /* \"#utility.yul\":9143:9161   */\n      add\n        /* \"#utility.yul\":9136:9184   */\n      mstore\n        /* \"#utility.yul\":9201:9279   */\n      tag_516\n        /* \"#utility.yul\":9274:9278   */\n      dup2\n        /* \"#utility.yul\":9265:9271   */\n      dup9\n        /* \"#utility.yul\":9201:9279   */\n      tag_347\n      jump\t// in\n    tag_516:\n        /* \"#utility.yul\":9193:9279   */\n      swap1\n      pop\n        /* \"#utility.yul\":9326:9335   */\n      dup2\n        /* \"#utility.yul\":9320:9324   */\n      dup2\n        /* \"#utility.yul\":9316:9336   */\n      sub\n        /* \"#utility.yul\":9311:9313   */\n      0x40\n        /* \"#utility.yul\":9300:9309   */\n      dup4\n        /* \"#utility.yul\":9296:9314   */\n      add\n        /* \"#utility.yul\":9289:9337   */\n      mstore\n        /* \"#utility.yul\":9354:9432   */\n      tag_517\n        /* \"#utility.yul\":9427:9431   */\n      dup2\n        /* \"#utility.yul\":9418:9424   */\n      dup8\n        /* \"#utility.yul\":9354:9432   */\n      tag_347\n      jump\t// in\n    tag_517:\n        /* \"#utility.yul\":9346:9432   */\n      swap1\n      pop\n        /* \"#utility.yul\":9442:9514   */\n      tag_518\n        /* \"#utility.yul\":9510:9512   */\n      0x60\n        /* \"#utility.yul\":9499:9508   */\n      dup4\n        /* \"#utility.yul\":9495:9513   */\n      add\n        /* \"#utility.yul\":9486:9492   */\n      dup7\n        /* \"#utility.yul\":9442:9514   */\n      tag_326\n      jump\t// in\n    tag_518:\n        /* \"#utility.yul\":9524:9612   */\n      tag_519\n        /* \"#utility.yul\":9607:9610   */\n      0x80\n        /* \"#utility.yul\":9596:9605   */\n      dup4\n        /* \"#utility.yul\":9592:9611   */\n      add\n        /* \"#utility.yul\":9583:9589   */\n      dup6\n        /* \"#utility.yul\":9524:9612   */\n      tag_351\n      jump\t// in\n    tag_519:\n        /* \"#utility.yul\":9622:9695   */\n      tag_520\n        /* \"#utility.yul\":9690:9693   */\n      0xa0\n        /* \"#utility.yul\":9679:9688   */\n      dup4\n        /* \"#utility.yul\":9675:9694   */\n      add\n        /* \"#utility.yul\":9666:9672   */\n      dup5\n        /* \"#utility.yul\":9622:9695   */\n      tag_326\n      jump\t// in\n    tag_520:\n        /* \"#utility.yul\":8715:9702   */\n      swap8\n      swap7\n      pop\n      pop\n      pop\n      pop\n      pop\n      pop\n      pop\n      jump\t// out\n        /* \"#utility.yul\":9708:9768   */\n    tag_352:\n        /* \"#utility.yul\":9736:9739   */\n      0x00\n        /* \"#utility.yul\":9757:9762   */\n      dup2\n        /* \"#utility.yul\":9750:9762   */\n      swap1\n      pop\n        /* \"#utility.yul\":9708:9768   */\n      swap2\n      swap1\n      pop\n      jump\t// out\n        /* \"#utility.yul\":9774:9916   */\n    tag_353:\n        /* \"#utility.yul\":9824:9833   */\n      0x00\n        /* \"#utility.yul\":9857:9910   */\n      tag_523\n        /* \"#utility.yul\":9875:9909   */\n      tag_524\n        /* \"#utility.yul\":9884:9908   */\n      tag_525\n        /* \"#utility.yul\":9902:9907   */\n      dup5\n        /* \"#utility.yul\":9884:9908   */\n      tag_327\n      jump\t// in\n    tag_525:\n        /* \"#utility.yul\":9875:9909   */\n      tag_352\n      jump\t// in\n    tag_524:\n        /* \"#utility.yul\":9857:9910   */\n      tag_327\n      jump\t// in\n    tag_523:\n        /* \"#utility.yul\":9844:9910   */\n      swap1\n      pop\n        /* \"#utility.yul\":9774:9916   */\n      swap2\n      swap1\n      pop\n      jump\t// out\n        /* \"#utility.yul\":9922:10048   */\n    tag_354:\n        /* \"#utility.yul\":9972:9981   */\n      0x00\n        /* \"#utility.yul\":10005:10042   */\n      tag_527\n        /* \"#utility.yul\":10036:10041   */\n      dup3\n        /* \"#utility.yul\":10005:10042   */\n      tag_353\n      jump\t// in\n    tag_527:\n        /* \"#utility.yul\":9992:10042   */\n      swap1\n      pop\n        /* \"#utility.yul\":9922:10048   */\n      swap2\n      swap1\n      pop\n      jump\t// out\n        /* \"#utility.yul\":10054:10194   */\n    tag_355:\n        /* \"#utility.yul\":10118:10127   */\n      0x00\n        /* \"#utility.yul\":10151:10188   */\n      tag_529\n        /* \"#utility.yul\":10182:10187   */\n      dup3\n        /* \"#utility.yul\":10151:10188   */\n      tag_354\n      jump\t// in\n    tag_529:\n        /* \"#utility.yul\":10138:10188   */\n      swap1\n      pop\n        /* \"#utility.yul\":10054:10194   */\n      swap2\n      swap1\n      pop\n      jump\t// out\n        /* \"#utility.yul\":10200:10359   */\n    tag_356:\n        /* \"#utility.yul\":10301:10352   */\n      tag_531\n        /* \"#utility.yul\":10346:10351   */\n      dup2\n        /* \"#utility.yul\":10301:10352   */\n      tag_355\n      jump\t// in\n    tag_531:\n        /* \"#utility.yul\":10296:10299   */\n      dup3\n        /* \"#utility.yul\":10289:10353   */\n      mstore\n        /* \"#utility.yul\":10200:10359   */\n      pop\n      pop\n      jump\t// out\n        /* \"#utility.yul\":10365:10615   */\n    tag_126:\n        /* \"#utility.yul\":10472:10476   */\n      0x00\n        /* \"#utility.yul\":10510:10512   */\n      0x20\n        /* \"#utility.yul\":10499:10508   */\n      dup3\n        /* \"#utility.yul\":10495:10513   */\n      add\n        /* \"#utility.yul\":10487:10513   */\n      swap1\n      pop\n        /* \"#utility.yul\":10523:10608   */\n      tag_533\n        /* \"#utility.yul\":10605:10606   */\n      0x00\n        /* \"#utility.yul\":10594:10603   */\n      dup4\n        /* \"#utility.yul\":10590:10607   */\n      add\n        /* \"#utility.yul\":10581:10587   */\n      dup5\n        /* \"#utility.yul\":10523:10608   */\n      tag_356\n      jump\t// in\n    tag_533:\n        /* \"#utility.yul\":10365:10615   */\n      swap3\n      swap2\n      pop\n      pop\n      jump\t// out\n        /* \"#utility.yul\":10621:10793   */\n    tag_357:\n        /* \"#utility.yul\":10761:10785   */\n      0x436f6e74656e7420646f6573206e6f7420657869737400000000000000000000\n        /* \"#utility.yul\":10757:10758   */\n      0x00\n        /* \"#utility.yul\":10749:10755   */\n      dup3\n        /* \"#utility.yul\":10745:10759   */\n      add\n        /* \"#utility.yul\":10738:10786   */\n      mstore\n        /* \"#utility.yul\":10621:10793   */\n      pop\n      jump\t// out\n        /* \"#utility.yul\":10799:11165   */\n    tag_358:\n        /* \"#utility.yul\":10941:10944   */\n      0x00\n        /* \"#utility.yul\":10962:11029   */\n      tag_536\n        /* \"#utility.yul\":11026:11028   */\n      0x16\n        /* \"#utility.yul\":11021:11024   */\n      dup4\n        /* \"#utility.yul\":10962:11029   */\n      tag_345\n      jump\t// in\n    tag_536:\n        /* \"#utility.yul\":10955:11029   */\n      swap2\n      pop\n        /* \"#utility.yul\":11038:11131   */\n      tag_537\n        /* \"#utility.yul\":11127:11130   */\n      dup3\n        /* \"#utility.yul\":11038:11131   */\n      tag_357\n      jump\t// in\n    tag_537:\n        /* \"#utility.yul\":11156:11158   */\n      0x20\n        /* \"#utility.yul\":11151:11154   */\n      dup3\n        /* \"#utility.yul\":11147:11159   */\n      add\n        /* \"#utility.yul\":11140:11159   */\n      swap1\n      pop\n        /* \"#utility.yul\":10799:11165   */\n      swap2\n      swap1\n      pop\n      jump\t// out\n        /* \"#utility.yul\":11171:11590   */\n    tag_136:\n        /* \"#utility.yul\":11337:11341   */\n      0x00\n        /* \"#utility.yul\":11375:11377   */\n      0x20\n        /* \"#utility.yul\":11364:11373   */\n      dup3\n        /* \"#utility.yul\":11360:11378   */\n      add\n        /* \"#utility.yul\":11352:11378   */\n      swap1\n      pop\n        /* \"#utility.yul\":11424:11433   */\n      dup2\n        /* \"#utility.yul\":11418:11422   */\n      dup2\n        /* \"#utility.yul\":11414:11434   */\n      sub\n        /* \"#utility.yul\":11410:11411   */\n      0x00\n        /* \"#utility.yul\":11399:11408   */\n      dup4\n        /* \"#utility.yul\":11395:11412   */\n      add\n        /* \"#utility.yul\":11388:11435   */\n      mstore\n        /* \"#utility.yul\":11452:11583   */\n      tag_539\n        /* \"#utility.yul\":11578:11582   */\n      dup2\n        /* \"#utility.yul\":11452:11583   */\n      tag_358\n      jump\t// in\n    tag_539:\n        /* \"#utility.yul\":11444:11583   */\n      swap1\n      pop\n        /* \"#utility.yul\":11171:11590   */\n      swap2\n      swap1\n      pop\n      jump\t// out\n        /* \"#utility.yul\":11596:11776   */\n    tag_145:\n        /* \"#utility.yul\":11644:11721   */\n      0x4e487b7100000000000000000000000000000000000000000000000000000000\n        /* \"#utility.yul\":11641:11642   */\n      0x00\n        /* \"#utility.yul\":11634:11722   */\n      mstore\n        /* \"#utility.yul\":11741:11745   */\n      0x32\n        /* \"#utility.yul\":11738:11739   */\n      0x04\n        /* \"#utility.yul\":11731:11746   */\n      mstore\n        /* \"#utility.yul\":11765:11769   */\n      0x24\n        /* \"#utility.yul\":11762:11763   */\n      0x00\n        /* \"#utility.yul\":11755:11770   */\n      revert\n        /* \"#utility.yul\":11782:11962   */\n    tag_359:\n        /* \"#utility.yul\":11830:11907   */\n      0x4e487b7100000000000000000000000000000000000000000000000000000000\n        /* \"#utility.yul\":11827:11828   */\n      0x00\n        /* \"#utility.yul\":11820:11908   */\n      mstore\n        /* \"#utility.yul\":11927:11931   */\n      0x11\n        /* \"#utility.yul\":11924:11925   */\n      0x04\n        /* \"#utility.yul\":11917:11932   */\n      mstore\n        /* \"#utility.yul\":11951:11955   */\n      0x24\n        /* \"#utility.yul\":11948:11949   */\n      0x00\n        /* \"#utility.yul\":11941:11956   */\n      revert\n        /* \"#utility.yul\":11968:12162   */\n    tag_149:\n        /* \"#utility.yul\":12008:12012   */\n      0x00\n        /* \"#utility.yul\":12028:12048   */\n      tag_543\n        /* \"#utility.yul\":12046:12047   */\n      dup3\n        /* \"#utility.yul\":12028:12048   */\n      tag_323\n      jump\t// in\n    tag_543:\n        /* \"#utility.yul\":12023:12048   */\n      swap2\n      pop\n        /* \"#utility.yul\":12062:12082   */\n      tag_544\n        /* \"#utility.yul\":12080:12081   */\n      dup4\n        /* \"#utility.yul\":12062:12082   */\n      tag_323\n      jump\t// in\n    tag_544:\n        /* \"#utility.yul\":12057:12082   */\n      swap3\n      pop\n        /* \"#utility.yul\":12106:12107   */\n      dup3\n        /* \"#utility.yul\":12103:12104   */\n      dup3\n        /* \"#utility.yul\":12099:12108   */\n      sub\n        /* \"#utility.yul\":12091:12108   */\n      swap1\n      pop\n        /* \"#utility.yul\":12130:12131   */\n      dup2\n        /* \"#utility.yul\":12124:12128   */\n      dup2\n        /* \"#utility.yul\":12121:12132   */\n      gt\n        /* \"#utility.yul\":12118:12155   */\n      iszero\n      tag_545\n      jumpi\n        /* \"#utility.yul\":12135:12153   */\n      tag_546\n      tag_359\n      jump\t// in\n    tag_546:\n        /* \"#utility.yul\":12118:12155   */\n    tag_545:\n        /* \"#utility.yul\":11968:12162   */\n      swap3\n      swap2\n      pop\n      pop\n      jump\t// out\n        /* \"#utility.yul\":12168:12348   */\n    tag_158:\n        /* \"#utility.yul\":12216:12293   */\n      0x4e487b7100000000000000000000000000000000000000000000000000000000\n        /* \"#utility.yul\":12213:12214   */\n      0x00\n        /* \"#utility.yul\":12206:12294   */\n      mstore\n        /* \"#utility.yul\":12313:12317   */\n      0x31\n        /* \"#utility.yul\":12310:12311   */\n      0x04\n        /* \"#utility.yul\":12303:12318   */\n      mstore\n        /* \"#utility.yul\":12337:12341   */\n      0x24\n        /* \"#utility.yul\":12334:12335   */\n      0x00\n        /* \"#utility.yul\":12327:12342   */\n      revert\n        /* \"#utility.yul\":12354:12587   */\n    tag_161:\n        /* \"#utility.yul\":12393:12396   */\n      0x00\n        /* \"#utility.yul\":12416:12440   */\n      tag_549\n        /* \"#utility.yul\":12434:12439   */\n      dup3\n        /* \"#utility.yul\":12416:12440   */\n      tag_323\n      jump\t// in\n    tag_549:\n        /* \"#utility.yul\":12407:12440   */\n      swap2\n      pop\n        /* \"#utility.yul\":12462:12528   */\n      0xffffffffffffffffffffffffffffffffffffffffffffffffffffffffffffffff\n        /* \"#utility.yul\":12455:12460   */\n      dup3\n        /* \"#utility.yul\":12452:12529   */\n      sub\n        /* \"#utility.yul\":12449:12552   */\n      tag_550\n      jumpi\n        /* \"#utility.yul\":12532:12550   */\n      tag_551\n      tag_359\n      jump\t// in\n    tag_551:\n        /* \"#utility.yul\":12449:12552   */\n    tag_550:\n        /* \"#utility.yul\":12579:12580   */\n      0x01\n        /* \"#utility.yul\":12572:12577   */\n      dup3\n        /* \"#utility.yul\":12568:12581   */\n      add\n        /* \"#utility.yul\":12561:12581   */\n      swap1\n      pop\n        /* \"#utility.yul\":12354:12587   */\n      swap2\n      swap1\n      pop\n      jump\t// out\n        /* \"#utility.yul\":12593:12773   */\n    tag_360:\n        /* \"#utility.yul\":12641:12718   */\n      0x4e487b7100000000000000000000000000000000000000000000000000000000\n        /* \"#utility.yul\":12638:12639   */\n      0x00\n        /* \"#utility.yul\":12631:12719   */\n      mstore\n        /* \"#utility.yul\":12738:12742   */\n      0x22\n        /* \"#utility.yul\":12735:12736   */\n      0x04\n        /* \"#utility.yul\":12728:12743   */\n      mstore\n        /* \"#utility.yul\":12762:12766   */\n      0x24\n        /* \"#utility.yul\":12759:12760   */\n      0x00\n        /* \"#utility.yul\":12752:12767   */\n      revert\n        /* \"#utility.yul\":12779:13099   */\n    tag_245:\n        /* \"#utility.yul\":12823:12829   */\n      0x00\n        /* \"#utility.yul\":12860:12861   */\n      0x02\n        /* \"#utility.yul\":12854:12858   */\n      dup3\n        /* \"#utility.yul\":12850:12862   */\n      div\n        /* \"#utility.yul\":12840:12862   */\n      swap1\n      pop\n        /* \"#utility.yul\":12907:12908   */\n      0x01\n        /* \"#utility.yul\":12901:12905   */\n      dup3\n        /* \"#utility.yul\":12897:12909   */\n      and\n        /* \"#utility.yul\":12928:12946   */\n      dup1\n        /* \"#utility.yul\":12918:12999   */\n      tag_554\n      jumpi\n        /* \"#utility.yul\":12984:12988   */\n      0x7f\n        /* \"#utility.yul\":12976:12982   */\n      dup3\n        /* \"#utility.yul\":12972:12989   */\n      and\n        /* \"#utility.yul\":12962:12989   */\n      swap2\n      pop\n        /* \"#utility.yul\":12918:12999   */\n    tag_554:\n        /* \"#utility.yul\":13046:13048   */\n      0x20\n        /* \"#utility.yul\":13038:13044   */\n      dup3\n        /* \"#utility.yul\":13035:13049   */\n      lt\n        /* \"#utility.yul\":13015:13033   */\n      dup2\n        /* \"#utility.yul\":13012:13050   */\n      sub\n        /* \"#utility.yul\":13009:13093   */\n      tag_555\n      jumpi\n        /* \"#utility.yul\":13065:13083   */\n      tag_556\n      tag_360\n      jump\t// in\n    tag_556:\n        /* \"#utility.yul\":13009:13093   */\n    tag_555:\n        /* \"#utility.yul\":12830:13099   */\n      pop\n        /* \"#utility.yul\":12779:13099   */\n      swap2\n      swap1\n      pop\n      jump\t// out\n        /* \"#utility.yul\":13105:13246   */\n    tag_361:\n        /* \"#utility.yul\":13154:13158   */\n      0x00\n        /* \"#utility.yul\":13177:13180   */\n      dup2\n        /* \"#utility.yul\":13169:13180   */\n      swap1\n      pop\n        /* \"#utility.yul\":13200:13203   */\n      dup2\n        /* \"#utility.yul\":13197:13198   */\n      0x00\n        /* \"#utility.yul\":13190:13204   */\n      mstore\n        /* \"#utility.yul\":13234:13238   */\n      0x20\n        /* \"#utility.yul\":13231:13232   */\n      0x00\n        /* \"#utility.yul\":13221:13239   */\n      keccak256\n        /* \"#utility.yul\":13213:13239   */\n      swap1\n      pop\n        /* \"#utility.yul\":13105:13246   */\n      swap2\n      swap1\n      pop\n      jump\t// out\n        /* \"#utility.yul\":13276:14107   */\n    tag_362:\n        /* \"#utility.yul\":13361:13364   */\n      0x00\n        /* \"#utility.yul\":13398:13403   */\n      dup2\n        /* \"#utility.yul\":13392:13404   */\n      sload\n        /* \"#utility.yul\":13427:13463   */\n      tag_559\n        /* \"#utility.yul\":13453:13462   */\n      dup2\n        /* \"#utility.yul\":13427:13463   */\n      tag_245\n      jump\t// in\n    tag_559:\n        /* \"#utility.yul\":13479:13550   */\n      tag_560\n        /* \"#utility.yul\":13543:13549   */\n      dup2\n        /* \"#utility.yul\":13538:13541   */\n      dup7\n        /* \"#utility.yul\":13479:13550   */\n      tag_345\n      jump\t// in\n    tag_560:\n        /* \"#utility.yul\":13472:13550   */\n      swap5\n      pop\n        /* \"#utility.yul\":13581:13582   */\n      0x01\n        /* \"#utility.yul\":13570:13579   */\n      dup3\n        /* \"#utility.yul\":13566:13583   */\n      and\n        /* \"#utility.yul\":13597:13598   */\n      0x00\n        /* \"#utility.yul\":13592:13756   */\n      dup2\n      eq\n      tag_562\n      jumpi\n        /* \"#utility.yul\":13770:13771   */\n      0x01\n        /* \"#utility.yul\":13765:14101   */\n      dup2\n      eq\n      tag_563\n      jumpi\n        /* \"#utility.yul\":13559:14101   */\n      jump(tag_561)\n        /* \"#utility.yul\":13592:13756   */\n    tag_562:\n        /* \"#utility.yul\":13676:13680   */\n      0xff\n        /* \"#utility.yul\":13672:13681   */\n      not\n        /* \"#utility.yul\":13661:13670   */\n      dup4\n        /* \"#utility.yul\":13657:13682   */\n      and\n        /* \"#utility.yul\":13652:13655   */\n      dup7\n        /* \"#utility.yul\":13645:13683   */\n      mstore\n        /* \"#utility.yul\":13736:13742   */\n      dup2\n        /* \"#utility.yul\":13729:13743   */\n      iszero\n        /* \"#utility.yul\":13722:13744   */\n      iszero\n        /* \"#utility.yul\":13716:13720   */\n      0x20\n        /* \"#utility.yul\":13712:13745   */\n      mul\n        /* \"#utility.yul\":13707:13710   */\n      dup7\n        /* \"#utility.yul\":13703:13746   */\n      add\n        /* \"#utility.yul\":13696:13746   */\n      swap4\n      pop\n        /* \"#utility.yul\":13592:13756   */\n      jump(tag_561)\n        /* \"#utility.yul\":13765:14101   */\n    tag_563:\n        /* \"#utility.yul\":13832:13870   */\n      tag_564\n        /* \"#utility.yul\":13864:13869   */\n      dup6\n        /* \"#utility.yul\":13832:13870   */\n      tag_361\n      jump\t// in\n    tag_564:\n        /* \"#utility.yul\":13892:13893   */\n      0x00\n        /* \"#utility.yul\":13906:14060   */\n    tag_565:\n        /* \"#utility.yul\":13920:13926   */\n      dup4\n        /* \"#utility.yul\":13917:13918   */\n      dup2\n        /* \"#utility.yul\":13914:13927   */\n      lt\n        /* \"#utility.yul\":13906:14060   */\n      iszero\n      tag_567\n      jumpi\n        /* \"#utility.yul\":13994:14001   */\n      dup2\n        /* \"#utility.yul\":13988:14002   */\n      sload\n        /* \"#utility.yul\":13984:13985   */\n      dup2\n        /* \"#utility.yul\":13979:13982   */\n      dup10\n        /* \"#utility.yul\":13975:13986   */\n      add\n        /* \"#utility.yul\":13968:14003   */\n      mstore\n        /* \"#utility.yul\":14044:14045   */\n      0x01\n        /* \"#utility.yul\":14035:14042   */\n      dup3\n        /* \"#utility.yul\":14031:14046   */\n      add\n        /* \"#utility.yul\":14020:14046   */\n      swap2\n      pop\n        /* \"#utility.yul\":13942:13946   */\n      0x20\n        /* \"#utility.yul\":13939:13940   */\n      dup2\n        /* \"#utility.yul\":13935:13947   */\n      add\n        /* \"#utility.yul\":13930:13947   */\n      swap1\n      pop\n        /* \"#utility.yul\":13906:14060   */\n      jump(tag_565)\n    tag_567:\n        /* \"#utility.yul\":14089:14090   */\n      dup1\n        /* \"#utility.yul\":14084:14087   */\n      dup9\n        /* \"#utility.yul\":14080:14091   */\n      add\n        /* \"#utility.yul\":14073:14091   */\n      swap6\n      pop\n        /* \"#utility.yul\":13772:14101   */\n      pop\n      pop\n        /* \"#utility.yul\":13559:14101   */\n    tag_561:\n      pop\n        /* \"#utility.yul\":13365:14107   */\n      pop\n      pop\n        /* \"#utility.yul\":13276:14107   */\n      swap3\n      swap2\n      pop\n      pop\n      jump\t// out\n        /* \"#utility.yul\":14113:14420   */\n    tag_163:\n        /* \"#utility.yul\":14223:14227   */\n      0x00\n        /* \"#utility.yul\":14261:14263   */\n      0x20\n        /* \"#utility.yul\":14250:14259   */\n      dup3\n        /* \"#utility.yul\":14246:14264   */\n      add\n        /* \"#utility.yul\":14238:14264   */\n      swap1\n      pop\n        /* \"#utility.yul\":14310:14319   */\n      dup2\n        /* \"#utility.yul\":14304:14308   */\n      dup2\n        /* \"#utility.yul\":14300:14320   */\n      sub\n        /* \"#utility.yul\":14296:14297   */\n      0x00\n        /* \"#utility.yul\":14285:14294   */\n      dup4\n        /* \"#utility.yul\":14281:14298   */\n      add\n        /* \"#utility.yul\":14274:14321   */\n      mstore\n        /* \"#utility.yul\":14338:14413   */\n      tag_569\n        /* \"#utility.yul\":14408:14412   */\n      dup2\n        /* \"#utility.yul\":14399:14405   */\n      dup5\n        /* \"#utility.yul\":14338:14413   */\n      tag_362\n      jump\t// in\n    tag_569:\n        /* \"#utility.yul\":14330:14413   */\n      swap1\n      pop\n        /* \"#utility.yul\":14113:14420   */\n      swap3\n      swap2\n      pop\n      pop\n      jump\t// out\n        /* \"#utility.yul\":14426:14650   */\n    tag_363:\n        /* \"#utility.yul\":14566:14600   */\n      0x4d61782072657075746174696f6e206d75737420626520677265617465722074\n        /* \"#utility.yul\":14562:14563   */\n      0x00\n        /* \"#utility.yul\":14554:14560   */\n      dup3\n        /* \"#utility.yul\":14550:14564   */\n      add\n        /* \"#utility.yul\":14543:14601   */\n      mstore\n        /* \"#utility.yul\":14635:14642   */\n      0x68616e2030000000000000000000000000000000000000000000000000000000\n        /* \"#utility.yul\":14630:14632   */\n      0x20\n        /* \"#utility.yul\":14622:14628   */\n      dup3\n        /* \"#utility.yul\":14618:14633   */\n      add\n        /* \"#utility.yul\":14611:14643   */\n      mstore\n        /* \"#utility.yul\":14426:14650   */\n      pop\n      jump\t// out\n        /* \"#utility.yul\":14656:15022   */\n    tag_364:\n        /* \"#utility.yul\":14798:14801   */\n      0x00\n        /* \"#utility.yul\":14819:14886   */\n      tag_572\n        /* \"#utility.yul\":14883:14885   */\n      0x25\n        /* \"#utility.yul\":14878:14881   */\n      dup4\n        /* \"#utility.yul\":14819:14886   */\n      tag_345\n      jump\t// in\n    tag_572:\n        /* \"#utility.yul\":14812:14886   */\n      swap2\n      pop\n        /* \"#utility.yul\":14895:14988   */\n      tag_573\n        /* \"#utility.yul\":14984:14987   */\n      dup3\n        /* \"#utility.yul\":14895:14988   */\n      tag_363\n      jump\t// in\n    tag_573:\n        /* \"#utility.yul\":15013:15015   */\n      0x40\n        /* \"#utility.yul\":15008:15011   */\n      dup3\n        /* \"#utility.yul\":15004:15016   */\n      add\n        /* \"#utility.yul\":14997:15016   */\n      swap1\n      pop\n        /* \"#utility.yul\":14656:15022   */\n      swap2\n      swap1\n      pop\n      jump\t// out\n        /* \"#utility.yul\":15028:15447   */\n    tag_169:\n        /* \"#utility.yul\":15194:15198   */\n      0x00\n        /* \"#utility.yul\":15232:15234   */\n      0x20\n        /* \"#utility.yul\":15221:15230   */\n      dup3\n        /* \"#utility.yul\":15217:15235   */\n      add\n        /* \"#utility.yul\":15209:15235   */\n      swap1\n      pop\n        /* \"#utility.yul\":15281:15290   */\n      dup2\n        /* \"#utility.yul\":15275:15279   */\n      dup2\n        /* \"#utility.yul\":15271:15291   */\n      sub\n        /* \"#utility.yul\":15267:15268   */\n      0x00\n        /* \"#utility.yul\":15256:15265   */\n      dup4\n        /* \"#utility.yul\":15252:15269   */\n      add\n        /* \"#utility.yul\":15245:15292   */\n      mstore\n        /* \"#utility.yul\":15309:15440   */\n      tag_575\n        /* \"#utility.yul\":15435:15439   */\n      dup2\n        /* \"#utility.yul\":15309:15440   */\n      tag_364\n      jump\t// in\n    tag_575:\n        /* \"#utility.yul\":15301:15440   */\n      swap1\n      pop\n        /* \"#utility.yul\":15028:15447   */\n      swap2\n      swap1\n      pop\n      jump\t// out\n        /* \"#utility.yul\":15453:15621   */\n    tag_365:\n        /* \"#utility.yul\":15593:15613   */\n      0x436f6e7472616374206973207061757365640000000000000000000000000000\n        /* \"#utility.yul\":15589:15590   */\n      0x00\n        /* \"#utility.yul\":15581:15587   */\n      dup3\n        /* \"#utility.yul\":15577:15591   */\n      add\n        /* \"#utility.yul\":15570:15614   */\n      mstore\n        /* \"#utility.yul\":15453:15621   */\n      pop\n      jump\t// out\n        /* \"#utility.yul\":15627:15993   */\n    tag_366:\n        /* \"#utility.yul\":15769:15772   */\n      0x00\n        /* \"#utility.yul\":15790:15857   */\n      tag_578\n        /* \"#utility.yul\":15854:15856   */\n      0x12\n        /* \"#utility.yul\":15849:15852   */\n      dup4\n        /* \"#utility.yul\":15790:15857   */\n      tag_345\n      jump\t// in\n    tag_578:\n        /* \"#utility.yul\":15783:15857   */\n      swap2\n      pop\n        /* \"#utility.yul\":15866:15959   */\n      tag_579\n        /* \"#utility.yul\":15955:15958   */\n      dup3\n        /* \"#utility.yul\":15866:15959   */\n      tag_365\n      jump\t// in\n    tag_579:\n        /* \"#utility.yul\":15984:15986   */\n      0x20\n        /* \"#utility.yul\":15979:15982   */\n      dup3\n        /* \"#utility.yul\":15975:15987   */\n      add\n        /* \"#utility.yul\":15968:15987   */\n      swap1\n      pop\n        /* \"#utility.yul\":15627:15993   */\n      swap2\n      swap1\n      pop\n      jump\t// out\n        /* \"#utility.yul\":15999:16418   */\n    tag_181:\n        /* \"#utility.yul\":16165:16169   */\n      0x00\n        /* \"#utility.yul\":16203:16205   */\n      0x20\n        /* \"#utility.yul\":16192:16201   */\n      dup3\n        /* \"#utility.yul\":16188:16206   */\n      add\n        /* \"#utility.yul\":16180:16206   */\n      swap1\n      pop\n        /* \"#utility.yul\":16252:16261   */\n      dup2\n        /* \"#utility.yul\":16246:16250   */\n      dup2\n        /* \"#utility.yul\":16242:16262   */\n      sub\n        /* \"#utility.yul\":16238:16239   */\n      0x00\n        /* \"#utility.yul\":16227:16236   */\n      dup4\n        /* \"#utility.yul\":16223:16240   */\n      add\n        /* \"#utility.yul\":16216:16263   */\n      mstore\n        /* \"#utility.yul\":16280:16411   */\n      tag_581\n        /* \"#utility.yul\":16406:16410   */\n      dup2\n        /* \"#utility.yul\":16280:16411   */\n      tag_366\n      jump\t// in\n    tag_581:\n        /* \"#utility.yul\":16272:16411   */\n      swap1\n      pop\n        /* \"#utility.yul\":15999:16418   */\n      swap2\n      swap1\n      pop\n      jump\t// out\n        /* \"#utility.yul\":16424:16648   */\n    tag_367:\n        /* \"#utility.yul\":16564:16598   */\n      0x5469746c6520616e64206465736372697074696f6e2063616e6e6f7420626520\n        /* \"#utility.yul\":16560:16561   */\n      0x00\n        /* \"#utility.yul\":16552:16558   */\n      dup3\n        /* \"#utility.yul\":16548:16562   */\n      add\n        /* \"#utility.yul\":16541:16599   */\n      mstore\n        /* \"#utility.yul\":16633:16640   */\n      0x656d707479000000000000000000000000000000000000000000000000000000\n        /* \"#utility.yul\":16628:16630   */\n      0x20\n        /* \"#utility.yul\":16620:16626   */\n      dup3\n        /* \"#utility.yul\":16616:16631   */\n      add\n        /* \"#utility.yul\":16609:16641   */\n      mstore\n        /* \"#utility.yul\":16424:16648   */\n      pop\n      jump\t// out\n        /* \"#utility.yul\":16654:17020   */\n    tag_368:\n        /* \"#utility.yul\":16796:16799   */\n      0x00\n        /* \"#utility.yul\":16817:16884   */\n      tag_584\n        /* \"#utility.yul\":16881:16883   */\n      0x25\n        /* \"#utility.yul\":16876:16879   */\n      dup4\n        /* \"#utility.yul\":16817:16884   */\n      tag_345\n      jump\t// in\n    tag_584:\n        /* \"#utility.yul\":16810:16884   */\n      swap2\n      pop\n        /* \"#utility.yul\":16893:16986   */\n      tag_585\n        /* \"#utility.yul\":16982:16985   */\n      dup3\n        /* \"#utility.yul\":16893:16986   */\n      tag_367\n      jump\t// in\n    tag_585:\n        /* \"#utility.yul\":17011:17013   */\n      0x40\n        /* \"#utility.yul\":17006:17009   */\n      dup3\n        /* \"#utility.yul\":17002:17014   */\n      add\n        /* \"#utility.yul\":16995:17014   */\n      swap1\n      pop\n        /* \"#utility.yul\":16654:17020   */\n      swap2\n      swap1\n      pop\n      jump\t// out\n        /* \"#utility.yul\":17026:17445   */\n    tag_186:\n        /* \"#utility.yul\":17192:17196   */\n      0x00\n        /* \"#utility.yul\":17230:17232   */\n      0x20\n        /* \"#utility.yul\":17219:17228   */\n      dup3\n        /* \"#utility.yul\":17215:17233   */\n      add\n        /* \"#utility.yul\":17207:17233   */\n      swap1\n      pop\n        /* \"#utility.yul\":17279:17288   */\n      dup2\n        /* \"#utility.yul\":17273:17277   */\n      dup2\n        /* \"#utility.yul\":17269:17289   */\n      sub\n        /* \"#utility.yul\":17265:17266   */\n      0x00\n        /* \"#utility.yul\":17254:17263   */\n      dup4\n        /* \"#utility.yul\":17250:17267   */\n      add\n        /* \"#utility.yul\":17243:17290   */\n      mstore\n        /* \"#utility.yul\":17307:17438   */\n      tag_587\n        /* \"#utility.yul\":17433:17437   */\n      dup2\n        /* \"#utility.yul\":17307:17438   */\n      tag_368\n      jump\t// in\n    tag_587:\n        /* \"#utility.yul\":17299:17438   */\n      swap1\n      pop\n        /* \"#utility.yul\":17026:17445   */\n      swap2\n      swap1\n      pop\n      jump\t// out\n        /* \"#utility.yul\":17451:17544   */\n    tag_369:\n        /* \"#utility.yul\":17488:17494   */\n      0x00\n        /* \"#utility.yul\":17535:17537   */\n      0x20\n        /* \"#utility.yul\":17530:17532   */\n      0x1f\n        /* \"#utility.yul\":17523:17528   */\n      dup4\n        /* \"#utility.yul\":17519:17533   */\n      add\n        /* \"#utility.yul\":17515:17538   */\n      div\n        /* \"#utility.yul\":17505:17538   */\n      swap1\n      pop\n        /* \"#utility.yul\":17451:17544   */\n      swap2\n      swap1\n      pop\n      jump\t// out\n        /* \"#utility.yul\":17550:17657   */\n    tag_370:\n        /* \"#utility.yul\":17594:17602   */\n      0x00\n        /* \"#utility.yul\":17644:17649   */\n      dup3\n        /* \"#utility.yul\":17638:17642   */\n      dup3\n        /* \"#utility.yul\":17634:17650   */\n      shl\n        /* \"#utility.yul\":17613:17650   */\n      swap1\n      pop\n        /* \"#utility.yul\":17550:17657   */\n      swap3\n      swap2\n      pop\n      pop\n      jump\t// out\n        /* \"#utility.yul\":17663:18056   */\n    tag_371:\n        /* \"#utility.yul\":17732:17738   */\n      0x00\n        /* \"#utility.yul\":17782:17783   */\n      0x08\n        /* \"#utility.yul\":17770:17780   */\n      dup4\n        /* \"#utility.yul\":17766:17784   */\n      mul\n        /* \"#utility.yul\":17805:17902   */\n      tag_591\n        /* \"#utility.yul\":17835:17901   */\n      0xffffffffffffffffffffffffffffffffffffffffffffffffffffffffffffffff\n        /* \"#utility.yul\":17824:17833   */\n      dup3\n        /* \"#utility.yul\":17805:17902   */\n      tag_370\n      jump\t// in\n    tag_591:\n        /* \"#utility.yul\":17923:17962   */\n      tag_592\n        /* \"#utility.yul\":17953:17961   */\n      dup7\n        /* \"#utility.yul\":17942:17951   */\n      dup4\n        /* \"#utility.yul\":17923:17962   */\n      tag_370\n      jump\t// in\n    tag_592:\n        /* \"#utility.yul\":17911:17962   */\n      swap6\n      pop\n        /* \"#utility.yul\":17995:17999   */\n      dup1\n        /* \"#utility.yul\":17991:18000   */\n      not\n        /* \"#utility.yul\":17984:17989   */\n      dup5\n        /* \"#utility.yul\":17980:18001   */\n      and\n        /* \"#utility.yul\":17971:18001   */\n      swap4\n      pop\n        /* \"#utility.yul\":18044:18048   */\n      dup1\n        /* \"#utility.yul\":18034:18042   */\n      dup7\n        /* \"#utility.yul\":18030:18049   */\n      and\n        /* \"#utility.yul\":18023:18028   */\n      dup5\n        /* \"#utility.yul\":18020:18050   */\n      or\n        /* \"#utility.yul\":18010:18050   */\n      swap3\n      pop\n        /* \"#utility.yul\":17739:18056   */\n      pop\n      pop\n        /* \"#utility.yul\":17663:18056   */\n      swap4\n      swap3\n      pop\n      pop\n      pop\n      jump\t// out\n        /* \"#utility.yul\":18062:18204   */\n    tag_372:\n        /* \"#utility.yul\":18112:18121   */\n      0x00\n        /* \"#utility.yul\":18145:18198   */\n      tag_594\n        /* \"#utility.yul\":18163:18197   */\n      tag_595\n        /* \"#utility.yul\":18172:18196   */\n      tag_596\n        /* \"#utility.yul\":18190:18195   */\n      dup5\n        /* \"#utility.yul\":18172:18196   */\n      tag_323\n      jump\t// in\n    tag_596:\n        /* \"#utility.yul\":18163:18197   */\n      tag_352\n      jump\t// in\n    tag_595:\n        /* \"#utility.yul\":18145:18198   */\n      tag_323\n      jump\t// in\n    tag_594:\n        /* \"#utility.yul\":18132:18198   */\n      swap1\n      pop\n        /* \"#utility.yul\":18062:18204   */\n      swap2\n      swap1\n      pop\n      jump\t// out\n        /* \"#utility.yul\":18210:18285   */\n    tag_373:\n        /* \"#utility.yul\":18253:18256   */\n      0x00\n        /* \"#utility.yul\":18274:18279   */\n      dup2\n        /* \"#utility.yul\":18267:18279   */\n      swap1\n      pop\n        /* \"#utility.yul\":18210:18285   */\n      swap2\n      swap1\n      pop\n      jump\t// out\n        /* \"#utility.yul\":18291:18560   */\n    tag_374:\n        /* \"#utility.yul\":18401:18440   */\n      tag_599\n        /* \"#utility.yul\":18432:18439   */\n      dup4\n        /* \"#utility.yul\":18401:18440   */\n      tag_372\n      jump\t// in\n    tag_599:\n        /* \"#utility.yul\":18462:18553   */\n      tag_600\n        /* \"#utility.yul\":18511:18552   */\n      tag_601\n        /* \"#utility.yul\":18535:18551   */\n      dup3\n        /* \"#utility.yul\":18511:18552   */\n      tag_373\n      jump\t// in\n    tag_601:\n        /* \"#utility.yul\":18503:18509   */\n      dup5\n        /* \"#utility.yul\":18496:18500   */\n      dup5\n        /* \"#utility.yul\":18490:18501   */\n      sload\n        /* \"#utility.yul\":18462:18553   */\n      tag_371\n      jump\t// in\n    tag_600:\n        /* \"#utility.yul\":18456:18460   */\n      dup3\n        /* \"#utility.yul\":18449:18554   */\n      sstore\n        /* \"#utility.yul\":18367:18560   */\n      pop\n        /* \"#utility.yul\":18291:18560   */\n      pop\n      pop\n      pop\n      jump\t// out\n        /* \"#utility.yul\":18566:18639   */\n    tag_375:\n        /* \"#utility.yul\":18611:18614   */\n      0x00\n        /* \"#utility.yul\":18566:18639   */\n      swap1\n      jump\t// out\n        /* \"#utility.yul\":18645:18834   */\n    tag_376:\n        /* \"#utility.yul\":18722:18754   */\n      tag_604\n      tag_375\n      jump\t// in\n    tag_604:\n        /* \"#utility.yul\":18763:18828   */\n      tag_605\n        /* \"#utility.yul\":18821:18827   */\n      dup2\n        /* \"#utility.yul\":18813:18819   */\n      dup5\n        /* \"#utility.yul\":18807:18811   */\n      dup5\n        /* \"#utility.yul\":18763:18828   */\n      tag_374\n      jump\t// in\n    tag_605:\n        /* \"#utility.yul\":18698:18834   */\n      pop\n        /* \"#utility.yul\":18645:18834   */\n      pop\n      pop\n      jump\t// out\n        /* \"#utility.yul\":18840:19026   */\n    tag_377:\n        /* \"#utility.yul\":18900:19020   */\n    tag_607:\n        /* \"#utility.yul\":18917:18920   */\n      dup2\n        /* \"#utility.yul\":18910:18915   */\n      dup2\n        /* \"#utility.yul\":18907:18921   */\n      lt\n        /* \"#utility.yul\":18900:19020   */\n      iszero\n      tag_609\n      jumpi\n        /* \"#utility.yul\":18971:19010   */\n      tag_610\n        /* \"#utility.yul\":19008:19009   */\n      0x00\n        /* \"#utility.yul\":19001:19006   */\n      dup3\n        /* \"#utility.yul\":18971:19010   */\n      tag_376\n      jump\t// in\n    tag_610:\n        /* \"#utility.yul\":18944:18945   */\n      0x01\n        /* \"#utility.yul\":18937:18942   */\n      dup2\n        /* \"#utility.yul\":18933:18946   */\n      add\n        /* \"#utility.yul\":18924:18946   */\n      swap1\n      pop\n        /* \"#utility.yul\":18900:19020   */\n      jump(tag_607)\n    tag_609:\n        /* \"#utility.yul\":18840:19026   */\n      pop\n      pop\n      jump\t// out\n        /* \"#utility.yul\":19032:19575   */\n    tag_378:\n        /* \"#utility.yul\":19133:19135   */\n      0x1f\n        /* \"#utility.yul\":19128:19131   */\n      dup3\n        /* \"#utility.yul\":19125:19136   */\n      gt\n        /* \"#utility.yul\":19122:19568   */\n      iszero\n      tag_612\n      jumpi\n        /* \"#utility.yul\":19167:19205   */\n      tag_613\n        /* \"#utility.yul\":19199:19204   */\n      dup2\n        /* \"#utility.yul\":19167:19205   */\n      tag_361\n      jump\t// in\n    tag_613:\n        /* \"#utility.yul\":19251:19280   */\n      tag_614\n        /* \"#utility.yul\":19269:19279   */\n      dup5\n        /* \"#utility.yul\":19251:19280   */\n      tag_369\n      jump\t// in\n    tag_614:\n        /* \"#utility.yul\":19241:19249   */\n      dup2\n        /* \"#utility.yul\":19237:19281   */\n      add\n        /* \"#utility.yul\":19434:19436   */\n      0x20\n        /* \"#utility.yul\":19422:19432   */\n      dup6\n        /* \"#utility.yul\":19419:19437   */\n      lt\n        /* \"#utility.yul\":19416:19465   */\n      iszero\n      tag_615\n      jumpi\n        /* \"#utility.yul\":19455:19463   */\n      dup2\n        /* \"#utility.yul\":19440:19463   */\n      swap1\n      pop\n        /* \"#utility.yul\":19416:19465   */\n    tag_615:\n        /* \"#utility.yul\":19478:19558   */\n      tag_616\n        /* \"#utility.yul\":19534:19556   */\n      tag_617\n        /* \"#utility.yul\":19552:19555   */\n      dup6\n        /* \"#utility.yul\":19534:19556   */\n      tag_369\n      jump\t// in\n    tag_617:\n        /* \"#utility.yul\":19524:19532   */\n      dup4\n        /* \"#utility.yul\":19520:19557   */\n      add\n        /* \"#utility.yul\":19507:19518   */\n      dup3\n        /* \"#utility.yul\":19478:19558   */\n      tag_377\n      jump\t// in\n    tag_616:\n        /* \"#utility.yul\":19137:19568   */\n      pop\n      pop\n        /* \"#utility.yul\":19122:19568   */\n    tag_612:\n        /* \"#utility.yul\":19032:19575   */\n      pop\n      pop\n      pop\n      jump\t// out\n        /* \"#utility.yul\":19581:19698   */\n    tag_379:\n        /* \"#utility.yul\":19635:19643   */\n      0x00\n        /* \"#utility.yul\":19685:19690   */\n      dup3\n        /* \"#utility.yul\":19679:19683   */\n      dup3\n        /* \"#utility.yul\":19675:19691   */\n      shr\n        /* \"#utility.yul\":19654:19691   */\n      swap1\n      pop\n        /* \"#utility.yul\":19581:19698   */\n      swap3\n      swap2\n      pop\n      pop\n      jump\t// out\n        /* \"#utility.yul\":19704:19873   */\n    tag_380:\n        /* \"#utility.yul\":19748:19754   */\n      0x00\n        /* \"#utility.yul\":19781:19832   */\n      tag_620\n        /* \"#utility.yul\":19829:19830   */\n      0x00\n        /* \"#utility.yul\":19825:19831   */\n      not\n        /* \"#utility.yul\":19817:19822   */\n      dup5\n        /* \"#utility.yul\":19814:19815   */\n      0x08\n        /* \"#utility.yul\":19810:19823   */\n      mul\n        /* \"#utility.yul\":19781:19832   */\n      tag_379\n      jump\t// in\n    tag_620:\n        /* \"#utility.yul\":19777:19833   */\n      not\n        /* \"#utility.yul\":19862:19866   */\n      dup1\n        /* \"#utility.yul\":19856:19860   */\n      dup4\n        /* \"#utility.yul\":19852:19867   */\n      and\n        /* \"#utility.yul\":19842:19867   */\n      swap2\n      pop\n        /* \"#utility.yul\":19755:19873   */\n      pop\n        /* \"#utility.yul\":19704:19873   */\n      swap3\n      swap2\n      pop\n      pop\n      jump\t// out\n        /* \"#utility.yul\":19878:20173   */\n    tag_381:\n        /* \"#utility.yul\":19954:19958   */\n      0x00\n        /* \"#utility.yul\":20100:20129   */\n      tag_622\n        /* \"#utility.yul\":20125:20128   */\n      dup4\n        /* \"#utility.yul\":20119:20123   */\n      dup4\n        /* \"#utility.yul\":20100:20129   */\n      tag_380\n      jump\t// in\n    tag_622:\n        /* \"#utility.yul\":20092:20129   */\n      swap2\n      pop\n        /* \"#utility.yul\":20162:20165   */\n      dup3\n        /* \"#utility.yul\":20159:20160   */\n      0x02\n        /* \"#utility.yul\":20155:20166   */\n      mul\n        /* \"#utility.yul\":20149:20153   */\n      dup3\n        /* \"#utility.yul\":20146:20167   */\n      or\n        /* \"#utility.yul\":20138:20167   */\n      swap1\n      pop\n        /* \"#utility.yul\":19878:20173   */\n      swap3\n      swap2\n      pop\n      pop\n      jump\t// out\n        /* \"#utility.yul\":20178:21573   */\n    tag_189:\n        /* \"#utility.yul\":20295:20332   */\n      tag_624\n        /* \"#utility.yul\":20328:20331   */\n      dup3\n        /* \"#utility.yul\":20295:20332   */\n      tag_344\n      jump\t// in\n    tag_624:\n        /* \"#utility.yul\":20397:20415   */\n      0xffffffffffffffff\n        /* \"#utility.yul\":20389:20395   */\n      dup2\n        /* \"#utility.yul\":20386:20416   */\n      gt\n        /* \"#utility.yul\":20383:20439   */\n      iszero\n      tag_625\n      jumpi\n        /* \"#utility.yul\":20419:20437   */\n      tag_626\n      tag_334\n      jump\t// in\n    tag_626:\n        /* \"#utility.yul\":20383:20439   */\n    tag_625:\n        /* \"#utility.yul\":20463:20501   */\n      tag_627\n        /* \"#utility.yul\":20495:20499   */\n      dup3\n        /* \"#utility.yul\":20489:20500   */\n      sload\n        /* \"#utility.yul\":20463:20501   */\n      tag_245\n      jump\t// in\n    tag_627:\n        /* \"#utility.yul\":20548:20615   */\n      tag_628\n        /* \"#utility.yul\":20608:20614   */\n      dup3\n        /* \"#utility.yul\":20600:20606   */\n      dup3\n        /* \"#utility.yul\":20594:20598   */\n      dup6\n        /* \"#utility.yul\":20548:20615   */\n      tag_378\n      jump\t// in\n    tag_628:\n        /* \"#utility.yul\":20642:20643   */\n      0x00\n        /* \"#utility.yul\":20666:20670   */\n      0x20\n        /* \"#utility.yul\":20653:20670   */\n      swap1\n      pop\n        /* \"#utility.yul\":20698:20700   */\n      0x1f\n        /* \"#utility.yul\":20690:20696   */\n      dup4\n        /* \"#utility.yul\":20687:20701   */\n      gt\n        /* \"#utility.yul\":20715:20716   */\n      0x01\n        /* \"#utility.yul\":20710:21328   */\n      dup2\n      eq\n      tag_630\n      jumpi\n        /* \"#utility.yul\":21372:21373   */\n      0x00\n        /* \"#utility.yul\":21389:21395   */\n      dup5\n        /* \"#utility.yul\":21386:21463   */\n      iszero\n      tag_631\n      jumpi\n        /* \"#utility.yul\":21438:21447   */\n      dup3\n        /* \"#utility.yul\":21433:21436   */\n      dup8\n        /* \"#utility.yul\":21429:21448   */\n      add\n        /* \"#utility.yul\":21423:21449   */\n      mload\n        /* \"#utility.yul\":21414:21449   */\n      swap1\n      pop\n        /* \"#utility.yul\":21386:21463   */\n    tag_631:\n        /* \"#utility.yul\":21489:21556   */\n      tag_632\n        /* \"#utility.yul\":21549:21555   */\n      dup6\n        /* \"#utility.yul\":21542:21547   */\n      dup3\n        /* \"#utility.yul\":21489:21556   */\n      tag_381\n      jump\t// in\n    tag_632:\n        /* \"#utility.yul\":21483:21487   */\n      dup7\n        /* \"#utility.yul\":21476:21557   */\n      sstore\n        /* \"#utility.yul\":21345:21567   */\n      pop\n        /* \"#utility.yul\":20680:21567   */\n      jump(tag_629)\n        /* \"#utility.yul\":20710:21328   */\n    tag_630:\n        /* \"#utility.yul\":20762:20766   */\n      0x1f\n        /* \"#utility.yul\":20758:20767   */\n      not\n        /* \"#utility.yul\":20750:20756   */\n      dup5\n        /* \"#utility.yul\":20746:20768   */\n      and\n        /* \"#utility.yul\":20796:20833   */\n      tag_633\n        /* \"#utility.yul\":20828:20832   */\n      dup7\n        /* \"#utility.yul\":20796:20833   */\n      tag_361\n      jump\t// in\n    tag_633:\n        /* \"#utility.yul\":20855:20856   */\n      0x00\n        /* \"#utility.yul\":20869:21077   */\n    tag_634:\n        /* \"#utility.yul\":20883:20890   */\n      dup3\n        /* \"#utility.yul\":20880:20881   */\n      dup2\n        /* \"#utility.yul\":20877:20891   */\n      lt\n        /* \"#utility.yul\":20869:21077   */\n      iszero\n      tag_636\n      jumpi\n        /* \"#utility.yul\":20962:20971   */\n      dup5\n        /* \"#utility.yul\":20957:20960   */\n      dup10\n        /* \"#utility.yul\":20953:20972   */\n      add\n        /* \"#utility.yul\":20947:20973   */\n      mload\n        /* \"#utility.yul\":20939:20945   */\n      dup3\n        /* \"#utility.yul\":20932:20974   */\n      sstore\n        /* \"#utility.yul\":21013:21014   */\n      0x01\n        /* \"#utility.yul\":21005:21011   */\n      dup3\n        /* \"#utility.yul\":21001:21015   */\n      add\n        /* \"#utility.yul\":20991:21015   */\n      swap2\n      pop\n        /* \"#utility.yul\":21060:21062   */\n      0x20\n        /* \"#utility.yul\":21049:21058   */\n      dup6\n        /* \"#utility.yul\":21045:21063   */\n      add\n        /* \"#utility.yul\":21032:21063   */\n      swap5\n      pop\n        /* \"#utility.yul\":20906:20910   */\n      0x20\n        /* \"#utility.yul\":20903:20904   */\n      dup2\n        /* \"#utility.yul\":20899:20911   */\n      add\n        /* \"#utility.yul\":20894:20911   */\n      swap1\n      pop\n        /* \"#utility.yul\":20869:21077   */\n      jump(tag_634)\n    tag_636:\n        /* \"#utility.yul\":21105:21111   */\n      dup7\n        /* \"#utility.yul\":21096:21103   */\n      dup4\n        /* \"#utility.yul\":21093:21112   */\n      lt\n        /* \"#utility.yul\":21090:21269   */\n      iszero\n      tag_637\n      jumpi\n        /* \"#utility.yul\":21163:21172   */\n      dup5\n        /* \"#utility.yul\":21158:21161   */\n      dup10\n        /* \"#utility.yul\":21154:21173   */\n      add\n        /* \"#utility.yul\":21148:21174   */\n      mload\n        /* \"#utility.yul\":21206:21254   */\n      tag_638\n        /* \"#utility.yul\":21248:21252   */\n      0x1f\n        /* \"#utility.yul\":21240:21246   */\n      dup10\n        /* \"#utility.yul\":21236:21253   */\n      and\n        /* \"#utility.yul\":21225:21234   */\n      dup3\n        /* \"#utility.yul\":21206:21254   */\n      tag_380\n      jump\t// in\n    tag_638:\n        /* \"#utility.yul\":21198:21204   */\n      dup4\n        /* \"#utility.yul\":21191:21255   */\n      sstore\n        /* \"#utility.yul\":21113:21269   */\n      pop\n        /* \"#utility.yul\":21090:21269   */\n    tag_637:\n        /* \"#utility.yul\":21315:21316   */\n      0x01\n        /* \"#utility.yul\":21311:21312   */\n      0x02\n        /* \"#utility.yul\":21303:21309   */\n      dup9\n        /* \"#utility.yul\":21299:21313   */\n      mul\n        /* \"#utility.yul\":21295:21317   */\n      add\n        /* \"#utility.yul\":21289:21293   */\n      dup9\n        /* \"#utility.yul\":21282:21318   */\n      sstore\n        /* \"#utility.yul\":20717:21328   */\n      pop\n      pop\n      pop\n        /* \"#utility.yul\":20680:21567   */\n    tag_629:\n      pop\n        /* \"#utility.yul\":20270:21573   */\n      pop\n      pop\n      pop\n        /* \"#utility.yul\":20178:21573   */\n      pop\n      pop\n      jump\t// out\n        /* \"#utility.yul\":21579:21693   */\n    tag_382:\n      pop\n      jump\t// out\n        /* \"#utility.yul\":21699:22063   */\n    tag_383:\n        /* \"#utility.yul\":21841:21844   */\n      0x00\n        /* \"#utility.yul\":21862:21928   */\n      tag_641\n        /* \"#utility.yul\":21926:21927   */\n      0x00\n        /* \"#utility.yul\":21921:21924   */\n      dup4\n        /* \"#utility.yul\":21862:21928   */\n      tag_345\n      jump\t// in\n    tag_641:\n        /* \"#utility.yul\":21855:21928   */\n      swap2\n      pop\n        /* \"#utility.yul\":21937:22030   */\n      tag_642\n        /* \"#utility.yul\":22026:22029   */\n      dup3\n        /* \"#utility.yul\":21937:22030   */\n      tag_382\n      jump\t// in\n    tag_642:\n        /* \"#utility.yul\":22055:22056   */\n      0x00\n        /* \"#utility.yul\":22050:22053   */\n      dup3\n        /* \"#utility.yul\":22046:22057   */\n      add\n        /* \"#utility.yul\":22039:22057   */\n      swap1\n      pop\n        /* \"#utility.yul\":21699:22063   */\n      swap2\n      swap1\n      pop\n      jump\t// out\n        /* \"#utility.yul\":22069:22738   */\n    tag_195:\n        /* \"#utility.yul\":22306:22310   */\n      0x00\n        /* \"#utility.yul\":22344:22346   */\n      0x60\n        /* \"#utility.yul\":22333:22342   */\n      dup3\n        /* \"#utility.yul\":22329:22347   */\n      add\n        /* \"#utility.yul\":22321:22347   */\n      swap1\n      pop\n        /* \"#utility.yul\":22357:22428   */\n      tag_644\n        /* \"#utility.yul\":22425:22426   */\n      0x00\n        /* \"#utility.yul\":22414:22423   */\n      dup4\n        /* \"#utility.yul\":22410:22427   */\n      add\n        /* \"#utility.yul\":22401:22407   */\n      dup6\n        /* \"#utility.yul\":22357:22428   */\n      tag_326\n      jump\t// in\n    tag_644:\n        /* \"#utility.yul\":22438:22525   */\n      tag_645\n        /* \"#utility.yul\":22521:22523   */\n      0x20\n        /* \"#utility.yul\":22510:22519   */\n      dup4\n        /* \"#utility.yul\":22506:22524   */\n      add\n        /* \"#utility.yul\":22497:22503   */\n      dup5\n        /* \"#utility.yul\":22438:22525   */\n      tag_351\n      jump\t// in\n    tag_645:\n        /* \"#utility.yul\":22572:22581   */\n      dup2\n        /* \"#utility.yul\":22566:22570   */\n      dup2\n        /* \"#utility.yul\":22562:22582   */\n      sub\n        /* \"#utility.yul\":22557:22559   */\n      0x40\n        /* \"#utility.yul\":22546:22555   */\n      dup4\n        /* \"#utility.yul\":22542:22560   */\n      add\n        /* \"#utility.yul\":22535:22583   */\n      mstore\n        /* \"#utility.yul\":22600:22731   */\n      tag_646\n        /* \"#utility.yul\":22726:22730   */\n      dup2\n        /* \"#utility.yul\":22600:22731   */\n      tag_383\n      jump\t// in\n    tag_646:\n        /* \"#utility.yul\":22592:22731   */\n      swap1\n      pop\n        /* \"#utility.yul\":22069:22738   */\n      swap4\n      swap3\n      pop\n      pop\n      pop\n      jump\t// out\n        /* \"#utility.yul\":22744:22979   */\n    tag_384:\n        /* \"#utility.yul\":22884:22918   */\n      0x596f7520646f206e6f74206861766520612076616c6964206c6963656e736520\n        /* \"#utility.yul\":22880:22881   */\n      0x00\n        /* \"#utility.yul\":22872:22878   */\n      dup3\n        /* \"#utility.yul\":22868:22882   */\n      add\n        /* \"#utility.yul\":22861:22919   */\n      mstore\n        /* \"#utility.yul\":22953:22971   */\n      0x666f72207468697320636f6e74656e7400000000000000000000000000000000\n        /* \"#utility.yul\":22948:22950   */\n      0x20\n        /* \"#utility.yul\":22940:22946   */\n      dup3\n        /* \"#utility.yul\":22936:22951   */\n      add\n        /* \"#utility.yul\":22929:22972   */\n      mstore\n        /* \"#utility.yul\":22744:22979   */\n      pop\n      jump\t// out\n        /* \"#utility.yul\":22985:23351   */\n    tag_385:\n        /* \"#utility.yul\":23127:23130   */\n      0x00\n        /* \"#utility.yul\":23148:23215   */\n      tag_649\n        /* \"#utility.yul\":23212:23214   */\n      0x30\n        /* \"#utility.yul\":23207:23210   */\n      dup4\n        /* \"#utility.yul\":23148:23215   */\n      tag_345\n      jump\t// in\n    tag_649:\n        /* \"#utility.yul\":23141:23215   */\n      swap2\n      pop\n        /* \"#utility.yul\":23224:23317   */\n      tag_650\n        /* \"#utility.yul\":23313:23316   */\n      dup3\n        /* \"#utility.yul\":23224:23317   */\n      tag_384\n      jump\t// in\n    tag_650:\n        /* \"#utility.yul\":23342:23344   */\n      0x40\n        /* \"#utility.yul\":23337:23340   */\n      dup3\n        /* \"#utility.yul\":23333:23345   */\n      add\n        /* \"#utility.yul\":23326:23345   */\n      swap1\n      pop\n        /* \"#utility.yul\":22985:23351   */\n      swap2\n      swap1\n      pop\n      jump\t// out\n        /* \"#utility.yul\":23357:23776   */\n    tag_199:\n        /* \"#utility.yul\":23523:23527   */\n      0x00\n        /* \"#utility.yul\":23561:23563   */\n      0x20\n        /* \"#utility.yul\":23550:23559   */\n      dup3\n        /* \"#utility.yul\":23546:23564   */\n      add\n        /* \"#utility.yul\":23538:23564   */\n      swap1\n      pop\n        /* \"#utility.yul\":23610:23619   */\n      dup2\n        /* \"#utility.yul\":23604:23608   */\n      dup2\n        /* \"#utility.yul\":23600:23620   */\n      sub\n        /* \"#utility.yul\":23596:23597   */\n      0x00\n        /* \"#utility.yul\":23585:23594   */\n      dup4\n        /* \"#utility.yul\":23581:23598   */\n      add\n        /* \"#utility.yul\":23574:23621   */\n      mstore\n        /* \"#utility.yul\":23638:23769   */\n      tag_652\n        /* \"#utility.yul\":23764:23768   */\n      dup2\n        /* \"#utility.yul\":23638:23769   */\n      tag_385\n      jump\t// in\n    tag_652:\n        /* \"#utility.yul\":23630:23769   */\n      swap1\n      pop\n        /* \"#utility.yul\":23357:23776   */\n      swap2\n      swap1\n      pop\n      jump\t// out\n        /* \"#utility.yul\":23782:24008   */\n    tag_386:\n        /* \"#utility.yul\":23922:23956   */\n      0x596f7520617265206e6f74207468652063726561746f72206f66207468697320\n        /* \"#utility.yul\":23918:23919   */\n      0x00\n        /* \"#utility.yul\":23910:23916   */\n      dup3\n        /* \"#utility.yul\":23906:23920   */\n      add\n        /* \"#utility.yul\":23899:23957   */\n      mstore\n        /* \"#utility.yul\":23991:24000   */\n      0x636f6e74656e7400000000000000000000000000000000000000000000000000\n        /* \"#utility.yul\":23986:23988   */\n      0x20\n        /* \"#utility.yul\":23978:23984   */\n      dup3\n        /* \"#utility.yul\":23974:23989   */\n      add\n        /* \"#utility.yul\":23967:24001   */\n      mstore\n        /* \"#utility.yul\":23782:24008   */\n      pop\n      jump\t// out\n        /* \"#utility.yul\":24014:24380   */\n    tag_387:\n        /* \"#utility.yul\":24156:24159   */\n      0x00\n        /* \"#utility.yul\":24177:24244   */\n      tag_655\n        /* \"#utility.yul\":24241:24243   */\n      0x27\n        /* \"#utility.yul\":24236:24239   */\n      dup4\n        /* \"#utility.yul\":24177:24244   */\n      tag_345\n      jump\t// in\n    tag_655:\n        /* \"#utility.yul\":24170:24244   */\n      swap2\n      pop\n        /* \"#utility.yul\":24253:24346   */\n      tag_656\n        /* \"#utility.yul\":24342:24345   */\n      dup3\n        /* \"#utility.yul\":24253:24346   */\n      tag_386\n      jump\t// in\n    tag_656:\n        /* \"#utility.yul\":24371:24373   */\n      0x40\n        /* \"#utility.yul\":24366:24369   */\n      dup3\n        /* \"#utility.yul\":24362:24374   */\n      add\n        /* \"#utility.yul\":24355:24374   */\n      swap1\n      pop\n        /* \"#utility.yul\":24014:24380   */\n      swap2\n      swap1\n      pop\n      jump\t// out\n        /* \"#utility.yul\":24386:24805   */\n    tag_208:\n        /* \"#utility.yul\":24552:24556   */\n      0x00\n        /* \"#utility.yul\":24590:24592   */\n      0x20\n        /* \"#utility.yul\":24579:24588   */\n      dup3\n        /* \"#utility.yul\":24575:24593   */\n      add\n        /* \"#utility.yul\":24567:24593   */\n      swap1\n      pop\n        /* \"#utility.yul\":24639:24648   */\n      dup2\n        /* \"#utility.yul\":24633:24637   */\n      dup2\n        /* \"#utility.yul\":24629:24649   */\n      sub\n        /* \"#utility.yul\":24625:24626   */\n      0x00\n        /* \"#utility.yul\":24614:24623   */\n      dup4\n        /* \"#utility.yul\":24610:24627   */\n      add\n        /* \"#utility.yul\":24603:24650   */\n      mstore\n        /* \"#utility.yul\":24667:24798   */\n      tag_658\n        /* \"#utility.yul\":24793:24797   */\n      dup2\n        /* \"#utility.yul\":24667:24798   */\n      tag_387\n      jump\t// in\n    tag_658:\n        /* \"#utility.yul\":24659:24798   */\n      swap1\n      pop\n        /* \"#utility.yul\":24386:24805   */\n      swap2\n      swap1\n      pop\n      jump\t// out\n        /* \"#utility.yul\":24811:24988   */\n    tag_388:\n        /* \"#utility.yul\":24951:24980   */\n      0x436f6e74656e7420697320616c72656164792076657269666965640000000000\n        /* \"#utility.yul\":24947:24948   */\n      0x00\n        /* \"#utility.yul\":24939:24945   */\n      dup3\n        /* \"#utility.yul\":24935:24949   */\n      add\n        /* \"#utility.yul\":24928:24981   */\n      mstore\n        /* \"#utility.yul\":24811:24988   */\n      pop\n      jump\t// out\n        /* \"#utility.yul\":24994:25360   */\n    tag_389:\n        /* \"#utility.yul\":25136:25139   */\n      0x00\n        /* \"#utility.yul\":25157:25224   */\n      tag_661\n        /* \"#utility.yul\":25221:25223   */\n      0x1b\n        /* \"#utility.yul\":25216:25219   */\n      dup4\n        /* \"#utility.yul\":25157:25224   */\n      tag_345\n      jump\t// in\n    tag_661:\n        /* \"#utility.yul\":25150:25224   */\n      swap2\n      pop\n        /* \"#utility.yul\":25233:25326   */\n      tag_662\n        /* \"#utility.yul\":25322:25325   */\n      dup3\n        /* \"#utility.yul\":25233:25326   */\n      tag_388\n      jump\t// in\n    tag_662:\n        /* \"#utility.yul\":25351:25353   */\n      0x20\n        /* \"#utility.yul\":25346:25349   */\n      dup3\n        /* \"#utility.yul\":25342:25354   */\n      add\n        /* \"#utility.yul\":25335:25354   */\n      swap1\n      pop\n        /* \"#utility.yul\":24994:25360   */\n      swap2\n      swap1\n      pop\n      jump\t// out\n        /* \"#utility.yul\":25366:25785   */\n    tag_229:\n        /* \"#utility.yul\":25532:25536   */\n      0x00\n        /* \"#utility.yul\":25570:25572   */\n      0x20\n        /* \"#utility.yul\":25559:25568   */\n      dup3\n        /* \"#utility.yul\":25555:25573   */\n      add\n        /* \"#utility.yul\":25547:25573   */\n      swap1\n      pop\n        /* \"#utility.yul\":25619:25628   */\n      dup2\n        /* \"#utility.yul\":25613:25617   */\n      dup2\n        /* \"#utility.yul\":25609:25629   */\n      sub\n        /* \"#utility.yul\":25605:25606   */\n      0x00\n        /* \"#utility.yul\":25594:25603   */\n      dup4\n        /* \"#utility.yul\":25590:25607   */\n      add\n        /* \"#utility.yul\":25583:25630   */\n      mstore\n        /* \"#utility.yul\":25647:25778   */\n      tag_664\n        /* \"#utility.yul\":25773:25777   */\n      dup2\n        /* \"#utility.yul\":25647:25778   */\n      tag_389\n      jump\t// in\n    tag_664:\n        /* \"#utility.yul\":25639:25778   */\n      swap1\n      pop\n        /* \"#utility.yul\":25366:25785   */\n      swap2\n      swap1\n      pop\n      jump\t// out\n        /* \"#utility.yul\":25791:25963   */\n    tag_390:\n        /* \"#utility.yul\":25931:25955   */\n      0x596f75206861766520616c726561647920766f74656400000000000000000000\n        /* \"#utility.yul\":25927:25928   */\n      0x00\n        /* \"#utility.yul\":25919:25925   */\n      dup3\n        /* \"#utility.yul\":25915:25929   */\n      add\n        /* \"#utility.yul\":25908:25956   */\n      mstore\n        /* \"#utility.yul\":25791:25963   */\n      pop\n      jump\t// out\n        /* \"#utility.yul\":25969:26335   */\n    tag_391:\n        /* \"#utility.yul\":26111:26114   */\n      0x00\n        /* \"#utility.yul\":26132:26199   */\n      tag_667\n        /* \"#utility.yul\":26196:26198   */\n      0x16\n        /* \"#utility.yul\":26191:26194   */\n      dup4\n        /* \"#utility.yul\":26132:26199   */\n      tag_345\n      jump\t// in\n    tag_667:\n        /* \"#utility.yul\":26125:26199   */\n      swap2\n      pop\n        /* \"#utility.yul\":26208:26301   */\n      tag_668\n        /* \"#utility.yul\":26297:26300   */\n      dup3\n        /* \"#utility.yul\":26208:26301   */\n      tag_390\n      jump\t// in\n    tag_668:\n        /* \"#utility.yul\":26326:26328   */\n      0x20\n        /* \"#utility.yul\":26321:26324   */\n      dup3\n        /* \"#utility.yul\":26317:26329   */\n      add\n        /* \"#utility.yul\":26310:26329   */\n      swap1\n      pop\n        /* \"#utility.yul\":25969:26335   */\n      swap2\n      swap1\n      pop\n      jump\t// out\n        /* \"#utility.yul\":26341:26760   */\n    tag_232:\n        /* \"#utility.yul\":26507:26511   */\n      0x00\n        /* \"#utility.yul\":26545:26547   */\n      0x20\n        /* \"#utility.yul\":26534:26543   */\n      dup3\n        /* \"#utility.yul\":26530:26548   */\n      add\n        /* \"#utility.yul\":26522:26548   */\n      swap1\n      pop\n        /* \"#utility.yul\":26594:26603   */\n      dup2\n        /* \"#utility.yul\":26588:26592   */\n      dup2\n        /* \"#utility.yul\":26584:26604   */\n      sub\n        /* \"#utility.yul\":26580:26581   */\n      0x00\n        /* \"#utility.yul\":26569:26578   */\n      dup4\n        /* \"#utility.yul\":26565:26582   */\n      add\n        /* \"#utility.yul\":26558:26605   */\n      mstore\n        /* \"#utility.yul\":26622:26753   */\n      tag_670\n        /* \"#utility.yul\":26748:26752   */\n      dup2\n        /* \"#utility.yul\":26622:26753   */\n      tag_391\n      jump\t// in\n    tag_670:\n        /* \"#utility.yul\":26614:26753   */\n      swap1\n      pop\n        /* \"#utility.yul\":26341:26760   */\n      swap2\n      swap1\n      pop\n      jump\t// out\n        /* \"#utility.yul\":26766:26999   */\n    tag_392:\n        /* \"#utility.yul\":26906:26940   */\n      0x43616e6e6f74207075726368617365206c6963656e736520666f7220756e7665\n        /* \"#utility.yul\":26902:26903   */\n      0x00\n        /* \"#utility.yul\":26894:26900   */\n      dup3\n        /* \"#utility.yul\":26890:26904   */\n      add\n        /* \"#utility.yul\":26883:26941   */\n      mstore\n        /* \"#utility.yul\":26975:26991   */\n      0x72696669656420636f6e74656e74000000000000000000000000000000000000\n        /* \"#utility.yul\":26970:26972   */\n      0x20\n        /* \"#utility.yul\":26962:26968   */\n      dup3\n        /* \"#utility.yul\":26958:26973   */\n      add\n        /* \"#utility.yul\":26951:26992   */\n      mstore\n        /* \"#utility.yul\":26766:26999   */\n      pop\n      jump\t// out\n        /* \"#utility.yul\":27005:27371   */\n    tag_393:\n        /* \"#utility.yul\":27147:27150   */\n      0x00\n        /* \"#utility.yul\":27168:27235   */\n      tag_673\n        /* \"#utility.yul\":27232:27234   */\n      0x2e\n        /* \"#utility.yul\":27227:27230   */\n      dup4\n        /* \"#utility.yul\":27168:27235   */\n      tag_345\n      jump\t// in\n    tag_673:\n        /* \"#utility.yul\":27161:27235   */\n      swap2\n      pop\n        /* \"#utility.yul\":27244:27337   */\n      tag_674\n        /* \"#utility.yul\":27333:27336   */\n      dup3\n        /* \"#utility.yul\":27244:27337   */\n      tag_392\n      jump\t// in\n    tag_674:\n        /* \"#utility.yul\":27362:27364   */\n      0x40\n        /* \"#utility.yul\":27357:27360   */\n      dup3\n        /* \"#utility.yul\":27353:27365   */\n      add\n        /* \"#utility.yul\":27346:27365   */\n      swap1\n      pop\n        /* \"#utility.yul\":27005:27371   */\n      swap2\n      swap1\n      pop\n      jump\t// out\n        /* \"#utility.yul\":27377:27796   */\n    tag_267:\n        /* \"#utility.yul\":27543:27547   */\n      0x00\n        /* \"#utility.yul\":27581:27583   */\n      0x20\n        /* \"#utility.yul\":27570:27579   */\n      dup3\n        /* \"#utility.yul\":27566:27584   */\n      add\n        /* \"#utility.yul\":27558:27584   */\n      swap1\n      pop\n        /* \"#utility.yul\":27630:27639   */\n      dup2\n        /* \"#utility.yul\":27624:27628   */\n      dup2\n        /* \"#utility.yul\":27620:27640   */\n      sub\n        /* \"#utility.yul\":27616:27617   */\n      0x00\n        /* \"#utility.yul\":27605:27614   */\n      dup4\n        /* \"#utility.yul\":27601:27618   */\n      add\n        /* \"#utility.yul\":27594:27641   */\n      mstore\n        /* \"#utility.yul\":27658:27789   */\n      tag_676\n        /* \"#utility.yul\":27784:27788   */\n      dup2\n        /* \"#utility.yul\":27658:27789   */\n      tag_393\n      jump\t// in\n    tag_676:\n        /* \"#utility.yul\":27650:27789   */\n      swap1\n      pop\n        /* \"#utility.yul\":27377:27796   */\n      swap2\n      swap1\n      pop\n      jump\t// out\n        /* \"#utility.yul\":27802:27977   */\n    tag_394:\n        /* \"#utility.yul\":27942:27969   */\n      0x4c6963656e736520616c72656164792070757263686173656400000000000000\n        /* \"#utility.yul\":27938:27939   */\n      0x00\n        /* \"#utility.yul\":27930:27936   */\n      dup3\n        /* \"#utility.yul\":27926:27940   */\n      add\n        /* \"#utility.yul\":27919:27970   */\n      mstore\n        /* \"#utility.yul\":27802:27977   */\n      pop\n      jump\t// out\n        /* \"#utility.yul\":27983:28349   */\n    tag_395:\n        /* \"#utility.yul\":28125:28128   */\n      0x00\n        /* \"#utility.yul\":28146:28213   */\n      tag_679\n        /* \"#utility.yul\":28210:28212   */\n      0x19\n        /* \"#utility.yul\":28205:28208   */\n      dup4\n        /* \"#utility.yul\":28146:28213   */\n      tag_345\n      jump\t// in\n    tag_679:\n        /* \"#utility.yul\":28139:28213   */\n      swap2\n      pop\n        /* \"#utility.yul\":28222:28315   */\n      tag_680\n        /* \"#utility.yul\":28311:28314   */\n      dup3\n        /* \"#utility.yul\":28222:28315   */\n      tag_394\n      jump\t// in\n    tag_680:\n        /* \"#utility.yul\":28340:28342   */\n      0x20\n        /* \"#utility.yul\":28335:28338   */\n      dup3\n        /* \"#utility.yul\":28331:28343   */\n      add\n        /* \"#utility.yul\":28324:28343   */\n      swap1\n      pop\n        /* \"#utility.yul\":27983:28349   */\n      swap2\n      swap1\n      pop\n      jump\t// out\n        /* \"#utility.yul\":28355:28774   */\n    tag_270:\n        /* \"#utility.yul\":28521:28525   */\n      0x00\n        /* \"#utility.yul\":28559:28561   */\n      0x20\n        /* \"#utility.yul\":28548:28557   */\n      dup3\n        /* \"#utility.yul\":28544:28562   */\n      add\n        /* \"#utility.yul\":28536:28562   */\n      swap1\n      pop\n        /* \"#utility.yul\":28608:28617   */\n      dup2\n        /* \"#utility.yul\":28602:28606   */\n      dup2\n        /* \"#utility.yul\":28598:28618   */\n      sub\n        /* \"#utility.yul\":28594:28595   */\n      0x00\n        /* \"#utility.yul\":28583:28592   */\n      dup4\n        /* \"#utility.yul\":28579:28596   */\n      add\n        /* \"#utility.yul\":28572:28619   */\n      mstore\n        /* \"#utility.yul\":28636:28767   */\n      tag_682\n        /* \"#utility.yul\":28762:28766   */\n      dup2\n        /* \"#utility.yul\":28636:28767   */\n      tag_395\n      jump\t// in\n    tag_682:\n        /* \"#utility.yul\":28628:28767   */\n      swap1\n      pop\n        /* \"#utility.yul\":28355:28774   */\n      swap2\n      swap1\n      pop\n      jump\t// out\n        /* \"#utility.yul\":28780:28883   */\n    tag_396:\n        /* \"#utility.yul\":28843:28850   */\n      0x00\n        /* \"#utility.yul\":28872:28877   */\n      dup2\n        /* \"#utility.yul\":28861:28877   */\n      swap1\n      pop\n        /* \"#utility.yul\":28780:28883   */\n      swap2\n      swap1\n      pop\n      jump\t// out\n        /* \"#utility.yul\":28889:29083   */\n    tag_397:\n        /* \"#utility.yul\":28965:28974   */\n      0x00\n        /* \"#utility.yul\":28998:29077   */\n      tag_685\n        /* \"#utility.yul\":29016:29076   */\n      tag_686\n        /* \"#utility.yul\":29025:29075   */\n      tag_687\n        /* \"#utility.yul\":29069:29074   */\n      dup5\n        /* \"#utility.yul\":29025:29075   */\n      tag_396\n      jump\t// in\n    tag_687:\n        /* \"#utility.yul\":29016:29076   */\n      tag_352\n      jump\t// in\n    tag_686:\n        /* \"#utility.yul\":28998:29077   */\n      tag_323\n      jump\t// in\n    tag_685:\n        /* \"#utility.yul\":28985:29077   */\n      swap1\n      pop\n        /* \"#utility.yul\":28889:29083   */\n      swap2\n      swap1\n      pop\n      jump\t// out\n        /* \"#utility.yul\":29089:29272   */\n    tag_398:\n        /* \"#utility.yul\":29202:29265   */\n      tag_689\n        /* \"#utility.yul\":29259:29264   */\n      dup2\n        /* \"#utility.yul\":29202:29265   */\n      tag_397\n      jump\t// in\n    tag_689:\n        /* \"#utility.yul\":29197:29200   */\n      dup3\n        /* \"#utility.yul\":29190:29266   */\n      mstore\n        /* \"#utility.yul\":29089:29272   */\n      pop\n      pop\n      jump\t// out\n        /* \"#utility.yul\":29278:29772   */\n    tag_272:\n        /* \"#utility.yul\":29453:29457   */\n      0x00\n        /* \"#utility.yul\":29491:29493   */\n      0x60\n        /* \"#utility.yul\":29480:29489   */\n      dup3\n        /* \"#utility.yul\":29476:29494   */\n      add\n        /* \"#utility.yul\":29468:29494   */\n      swap1\n      pop\n        /* \"#utility.yul\":29504:29575   */\n      tag_691\n        /* \"#utility.yul\":29572:29573   */\n      0x00\n        /* \"#utility.yul\":29561:29570   */\n      dup4\n        /* \"#utility.yul\":29557:29574   */\n      add\n        /* \"#utility.yul\":29548:29554   */\n      dup7\n        /* \"#utility.yul\":29504:29575   */\n      tag_343\n      jump\t// in\n    tag_691:\n        /* \"#utility.yul\":29585:29657   */\n      tag_692\n        /* \"#utility.yul\":29653:29655   */\n      0x20\n        /* \"#utility.yul\":29642:29651   */\n      dup4\n        /* \"#utility.yul\":29638:29656   */\n      add\n        /* \"#utility.yul\":29629:29635   */\n      dup6\n        /* \"#utility.yul\":29585:29657   */\n      tag_343\n      jump\t// in\n    tag_692:\n        /* \"#utility.yul\":29667:29765   */\n      tag_693\n        /* \"#utility.yul\":29761:29763   */\n      0x40\n        /* \"#utility.yul\":29750:29759   */\n      dup4\n        /* \"#utility.yul\":29746:29764   */\n      add\n        /* \"#utility.yul\":29737:29743   */\n      dup5\n        /* \"#utility.yul\":29667:29765   */\n      tag_398\n      jump\t// in\n    tag_693:\n        /* \"#utility.yul\":29278:29772   */\n      swap5\n      swap4\n      pop\n      pop\n      pop\n      pop\n      jump\t// out\n        /* \"#utility.yul\":29778:29894   */\n    tag_399:\n        /* \"#utility.yul\":29848:29869   */\n      tag_695\n        /* \"#utility.yul\":29863:29868   */\n      dup2\n        /* \"#utility.yul\":29848:29869   */\n      tag_341\n      jump\t// in\n    tag_695:\n        /* \"#utility.yul\":29841:29846   */\n      dup2\n        /* \"#utility.yul\":29838:29870   */\n      eq\n        /* \"#utility.yul\":29828:29888   */\n      tag_696\n      jumpi\n        /* \"#utility.yul\":29884:29885   */\n      0x00\n        /* \"#utility.yul\":29881:29882   */\n      dup1\n        /* \"#utility.yul\":29874:29886   */\n      revert\n        /* \"#utility.yul\":29828:29888   */\n    tag_696:\n        /* \"#utility.yul\":29778:29894   */\n      pop\n      jump\t// out\n        /* \"#utility.yul\":29900:30037   */\n    tag_400:\n        /* \"#utility.yul\":29954:29959   */\n      0x00\n        /* \"#utility.yul\":29985:29991   */\n      dup2\n        /* \"#utility.yul\":29979:29992   */\n      mload\n        /* \"#utility.yul\":29970:29992   */\n      swap1\n      pop\n        /* \"#utility.yul\":30001:30031   */\n      tag_698\n        /* \"#utility.yul\":30025:30030   */\n      dup2\n        /* \"#utility.yul\":30001:30031   */\n      tag_399\n      jump\t// in\n    tag_698:\n        /* \"#utility.yul\":29900:30037   */\n      swap3\n      swap2\n      pop\n      pop\n      jump\t// out\n        /* \"#utility.yul\":30043:30388   */\n    tag_276:\n        /* \"#utility.yul\":30110:30116   */\n      0x00\n        /* \"#utility.yul\":30159:30161   */\n      0x20\n        /* \"#utility.yul\":30147:30156   */\n      dup3\n        /* \"#utility.yul\":30138:30145   */\n      dup5\n        /* \"#utility.yul\":30134:30157   */\n      sub\n        /* \"#utility.yul\":30130:30162   */\n      slt\n        /* \"#utility.yul\":30127:30246   */\n      iszero\n      tag_700\n      jumpi\n        /* \"#utility.yul\":30165:30244   */\n      tag_701\n      tag_321\n      jump\t// in\n    tag_701:\n        /* \"#utility.yul\":30127:30246   */\n    tag_700:\n        /* \"#utility.yul\":30285:30286   */\n      0x00\n        /* \"#utility.yul\":30310:30371   */\n      tag_702\n        /* \"#utility.yul\":30363:30370   */\n      dup5\n        /* \"#utility.yul\":30354:30360   */\n      dup3\n        /* \"#utility.yul\":30343:30352   */\n      dup6\n        /* \"#utility.yul\":30339:30361   */\n      add\n        /* \"#utility.yul\":30310:30371   */\n      tag_400\n      jump\t// in\n    tag_702:\n        /* \"#utility.yul\":30300:30371   */\n      swap2\n      pop\n        /* \"#utility.yul\":30256:30381   */\n      pop\n        /* \"#utility.yul\":30043:30388   */\n      swap3\n      swap2\n      pop\n      pop\n      jump\t// out\n        /* \"#utility.yul\":30394:30576   */\n    tag_401:\n        /* \"#utility.yul\":30534:30568   */\n      0x4d617820766f746573206d7573742062652067726561746572207468616e2030\n        /* \"#utility.yul\":30530:30531   */\n      0x00\n        /* \"#utility.yul\":30522:30528   */\n      dup3\n        /* \"#utility.yul\":30518:30532   */\n      add\n        /* \"#utility.yul\":30511:30569   */\n      mstore\n        /* \"#utility.yul\":30394:30576   */\n      pop\n      jump\t// out\n        /* \"#utility.yul\":30582:30948   */\n    tag_402:\n        /* \"#utility.yul\":30724:30727   */\n      0x00\n        /* \"#utility.yul\":30745:30812   */\n      tag_705\n        /* \"#utility.yul\":30809:30811   */\n      0x20\n        /* \"#utility.yul\":30804:30807   */\n      dup4\n        /* \"#utility.yul\":30745:30812   */\n      tag_345\n      jump\t// in\n    tag_705:\n        /* \"#utility.yul\":30738:30812   */\n      swap2\n      pop\n        /* \"#utility.yul\":30821:30914   */\n      tag_706\n        /* \"#utility.yul\":30910:30913   */\n      dup3\n        /* \"#utility.yul\":30821:30914   */\n      tag_401\n      jump\t// in\n    tag_706:\n        /* \"#utility.yul\":30939:30941   */\n      0x20\n        /* \"#utility.yul\":30934:30937   */\n      dup3\n        /* \"#utility.yul\":30930:30942   */\n      add\n        /* \"#utility.yul\":30923:30942   */\n      swap1\n      pop\n        /* \"#utility.yul\":30582:30948   */\n      swap2\n      swap1\n      pop\n      jump\t// out\n        /* \"#utility.yul\":30954:31373   */\n    tag_283:\n        /* \"#utility.yul\":31120:31124   */\n      0x00\n        /* \"#utility.yul\":31158:31160   */\n      0x20\n        /* \"#utility.yul\":31147:31156   */\n      dup3\n        /* \"#utility.yul\":31143:31161   */\n      add\n        /* \"#utility.yul\":31135:31161   */\n      swap1\n      pop\n        /* \"#utility.yul\":31207:31216   */\n      dup2\n        /* \"#utility.yul\":31201:31205   */\n      dup2\n        /* \"#utility.yul\":31197:31217   */\n      sub\n        /* \"#utility.yul\":31193:31194   */\n      0x00\n        /* \"#utility.yul\":31182:31191   */\n      dup4\n        /* \"#utility.yul\":31178:31195   */\n      add\n        /* \"#utility.yul\":31171:31218   */\n      mstore\n        /* \"#utility.yul\":31235:31366   */\n      tag_708\n        /* \"#utility.yul\":31361:31365   */\n      dup2\n        /* \"#utility.yul\":31235:31366   */\n      tag_402\n      jump\t// in\n    tag_708:\n        /* \"#utility.yul\":31227:31366   */\n      swap1\n      pop\n        /* \"#utility.yul\":30954:31373   */\n      swap2\n      swap1\n      pop\n      jump\t// out\n        /* \"#utility.yul\":31379:31604   */\n    tag_403:\n        /* \"#utility.yul\":31519:31553   */\n      0x4f776e61626c653a206e6577206f776e657220697320746865207a65726f2061\n        /* \"#utility.yul\":31515:31516   */\n      0x00\n        /* \"#utility.yul\":31507:31513   */\n      dup3\n        /* \"#utility.yul\":31503:31517   */\n      add\n        /* \"#utility.yul\":31496:31554   */\n      mstore\n        /* \"#utility.yul\":31588:31596   */\n      0x6464726573730000000000000000000000000000000000000000000000000000\n        /* \"#utility.yul\":31583:31585   */\n      0x20\n        /* \"#utility.yul\":31575:31581   */\n      dup3\n        /* \"#utility.yul\":31571:31586   */\n      add\n        /* \"#utility.yul\":31564:31597   */\n      mstore\n        /* \"#utility.yul\":31379:31604   */\n      pop\n      jump\t// out\n        /* \"#utility.yul\":31610:31976   */\n    tag_404:\n        /* \"#utility.yul\":31752:31755   */\n      0x00\n        /* \"#utility.yul\":31773:31840   */\n      tag_711\n        /* \"#utility.yul\":31837:31839   */\n      0x26\n        /* \"#utility.yul\":31832:31835   */\n      dup4\n        /* \"#utility.yul\":31773:31840   */\n      tag_345\n      jump\t// in\n    tag_711:\n        /* \"#utility.yul\":31766:31840   */\n      swap2\n      pop\n        /* \"#utility.yul\":31849:31942   */\n      tag_712\n        /* \"#utility.yul\":31938:31941   */\n      dup3\n        /* \"#utility.yul\":31849:31942   */\n      tag_403\n      jump\t// in\n    tag_712:\n        /* \"#utility.yul\":31967:31969   */\n      0x40\n        /* \"#utility.yul\":31962:31965   */\n      dup3\n        /* \"#utility.yul\":31958:31970   */\n      add\n        /* \"#utility.yul\":31951:31970   */\n      swap1\n      pop\n        /* \"#utility.yul\":31610:31976   */\n      swap2\n      swap1\n      pop\n      jump\t// out\n        /* \"#utility.yul\":31982:32401   */\n    tag_290:\n        /* \"#utility.yul\":32148:32152   */\n      0x00\n        /* \"#utility.yul\":32186:32188   */\n      0x20\n        /* \"#utility.yul\":32175:32184   */\n      dup3\n        /* \"#utility.yul\":32171:32189   */\n      add\n        /* \"#utility.yul\":32163:32189   */\n      swap1\n      pop\n        /* \"#utility.yul\":32235:32244   */\n      dup2\n        /* \"#utility.yul\":32229:32233   */\n      dup2\n        /* \"#utility.yul\":32225:32245   */\n      sub\n        /* \"#utility.yul\":32221:32222   */\n      0x00\n        /* \"#utility.yul\":32210:32219   */\n      dup4\n        /* \"#utility.yul\":32206:32223   */\n      add\n        /* \"#utility.yul\":32199:32246   */\n      mstore\n        /* \"#utility.yul\":32263:32394   */\n      tag_714\n        /* \"#utility.yul\":32389:32393   */\n      dup2\n        /* \"#utility.yul\":32263:32394   */\n      tag_404\n      jump\t// in\n    tag_714:\n        /* \"#utility.yul\":32255:32394   */\n      swap1\n      pop\n        /* \"#utility.yul\":31982:32401   */\n      swap2\n      swap1\n      pop\n      jump\t// out\n        /* \"#utility.yul\":32407:32639   */\n    tag_405:\n        /* \"#utility.yul\":32547:32581   */\n      0x596f7520617265206e6f7420617574686f72697a656420746f20766572696679\n        /* \"#utility.yul\":32543:32544   */\n      0x00\n        /* \"#utility.yul\":32535:32541   */\n      dup3\n        /* \"#utility.yul\":32531:32545   */\n      add\n        /* \"#utility.yul\":32524:32582   */\n      mstore\n        /* \"#utility.yul\":32616:32631   */\n      0x207468697320636f6e74656e7400000000000000000000000000000000000000\n        /* \"#utility.yul\":32611:32613   */\n      0x20\n        /* \"#utility.yul\":32603:32609   */\n      dup3\n        /* \"#utility.yul\":32599:32614   */\n      add\n        /* \"#utility.yul\":32592:32632   */\n      mstore\n        /* \"#utility.yul\":32407:32639   */\n      pop\n      jump\t// out\n        /* \"#utility.yul\":32645:33011   */\n    tag_406:\n        /* \"#utility.yul\":32787:32790   */\n      0x00\n        /* \"#utility.yul\":32808:32875   */\n      tag_717\n        /* \"#utility.yul\":32872:32874   */\n      0x2d\n        /* \"#utility.yul\":32867:32870   */\n      dup4\n        /* \"#utility.yul\":32808:32875   */\n      tag_345\n      jump\t// in\n    tag_717:\n        /* \"#utility.yul\":32801:32875   */\n      swap2\n      pop\n        /* \"#utility.yul\":32884:32977   */\n      tag_718\n        /* \"#utility.yul\":32973:32976   */\n      dup3\n        /* \"#utility.yul\":32884:32977   */\n      tag_405\n      jump\t// in\n    tag_718:\n        /* \"#utility.yul\":33002:33004   */\n      0x40\n        /* \"#utility.yul\":32997:33000   */\n      dup3\n        /* \"#utility.yul\":32993:33005   */\n      add\n        /* \"#utility.yul\":32986:33005   */\n      swap1\n      pop\n        /* \"#utility.yul\":32645:33011   */\n      swap2\n      swap1\n      pop\n      jump\t// out\n        /* \"#utility.yul\":33017:33436   */\n    tag_295:\n        /* \"#utility.yul\":33183:33187   */\n      0x00\n        /* \"#utility.yul\":33221:33223   */\n      0x20\n        /* \"#utility.yul\":33210:33219   */\n      dup3\n        /* \"#utility.yul\":33206:33224   */\n      add\n        /* \"#utility.yul\":33198:33224   */\n      swap1\n      pop\n        /* \"#utility.yul\":33270:33279   */\n      dup2\n        /* \"#utility.yul\":33264:33268   */\n      dup2\n        /* \"#utility.yul\":33260:33280   */\n      sub\n        /* \"#utility.yul\":33256:33257   */\n      0x00\n        /* \"#utility.yul\":33245:33254   */\n      dup4\n        /* \"#utility.yul\":33241:33258   */\n      add\n        /* \"#utility.yul\":33234:33281   */\n      mstore\n        /* \"#utility.yul\":33298:33429   */\n      tag_720\n        /* \"#utility.yul\":33424:33428   */\n      dup2\n        /* \"#utility.yul\":33298:33429   */\n      tag_406\n      jump\t// in\n    tag_720:\n        /* \"#utility.yul\":33290:33429   */\n      swap1\n      pop\n        /* \"#utility.yul\":33017:33436   */\n      swap2\n      swap1\n      pop\n      jump\t// out\n        /* \"#utility.yul\":33442:33624   */\n    tag_407:\n        /* \"#utility.yul\":33582:33616   */\n      0x4f776e61626c653a2063616c6c6572206973206e6f7420746865206f776e6572\n        /* \"#utility.yul\":33578:33579   */\n      0x00\n        /* \"#utility.yul\":33570:33576   */\n      dup3\n        /* \"#utility.yul\":33566:33580   */\n      add\n        /* \"#utility.yul\":33559:33617   */\n      mstore\n        /* \"#utility.yul\":33442:33624   */\n      pop\n      jump\t// out\n        /* \"#utility.yul\":33630:33996   */\n    tag_408:\n        /* \"#utility.yul\":33772:33775   */\n      0x00\n        /* \"#utility.yul\":33793:33860   */\n      tag_723\n        /* \"#utility.yul\":33857:33859   */\n      0x20\n        /* \"#utility.yul\":33852:33855   */\n      dup4\n        /* \"#utility.yul\":33793:33860   */\n      tag_345\n      jump\t// in\n    tag_723:\n        /* \"#utility.yul\":33786:33860   */\n      swap2\n      pop\n        /* \"#utility.yul\":33869:33962   */\n      tag_724\n        /* \"#utility.yul\":33958:33961   */\n      dup3\n        /* \"#utility.yul\":33869:33962   */\n      tag_407\n      jump\t// in\n    tag_724:\n        /* \"#utility.yul\":33987:33989   */\n      0x20\n        /* \"#utility.yul\":33982:33985   */\n      dup3\n        /* \"#utility.yul\":33978:33990   */\n      add\n        /* \"#utility.yul\":33971:33990   */\n      swap1\n      pop\n        /* \"#utility.yul\":33630:33996   */\n      swap2\n      swap1\n      pop\n      jump\t// out\n        /* \"#utility.yul\":34002:34421   */\n    tag_317:\n        /* \"#utility.yul\":34168:34172   */\n      0x00\n        /* \"#utility.yul\":34206:34208   */\n      0x20\n        /* \"#utility.yul\":34195:34204   */\n      dup3\n        /* \"#utility.yul\":34191:34209   */\n      add\n        /* \"#utility.yul\":34183:34209   */\n      swap1\n      pop\n        /* \"#utility.yul\":34255:34264   */\n      dup2\n        /* \"#utility.yul\":34249:34253   */\n      dup2\n        /* \"#utility.yul\":34245:34265   */\n      sub\n        /* \"#utility.yul\":34241:34242   */\n      0x00\n        /* \"#utility.yul\":34230:34239   */\n      dup4\n        /* \"#utility.yul\":34226:34243   */\n      add\n        /* \"#utility.yul\":34219:34266   */\n      mstore\n        /* \"#utility.yul\":34283:34414   */\n      tag_726\n        /* \"#utility.yul\":34409:34413   */\n      dup2\n        /* \"#utility.yul\":34283:34414   */\n      tag_408\n      jump\t// in\n    tag_726:\n        /* \"#utility.yul\":34275:34414   */\n      swap1\n      pop\n        /* \"#utility.yul\":34002:34421   */\n      swap2\n      swap1\n      pop\n      jump\t// out\n\n    auxdata: 0xa264697066735822122037523ba4eed5f062cbaddae84c1f95bf04302328374e0a97be5cf637be39a26164736f6c63430008120033\n}\n",
				"bytecode": {
					"linkReferences": {},
					"object": "6080604052600360085560646009553480156200001b57600080fd5b5060405162003517380380620035178339818101604052810190620000419190620001e6565b6200006162000055620000b060201b60201c565b620000b860201b60201c565b6001808190555080600760006101000a81548173ffffffffffffffffffffffffffffffffffffffff021916908373ffffffffffffffffffffffffffffffffffffffff1602179055505062000218565b600033905090565b60008060009054906101000a900473ffffffffffffffffffffffffffffffffffffffff169050816000806101000a81548173ffffffffffffffffffffffffffffffffffffffff021916908373ffffffffffffffffffffffffffffffffffffffff1602179055508173ffffffffffffffffffffffffffffffffffffffff168173ffffffffffffffffffffffffffffffffffffffff167f8be0079c531659141344cd1fd0a4f28419497f9722a3daafe3b4186f6b6457e060405160405180910390a35050565b600080fd5b600073ffffffffffffffffffffffffffffffffffffffff82169050919050565b6000620001ae8262000181565b9050919050565b620001c081620001a1565b8114620001cc57600080fd5b50565b600081519050620001e081620001b5565b92915050565b600060208284031215620001ff57620001fe6200017c565b5b60006200020f84828501620001cf565b91505092915050565b6132ef80620002286000396000f3fe608060405234801561001057600080fd5b50600436106101a95760003560e01c80638456cb59116100f9578063c8a028a811610097578063ee6c9db411610071578063ee6c9db41461046f578063f2fde38b1461049f578063fc0c546a146104bb578063fd2a176e146104d9576101a9565b8063c8a028a814610407578063c8d80ada14610423578063da41ea9314610453576101a9565b80639c89a0e2116100d35780639c89a0e214610356578063a1672a6714610386578063b5ecf912146103a2578063b9f79451146103d7576101a9565b80638456cb59146103125780638da5cb5b1461031c5780638efc5e9a1461033a576101a9565b80633ad3d548116101665780635c975abb116101405780635c975abb146102b05780636e4d6230146102ce578063715018a6146102ea578063777c3acf146102f4576101a9565b80633ad3d5481461026e5780633f1930161461028a5780633f4ba83a146102a6576101a9565b80630f64253d146101ae5780631d22899b146101ca5780631ec923f2146101e857806327572f43146102045780632c59d1631461023457806332b1d75d14610252575b600080fd5b6101c860048036038101906101c391906120b8565b6104f5565b005b6101d2610938565b6040516101df91906120f4565b60405180910390f35b61020260048036038101906101fd91906120b8565b61093e565b005b61021e6004803603810190610219919061216d565b610993565b60405161022b91906120f4565b60405180910390f35b61023c6109c4565b60405161024991906120f4565b60405180910390f35b61026c600480360381019061026791906121ad565b6109ca565b005b61028860048036038101906102839190612333565b610b96565b005b6102a4600480360381019061029f91906120b8565b610dc4565b005b6102ae610eca565b005b6102b8610eef565b6040516102c591906123c6565b60405180910390f35b6102e860048036038101906102e391906121ad565b610f02565b005b6102f2611079565b005b6102fc61108d565b60405161030991906120f4565b60405180910390f35b61031a611093565b005b6103246110b8565b60405161033191906123f0565b60405180910390f35b610354600480360381019061034f91906120b8565b6110e1565b005b610370600480360381019061036b919061240b565b6113e9565b60405161037d91906120f4565b60405180910390f35b6103a0600480360381019061039b91906121ad565b611432565b005b6103bc60048036038101906103b791906120b8565b6115a0565b6040516103ce9695949392919061252e565b60405180910390f35b6103f160048036038101906103ec919061240b565b611719565b6040516103fe91906120f4565b60405180910390f35b610421600480360381019061041c91906120b8565b611731565b005b61043d600480360381019061043891906121ad565b611af5565b60405161044a91906123c6565b60405180910390f35b61046d600480360381019061046891906120b8565b611b24565b005b610489600480360381019061048491906121ad565b611b79565b60405161049691906123c6565b60405180910390f35b6104b960048036038101906104b4919061240b565b611be4565b005b6104c3611c67565b6040516104d091906125fc565b60405180910390f35b6104f360048036038101906104ee91906120b8565b611c8d565b005b6104fd611f24565b6000600360008381526020019081526020016000209050600073ffffffffffffffffffffffffffffffffffffffff168160000160009054906101000a900473ffffffffffffffffffffffffffffffffffffffff1673ffffffffffffffffffffffffffffffffffffffff16036105a7576040517f08c379a000000000000000000000000000000000000000000000000000000000815260040161059e90612663565b60405180910390fd5b60008160040160006101000a81548160ff021916908360018111156105cf576105ce6124b7565b5b021790555060005b600460008360000160009054906101000a900473ffffffffffffffffffffffffffffffffffffffff1673ffffffffffffffffffffffffffffffffffffffff1673ffffffffffffffffffffffffffffffffffffffff168152602001908152602001600020805490508110156108e15782600460008460000160009054906101000a900473ffffffffffffffffffffffffffffffffffffffff1673ffffffffffffffffffffffffffffffffffffffff1673ffffffffffffffffffffffffffffffffffffffff16815260200190815260200160002082815481106106bb576106ba612683565b5b9060005260206000200154036108ce57600460008360000160009054906101000a900473ffffffffffffffffffffffffffffffffffffffff1673ffffffffffffffffffffffffffffffffffffffff1673ffffffffffffffffffffffffffffffffffffffff1681526020019081526020016000206001600460008560000160009054906101000a900473ffffffffffffffffffffffffffffffffffffffff1673ffffffffffffffffffffffffffffffffffffffff1673ffffffffffffffffffffffffffffffffffffffff168152602001908152602001600020805490506107a191906126e1565b815481106107b2576107b1612683565b5b9060005260206000200154600460008460000160009054906101000a900473ffffffffffffffffffffffffffffffffffffffff1673ffffffffffffffffffffffffffffffffffffffff1673ffffffffffffffffffffffffffffffffffffffff168152602001908152602001600020828154811061083257610831612683565b5b9060005260206000200181905550600460008360000160009054906101000a900473ffffffffffffffffffffffffffffffffffffffff1673ffffffffffffffffffffffffffffffffffffffff1673ffffffffffffffffffffffffffffffffffffffff1681526020019081526020016000208054806108b3576108b2612715565b5b600190038181906000526020600020016000905590556108e1565b80806108d990612744565b9150506105d7565b503373ffffffffffffffffffffffffffffffffffffffff16827f400c9e2673cc1f32cc720493b4552fdcc572bda73f654b69fab24890574ab3718360010160405161092c9190612885565b60405180910390a35050565b60095481565b610946611f24565b60008111610989576040517f08c379a000000000000000000000000000000000000000000000000000000000815260040161098090612919565b60405180910390fd5b8060098190555050565b600460205281600052604060002081815481106109af57600080fd5b90600052602060002001600091509150505481565b60025481565b6109d2611f24565b6000600360008481526020019081526020016000209050600073ffffffffffffffffffffffffffffffffffffffff168160000160009054906101000a900473ffffffffffffffffffffffffffffffffffffffff1673ffffffffffffffffffffffffffffffffffffffff1603610a7c576040517f08c379a0000000000000000000000000000000000000000000000000000000008152600401610a7390612663565b60405180910390fd5b60008160050160008473ffffffffffffffffffffffffffffffffffffffff1673ffffffffffffffffffffffffffffffffffffffff16815260200190815260200160002060006101000a81548160ff02191690831515021790555060006005600085815260200190815260200160002060008473ffffffffffffffffffffffffffffffffffffffff1673ffffffffffffffffffffffffffffffffffffffff16815260200190815260200160002060006101000a81548160ff0219169083151502179055508173ffffffffffffffffffffffffffffffffffffffff16837f408b0ea595edcded7cd47ed07984001fe85c0df60f6521171bd044d76d87ab3b83600101604051610b899190612885565b60405180910390a3505050565b600a60009054906101000a900460ff1615610be6576040517f08c379a0000000000000000000000000000000000000000000000000000000008152600401610bdd90612985565b60405180910390fd5b60008251118015610bf8575060008151115b610c37576040517f08c379a0000000000000000000000000000000000000000000000000000000008152600401610c2e90612a17565b60405180910390fd5b600060026000815480929190610c4c90612744565b9190505590506000600360008381526020019081526020016000209050338160000160006101000a81548173ffffffffffffffffffffffffffffffffffffffff021916908373ffffffffffffffffffffffffffffffffffffffff16021790555083816001019081610cbd9190612bc4565b5082816002019081610ccf9190612bc4565b5042816003018190555060008160040160006101000a81548160ff02191690836001811115610d0157610d006124b7565b5b0217905550600460003373ffffffffffffffffffffffffffffffffffffffff1673ffffffffffffffffffffffffffffffffffffffff168152602001908152602001600020829080600181540180825580915050600190039060005260206000200160009091909190915055813373ffffffffffffffffffffffffffffffffffffffff167fef9bb80da46315f206c1d36c494217072b7bf89dbdec9e2851d4ee60c6be336f426000604051610db6929190612cbc565b60405180910390a350505050565b806005600082815260200190815260200160002060003373ffffffffffffffffffffffffffffffffffffffff1673ffffffffffffffffffffffffffffffffffffffff16815260200190815260200160002060009054906101000a900460ff16610e62576040517f08c379a0000000000000000000000000000000000000000000000000000000008152600401610e5990612d6a565b60405180910390fd5b3373ffffffffffffffffffffffffffffffffffffffff16827f2a5bc347297320b19b7d9df75456f5e8d02660e2b9efb6a88432a06cae2aac9d60036000868152602001908152602001600020600101604051610ebe9190612885565b60405180910390a35050565b610ed2611f24565b6000600a60006101000a81548160ff021916908315150217905550565b600a60009054906101000a900460ff1681565b813373ffffffffffffffffffffffffffffffffffffffff166003600083815260200190815260200160002060000160009054906101000a900473ffffffffffffffffffffffffffffffffffffffff1673ffffffffffffffffffffffffffffffffffffffff1614610fa7576040517f08c379a0000000000000000000000000000000000000000000000000000000008152600401610f9e90612dfc565b60405180910390fd5b60016005600085815260200190815260200160002060008473ffffffffffffffffffffffffffffffffffffffff1673ffffffffffffffffffffffffffffffffffffffff16815260200190815260200160002060006101000a81548160ff0219169083151502179055508173ffffffffffffffffffffffffffffffffffffffff16837fe6ac684b05c889713c90ae79d1e12df895cfe074e63697374f7d9d3d195b9d016003600087815260200190815260200160002060010160405161106c9190612885565b60405180910390a3505050565b611081611f24565b61108b6000611fa2565b565b60085481565b61109b611f24565b6001600a60006101000a81548160ff021916908315150217905550565b60008060009054906101000a900473ffffffffffffffffffffffffffffffffffffffff16905090565b6000600360008381526020019081526020016000209050600073ffffffffffffffffffffffffffffffffffffffff168160000160009054906101000a900473ffffffffffffffffffffffffffffffffffffffff1673ffffffffffffffffffffffffffffffffffffffff160361118b576040517f08c379a000000000000000000000000000000000000000000000000000000000815260040161118290612663565b60405180910390fd5b6000600181111561119f5761119e6124b7565b5b8160040160009054906101000a900460ff1660018111156111c3576111c26124b7565b5b14611203576040517f08c379a00000000000000000000000000000000000000000000000000000000081526004016111fa90612e68565b60405180910390fd5b8060060160003373ffffffffffffffffffffffffffffffffffffffff1673ffffffffffffffffffffffffffffffffffffffff16815260200190815260200160002060009054906101000a900460ff1615611292576040517f08c379a000000000000000000000000000000000000000000000000000000000815260040161128990612ed4565b60405180910390fd5b60018160060160003373ffffffffffffffffffffffffffffffffffffffff1673ffffffffffffffffffffffffffffffffffffffff16815260200190815260200160002060006101000a81548160ff02191690831515021790555080600701600081548092919061130190612744565b91905055503373ffffffffffffffffffffffffffffffffffffffff16827f2acce567deca3aabf56327adbb4524bd5318936eaefa69e3a5208ffda0cfec09836007015460405161135191906120f4565b60405180910390a360038160070154106113e55760018160040160006101000a81548160ff0219169083600181111561138d5761138c6124b7565b5b02179055503373ffffffffffffffffffffffffffffffffffffffff16827f13051e52e773c6237b9e19fc0ae74b0c150cb6357b286ffeef34cbb32d1213ab836001016040516113dc9190612885565b60405180910390a35b5050565b6000600660008373ffffffffffffffffffffffffffffffffffffffff1673ffffffffffffffffffffffffffffffffffffffff168152602001908152602001600020549050919050565b813373ffffffffffffffffffffffffffffffffffffffff166003600083815260200190815260200160002060000160009054906101000a900473ffffffffffffffffffffffffffffffffffffffff1673ffffffffffffffffffffffffffffffffffffffff16146114d7576040517f08c379a00000000000000000000000000000000000000000000000000000000081526004016114ce90612dfc565b60405180910390fd5b60006005600085815260200190815260200160002060008473ffffffffffffffffffffffffffffffffffffffff1673ffffffffffffffffffffffffffffffffffffffff16815260200190815260200160002060006101000a81548160ff0219169083151502179055508173ffffffffffffffffffffffffffffffffffffffff163373ffffffffffffffffffffffffffffffffffffffff16847f58982691f8028698415b80190ad6b11bb594d64a5ad0fe9a1cec01e61c8afcdd60405160405180910390a4505050565b60036020528060005260406000206000915090508060000160009054906101000a900473ffffffffffffffffffffffffffffffffffffffff16908060010180546115e9906127bb565b80601f0160208091040260200160405190810160405280929190818152602001828054611615906127bb565b80156116625780601f1061163757610100808354040283529160200191611662565b820191906000526020600020905b81548152906001019060200180831161164557829003601f168201915b505050505090806002018054611677906127bb565b80601f01602080910402602001604051908101604052809291908181526020018280546116a3906127bb565b80156116f05780601f106116c5576101008083540402835291602001916116f0565b820191906000526020600020905b8154815290600101906020018083116116d357829003601f168201915b5050505050908060030154908060040160009054906101000a900460ff16908060070154905086565b60066020528060005260406000206000915090505481565b600a60009054906101000a900460ff1615611781576040517f08c379a000000000000000000000000000000000000000000000000000000000815260040161177890612985565b60405180910390fd5b6000600360008381526020019081526020016000209050600073ffffffffffffffffffffffffffffffffffffffff168160000160009054906101000a900473ffffffffffffffffffffffffffffffffffffffff1673ffffffffffffffffffffffffffffffffffffffff160361182b576040517f08c379a000000000000000000000000000000000000000000000000000000000815260040161182290612663565b60405180910390fd5b60018081111561183e5761183d6124b7565b5b8160040160009054906101000a900460ff166001811115611862576118616124b7565b5b146118a2576040517f08c379a000000000000000000000000000000000000000000000000000000000815260040161189990612f66565b60405180910390fd5b8060050160003373ffffffffffffffffffffffffffffffffffffffff1673ffffffffffffffffffffffffffffffffffffffff16815260200190815260200160002060009054906101000a900460ff1615611931576040517f08c379a000000000000000000000000000000000000000000000000000000000815260040161192890612fd2565b60405180910390fd5b600760009054906101000a900473ffffffffffffffffffffffffffffffffffffffff1673ffffffffffffffffffffffffffffffffffffffff166323b872dd3330670de0b6b3a76400006040518463ffffffff1660e01b81526004016119989392919061302d565b6020604051808303816000875af11580156119b7573d6000803e3d6000fd5b505050506040513d601f19601f820116820180604052508101906119db9190613090565b5060018160050160003373ffffffffffffffffffffffffffffffffffffffff1673ffffffffffffffffffffffffffffffffffffffff16815260200190815260200160002060006101000a81548160ff02191690831515021790555060016005600084815260200190815260200160002060003373ffffffffffffffffffffffffffffffffffffffff1673ffffffffffffffffffffffffffffffffffffffff16815260200190815260200160002060006101000a81548160ff0219169083151502179055503373ffffffffffffffffffffffffffffffffffffffff16827fe6ac684b05c889713c90ae79d1e12df895cfe074e63697374f7d9d3d195b9d0183600101604051611ae99190612885565b60405180910390a35050565b60056020528160005260406000206020528060005260406000206000915091509054906101000a900460ff1681565b611b2c611f24565b60008111611b6f576040517f08c379a0000000000000000000000000000000000000000000000000000000008152600401611b6690613109565b60405180910390fd5b8060088190555050565b60006003600084815260200190815260200160002060050160008373ffffffffffffffffffffffffffffffffffffffff1673ffffffffffffffffffffffffffffffffffffffff16815260200190815260200160002060009054906101000a900460ff16905092915050565b611bec611f24565b600073ffffffffffffffffffffffffffffffffffffffff168173ffffffffffffffffffffffffffffffffffffffff1603611c5b576040517f08c379a0000000000000000000000000000000000000000000000000000000008152600401611c529061319b565b60405180910390fd5b611c6481611fa2565b50565b600760009054906101000a900473ffffffffffffffffffffffffffffffffffffffff1681565b806003600082815260200190815260200160002060060160003373ffffffffffffffffffffffffffffffffffffffff1673ffffffffffffffffffffffffffffffffffffffff16815260200190815260200160002060009054906101000a900460ff16611d2e576040517f08c379a0000000000000000000000000000000000000000000000000000000008152600401611d259061322d565b60405180910390fd5b600a60009054906101000a900460ff1615611d7e576040517f08c379a0000000000000000000000000000000000000000000000000000000008152600401611d7590612985565b60405180910390fd5b6000600360008481526020019081526020016000209050600073ffffffffffffffffffffffffffffffffffffffff168160000160009054906101000a900473ffffffffffffffffffffffffffffffffffffffff1673ffffffffffffffffffffffffffffffffffffffff1603611e28576040517f08c379a0000000000000000000000000000000000000000000000000000000008152600401611e1f90612663565b60405180910390fd5b60006001811115611e3c57611e3b6124b7565b5b8160040160009054906101000a900460ff166001811115611e6057611e5f6124b7565b5b14611ea0576040517f08c379a0000000000000000000000000000000000000000000000000000000008152600401611e9790612e68565b60405180910390fd5b60018160040160006101000a81548160ff02191690836001811115611ec857611ec76124b7565b5b02179055503373ffffffffffffffffffffffffffffffffffffffff16837f13051e52e773c6237b9e19fc0ae74b0c150cb6357b286ffeef34cbb32d1213ab83600101604051611f179190612885565b60405180910390a3505050565b611f2c612066565b73ffffffffffffffffffffffffffffffffffffffff16611f4a6110b8565b73ffffffffffffffffffffffffffffffffffffffff1614611fa0576040517f08c379a0000000000000000000000000000000000000000000000000000000008152600401611f9790613299565b60405180910390fd5b565b60008060009054906101000a900473ffffffffffffffffffffffffffffffffffffffff169050816000806101000a81548173ffffffffffffffffffffffffffffffffffffffff021916908373ffffffffffffffffffffffffffffffffffffffff1602179055508173ffffffffffffffffffffffffffffffffffffffff168173ffffffffffffffffffffffffffffffffffffffff167f8be0079c531659141344cd1fd0a4f28419497f9722a3daafe3b4186f6b6457e060405160405180910390a35050565b600033905090565b6000604051905090565b600080fd5b600080fd5b6000819050919050565b61209581612082565b81146120a057600080fd5b50565b6000813590506120b28161208c565b92915050565b6000602082840312156120ce576120cd612078565b5b60006120dc848285016120a3565b91505092915050565b6120ee81612082565b82525050565b600060208201905061210960008301846120e5565b92915050565b600073ffffffffffffffffffffffffffffffffffffffff82169050919050565b600061213a8261210f565b9050919050565b61214a8161212f565b811461215557600080fd5b50565b60008135905061216781612141565b92915050565b6000806040838503121561218457612183612078565b5b600061219285828601612158565b92505060206121a3858286016120a3565b9150509250929050565b600080604083850312156121c4576121c3612078565b5b60006121d2858286016120a3565b92505060206121e385828601612158565b9150509250929050565b600080fd5b600080fd5b6000601f19601f8301169050919050565b7f4e487b7100000000000000000000000000000000000000000000000000000000600052604160045260246000fd5b612240826121f7565b810181811067ffffffffffffffff8211171561225f5761225e612208565b5b80604052505050565b600061227261206e565b905061227e8282612237565b919050565b600067ffffffffffffffff82111561229e5761229d612208565b5b6122a7826121f7565b9050602081019050919050565b82818337600083830152505050565b60006122d66122d184612283565b612268565b9050828152602081018484840111156122f2576122f16121f2565b5b6122fd8482856122b4565b509392505050565b600082601f83011261231a576123196121ed565b5b813561232a8482602086016122c3565b91505092915050565b6000806040838503121561234a57612349612078565b5b600083013567ffffffffffffffff8111156123685761236761207d565b5b61237485828601612305565b925050602083013567ffffffffffffffff8111156123955761239461207d565b5b6123a185828601612305565b9150509250929050565b60008115159050919050565b6123c0816123ab565b82525050565b60006020820190506123db60008301846123b7565b92915050565b6123ea8161212f565b82525050565b600060208201905061240560008301846123e1565b92915050565b60006020828403121561242157612420612078565b5b600061242f84828501612158565b91505092915050565b600081519050919050565b600082825260208201905092915050565b60005b83811015612472578082015181840152602081019050612457565b60008484015250505050565b600061248982612438565b6124938185612443565b93506124a3818560208601612454565b6124ac816121f7565b840191505092915050565b7f4e487b7100000000000000000000000000000000000000000000000000000000600052602160045260246000fd5b600281106124f7576124f66124b7565b5b50565b6000819050612508826124e6565b919050565b6000612518826124fa565b9050919050565b6125288161250d565b82525050565b600060c08201905061254360008301896123e1565b8181036020830152612555818861247e565b90508181036040830152612569818761247e565b905061257860608301866120e5565b612585608083018561251f565b61259260a08301846120e5565b979650505050505050565b6000819050919050565b60006125c26125bd6125b88461210f565b61259d565b61210f565b9050919050565b60006125d4826125a7565b9050919050565b60006125e6826125c9565b9050919050565b6125f6816125db565b82525050565b600060208201905061261160008301846125ed565b92915050565b7f436f6e74656e7420646f6573206e6f7420657869737400000000000000000000600082015250565b600061264d601683612443565b915061265882612617565b602082019050919050565b6000602082019050818103600083015261267c81612640565b9050919050565b7f4e487b7100000000000000000000000000000000000000000000000000000000600052603260045260246000fd5b7f4e487b7100000000000000000000000000000000000000000000000000000000600052601160045260246000fd5b60006126ec82612082565b91506126f783612082565b925082820390508181111561270f5761270e6126b2565b5b92915050565b7f4e487b7100000000000000000000000000000000000000000000000000000000600052603160045260246000fd5b600061274f82612082565b91507fffffffffffffffffffffffffffffffffffffffffffffffffffffffffffffffff8203612781576127806126b2565b5b600182019050919050565b7f4e487b7100000000000000000000000000000000000000000000000000000000600052602260045260246000fd5b600060028204905060018216806127d357607f821691505b6020821081036127e6576127e561278c565b5b50919050565b60008190508160005260206000209050919050565b6000815461280e816127bb565b6128188186612443565b9450600182166000811461283357600181146128495761287c565b60ff19831686528115156020028601935061287c565b612852856127ec565b60005b8381101561287457815481890152600182019150602081019050612855565b808801955050505b50505092915050565b6000602082019050818103600083015261289f8184612801565b905092915050565b7f4d61782072657075746174696f6e206d7573742062652067726561746572207460008201527f68616e2030000000000000000000000000000000000000000000000000000000602082015250565b6000612903602583612443565b915061290e826128a7565b604082019050919050565b60006020820190508181036000830152612932816128f6565b9050919050565b7f436f6e7472616374206973207061757365640000000000000000000000000000600082015250565b600061296f601283612443565b915061297a82612939565b602082019050919050565b6000602082019050818103600083015261299e81612962565b9050919050565b7f5469746c6520616e64206465736372697074696f6e2063616e6e6f742062652060008201527f656d707479000000000000000000000000000000000000000000000000000000602082015250565b6000612a01602583612443565b9150612a0c826129a5565b604082019050919050565b60006020820190508181036000830152612a30816129f4565b9050919050565b60006020601f8301049050919050565b600082821b905092915050565b600060088302612a847fffffffffffffffffffffffffffffffffffffffffffffffffffffffffffffffff82612a47565b612a8e8683612a47565b95508019841693508086168417925050509392505050565b6000612ac1612abc612ab784612082565b61259d565b612082565b9050919050565b6000819050919050565b612adb83612aa6565b612aef612ae782612ac8565b848454612a54565b825550505050565b600090565b612b04612af7565b612b0f818484612ad2565b505050565b5b81811015612b3357612b28600082612afc565b600181019050612b15565b5050565b601f821115612b7857612b49816127ec565b612b5284612a37565b81016020851015612b61578190505b612b75612b6d85612a37565b830182612b14565b50505b505050565b600082821c905092915050565b6000612b9b60001984600802612b7d565b1980831691505092915050565b6000612bb48383612b8a565b9150826002028217905092915050565b612bcd82612438565b67ffffffffffffffff811115612be657612be5612208565b5b612bf082546127bb565b612bfb828285612b37565b600060209050601f831160018114612c2e5760008415612c1c578287015190505b612c268582612ba8565b865550612c8e565b601f198416612c3c866127ec565b60005b82811015612c6457848901518255600182019150602085019450602081019050612c3f565b86831015612c815784890151612c7d601f891682612b8a565b8355505b6001600288020188555050505b505050505050565b50565b6000612ca6600083612443565b9150612cb182612c96565b600082019050919050565b6000606082019050612cd160008301856120e5565b612cde602083018461251f565b8181036040830152612cef81612c99565b90509392505050565b7f596f7520646f206e6f74206861766520612076616c6964206c6963656e73652060008201527f666f72207468697320636f6e74656e7400000000000000000000000000000000602082015250565b6000612d54603083612443565b9150612d5f82612cf8565b604082019050919050565b60006020820190508181036000830152612d8381612d47565b9050919050565b7f596f7520617265206e6f74207468652063726561746f72206f6620746869732060008201527f636f6e74656e7400000000000000000000000000000000000000000000000000602082015250565b6000612de6602783612443565b9150612df182612d8a565b604082019050919050565b60006020820190508181036000830152612e1581612dd9565b9050919050565b7f436f6e74656e7420697320616c72656164792076657269666965640000000000600082015250565b6000612e52601b83612443565b9150612e5d82612e1c565b602082019050919050565b60006020820190508181036000830152612e8181612e45565b9050919050565b7f596f75206861766520616c726561647920766f74656400000000000000000000600082015250565b6000612ebe601683612443565b9150612ec982612e88565b602082019050919050565b60006020820190508181036000830152612eed81612eb1565b9050919050565b7f43616e6e6f74207075726368617365206c6963656e736520666f7220756e766560008201527f72696669656420636f6e74656e74000000000000000000000000000000000000602082015250565b6000612f50602e83612443565b9150612f5b82612ef4565b604082019050919050565b60006020820190508181036000830152612f7f81612f43565b9050919050565b7f4c6963656e736520616c72656164792070757263686173656400000000000000600082015250565b6000612fbc601983612443565b9150612fc782612f86565b602082019050919050565b60006020820190508181036000830152612feb81612faf565b9050919050565b6000819050919050565b600061301761301261300d84612ff2565b61259d565b612082565b9050919050565b61302781612ffc565b82525050565b600060608201905061304260008301866123e1565b61304f60208301856123e1565b61305c604083018461301e565b949350505050565b61306d816123ab565b811461307857600080fd5b50565b60008151905061308a81613064565b92915050565b6000602082840312156130a6576130a5612078565b5b60006130b48482850161307b565b91505092915050565b7f4d617820766f746573206d7573742062652067726561746572207468616e2030600082015250565b60006130f3602083612443565b91506130fe826130bd565b602082019050919050565b60006020820190508181036000830152613122816130e6565b9050919050565b7f4f776e61626c653a206e6577206f776e657220697320746865207a65726f206160008201527f6464726573730000000000000000000000000000000000000000000000000000602082015250565b6000613185602683612443565b915061319082613129565b604082019050919050565b600060208201905081810360008301526131b481613178565b9050919050565b7f596f7520617265206e6f7420617574686f72697a656420746f2076657269667960008201527f207468697320636f6e74656e7400000000000000000000000000000000000000602082015250565b6000613217602d83612443565b9150613222826131bb565b604082019050919050565b600060208201905081810360008301526132468161320a565b9050919050565b7f4f776e61626c653a2063616c6c6572206973206e6f7420746865206f776e6572600082015250565b6000613283602083612443565b915061328e8261324d565b602082019050919050565b600060208201905081810360008301526132b281613276565b905091905056fea264697066735822122037523ba4eed5f062cbaddae84c1f95bf04302328374e0a97be5cf637be39a26164736f6c63430008120033",
					"opcodes": "PUSH1 0x80 PUSH1 0x40 MSTORE PUSH1 0x3 PUSH1 0x8 SSTORE PUSH1 0x64 PUSH1 0x9 SSTORE CALLVALUE DUP1 ISZERO PUSH3 0x1B JUMPI PUSH1 0x0 DUP1 REVERT JUMPDEST POP PUSH1 0x40 MLOAD PUSH3 0x3517 CODESIZE SUB DUP1 PUSH3 0x3517 DUP4 CODECOPY DUP2 DUP2 ADD PUSH1 0x40 MSTORE DUP2 ADD SWAP1 PUSH3 0x41 SWAP2 SWAP1 PUSH3 0x1E6 JUMP JUMPDEST PUSH3 0x61 PUSH3 0x55 PUSH3 0xB0 PUSH1 0x20 SHL PUSH1 0x20 SHR JUMP JUMPDEST PUSH3 0xB8 PUSH1 0x20 SHL PUSH1 0x20 SHR JUMP JUMPDEST PUSH1 0x1 DUP1 DUP2 SWAP1 SSTORE POP DUP1 PUSH1 0x7 PUSH1 0x0 PUSH2 0x100 EXP DUP2 SLOAD DUP2 PUSH20 0xFFFFFFFFFFFFFFFFFFFFFFFFFFFFFFFFFFFFFFFF MUL NOT AND SWAP1 DUP4 PUSH20 0xFFFFFFFFFFFFFFFFFFFFFFFFFFFFFFFFFFFFFFFF AND MUL OR SWAP1 SSTORE POP POP PUSH3 0x218 JUMP JUMPDEST PUSH1 0x0 CALLER SWAP1 POP SWAP1 JUMP JUMPDEST PUSH1 0x0 DUP1 PUSH1 0x0 SWAP1 SLOAD SWAP1 PUSH2 0x100 EXP SWAP1 DIV PUSH20 0xFFFFFFFFFFFFFFFFFFFFFFFFFFFFFFFFFFFFFFFF AND SWAP1 POP DUP2 PUSH1 0x0 DUP1 PUSH2 0x100 EXP DUP2 SLOAD DUP2 PUSH20 0xFFFFFFFFFFFFFFFFFFFFFFFFFFFFFFFFFFFFFFFF MUL NOT AND SWAP1 DUP4 PUSH20 0xFFFFFFFFFFFFFFFFFFFFFFFFFFFFFFFFFFFFFFFF AND MUL OR SWAP1 SSTORE POP DUP2 PUSH20 0xFFFFFFFFFFFFFFFFFFFFFFFFFFFFFFFFFFFFFFFF AND DUP2 PUSH20 0xFFFFFFFFFFFFFFFFFFFFFFFFFFFFFFFFFFFFFFFF AND PUSH32 0x8BE0079C531659141344CD1FD0A4F28419497F9722A3DAAFE3B4186F6B6457E0 PUSH1 0x40 MLOAD PUSH1 0x40 MLOAD DUP1 SWAP2 SUB SWAP1 LOG3 POP POP JUMP JUMPDEST PUSH1 0x0 DUP1 REVERT JUMPDEST PUSH1 0x0 PUSH20 0xFFFFFFFFFFFFFFFFFFFFFFFFFFFFFFFFFFFFFFFF DUP3 AND SWAP1 POP SWAP2 SWAP1 POP JUMP JUMPDEST PUSH1 0x0 PUSH3 0x1AE DUP3 PUSH3 0x181 JUMP JUMPDEST SWAP1 POP SWAP2 SWAP1 POP JUMP JUMPDEST PUSH3 0x1C0 DUP2 PUSH3 0x1A1 JUMP JUMPDEST DUP2 EQ PUSH3 0x1CC JUMPI PUSH1 0x0 DUP1 REVERT JUMPDEST POP JUMP JUMPDEST PUSH1 0x0 DUP2 MLOAD SWAP1 POP PUSH3 0x1E0 DUP2 PUSH3 0x1B5 JUMP JUMPDEST SWAP3 SWAP2 POP POP JUMP JUMPDEST PUSH1 0x0 PUSH1 0x20 DUP3 DUP5 SUB SLT ISZERO PUSH3 0x1FF JUMPI PUSH3 0x1FE PUSH3 0x17C JUMP JUMPDEST JUMPDEST PUSH1 0x0 PUSH3 0x20F DUP5 DUP3 DUP6 ADD PUSH3 0x1CF JUMP JUMPDEST SWAP2 POP POP SWAP3 SWAP2 POP POP JUMP JUMPDEST PUSH2 0x32EF DUP1 PUSH3 0x228 PUSH1 0x0 CODECOPY PUSH1 0x0 RETURN INVALID PUSH1 0x80 PUSH1 0x40 MSTORE CALLVALUE DUP1 ISZERO PUSH2 0x10 JUMPI PUSH1 0x0 DUP1 REVERT JUMPDEST POP PUSH1 0x4 CALLDATASIZE LT PUSH2 0x1A9 JUMPI PUSH1 0x0 CALLDATALOAD PUSH1 0xE0 SHR DUP1 PUSH4 0x8456CB59 GT PUSH2 0xF9 JUMPI DUP1 PUSH4 0xC8A028A8 GT PUSH2 0x97 JUMPI DUP1 PUSH4 0xEE6C9DB4 GT PUSH2 0x71 JUMPI DUP1 PUSH4 0xEE6C9DB4 EQ PUSH2 0x46F JUMPI DUP1 PUSH4 0xF2FDE38B EQ PUSH2 0x49F JUMPI DUP1 PUSH4 0xFC0C546A EQ PUSH2 0x4BB JUMPI DUP1 PUSH4 0xFD2A176E EQ PUSH2 0x4D9 JUMPI PUSH2 0x1A9 JUMP JUMPDEST DUP1 PUSH4 0xC8A028A8 EQ PUSH2 0x407 JUMPI DUP1 PUSH4 0xC8D80ADA EQ PUSH2 0x423 JUMPI DUP1 PUSH4 0xDA41EA93 EQ PUSH2 0x453 JUMPI PUSH2 0x1A9 JUMP JUMPDEST DUP1 PUSH4 0x9C89A0E2 GT PUSH2 0xD3 JUMPI DUP1 PUSH4 0x9C89A0E2 EQ PUSH2 0x356 JUMPI DUP1 PUSH4 0xA1672A67 EQ PUSH2 0x386 JUMPI DUP1 PUSH4 0xB5ECF912 EQ PUSH2 0x3A2 JUMPI DUP1 PUSH4 0xB9F79451 EQ PUSH2 0x3D7 JUMPI PUSH2 0x1A9 JUMP JUMPDEST DUP1 PUSH4 0x8456CB59 EQ PUSH2 0x312 JUMPI DUP1 PUSH4 0x8DA5CB5B EQ PUSH2 0x31C JUMPI DUP1 PUSH4 0x8EFC5E9A EQ PUSH2 0x33A JUMPI PUSH2 0x1A9 JUMP JUMPDEST DUP1 PUSH4 0x3AD3D548 GT PUSH2 0x166 JUMPI DUP1 PUSH4 0x5C975ABB GT PUSH2 0x140 JUMPI DUP1 PUSH4 0x5C975ABB EQ PUSH2 0x2B0 JUMPI DUP1 PUSH4 0x6E4D6230 EQ PUSH2 0x2CE JUMPI DUP1 PUSH4 0x715018A6 EQ PUSH2 0x2EA JUMPI DUP1 PUSH4 0x777C3ACF EQ PUSH2 0x2F4 JUMPI PUSH2 0x1A9 JUMP JUMPDEST DUP1 PUSH4 0x3AD3D548 EQ PUSH2 0x26E JUMPI DUP1 PUSH4 0x3F193016 EQ PUSH2 0x28A JUMPI DUP1 PUSH4 0x3F4BA83A EQ PUSH2 0x2A6 JUMPI PUSH2 0x1A9 JUMP JUMPDEST DUP1 PUSH4 0xF64253D EQ PUSH2 0x1AE JUMPI DUP1 PUSH4 0x1D22899B EQ PUSH2 0x1CA JUMPI DUP1 PUSH4 0x1EC923F2 EQ PUSH2 0x1E8 JUMPI DUP1 PUSH4 0x27572F43 EQ PUSH2 0x204 JUMPI DUP1 PUSH4 0x2C59D163 EQ PUSH2 0x234 JUMPI DUP1 PUSH4 0x32B1D75D EQ PUSH2 0x252 JUMPI JUMPDEST PUSH1 0x0 DUP1 REVERT JUMPDEST PUSH2 0x1C8 PUSH1 0x4 DUP1 CALLDATASIZE SUB DUP2 ADD SWAP1 PUSH2 0x1C3 SWAP2 SWAP1 PUSH2 0x20B8 JUMP JUMPDEST PUSH2 0x4F5 JUMP JUMPDEST STOP JUMPDEST PUSH2 0x1D2 PUSH2 0x938 JUMP JUMPDEST PUSH1 0x40 MLOAD PUSH2 0x1DF SWAP2 SWAP1 PUSH2 0x20F4 JUMP JUMPDEST PUSH1 0x40 MLOAD DUP1 SWAP2 SUB SWAP1 RETURN JUMPDEST PUSH2 0x202 PUSH1 0x4 DUP1 CALLDATASIZE SUB DUP2 ADD SWAP1 PUSH2 0x1FD SWAP2 SWAP1 PUSH2 0x20B8 JUMP JUMPDEST PUSH2 0x93E JUMP JUMPDEST STOP JUMPDEST PUSH2 0x21E PUSH1 0x4 DUP1 CALLDATASIZE SUB DUP2 ADD SWAP1 PUSH2 0x219 SWAP2 SWAP1 PUSH2 0x216D JUMP JUMPDEST PUSH2 0x993 JUMP JUMPDEST PUSH1 0x40 MLOAD PUSH2 0x22B SWAP2 SWAP1 PUSH2 0x20F4 JUMP JUMPDEST PUSH1 0x40 MLOAD DUP1 SWAP2 SUB SWAP1 RETURN JUMPDEST PUSH2 0x23C PUSH2 0x9C4 JUMP JUMPDEST PUSH1 0x40 MLOAD PUSH2 0x249 SWAP2 SWAP1 PUSH2 0x20F4 JUMP JUMPDEST PUSH1 0x40 MLOAD DUP1 SWAP2 SUB SWAP1 RETURN JUMPDEST PUSH2 0x26C PUSH1 0x4 DUP1 CALLDATASIZE SUB DUP2 ADD SWAP1 PUSH2 0x267 SWAP2 SWAP1 PUSH2 0x21AD JUMP JUMPDEST PUSH2 0x9CA JUMP JUMPDEST STOP JUMPDEST PUSH2 0x288 PUSH1 0x4 DUP1 CALLDATASIZE SUB DUP2 ADD SWAP1 PUSH2 0x283 SWAP2 SWAP1 PUSH2 0x2333 JUMP JUMPDEST PUSH2 0xB96 JUMP JUMPDEST STOP JUMPDEST PUSH2 0x2A4 PUSH1 0x4 DUP1 CALLDATASIZE SUB DUP2 ADD SWAP1 PUSH2 0x29F SWAP2 SWAP1 PUSH2 0x20B8 JUMP JUMPDEST PUSH2 0xDC4 JUMP JUMPDEST STOP JUMPDEST PUSH2 0x2AE PUSH2 0xECA JUMP JUMPDEST STOP JUMPDEST PUSH2 0x2B8 PUSH2 0xEEF JUMP JUMPDEST PUSH1 0x40 MLOAD PUSH2 0x2C5 SWAP2 SWAP1 PUSH2 0x23C6 JUMP JUMPDEST PUSH1 0x40 MLOAD DUP1 SWAP2 SUB SWAP1 RETURN JUMPDEST PUSH2 0x2E8 PUSH1 0x4 DUP1 CALLDATASIZE SUB DUP2 ADD SWAP1 PUSH2 0x2E3 SWAP2 SWAP1 PUSH2 0x21AD JUMP JUMPDEST PUSH2 0xF02 JUMP JUMPDEST STOP JUMPDEST PUSH2 0x2F2 PUSH2 0x1079 JUMP JUMPDEST STOP JUMPDEST PUSH2 0x2FC PUSH2 0x108D JUMP JUMPDEST PUSH1 0x40 MLOAD PUSH2 0x309 SWAP2 SWAP1 PUSH2 0x20F4 JUMP JUMPDEST PUSH1 0x40 MLOAD DUP1 SWAP2 SUB SWAP1 RETURN JUMPDEST PUSH2 0x31A PUSH2 0x1093 JUMP JUMPDEST STOP JUMPDEST PUSH2 0x324 PUSH2 0x10B8 JUMP JUMPDEST PUSH1 0x40 MLOAD PUSH2 0x331 SWAP2 SWAP1 PUSH2 0x23F0 JUMP JUMPDEST PUSH1 0x40 MLOAD DUP1 SWAP2 SUB SWAP1 RETURN JUMPDEST PUSH2 0x354 PUSH1 0x4 DUP1 CALLDATASIZE SUB DUP2 ADD SWAP1 PUSH2 0x34F SWAP2 SWAP1 PUSH2 0x20B8 JUMP JUMPDEST PUSH2 0x10E1 JUMP JUMPDEST STOP JUMPDEST PUSH2 0x370 PUSH1 0x4 DUP1 CALLDATASIZE SUB DUP2 ADD SWAP1 PUSH2 0x36B SWAP2 SWAP1 PUSH2 0x240B JUMP JUMPDEST PUSH2 0x13E9 JUMP JUMPDEST PUSH1 0x40 MLOAD PUSH2 0x37D SWAP2 SWAP1 PUSH2 0x20F4 JUMP JUMPDEST PUSH1 0x40 MLOAD DUP1 SWAP2 SUB SWAP1 RETURN JUMPDEST PUSH2 0x3A0 PUSH1 0x4 DUP1 CALLDATASIZE SUB DUP2 ADD SWAP1 PUSH2 0x39B SWAP2 SWAP1 PUSH2 0x21AD JUMP JUMPDEST PUSH2 0x1432 JUMP JUMPDEST STOP JUMPDEST PUSH2 0x3BC PUSH1 0x4 DUP1 CALLDATASIZE SUB DUP2 ADD SWAP1 PUSH2 0x3B7 SWAP2 SWAP1 PUSH2 0x20B8 JUMP JUMPDEST PUSH2 0x15A0 JUMP JUMPDEST PUSH1 0x40 MLOAD PUSH2 0x3CE SWAP7 SWAP6 SWAP5 SWAP4 SWAP3 SWAP2 SWAP1 PUSH2 0x252E JUMP JUMPDEST PUSH1 0x40 MLOAD DUP1 SWAP2 SUB SWAP1 RETURN JUMPDEST PUSH2 0x3F1 PUSH1 0x4 DUP1 CALLDATASIZE SUB DUP2 ADD SWAP1 PUSH2 0x3EC SWAP2 SWAP1 PUSH2 0x240B JUMP JUMPDEST PUSH2 0x1719 JUMP JUMPDEST PUSH1 0x40 MLOAD PUSH2 0x3FE SWAP2 SWAP1 PUSH2 0x20F4 JUMP JUMPDEST PUSH1 0x40 MLOAD DUP1 SWAP2 SUB SWAP1 RETURN JUMPDEST PUSH2 0x421 PUSH1 0x4 DUP1 CALLDATASIZE SUB DUP2 ADD SWAP1 PUSH2 0x41C SWAP2 SWAP1 PUSH2 0x20B8 JUMP JUMPDEST PUSH2 0x1731 JUMP JUMPDEST STOP JUMPDEST PUSH2 0x43D PUSH1 0x4 DUP1 CALLDATASIZE SUB DUP2 ADD SWAP1 PUSH2 0x438 SWAP2 SWAP1 PUSH2 0x21AD JUMP JUMPDEST PUSH2 0x1AF5 JUMP JUMPDEST PUSH1 0x40 MLOAD PUSH2 0x44A SWAP2 SWAP1 PUSH2 0x23C6 JUMP JUMPDEST PUSH1 0x40 MLOAD DUP1 SWAP2 SUB SWAP1 RETURN JUMPDEST PUSH2 0x46D PUSH1 0x4 DUP1 CALLDATASIZE SUB DUP2 ADD SWAP1 PUSH2 0x468 SWAP2 SWAP1 PUSH2 0x20B8 JUMP JUMPDEST PUSH2 0x1B24 JUMP JUMPDEST STOP JUMPDEST PUSH2 0x489 PUSH1 0x4 DUP1 CALLDATASIZE SUB DUP2 ADD SWAP1 PUSH2 0x484 SWAP2 SWAP1 PUSH2 0x21AD JUMP JUMPDEST PUSH2 0x1B79 JUMP JUMPDEST PUSH1 0x40 MLOAD PUSH2 0x496 SWAP2 SWAP1 PUSH2 0x23C6 JUMP JUMPDEST PUSH1 0x40 MLOAD DUP1 SWAP2 SUB SWAP1 RETURN JUMPDEST PUSH2 0x4B9 PUSH1 0x4 DUP1 CALLDATASIZE SUB DUP2 ADD SWAP1 PUSH2 0x4B4 SWAP2 SWAP1 PUSH2 0x240B JUMP JUMPDEST PUSH2 0x1BE4 JUMP JUMPDEST STOP JUMPDEST PUSH2 0x4C3 PUSH2 0x1C67 JUMP JUMPDEST PUSH1 0x40 MLOAD PUSH2 0x4D0 SWAP2 SWAP1 PUSH2 0x25FC JUMP JUMPDEST PUSH1 0x40 MLOAD DUP1 SWAP2 SUB SWAP1 RETURN JUMPDEST PUSH2 0x4F3 PUSH1 0x4 DUP1 CALLDATASIZE SUB DUP2 ADD SWAP1 PUSH2 0x4EE SWAP2 SWAP1 PUSH2 0x20B8 JUMP JUMPDEST PUSH2 0x1C8D JUMP JUMPDEST STOP JUMPDEST PUSH2 0x4FD PUSH2 0x1F24 JUMP JUMPDEST PUSH1 0x0 PUSH1 0x3 PUSH1 0x0 DUP4 DUP2 MSTORE PUSH1 0x20 ADD SWAP1 DUP2 MSTORE PUSH1 0x20 ADD PUSH1 0x0 KECCAK256 SWAP1 POP PUSH1 0x0 PUSH20 0xFFFFFFFFFFFFFFFFFFFFFFFFFFFFFFFFFFFFFFFF AND DUP2 PUSH1 0x0 ADD PUSH1 0x0 SWAP1 SLOAD SWAP1 PUSH2 0x100 EXP SWAP1 DIV PUSH20 0xFFFFFFFFFFFFFFFFFFFFFFFFFFFFFFFFFFFFFFFF AND PUSH20 0xFFFFFFFFFFFFFFFFFFFFFFFFFFFFFFFFFFFFFFFF AND SUB PUSH2 0x5A7 JUMPI PUSH1 0x40 MLOAD PUSH32 0x8C379A000000000000000000000000000000000000000000000000000000000 DUP2 MSTORE PUSH1 0x4 ADD PUSH2 0x59E SWAP1 PUSH2 0x2663 JUMP JUMPDEST PUSH1 0x40 MLOAD DUP1 SWAP2 SUB SWAP1 REVERT JUMPDEST PUSH1 0x0 DUP2 PUSH1 0x4 ADD PUSH1 0x0 PUSH2 0x100 EXP DUP2 SLOAD DUP2 PUSH1 0xFF MUL NOT AND SWAP1 DUP4 PUSH1 0x1 DUP2 GT ISZERO PUSH2 0x5CF JUMPI PUSH2 0x5CE PUSH2 0x24B7 JUMP JUMPDEST JUMPDEST MUL OR SWAP1 SSTORE POP PUSH1 0x0 JUMPDEST PUSH1 0x4 PUSH1 0x0 DUP4 PUSH1 0x0 ADD PUSH1 0x0 SWAP1 SLOAD SWAP1 PUSH2 0x100 EXP SWAP1 DIV PUSH20 0xFFFFFFFFFFFFFFFFFFFFFFFFFFFFFFFFFFFFFFFF AND PUSH20 0xFFFFFFFFFFFFFFFFFFFFFFFFFFFFFFFFFFFFFFFF AND PUSH20 0xFFFFFFFFFFFFFFFFFFFFFFFFFFFFFFFFFFFFFFFF AND DUP2 MSTORE PUSH1 0x20 ADD SWAP1 DUP2 MSTORE PUSH1 0x20 ADD PUSH1 0x0 KECCAK256 DUP1 SLOAD SWAP1 POP DUP2 LT ISZERO PUSH2 0x8E1 JUMPI DUP3 PUSH1 0x4 PUSH1 0x0 DUP5 PUSH1 0x0 ADD PUSH1 0x0 SWAP1 SLOAD SWAP1 PUSH2 0x100 EXP SWAP1 DIV PUSH20 0xFFFFFFFFFFFFFFFFFFFFFFFFFFFFFFFFFFFFFFFF AND PUSH20 0xFFFFFFFFFFFFFFFFFFFFFFFFFFFFFFFFFFFFFFFF AND PUSH20 0xFFFFFFFFFFFFFFFFFFFFFFFFFFFFFFFFFFFFFFFF AND DUP2 MSTORE PUSH1 0x20 ADD SWAP1 DUP2 MSTORE PUSH1 0x20 ADD PUSH1 0x0 KECCAK256 DUP3 DUP2 SLOAD DUP2 LT PUSH2 0x6BB JUMPI PUSH2 0x6BA PUSH2 0x2683 JUMP JUMPDEST JUMPDEST SWAP1 PUSH1 0x0 MSTORE PUSH1 0x20 PUSH1 0x0 KECCAK256 ADD SLOAD SUB PUSH2 0x8CE JUMPI PUSH1 0x4 PUSH1 0x0 DUP4 PUSH1 0x0 ADD PUSH1 0x0 SWAP1 SLOAD SWAP1 PUSH2 0x100 EXP SWAP1 DIV PUSH20 0xFFFFFFFFFFFFFFFFFFFFFFFFFFFFFFFFFFFFFFFF AND PUSH20 0xFFFFFFFFFFFFFFFFFFFFFFFFFFFFFFFFFFFFFFFF AND PUSH20 0xFFFFFFFFFFFFFFFFFFFFFFFFFFFFFFFFFFFFFFFF AND DUP2 MSTORE PUSH1 0x20 ADD SWAP1 DUP2 MSTORE PUSH1 0x20 ADD PUSH1 0x0 KECCAK256 PUSH1 0x1 PUSH1 0x4 PUSH1 0x0 DUP6 PUSH1 0x0 ADD PUSH1 0x0 SWAP1 SLOAD SWAP1 PUSH2 0x100 EXP SWAP1 DIV PUSH20 0xFFFFFFFFFFFFFFFFFFFFFFFFFFFFFFFFFFFFFFFF AND PUSH20 0xFFFFFFFFFFFFFFFFFFFFFFFFFFFFFFFFFFFFFFFF AND PUSH20 0xFFFFFFFFFFFFFFFFFFFFFFFFFFFFFFFFFFFFFFFF AND DUP2 MSTORE PUSH1 0x20 ADD SWAP1 DUP2 MSTORE PUSH1 0x20 ADD PUSH1 0x0 KECCAK256 DUP1 SLOAD SWAP1 POP PUSH2 0x7A1 SWAP2 SWAP1 PUSH2 0x26E1 JUMP JUMPDEST DUP2 SLOAD DUP2 LT PUSH2 0x7B2 JUMPI PUSH2 0x7B1 PUSH2 0x2683 JUMP JUMPDEST JUMPDEST SWAP1 PUSH1 0x0 MSTORE PUSH1 0x20 PUSH1 0x0 KECCAK256 ADD SLOAD PUSH1 0x4 PUSH1 0x0 DUP5 PUSH1 0x0 ADD PUSH1 0x0 SWAP1 SLOAD SWAP1 PUSH2 0x100 EXP SWAP1 DIV PUSH20 0xFFFFFFFFFFFFFFFFFFFFFFFFFFFFFFFFFFFFFFFF AND PUSH20 0xFFFFFFFFFFFFFFFFFFFFFFFFFFFFFFFFFFFFFFFF AND PUSH20 0xFFFFFFFFFFFFFFFFFFFFFFFFFFFFFFFFFFFFFFFF AND DUP2 MSTORE PUSH1 0x20 ADD SWAP1 DUP2 MSTORE PUSH1 0x20 ADD PUSH1 0x0 KECCAK256 DUP3 DUP2 SLOAD DUP2 LT PUSH2 0x832 JUMPI PUSH2 0x831 PUSH2 0x2683 JUMP JUMPDEST JUMPDEST SWAP1 PUSH1 0x0 MSTORE PUSH1 0x20 PUSH1 0x0 KECCAK256 ADD DUP2 SWAP1 SSTORE POP PUSH1 0x4 PUSH1 0x0 DUP4 PUSH1 0x0 ADD PUSH1 0x0 SWAP1 SLOAD SWAP1 PUSH2 0x100 EXP SWAP1 DIV PUSH20 0xFFFFFFFFFFFFFFFFFFFFFFFFFFFFFFFFFFFFFFFF AND PUSH20 0xFFFFFFFFFFFFFFFFFFFFFFFFFFFFFFFFFFFFFFFF AND PUSH20 0xFFFFFFFFFFFFFFFFFFFFFFFFFFFFFFFFFFFFFFFF AND DUP2 MSTORE PUSH1 0x20 ADD SWAP1 DUP2 MSTORE PUSH1 0x20 ADD PUSH1 0x0 KECCAK256 DUP1 SLOAD DUP1 PUSH2 0x8B3 JUMPI PUSH2 0x8B2 PUSH2 0x2715 JUMP JUMPDEST JUMPDEST PUSH1 0x1 SWAP1 SUB DUP2 DUP2 SWAP1 PUSH1 0x0 MSTORE PUSH1 0x20 PUSH1 0x0 KECCAK256 ADD PUSH1 0x0 SWAP1 SSTORE SWAP1 SSTORE PUSH2 0x8E1 JUMP JUMPDEST DUP1 DUP1 PUSH2 0x8D9 SWAP1 PUSH2 0x2744 JUMP JUMPDEST SWAP2 POP POP PUSH2 0x5D7 JUMP JUMPDEST POP CALLER PUSH20 0xFFFFFFFFFFFFFFFFFFFFFFFFFFFFFFFFFFFFFFFF AND DUP3 PUSH32 0x400C9E2673CC1F32CC720493B4552FDCC572BDA73F654B69FAB24890574AB371 DUP4 PUSH1 0x1 ADD PUSH1 0x40 MLOAD PUSH2 0x92C SWAP2 SWAP1 PUSH2 0x2885 JUMP JUMPDEST PUSH1 0x40 MLOAD DUP1 SWAP2 SUB SWAP1 LOG3 POP POP JUMP JUMPDEST PUSH1 0x9 SLOAD DUP2 JUMP JUMPDEST PUSH2 0x946 PUSH2 0x1F24 JUMP JUMPDEST PUSH1 0x0 DUP2 GT PUSH2 0x989 JUMPI PUSH1 0x40 MLOAD PUSH32 0x8C379A000000000000000000000000000000000000000000000000000000000 DUP2 MSTORE PUSH1 0x4 ADD PUSH2 0x980 SWAP1 PUSH2 0x2919 JUMP JUMPDEST PUSH1 0x40 MLOAD DUP1 SWAP2 SUB SWAP1 REVERT JUMPDEST DUP1 PUSH1 0x9 DUP2 SWAP1 SSTORE POP POP JUMP JUMPDEST PUSH1 0x4 PUSH1 0x20 MSTORE DUP2 PUSH1 0x0 MSTORE PUSH1 0x40 PUSH1 0x0 KECCAK256 DUP2 DUP2 SLOAD DUP2 LT PUSH2 0x9AF JUMPI PUSH1 0x0 DUP1 REVERT JUMPDEST SWAP1 PUSH1 0x0 MSTORE PUSH1 0x20 PUSH1 0x0 KECCAK256 ADD PUSH1 0x0 SWAP2 POP SWAP2 POP POP SLOAD DUP2 JUMP JUMPDEST PUSH1 0x2 SLOAD DUP2 JUMP JUMPDEST PUSH2 0x9D2 PUSH2 0x1F24 JUMP JUMPDEST PUSH1 0x0 PUSH1 0x3 PUSH1 0x0 DUP5 DUP2 MSTORE PUSH1 0x20 ADD SWAP1 DUP2 MSTORE PUSH1 0x20 ADD PUSH1 0x0 KECCAK256 SWAP1 POP PUSH1 0x0 PUSH20 0xFFFFFFFFFFFFFFFFFFFFFFFFFFFFFFFFFFFFFFFF AND DUP2 PUSH1 0x0 ADD PUSH1 0x0 SWAP1 SLOAD SWAP1 PUSH2 0x100 EXP SWAP1 DIV PUSH20 0xFFFFFFFFFFFFFFFFFFFFFFFFFFFFFFFFFFFFFFFF AND PUSH20 0xFFFFFFFFFFFFFFFFFFFFFFFFFFFFFFFFFFFFFFFF AND SUB PUSH2 0xA7C JUMPI PUSH1 0x40 MLOAD PUSH32 0x8C379A000000000000000000000000000000000000000000000000000000000 DUP2 MSTORE PUSH1 0x4 ADD PUSH2 0xA73 SWAP1 PUSH2 0x2663 JUMP JUMPDEST PUSH1 0x40 MLOAD DUP1 SWAP2 SUB SWAP1 REVERT JUMPDEST PUSH1 0x0 DUP2 PUSH1 0x5 ADD PUSH1 0x0 DUP5 PUSH20 0xFFFFFFFFFFFFFFFFFFFFFFFFFFFFFFFFFFFFFFFF AND PUSH20 0xFFFFFFFFFFFFFFFFFFFFFFFFFFFFFFFFFFFFFFFF AND DUP2 MSTORE PUSH1 0x20 ADD SWAP1 DUP2 MSTORE PUSH1 0x20 ADD PUSH1 0x0 KECCAK256 PUSH1 0x0 PUSH2 0x100 EXP DUP2 SLOAD DUP2 PUSH1 0xFF MUL NOT AND SWAP1 DUP4 ISZERO ISZERO MUL OR SWAP1 SSTORE POP PUSH1 0x0 PUSH1 0x5 PUSH1 0x0 DUP6 DUP2 MSTORE PUSH1 0x20 ADD SWAP1 DUP2 MSTORE PUSH1 0x20 ADD PUSH1 0x0 KECCAK256 PUSH1 0x0 DUP5 PUSH20 0xFFFFFFFFFFFFFFFFFFFFFFFFFFFFFFFFFFFFFFFF AND PUSH20 0xFFFFFFFFFFFFFFFFFFFFFFFFFFFFFFFFFFFFFFFF AND DUP2 MSTORE PUSH1 0x20 ADD SWAP1 DUP2 MSTORE PUSH1 0x20 ADD PUSH1 0x0 KECCAK256 PUSH1 0x0 PUSH2 0x100 EXP DUP2 SLOAD DUP2 PUSH1 0xFF MUL NOT AND SWAP1 DUP4 ISZERO ISZERO MUL OR SWAP1 SSTORE POP DUP2 PUSH20 0xFFFFFFFFFFFFFFFFFFFFFFFFFFFFFFFFFFFFFFFF AND DUP4 PUSH32 0x408B0EA595EDCDED7CD47ED07984001FE85C0DF60F6521171BD044D76D87AB3B DUP4 PUSH1 0x1 ADD PUSH1 0x40 MLOAD PUSH2 0xB89 SWAP2 SWAP1 PUSH2 0x2885 JUMP JUMPDEST PUSH1 0x40 MLOAD DUP1 SWAP2 SUB SWAP1 LOG3 POP POP POP JUMP JUMPDEST PUSH1 0xA PUSH1 0x0 SWAP1 SLOAD SWAP1 PUSH2 0x100 EXP SWAP1 DIV PUSH1 0xFF AND ISZERO PUSH2 0xBE6 JUMPI PUSH1 0x40 MLOAD PUSH32 0x8C379A000000000000000000000000000000000000000000000000000000000 DUP2 MSTORE PUSH1 0x4 ADD PUSH2 0xBDD SWAP1 PUSH2 0x2985 JUMP JUMPDEST PUSH1 0x40 MLOAD DUP1 SWAP2 SUB SWAP1 REVERT JUMPDEST PUSH1 0x0 DUP3 MLOAD GT DUP1 ISZERO PUSH2 0xBF8 JUMPI POP PUSH1 0x0 DUP2 MLOAD GT JUMPDEST PUSH2 0xC37 JUMPI PUSH1 0x40 MLOAD PUSH32 0x8C379A000000000000000000000000000000000000000000000000000000000 DUP2 MSTORE PUSH1 0x4 ADD PUSH2 0xC2E SWAP1 PUSH2 0x2A17 JUMP JUMPDEST PUSH1 0x40 MLOAD DUP1 SWAP2 SUB SWAP1 REVERT JUMPDEST PUSH1 0x0 PUSH1 0x2 PUSH1 0x0 DUP2 SLOAD DUP1 SWAP3 SWAP2 SWAP1 PUSH2 0xC4C SWAP1 PUSH2 0x2744 JUMP JUMPDEST SWAP2 SWAP1 POP SSTORE SWAP1 POP PUSH1 0x0 PUSH1 0x3 PUSH1 0x0 DUP4 DUP2 MSTORE PUSH1 0x20 ADD SWAP1 DUP2 MSTORE PUSH1 0x20 ADD PUSH1 0x0 KECCAK256 SWAP1 POP CALLER DUP2 PUSH1 0x0 ADD PUSH1 0x0 PUSH2 0x100 EXP DUP2 SLOAD DUP2 PUSH20 0xFFFFFFFFFFFFFFFFFFFFFFFFFFFFFFFFFFFFFFFF MUL NOT AND SWAP1 DUP4 PUSH20 0xFFFFFFFFFFFFFFFFFFFFFFFFFFFFFFFFFFFFFFFF AND MUL OR SWAP1 SSTORE POP DUP4 DUP2 PUSH1 0x1 ADD SWAP1 DUP2 PUSH2 0xCBD SWAP2 SWAP1 PUSH2 0x2BC4 JUMP JUMPDEST POP DUP3 DUP2 PUSH1 0x2 ADD SWAP1 DUP2 PUSH2 0xCCF SWAP2 SWAP1 PUSH2 0x2BC4 JUMP JUMPDEST POP TIMESTAMP DUP2 PUSH1 0x3 ADD DUP2 SWAP1 SSTORE POP PUSH1 0x0 DUP2 PUSH1 0x4 ADD PUSH1 0x0 PUSH2 0x100 EXP DUP2 SLOAD DUP2 PUSH1 0xFF MUL NOT AND SWAP1 DUP4 PUSH1 0x1 DUP2 GT ISZERO PUSH2 0xD01 JUMPI PUSH2 0xD00 PUSH2 0x24B7 JUMP JUMPDEST JUMPDEST MUL OR SWAP1 SSTORE POP PUSH1 0x4 PUSH1 0x0 CALLER PUSH20 0xFFFFFFFFFFFFFFFFFFFFFFFFFFFFFFFFFFFFFFFF AND PUSH20 0xFFFFFFFFFFFFFFFFFFFFFFFFFFFFFFFFFFFFFFFF AND DUP2 MSTORE PUSH1 0x20 ADD SWAP1 DUP2 MSTORE PUSH1 0x20 ADD PUSH1 0x0 KECCAK256 DUP3 SWAP1 DUP1 PUSH1 0x1 DUP2 SLOAD ADD DUP1 DUP3 SSTORE DUP1 SWAP2 POP POP PUSH1 0x1 SWAP1 SUB SWAP1 PUSH1 0x0 MSTORE PUSH1 0x20 PUSH1 0x0 KECCAK256 ADD PUSH1 0x0 SWAP1 SWAP2 SWAP1 SWAP2 SWAP1 SWAP2 POP SSTORE DUP2 CALLER PUSH20 0xFFFFFFFFFFFFFFFFFFFFFFFFFFFFFFFFFFFFFFFF AND PUSH32 0xEF9BB80DA46315F206C1D36C494217072B7BF89DBDEC9E2851D4EE60C6BE336F TIMESTAMP PUSH1 0x0 PUSH1 0x40 MLOAD PUSH2 0xDB6 SWAP3 SWAP2 SWAP1 PUSH2 0x2CBC JUMP JUMPDEST PUSH1 0x40 MLOAD DUP1 SWAP2 SUB SWAP1 LOG3 POP POP POP POP JUMP JUMPDEST DUP1 PUSH1 0x5 PUSH1 0x0 DUP3 DUP2 MSTORE PUSH1 0x20 ADD SWAP1 DUP2 MSTORE PUSH1 0x20 ADD PUSH1 0x0 KECCAK256 PUSH1 0x0 CALLER PUSH20 0xFFFFFFFFFFFFFFFFFFFFFFFFFFFFFFFFFFFFFFFF AND PUSH20 0xFFFFFFFFFFFFFFFFFFFFFFFFFFFFFFFFFFFFFFFF AND DUP2 MSTORE PUSH1 0x20 ADD SWAP1 DUP2 MSTORE PUSH1 0x20 ADD PUSH1 0x0 KECCAK256 PUSH1 0x0 SWAP1 SLOAD SWAP1 PUSH2 0x100 EXP SWAP1 DIV PUSH1 0xFF AND PUSH2 0xE62 JUMPI PUSH1 0x40 MLOAD PUSH32 0x8C379A000000000000000000000000000000000000000000000000000000000 DUP2 MSTORE PUSH1 0x4 ADD PUSH2 0xE59 SWAP1 PUSH2 0x2D6A JUMP JUMPDEST PUSH1 0x40 MLOAD DUP1 SWAP2 SUB SWAP1 REVERT JUMPDEST CALLER PUSH20 0xFFFFFFFFFFFFFFFFFFFFFFFFFFFFFFFFFFFFFFFF AND DUP3 PUSH32 0x2A5BC347297320B19B7D9DF75456F5E8D02660E2B9EFB6A88432A06CAE2AAC9D PUSH1 0x3 PUSH1 0x0 DUP7 DUP2 MSTORE PUSH1 0x20 ADD SWAP1 DUP2 MSTORE PUSH1 0x20 ADD PUSH1 0x0 KECCAK256 PUSH1 0x1 ADD PUSH1 0x40 MLOAD PUSH2 0xEBE SWAP2 SWAP1 PUSH2 0x2885 JUMP JUMPDEST PUSH1 0x40 MLOAD DUP1 SWAP2 SUB SWAP1 LOG3 POP POP JUMP JUMPDEST PUSH2 0xED2 PUSH2 0x1F24 JUMP JUMPDEST PUSH1 0x0 PUSH1 0xA PUSH1 0x0 PUSH2 0x100 EXP DUP2 SLOAD DUP2 PUSH1 0xFF MUL NOT AND SWAP1 DUP4 ISZERO ISZERO MUL OR SWAP1 SSTORE POP JUMP JUMPDEST PUSH1 0xA PUSH1 0x0 SWAP1 SLOAD SWAP1 PUSH2 0x100 EXP SWAP1 DIV PUSH1 0xFF AND DUP2 JUMP JUMPDEST DUP2 CALLER PUSH20 0xFFFFFFFFFFFFFFFFFFFFFFFFFFFFFFFFFFFFFFFF AND PUSH1 0x3 PUSH1 0x0 DUP4 DUP2 MSTORE PUSH1 0x20 ADD SWAP1 DUP2 MSTORE PUSH1 0x20 ADD PUSH1 0x0 KECCAK256 PUSH1 0x0 ADD PUSH1 0x0 SWAP1 SLOAD SWAP1 PUSH2 0x100 EXP SWAP1 DIV PUSH20 0xFFFFFFFFFFFFFFFFFFFFFFFFFFFFFFFFFFFFFFFF AND PUSH20 0xFFFFFFFFFFFFFFFFFFFFFFFFFFFFFFFFFFFFFFFF AND EQ PUSH2 0xFA7 JUMPI PUSH1 0x40 MLOAD PUSH32 0x8C379A000000000000000000000000000000000000000000000000000000000 DUP2 MSTORE PUSH1 0x4 ADD PUSH2 0xF9E SWAP1 PUSH2 0x2DFC JUMP JUMPDEST PUSH1 0x40 MLOAD DUP1 SWAP2 SUB SWAP1 REVERT JUMPDEST PUSH1 0x1 PUSH1 0x5 PUSH1 0x0 DUP6 DUP2 MSTORE PUSH1 0x20 ADD SWAP1 DUP2 MSTORE PUSH1 0x20 ADD PUSH1 0x0 KECCAK256 PUSH1 0x0 DUP5 PUSH20 0xFFFFFFFFFFFFFFFFFFFFFFFFFFFFFFFFFFFFFFFF AND PUSH20 0xFFFFFFFFFFFFFFFFFFFFFFFFFFFFFFFFFFFFFFFF AND DUP2 MSTORE PUSH1 0x20 ADD SWAP1 DUP2 MSTORE PUSH1 0x20 ADD PUSH1 0x0 KECCAK256 PUSH1 0x0 PUSH2 0x100 EXP DUP2 SLOAD DUP2 PUSH1 0xFF MUL NOT AND SWAP1 DUP4 ISZERO ISZERO MUL OR SWAP1 SSTORE POP DUP2 PUSH20 0xFFFFFFFFFFFFFFFFFFFFFFFFFFFFFFFFFFFFFFFF AND DUP4 PUSH32 0xE6AC684B05C889713C90AE79D1E12DF895CFE074E63697374F7D9D3D195B9D01 PUSH1 0x3 PUSH1 0x0 DUP8 DUP2 MSTORE PUSH1 0x20 ADD SWAP1 DUP2 MSTORE PUSH1 0x20 ADD PUSH1 0x0 KECCAK256 PUSH1 0x1 ADD PUSH1 0x40 MLOAD PUSH2 0x106C SWAP2 SWAP1 PUSH2 0x2885 JUMP JUMPDEST PUSH1 0x40 MLOAD DUP1 SWAP2 SUB SWAP1 LOG3 POP POP POP JUMP JUMPDEST PUSH2 0x1081 PUSH2 0x1F24 JUMP JUMPDEST PUSH2 0x108B PUSH1 0x0 PUSH2 0x1FA2 JUMP JUMPDEST JUMP JUMPDEST PUSH1 0x8 SLOAD DUP2 JUMP JUMPDEST PUSH2 0x109B PUSH2 0x1F24 JUMP JUMPDEST PUSH1 0x1 PUSH1 0xA PUSH1 0x0 PUSH2 0x100 EXP DUP2 SLOAD DUP2 PUSH1 0xFF MUL NOT AND SWAP1 DUP4 ISZERO ISZERO MUL OR SWAP1 SSTORE POP JUMP JUMPDEST PUSH1 0x0 DUP1 PUSH1 0x0 SWAP1 SLOAD SWAP1 PUSH2 0x100 EXP SWAP1 DIV PUSH20 0xFFFFFFFFFFFFFFFFFFFFFFFFFFFFFFFFFFFFFFFF AND SWAP1 POP SWAP1 JUMP JUMPDEST PUSH1 0x0 PUSH1 0x3 PUSH1 0x0 DUP4 DUP2 MSTORE PUSH1 0x20 ADD SWAP1 DUP2 MSTORE PUSH1 0x20 ADD PUSH1 0x0 KECCAK256 SWAP1 POP PUSH1 0x0 PUSH20 0xFFFFFFFFFFFFFFFFFFFFFFFFFFFFFFFFFFFFFFFF AND DUP2 PUSH1 0x0 ADD PUSH1 0x0 SWAP1 SLOAD SWAP1 PUSH2 0x100 EXP SWAP1 DIV PUSH20 0xFFFFFFFFFFFFFFFFFFFFFFFFFFFFFFFFFFFFFFFF AND PUSH20 0xFFFFFFFFFFFFFFFFFFFFFFFFFFFFFFFFFFFFFFFF AND SUB PUSH2 0x118B JUMPI PUSH1 0x40 MLOAD PUSH32 0x8C379A000000000000000000000000000000000000000000000000000000000 DUP2 MSTORE PUSH1 0x4 ADD PUSH2 0x1182 SWAP1 PUSH2 0x2663 JUMP JUMPDEST PUSH1 0x40 MLOAD DUP1 SWAP2 SUB SWAP1 REVERT JUMPDEST PUSH1 0x0 PUSH1 0x1 DUP2 GT ISZERO PUSH2 0x119F JUMPI PUSH2 0x119E PUSH2 0x24B7 JUMP JUMPDEST JUMPDEST DUP2 PUSH1 0x4 ADD PUSH1 0x0 SWAP1 SLOAD SWAP1 PUSH2 0x100 EXP SWAP1 DIV PUSH1 0xFF AND PUSH1 0x1 DUP2 GT ISZERO PUSH2 0x11C3 JUMPI PUSH2 0x11C2 PUSH2 0x24B7 JUMP JUMPDEST JUMPDEST EQ PUSH2 0x1203 JUMPI PUSH1 0x40 MLOAD PUSH32 0x8C379A000000000000000000000000000000000000000000000000000000000 DUP2 MSTORE PUSH1 0x4 ADD PUSH2 0x11FA SWAP1 PUSH2 0x2E68 JUMP JUMPDEST PUSH1 0x40 MLOAD DUP1 SWAP2 SUB SWAP1 REVERT JUMPDEST DUP1 PUSH1 0x6 ADD PUSH1 0x0 CALLER PUSH20 0xFFFFFFFFFFFFFFFFFFFFFFFFFFFFFFFFFFFFFFFF AND PUSH20 0xFFFFFFFFFFFFFFFFFFFFFFFFFFFFFFFFFFFFFFFF AND DUP2 MSTORE PUSH1 0x20 ADD SWAP1 DUP2 MSTORE PUSH1 0x20 ADD PUSH1 0x0 KECCAK256 PUSH1 0x0 SWAP1 SLOAD SWAP1 PUSH2 0x100 EXP SWAP1 DIV PUSH1 0xFF AND ISZERO PUSH2 0x1292 JUMPI PUSH1 0x40 MLOAD PUSH32 0x8C379A000000000000000000000000000000000000000000000000000000000 DUP2 MSTORE PUSH1 0x4 ADD PUSH2 0x1289 SWAP1 PUSH2 0x2ED4 JUMP JUMPDEST PUSH1 0x40 MLOAD DUP1 SWAP2 SUB SWAP1 REVERT JUMPDEST PUSH1 0x1 DUP2 PUSH1 0x6 ADD PUSH1 0x0 CALLER PUSH20 0xFFFFFFFFFFFFFFFFFFFFFFFFFFFFFFFFFFFFFFFF AND PUSH20 0xFFFFFFFFFFFFFFFFFFFFFFFFFFFFFFFFFFFFFFFF AND DUP2 MSTORE PUSH1 0x20 ADD SWAP1 DUP2 MSTORE PUSH1 0x20 ADD PUSH1 0x0 KECCAK256 PUSH1 0x0 PUSH2 0x100 EXP DUP2 SLOAD DUP2 PUSH1 0xFF MUL NOT AND SWAP1 DUP4 ISZERO ISZERO MUL OR SWAP1 SSTORE POP DUP1 PUSH1 0x7 ADD PUSH1 0x0 DUP2 SLOAD DUP1 SWAP3 SWAP2 SWAP1 PUSH2 0x1301 SWAP1 PUSH2 0x2744 JUMP JUMPDEST SWAP2 SWAP1 POP SSTORE POP CALLER PUSH20 0xFFFFFFFFFFFFFFFFFFFFFFFFFFFFFFFFFFFFFFFF AND DUP3 PUSH32 0x2ACCE567DECA3AABF56327ADBB4524BD5318936EAEFA69E3A5208FFDA0CFEC09 DUP4 PUSH1 0x7 ADD SLOAD PUSH1 0x40 MLOAD PUSH2 0x1351 SWAP2 SWAP1 PUSH2 0x20F4 JUMP JUMPDEST PUSH1 0x40 MLOAD DUP1 SWAP2 SUB SWAP1 LOG3 PUSH1 0x3 DUP2 PUSH1 0x7 ADD SLOAD LT PUSH2 0x13E5 JUMPI PUSH1 0x1 DUP2 PUSH1 0x4 ADD PUSH1 0x0 PUSH2 0x100 EXP DUP2 SLOAD DUP2 PUSH1 0xFF MUL NOT AND SWAP1 DUP4 PUSH1 0x1 DUP2 GT ISZERO PUSH2 0x138D JUMPI PUSH2 0x138C PUSH2 0x24B7 JUMP JUMPDEST JUMPDEST MUL OR SWAP1 SSTORE POP CALLER PUSH20 0xFFFFFFFFFFFFFFFFFFFFFFFFFFFFFFFFFFFFFFFF AND DUP3 PUSH32 0x13051E52E773C6237B9E19FC0AE74B0C150CB6357B286FFEEF34CBB32D1213AB DUP4 PUSH1 0x1 ADD PUSH1 0x40 MLOAD PUSH2 0x13DC SWAP2 SWAP1 PUSH2 0x2885 JUMP JUMPDEST PUSH1 0x40 MLOAD DUP1 SWAP2 SUB SWAP1 LOG3 JUMPDEST POP POP JUMP JUMPDEST PUSH1 0x0 PUSH1 0x6 PUSH1 0x0 DUP4 PUSH20 0xFFFFFFFFFFFFFFFFFFFFFFFFFFFFFFFFFFFFFFFF AND PUSH20 0xFFFFFFFFFFFFFFFFFFFFFFFFFFFFFFFFFFFFFFFF AND DUP2 MSTORE PUSH1 0x20 ADD SWAP1 DUP2 MSTORE PUSH1 0x20 ADD PUSH1 0x0 KECCAK256 SLOAD SWAP1 POP SWAP2 SWAP1 POP JUMP JUMPDEST DUP2 CALLER PUSH20 0xFFFFFFFFFFFFFFFFFFFFFFFFFFFFFFFFFFFFFFFF AND PUSH1 0x3 PUSH1 0x0 DUP4 DUP2 MSTORE PUSH1 0x20 ADD SWAP1 DUP2 MSTORE PUSH1 0x20 ADD PUSH1 0x0 KECCAK256 PUSH1 0x0 ADD PUSH1 0x0 SWAP1 SLOAD SWAP1 PUSH2 0x100 EXP SWAP1 DIV PUSH20 0xFFFFFFFFFFFFFFFFFFFFFFFFFFFFFFFFFFFFFFFF AND PUSH20 0xFFFFFFFFFFFFFFFFFFFFFFFFFFFFFFFFFFFFFFFF AND EQ PUSH2 0x14D7 JUMPI PUSH1 0x40 MLOAD PUSH32 0x8C379A000000000000000000000000000000000000000000000000000000000 DUP2 MSTORE PUSH1 0x4 ADD PUSH2 0x14CE SWAP1 PUSH2 0x2DFC JUMP JUMPDEST PUSH1 0x40 MLOAD DUP1 SWAP2 SUB SWAP1 REVERT JUMPDEST PUSH1 0x0 PUSH1 0x5 PUSH1 0x0 DUP6 DUP2 MSTORE PUSH1 0x20 ADD SWAP1 DUP2 MSTORE PUSH1 0x20 ADD PUSH1 0x0 KECCAK256 PUSH1 0x0 DUP5 PUSH20 0xFFFFFFFFFFFFFFFFFFFFFFFFFFFFFFFFFFFFFFFF AND PUSH20 0xFFFFFFFFFFFFFFFFFFFFFFFFFFFFFFFFFFFFFFFF AND DUP2 MSTORE PUSH1 0x20 ADD SWAP1 DUP2 MSTORE PUSH1 0x20 ADD PUSH1 0x0 KECCAK256 PUSH1 0x0 PUSH2 0x100 EXP DUP2 SLOAD DUP2 PUSH1 0xFF MUL NOT AND SWAP1 DUP4 ISZERO ISZERO MUL OR SWAP1 SSTORE POP DUP2 PUSH20 0xFFFFFFFFFFFFFFFFFFFFFFFFFFFFFFFFFFFFFFFF AND CALLER PUSH20 0xFFFFFFFFFFFFFFFFFFFFFFFFFFFFFFFFFFFFFFFF AND DUP5 PUSH32 0x58982691F8028698415B80190AD6B11BB594D64A5AD0FE9A1CEC01E61C8AFCDD PUSH1 0x40 MLOAD PUSH1 0x40 MLOAD DUP1 SWAP2 SUB SWAP1 LOG4 POP POP POP JUMP JUMPDEST PUSH1 0x3 PUSH1 0x20 MSTORE DUP1 PUSH1 0x0 MSTORE PUSH1 0x40 PUSH1 0x0 KECCAK256 PUSH1 0x0 SWAP2 POP SWAP1 POP DUP1 PUSH1 0x0 ADD PUSH1 0x0 SWAP1 SLOAD SWAP1 PUSH2 0x100 EXP SWAP1 DIV PUSH20 0xFFFFFFFFFFFFFFFFFFFFFFFFFFFFFFFFFFFFFFFF AND SWAP1 DUP1 PUSH1 0x1 ADD DUP1 SLOAD PUSH2 0x15E9 SWAP1 PUSH2 0x27BB JUMP JUMPDEST DUP1 PUSH1 0x1F ADD PUSH1 0x20 DUP1 SWAP2 DIV MUL PUSH1 0x20 ADD PUSH1 0x40 MLOAD SWAP1 DUP2 ADD PUSH1 0x40 MSTORE DUP1 SWAP3 SWAP2 SWAP1 DUP2 DUP2 MSTORE PUSH1 0x20 ADD DUP3 DUP1 SLOAD PUSH2 0x1615 SWAP1 PUSH2 0x27BB JUMP JUMPDEST DUP1 ISZERO PUSH2 0x1662 JUMPI DUP1 PUSH1 0x1F LT PUSH2 0x1637 JUMPI PUSH2 0x100 DUP1 DUP4 SLOAD DIV MUL DUP4 MSTORE SWAP2 PUSH1 0x20 ADD SWAP2 PUSH2 0x1662 JUMP JUMPDEST DUP3 ADD SWAP2 SWAP1 PUSH1 0x0 MSTORE PUSH1 0x20 PUSH1 0x0 KECCAK256 SWAP1 JUMPDEST DUP2 SLOAD DUP2 MSTORE SWAP1 PUSH1 0x1 ADD SWAP1 PUSH1 0x20 ADD DUP1 DUP4 GT PUSH2 0x1645 JUMPI DUP3 SWAP1 SUB PUSH1 0x1F AND DUP3 ADD SWAP2 JUMPDEST POP POP POP POP POP SWAP1 DUP1 PUSH1 0x2 ADD DUP1 SLOAD PUSH2 0x1677 SWAP1 PUSH2 0x27BB JUMP JUMPDEST DUP1 PUSH1 0x1F ADD PUSH1 0x20 DUP1 SWAP2 DIV MUL PUSH1 0x20 ADD PUSH1 0x40 MLOAD SWAP1 DUP2 ADD PUSH1 0x40 MSTORE DUP1 SWAP3 SWAP2 SWAP1 DUP2 DUP2 MSTORE PUSH1 0x20 ADD DUP3 DUP1 SLOAD PUSH2 0x16A3 SWAP1 PUSH2 0x27BB JUMP JUMPDEST DUP1 ISZERO PUSH2 0x16F0 JUMPI DUP1 PUSH1 0x1F LT PUSH2 0x16C5 JUMPI PUSH2 0x100 DUP1 DUP4 SLOAD DIV MUL DUP4 MSTORE SWAP2 PUSH1 0x20 ADD SWAP2 PUSH2 0x16F0 JUMP JUMPDEST DUP3 ADD SWAP2 SWAP1 PUSH1 0x0 MSTORE PUSH1 0x20 PUSH1 0x0 KECCAK256 SWAP1 JUMPDEST DUP2 SLOAD DUP2 MSTORE SWAP1 PUSH1 0x1 ADD SWAP1 PUSH1 0x20 ADD DUP1 DUP4 GT PUSH2 0x16D3 JUMPI DUP3 SWAP1 SUB PUSH1 0x1F AND DUP3 ADD SWAP2 JUMPDEST POP POP POP POP POP SWAP1 DUP1 PUSH1 0x3 ADD SLOAD SWAP1 DUP1 PUSH1 0x4 ADD PUSH1 0x0 SWAP1 SLOAD SWAP1 PUSH2 0x100 EXP SWAP1 DIV PUSH1 0xFF AND SWAP1 DUP1 PUSH1 0x7 ADD SLOAD SWAP1 POP DUP7 JUMP JUMPDEST PUSH1 0x6 PUSH1 0x20 MSTORE DUP1 PUSH1 0x0 MSTORE PUSH1 0x40 PUSH1 0x0 KECCAK256 PUSH1 0x0 SWAP2 POP SWAP1 POP SLOAD DUP2 JUMP JUMPDEST PUSH1 0xA PUSH1 0x0 SWAP1 SLOAD SWAP1 PUSH2 0x100 EXP SWAP1 DIV PUSH1 0xFF AND ISZERO PUSH2 0x1781 JUMPI PUSH1 0x40 MLOAD PUSH32 0x8C379A000000000000000000000000000000000000000000000000000000000 DUP2 MSTORE PUSH1 0x4 ADD PUSH2 0x1778 SWAP1 PUSH2 0x2985 JUMP JUMPDEST PUSH1 0x40 MLOAD DUP1 SWAP2 SUB SWAP1 REVERT JUMPDEST PUSH1 0x0 PUSH1 0x3 PUSH1 0x0 DUP4 DUP2 MSTORE PUSH1 0x20 ADD SWAP1 DUP2 MSTORE PUSH1 0x20 ADD PUSH1 0x0 KECCAK256 SWAP1 POP PUSH1 0x0 PUSH20 0xFFFFFFFFFFFFFFFFFFFFFFFFFFFFFFFFFFFFFFFF AND DUP2 PUSH1 0x0 ADD PUSH1 0x0 SWAP1 SLOAD SWAP1 PUSH2 0x100 EXP SWAP1 DIV PUSH20 0xFFFFFFFFFFFFFFFFFFFFFFFFFFFFFFFFFFFFFFFF AND PUSH20 0xFFFFFFFFFFFFFFFFFFFFFFFFFFFFFFFFFFFFFFFF AND SUB PUSH2 0x182B JUMPI PUSH1 0x40 MLOAD PUSH32 0x8C379A000000000000000000000000000000000000000000000000000000000 DUP2 MSTORE PUSH1 0x4 ADD PUSH2 0x1822 SWAP1 PUSH2 0x2663 JUMP JUMPDEST PUSH1 0x40 MLOAD DUP1 SWAP2 SUB SWAP1 REVERT JUMPDEST PUSH1 0x1 DUP1 DUP2 GT ISZERO PUSH2 0x183E JUMPI PUSH2 0x183D PUSH2 0x24B7 JUMP JUMPDEST JUMPDEST DUP2 PUSH1 0x4 ADD PUSH1 0x0 SWAP1 SLOAD SWAP1 PUSH2 0x100 EXP SWAP1 DIV PUSH1 0xFF AND PUSH1 0x1 DUP2 GT ISZERO PUSH2 0x1862 JUMPI PUSH2 0x1861 PUSH2 0x24B7 JUMP JUMPDEST JUMPDEST EQ PUSH2 0x18A2 JUMPI PUSH1 0x40 MLOAD PUSH32 0x8C379A000000000000000000000000000000000000000000000000000000000 DUP2 MSTORE PUSH1 0x4 ADD PUSH2 0x1899 SWAP1 PUSH2 0x2F66 JUMP JUMPDEST PUSH1 0x40 MLOAD DUP1 SWAP2 SUB SWAP1 REVERT JUMPDEST DUP1 PUSH1 0x5 ADD PUSH1 0x0 CALLER PUSH20 0xFFFFFFFFFFFFFFFFFFFFFFFFFFFFFFFFFFFFFFFF AND PUSH20 0xFFFFFFFFFFFFFFFFFFFFFFFFFFFFFFFFFFFFFFFF AND DUP2 MSTORE PUSH1 0x20 ADD SWAP1 DUP2 MSTORE PUSH1 0x20 ADD PUSH1 0x0 KECCAK256 PUSH1 0x0 SWAP1 SLOAD SWAP1 PUSH2 0x100 EXP SWAP1 DIV PUSH1 0xFF AND ISZERO PUSH2 0x1931 JUMPI PUSH1 0x40 MLOAD PUSH32 0x8C379A000000000000000000000000000000000000000000000000000000000 DUP2 MSTORE PUSH1 0x4 ADD PUSH2 0x1928 SWAP1 PUSH2 0x2FD2 JUMP JUMPDEST PUSH1 0x40 MLOAD DUP1 SWAP2 SUB SWAP1 REVERT JUMPDEST PUSH1 0x7 PUSH1 0x0 SWAP1 SLOAD SWAP1 PUSH2 0x100 EXP SWAP1 DIV PUSH20 0xFFFFFFFFFFFFFFFFFFFFFFFFFFFFFFFFFFFFFFFF AND PUSH20 0xFFFFFFFFFFFFFFFFFFFFFFFFFFFFFFFFFFFFFFFF AND PUSH4 0x23B872DD CALLER ADDRESS PUSH8 0xDE0B6B3A7640000 PUSH1 0x40 MLOAD DUP5 PUSH4 0xFFFFFFFF AND PUSH1 0xE0 SHL DUP2 MSTORE PUSH1 0x4 ADD PUSH2 0x1998 SWAP4 SWAP3 SWAP2 SWAP1 PUSH2 0x302D JUMP JUMPDEST PUSH1 0x20 PUSH1 0x40 MLOAD DUP1 DUP4 SUB DUP2 PUSH1 0x0 DUP8 GAS CALL ISZERO DUP1 ISZERO PUSH2 0x19B7 JUMPI RETURNDATASIZE PUSH1 0x0 DUP1 RETURNDATACOPY RETURNDATASIZE PUSH1 0x0 REVERT JUMPDEST POP POP POP POP PUSH1 0x40 MLOAD RETURNDATASIZE PUSH1 0x1F NOT PUSH1 0x1F DUP3 ADD AND DUP3 ADD DUP1 PUSH1 0x40 MSTORE POP DUP2 ADD SWAP1 PUSH2 0x19DB SWAP2 SWAP1 PUSH2 0x3090 JUMP JUMPDEST POP PUSH1 0x1 DUP2 PUSH1 0x5 ADD PUSH1 0x0 CALLER PUSH20 0xFFFFFFFFFFFFFFFFFFFFFFFFFFFFFFFFFFFFFFFF AND PUSH20 0xFFFFFFFFFFFFFFFFFFFFFFFFFFFFFFFFFFFFFFFF AND DUP2 MSTORE PUSH1 0x20 ADD SWAP1 DUP2 MSTORE PUSH1 0x20 ADD PUSH1 0x0 KECCAK256 PUSH1 0x0 PUSH2 0x100 EXP DUP2 SLOAD DUP2 PUSH1 0xFF MUL NOT AND SWAP1 DUP4 ISZERO ISZERO MUL OR SWAP1 SSTORE POP PUSH1 0x1 PUSH1 0x5 PUSH1 0x0 DUP5 DUP2 MSTORE PUSH1 0x20 ADD SWAP1 DUP2 MSTORE PUSH1 0x20 ADD PUSH1 0x0 KECCAK256 PUSH1 0x0 CALLER PUSH20 0xFFFFFFFFFFFFFFFFFFFFFFFFFFFFFFFFFFFFFFFF AND PUSH20 0xFFFFFFFFFFFFFFFFFFFFFFFFFFFFFFFFFFFFFFFF AND DUP2 MSTORE PUSH1 0x20 ADD SWAP1 DUP2 MSTORE PUSH1 0x20 ADD PUSH1 0x0 KECCAK256 PUSH1 0x0 PUSH2 0x100 EXP DUP2 SLOAD DUP2 PUSH1 0xFF MUL NOT AND SWAP1 DUP4 ISZERO ISZERO MUL OR SWAP1 SSTORE POP CALLER PUSH20 0xFFFFFFFFFFFFFFFFFFFFFFFFFFFFFFFFFFFFFFFF AND DUP3 PUSH32 0xE6AC684B05C889713C90AE79D1E12DF895CFE074E63697374F7D9D3D195B9D01 DUP4 PUSH1 0x1 ADD PUSH1 0x40 MLOAD PUSH2 0x1AE9 SWAP2 SWAP1 PUSH2 0x2885 JUMP JUMPDEST PUSH1 0x40 MLOAD DUP1 SWAP2 SUB SWAP1 LOG3 POP POP JUMP JUMPDEST PUSH1 0x5 PUSH1 0x20 MSTORE DUP2 PUSH1 0x0 MSTORE PUSH1 0x40 PUSH1 0x0 KECCAK256 PUSH1 0x20 MSTORE DUP1 PUSH1 0x0 MSTORE PUSH1 0x40 PUSH1 0x0 KECCAK256 PUSH1 0x0 SWAP2 POP SWAP2 POP SWAP1 SLOAD SWAP1 PUSH2 0x100 EXP SWAP1 DIV PUSH1 0xFF AND DUP2 JUMP JUMPDEST PUSH2 0x1B2C PUSH2 0x1F24 JUMP JUMPDEST PUSH1 0x0 DUP2 GT PUSH2 0x1B6F JUMPI PUSH1 0x40 MLOAD PUSH32 0x8C379A000000000000000000000000000000000000000000000000000000000 DUP2 MSTORE PUSH1 0x4 ADD PUSH2 0x1B66 SWAP1 PUSH2 0x3109 JUMP JUMPDEST PUSH1 0x40 MLOAD DUP1 SWAP2 SUB SWAP1 REVERT JUMPDEST DUP1 PUSH1 0x8 DUP2 SWAP1 SSTORE POP POP JUMP JUMPDEST PUSH1 0x0 PUSH1 0x3 PUSH1 0x0 DUP5 DUP2 MSTORE PUSH1 0x20 ADD SWAP1 DUP2 MSTORE PUSH1 0x20 ADD PUSH1 0x0 KECCAK256 PUSH1 0x5 ADD PUSH1 0x0 DUP4 PUSH20 0xFFFFFFFFFFFFFFFFFFFFFFFFFFFFFFFFFFFFFFFF AND PUSH20 0xFFFFFFFFFFFFFFFFFFFFFFFFFFFFFFFFFFFFFFFF AND DUP2 MSTORE PUSH1 0x20 ADD SWAP1 DUP2 MSTORE PUSH1 0x20 ADD PUSH1 0x0 KECCAK256 PUSH1 0x0 SWAP1 SLOAD SWAP1 PUSH2 0x100 EXP SWAP1 DIV PUSH1 0xFF AND SWAP1 POP SWAP3 SWAP2 POP POP JUMP JUMPDEST PUSH2 0x1BEC PUSH2 0x1F24 JUMP JUMPDEST PUSH1 0x0 PUSH20 0xFFFFFFFFFFFFFFFFFFFFFFFFFFFFFFFFFFFFFFFF AND DUP2 PUSH20 0xFFFFFFFFFFFFFFFFFFFFFFFFFFFFFFFFFFFFFFFF AND SUB PUSH2 0x1C5B JUMPI PUSH1 0x40 MLOAD PUSH32 0x8C379A000000000000000000000000000000000000000000000000000000000 DUP2 MSTORE PUSH1 0x4 ADD PUSH2 0x1C52 SWAP1 PUSH2 0x319B JUMP JUMPDEST PUSH1 0x40 MLOAD DUP1 SWAP2 SUB SWAP1 REVERT JUMPDEST PUSH2 0x1C64 DUP2 PUSH2 0x1FA2 JUMP JUMPDEST POP JUMP JUMPDEST PUSH1 0x7 PUSH1 0x0 SWAP1 SLOAD SWAP1 PUSH2 0x100 EXP SWAP1 DIV PUSH20 0xFFFFFFFFFFFFFFFFFFFFFFFFFFFFFFFFFFFFFFFF AND DUP2 JUMP JUMPDEST DUP1 PUSH1 0x3 PUSH1 0x0 DUP3 DUP2 MSTORE PUSH1 0x20 ADD SWAP1 DUP2 MSTORE PUSH1 0x20 ADD PUSH1 0x0 KECCAK256 PUSH1 0x6 ADD PUSH1 0x0 CALLER PUSH20 0xFFFFFFFFFFFFFFFFFFFFFFFFFFFFFFFFFFFFFFFF AND PUSH20 0xFFFFFFFFFFFFFFFFFFFFFFFFFFFFFFFFFFFFFFFF AND DUP2 MSTORE PUSH1 0x20 ADD SWAP1 DUP2 MSTORE PUSH1 0x20 ADD PUSH1 0x0 KECCAK256 PUSH1 0x0 SWAP1 SLOAD SWAP1 PUSH2 0x100 EXP SWAP1 DIV PUSH1 0xFF AND PUSH2 0x1D2E JUMPI PUSH1 0x40 MLOAD PUSH32 0x8C379A000000000000000000000000000000000000000000000000000000000 DUP2 MSTORE PUSH1 0x4 ADD PUSH2 0x1D25 SWAP1 PUSH2 0x322D JUMP JUMPDEST PUSH1 0x40 MLOAD DUP1 SWAP2 SUB SWAP1 REVERT JUMPDEST PUSH1 0xA PUSH1 0x0 SWAP1 SLOAD SWAP1 PUSH2 0x100 EXP SWAP1 DIV PUSH1 0xFF AND ISZERO PUSH2 0x1D7E JUMPI PUSH1 0x40 MLOAD PUSH32 0x8C379A000000000000000000000000000000000000000000000000000000000 DUP2 MSTORE PUSH1 0x4 ADD PUSH2 0x1D75 SWAP1 PUSH2 0x2985 JUMP JUMPDEST PUSH1 0x40 MLOAD DUP1 SWAP2 SUB SWAP1 REVERT JUMPDEST PUSH1 0x0 PUSH1 0x3 PUSH1 0x0 DUP5 DUP2 MSTORE PUSH1 0x20 ADD SWAP1 DUP2 MSTORE PUSH1 0x20 ADD PUSH1 0x0 KECCAK256 SWAP1 POP PUSH1 0x0 PUSH20 0xFFFFFFFFFFFFFFFFFFFFFFFFFFFFFFFFFFFFFFFF AND DUP2 PUSH1 0x0 ADD PUSH1 0x0 SWAP1 SLOAD SWAP1 PUSH2 0x100 EXP SWAP1 DIV PUSH20 0xFFFFFFFFFFFFFFFFFFFFFFFFFFFFFFFFFFFFFFFF AND PUSH20 0xFFFFFFFFFFFFFFFFFFFFFFFFFFFFFFFFFFFFFFFF AND SUB PUSH2 0x1E28 JUMPI PUSH1 0x40 MLOAD PUSH32 0x8C379A000000000000000000000000000000000000000000000000000000000 DUP2 MSTORE PUSH1 0x4 ADD PUSH2 0x1E1F SWAP1 PUSH2 0x2663 JUMP JUMPDEST PUSH1 0x40 MLOAD DUP1 SWAP2 SUB SWAP1 REVERT JUMPDEST PUSH1 0x0 PUSH1 0x1 DUP2 GT ISZERO PUSH2 0x1E3C JUMPI PUSH2 0x1E3B PUSH2 0x24B7 JUMP JUMPDEST JUMPDEST DUP2 PUSH1 0x4 ADD PUSH1 0x0 SWAP1 SLOAD SWAP1 PUSH2 0x100 EXP SWAP1 DIV PUSH1 0xFF AND PUSH1 0x1 DUP2 GT ISZERO PUSH2 0x1E60 JUMPI PUSH2 0x1E5F PUSH2 0x24B7 JUMP JUMPDEST JUMPDEST EQ PUSH2 0x1EA0 JUMPI PUSH1 0x40 MLOAD PUSH32 0x8C379A000000000000000000000000000000000000000000000000000000000 DUP2 MSTORE PUSH1 0x4 ADD PUSH2 0x1E97 SWAP1 PUSH2 0x2E68 JUMP JUMPDEST PUSH1 0x40 MLOAD DUP1 SWAP2 SUB SWAP1 REVERT JUMPDEST PUSH1 0x1 DUP2 PUSH1 0x4 ADD PUSH1 0x0 PUSH2 0x100 EXP DUP2 SLOAD DUP2 PUSH1 0xFF MUL NOT AND SWAP1 DUP4 PUSH1 0x1 DUP2 GT ISZERO PUSH2 0x1EC8 JUMPI PUSH2 0x1EC7 PUSH2 0x24B7 JUMP JUMPDEST JUMPDEST MUL OR SWAP1 SSTORE POP CALLER PUSH20 0xFFFFFFFFFFFFFFFFFFFFFFFFFFFFFFFFFFFFFFFF AND DUP4 PUSH32 0x13051E52E773C6237B9E19FC0AE74B0C150CB6357B286FFEEF34CBB32D1213AB DUP4 PUSH1 0x1 ADD PUSH1 0x40 MLOAD PUSH2 0x1F17 SWAP2 SWAP1 PUSH2 0x2885 JUMP JUMPDEST PUSH1 0x40 MLOAD DUP1 SWAP2 SUB SWAP1 LOG3 POP POP POP JUMP JUMPDEST PUSH2 0x1F2C PUSH2 0x2066 JUMP JUMPDEST PUSH20 0xFFFFFFFFFFFFFFFFFFFFFFFFFFFFFFFFFFFFFFFF AND PUSH2 0x1F4A PUSH2 0x10B8 JUMP JUMPDEST PUSH20 0xFFFFFFFFFFFFFFFFFFFFFFFFFFFFFFFFFFFFFFFF AND EQ PUSH2 0x1FA0 JUMPI PUSH1 0x40 MLOAD PUSH32 0x8C379A000000000000000000000000000000000000000000000000000000000 DUP2 MSTORE PUSH1 0x4 ADD PUSH2 0x1F97 SWAP1 PUSH2 0x3299 JUMP JUMPDEST PUSH1 0x40 MLOAD DUP1 SWAP2 SUB SWAP1 REVERT JUMPDEST JUMP JUMPDEST PUSH1 0x0 DUP1 PUSH1 0x0 SWAP1 SLOAD SWAP1 PUSH2 0x100 EXP SWAP1 DIV PUSH20 0xFFFFFFFFFFFFFFFFFFFFFFFFFFFFFFFFFFFFFFFF AND SWAP1 POP DUP2 PUSH1 0x0 DUP1 PUSH2 0x100 EXP DUP2 SLOAD DUP2 PUSH20 0xFFFFFFFFFFFFFFFFFFFFFFFFFFFFFFFFFFFFFFFF MUL NOT AND SWAP1 DUP4 PUSH20 0xFFFFFFFFFFFFFFFFFFFFFFFFFFFFFFFFFFFFFFFF AND MUL OR SWAP1 SSTORE POP DUP2 PUSH20 0xFFFFFFFFFFFFFFFFFFFFFFFFFFFFFFFFFFFFFFFF AND DUP2 PUSH20 0xFFFFFFFFFFFFFFFFFFFFFFFFFFFFFFFFFFFFFFFF AND PUSH32 0x8BE0079C531659141344CD1FD0A4F28419497F9722A3DAAFE3B4186F6B6457E0 PUSH1 0x40 MLOAD PUSH1 0x40 MLOAD DUP1 SWAP2 SUB SWAP1 LOG3 POP POP JUMP JUMPDEST PUSH1 0x0 CALLER SWAP1 POP SWAP1 JUMP JUMPDEST PUSH1 0x0 PUSH1 0x40 MLOAD SWAP1 POP SWAP1 JUMP JUMPDEST PUSH1 0x0 DUP1 REVERT JUMPDEST PUSH1 0x0 DUP1 REVERT JUMPDEST PUSH1 0x0 DUP2 SWAP1 POP SWAP2 SWAP1 POP JUMP JUMPDEST PUSH2 0x2095 DUP2 PUSH2 0x2082 JUMP JUMPDEST DUP2 EQ PUSH2 0x20A0 JUMPI PUSH1 0x0 DUP1 REVERT JUMPDEST POP JUMP JUMPDEST PUSH1 0x0 DUP2 CALLDATALOAD SWAP1 POP PUSH2 0x20B2 DUP2 PUSH2 0x208C JUMP JUMPDEST SWAP3 SWAP2 POP POP JUMP JUMPDEST PUSH1 0x0 PUSH1 0x20 DUP3 DUP5 SUB SLT ISZERO PUSH2 0x20CE JUMPI PUSH2 0x20CD PUSH2 0x2078 JUMP JUMPDEST JUMPDEST PUSH1 0x0 PUSH2 0x20DC DUP5 DUP3 DUP6 ADD PUSH2 0x20A3 JUMP JUMPDEST SWAP2 POP POP SWAP3 SWAP2 POP POP JUMP JUMPDEST PUSH2 0x20EE DUP2 PUSH2 0x2082 JUMP JUMPDEST DUP3 MSTORE POP POP JUMP JUMPDEST PUSH1 0x0 PUSH1 0x20 DUP3 ADD SWAP1 POP PUSH2 0x2109 PUSH1 0x0 DUP4 ADD DUP5 PUSH2 0x20E5 JUMP JUMPDEST SWAP3 SWAP2 POP POP JUMP JUMPDEST PUSH1 0x0 PUSH20 0xFFFFFFFFFFFFFFFFFFFFFFFFFFFFFFFFFFFFFFFF DUP3 AND SWAP1 POP SWAP2 SWAP1 POP JUMP JUMPDEST PUSH1 0x0 PUSH2 0x213A DUP3 PUSH2 0x210F JUMP JUMPDEST SWAP1 POP SWAP2 SWAP1 POP JUMP JUMPDEST PUSH2 0x214A DUP2 PUSH2 0x212F JUMP JUMPDEST DUP2 EQ PUSH2 0x2155 JUMPI PUSH1 0x0 DUP1 REVERT JUMPDEST POP JUMP JUMPDEST PUSH1 0x0 DUP2 CALLDATALOAD SWAP1 POP PUSH2 0x2167 DUP2 PUSH2 0x2141 JUMP JUMPDEST SWAP3 SWAP2 POP POP JUMP JUMPDEST PUSH1 0x0 DUP1 PUSH1 0x40 DUP4 DUP6 SUB SLT ISZERO PUSH2 0x2184 JUMPI PUSH2 0x2183 PUSH2 0x2078 JUMP JUMPDEST JUMPDEST PUSH1 0x0 PUSH2 0x2192 DUP6 DUP3 DUP7 ADD PUSH2 0x2158 JUMP JUMPDEST SWAP3 POP POP PUSH1 0x20 PUSH2 0x21A3 DUP6 DUP3 DUP7 ADD PUSH2 0x20A3 JUMP JUMPDEST SWAP2 POP POP SWAP3 POP SWAP3 SWAP1 POP JUMP JUMPDEST PUSH1 0x0 DUP1 PUSH1 0x40 DUP4 DUP6 SUB SLT ISZERO PUSH2 0x21C4 JUMPI PUSH2 0x21C3 PUSH2 0x2078 JUMP JUMPDEST JUMPDEST PUSH1 0x0 PUSH2 0x21D2 DUP6 DUP3 DUP7 ADD PUSH2 0x20A3 JUMP JUMPDEST SWAP3 POP POP PUSH1 0x20 PUSH2 0x21E3 DUP6 DUP3 DUP7 ADD PUSH2 0x2158 JUMP JUMPDEST SWAP2 POP POP SWAP3 POP SWAP3 SWAP1 POP JUMP JUMPDEST PUSH1 0x0 DUP1 REVERT JUMPDEST PUSH1 0x0 DUP1 REVERT JUMPDEST PUSH1 0x0 PUSH1 0x1F NOT PUSH1 0x1F DUP4 ADD AND SWAP1 POP SWAP2 SWAP1 POP JUMP JUMPDEST PUSH32 0x4E487B7100000000000000000000000000000000000000000000000000000000 PUSH1 0x0 MSTORE PUSH1 0x41 PUSH1 0x4 MSTORE PUSH1 0x24 PUSH1 0x0 REVERT JUMPDEST PUSH2 0x2240 DUP3 PUSH2 0x21F7 JUMP JUMPDEST DUP2 ADD DUP2 DUP2 LT PUSH8 0xFFFFFFFFFFFFFFFF DUP3 GT OR ISZERO PUSH2 0x225F JUMPI PUSH2 0x225E PUSH2 0x2208 JUMP JUMPDEST JUMPDEST DUP1 PUSH1 0x40 MSTORE POP POP POP JUMP JUMPDEST PUSH1 0x0 PUSH2 0x2272 PUSH2 0x206E JUMP JUMPDEST SWAP1 POP PUSH2 0x227E DUP3 DUP3 PUSH2 0x2237 JUMP JUMPDEST SWAP2 SWAP1 POP JUMP JUMPDEST PUSH1 0x0 PUSH8 0xFFFFFFFFFFFFFFFF DUP3 GT ISZERO PUSH2 0x229E JUMPI PUSH2 0x229D PUSH2 0x2208 JUMP JUMPDEST JUMPDEST PUSH2 0x22A7 DUP3 PUSH2 0x21F7 JUMP JUMPDEST SWAP1 POP PUSH1 0x20 DUP2 ADD SWAP1 POP SWAP2 SWAP1 POP JUMP JUMPDEST DUP3 DUP2 DUP4 CALLDATACOPY PUSH1 0x0 DUP4 DUP4 ADD MSTORE POP POP POP JUMP JUMPDEST PUSH1 0x0 PUSH2 0x22D6 PUSH2 0x22D1 DUP5 PUSH2 0x2283 JUMP JUMPDEST PUSH2 0x2268 JUMP JUMPDEST SWAP1 POP DUP3 DUP2 MSTORE PUSH1 0x20 DUP2 ADD DUP5 DUP5 DUP5 ADD GT ISZERO PUSH2 0x22F2 JUMPI PUSH2 0x22F1 PUSH2 0x21F2 JUMP JUMPDEST JUMPDEST PUSH2 0x22FD DUP5 DUP3 DUP6 PUSH2 0x22B4 JUMP JUMPDEST POP SWAP4 SWAP3 POP POP POP JUMP JUMPDEST PUSH1 0x0 DUP3 PUSH1 0x1F DUP4 ADD SLT PUSH2 0x231A JUMPI PUSH2 0x2319 PUSH2 0x21ED JUMP JUMPDEST JUMPDEST DUP2 CALLDATALOAD PUSH2 0x232A DUP5 DUP3 PUSH1 0x20 DUP7 ADD PUSH2 0x22C3 JUMP JUMPDEST SWAP2 POP POP SWAP3 SWAP2 POP POP JUMP JUMPDEST PUSH1 0x0 DUP1 PUSH1 0x40 DUP4 DUP6 SUB SLT ISZERO PUSH2 0x234A JUMPI PUSH2 0x2349 PUSH2 0x2078 JUMP JUMPDEST JUMPDEST PUSH1 0x0 DUP4 ADD CALLDATALOAD PUSH8 0xFFFFFFFFFFFFFFFF DUP2 GT ISZERO PUSH2 0x2368 JUMPI PUSH2 0x2367 PUSH2 0x207D JUMP JUMPDEST JUMPDEST PUSH2 0x2374 DUP6 DUP3 DUP7 ADD PUSH2 0x2305 JUMP JUMPDEST SWAP3 POP POP PUSH1 0x20 DUP4 ADD CALLDATALOAD PUSH8 0xFFFFFFFFFFFFFFFF DUP2 GT ISZERO PUSH2 0x2395 JUMPI PUSH2 0x2394 PUSH2 0x207D JUMP JUMPDEST JUMPDEST PUSH2 0x23A1 DUP6 DUP3 DUP7 ADD PUSH2 0x2305 JUMP JUMPDEST SWAP2 POP POP SWAP3 POP SWAP3 SWAP1 POP JUMP JUMPDEST PUSH1 0x0 DUP2 ISZERO ISZERO SWAP1 POP SWAP2 SWAP1 POP JUMP JUMPDEST PUSH2 0x23C0 DUP2 PUSH2 0x23AB JUMP JUMPDEST DUP3 MSTORE POP POP JUMP JUMPDEST PUSH1 0x0 PUSH1 0x20 DUP3 ADD SWAP1 POP PUSH2 0x23DB PUSH1 0x0 DUP4 ADD DUP5 PUSH2 0x23B7 JUMP JUMPDEST SWAP3 SWAP2 POP POP JUMP JUMPDEST PUSH2 0x23EA DUP2 PUSH2 0x212F JUMP JUMPDEST DUP3 MSTORE POP POP JUMP JUMPDEST PUSH1 0x0 PUSH1 0x20 DUP3 ADD SWAP1 POP PUSH2 0x2405 PUSH1 0x0 DUP4 ADD DUP5 PUSH2 0x23E1 JUMP JUMPDEST SWAP3 SWAP2 POP POP JUMP JUMPDEST PUSH1 0x0 PUSH1 0x20 DUP3 DUP5 SUB SLT ISZERO PUSH2 0x2421 JUMPI PUSH2 0x2420 PUSH2 0x2078 JUMP JUMPDEST JUMPDEST PUSH1 0x0 PUSH2 0x242F DUP5 DUP3 DUP6 ADD PUSH2 0x2158 JUMP JUMPDEST SWAP2 POP POP SWAP3 SWAP2 POP POP JUMP JUMPDEST PUSH1 0x0 DUP2 MLOAD SWAP1 POP SWAP2 SWAP1 POP JUMP JUMPDEST PUSH1 0x0 DUP3 DUP3 MSTORE PUSH1 0x20 DUP3 ADD SWAP1 POP SWAP3 SWAP2 POP POP JUMP JUMPDEST PUSH1 0x0 JUMPDEST DUP4 DUP2 LT ISZERO PUSH2 0x2472 JUMPI DUP1 DUP3 ADD MLOAD DUP2 DUP5 ADD MSTORE PUSH1 0x20 DUP2 ADD SWAP1 POP PUSH2 0x2457 JUMP JUMPDEST PUSH1 0x0 DUP5 DUP5 ADD MSTORE POP POP POP POP JUMP JUMPDEST PUSH1 0x0 PUSH2 0x2489 DUP3 PUSH2 0x2438 JUMP JUMPDEST PUSH2 0x2493 DUP2 DUP6 PUSH2 0x2443 JUMP JUMPDEST SWAP4 POP PUSH2 0x24A3 DUP2 DUP6 PUSH1 0x20 DUP7 ADD PUSH2 0x2454 JUMP JUMPDEST PUSH2 0x24AC DUP2 PUSH2 0x21F7 JUMP JUMPDEST DUP5 ADD SWAP2 POP POP SWAP3 SWAP2 POP POP JUMP JUMPDEST PUSH32 0x4E487B7100000000000000000000000000000000000000000000000000000000 PUSH1 0x0 MSTORE PUSH1 0x21 PUSH1 0x4 MSTORE PUSH1 0x24 PUSH1 0x0 REVERT JUMPDEST PUSH1 0x2 DUP2 LT PUSH2 0x24F7 JUMPI PUSH2 0x24F6 PUSH2 0x24B7 JUMP JUMPDEST JUMPDEST POP JUMP JUMPDEST PUSH1 0x0 DUP2 SWAP1 POP PUSH2 0x2508 DUP3 PUSH2 0x24E6 JUMP JUMPDEST SWAP2 SWAP1 POP JUMP JUMPDEST PUSH1 0x0 PUSH2 0x2518 DUP3 PUSH2 0x24FA JUMP JUMPDEST SWAP1 POP SWAP2 SWAP1 POP JUMP JUMPDEST PUSH2 0x2528 DUP2 PUSH2 0x250D JUMP JUMPDEST DUP3 MSTORE POP POP JUMP JUMPDEST PUSH1 0x0 PUSH1 0xC0 DUP3 ADD SWAP1 POP PUSH2 0x2543 PUSH1 0x0 DUP4 ADD DUP10 PUSH2 0x23E1 JUMP JUMPDEST DUP2 DUP2 SUB PUSH1 0x20 DUP4 ADD MSTORE PUSH2 0x2555 DUP2 DUP9 PUSH2 0x247E JUMP JUMPDEST SWAP1 POP DUP2 DUP2 SUB PUSH1 0x40 DUP4 ADD MSTORE PUSH2 0x2569 DUP2 DUP8 PUSH2 0x247E JUMP JUMPDEST SWAP1 POP PUSH2 0x2578 PUSH1 0x60 DUP4 ADD DUP7 PUSH2 0x20E5 JUMP JUMPDEST PUSH2 0x2585 PUSH1 0x80 DUP4 ADD DUP6 PUSH2 0x251F JUMP JUMPDEST PUSH2 0x2592 PUSH1 0xA0 DUP4 ADD DUP5 PUSH2 0x20E5 JUMP JUMPDEST SWAP8 SWAP7 POP POP POP POP POP POP POP JUMP JUMPDEST PUSH1 0x0 DUP2 SWAP1 POP SWAP2 SWAP1 POP JUMP JUMPDEST PUSH1 0x0 PUSH2 0x25C2 PUSH2 0x25BD PUSH2 0x25B8 DUP5 PUSH2 0x210F JUMP JUMPDEST PUSH2 0x259D JUMP JUMPDEST PUSH2 0x210F JUMP JUMPDEST SWAP1 POP SWAP2 SWAP1 POP JUMP JUMPDEST PUSH1 0x0 PUSH2 0x25D4 DUP3 PUSH2 0x25A7 JUMP JUMPDEST SWAP1 POP SWAP2 SWAP1 POP JUMP JUMPDEST PUSH1 0x0 PUSH2 0x25E6 DUP3 PUSH2 0x25C9 JUMP JUMPDEST SWAP1 POP SWAP2 SWAP1 POP JUMP JUMPDEST PUSH2 0x25F6 DUP2 PUSH2 0x25DB JUMP JUMPDEST DUP3 MSTORE POP POP JUMP JUMPDEST PUSH1 0x0 PUSH1 0x20 DUP3 ADD SWAP1 POP PUSH2 0x2611 PUSH1 0x0 DUP4 ADD DUP5 PUSH2 0x25ED JUMP JUMPDEST SWAP3 SWAP2 POP POP JUMP JUMPDEST PUSH32 0x436F6E74656E7420646F6573206E6F7420657869737400000000000000000000 PUSH1 0x0 DUP3 ADD MSTORE POP JUMP JUMPDEST PUSH1 0x0 PUSH2 0x264D PUSH1 0x16 DUP4 PUSH2 0x2443 JUMP JUMPDEST SWAP2 POP PUSH2 0x2658 DUP3 PUSH2 0x2617 JUMP JUMPDEST PUSH1 0x20 DUP3 ADD SWAP1 POP SWAP2 SWAP1 POP JUMP JUMPDEST PUSH1 0x0 PUSH1 0x20 DUP3 ADD SWAP1 POP DUP2 DUP2 SUB PUSH1 0x0 DUP4 ADD MSTORE PUSH2 0x267C DUP2 PUSH2 0x2640 JUMP JUMPDEST SWAP1 POP SWAP2 SWAP1 POP JUMP JUMPDEST PUSH32 0x4E487B7100000000000000000000000000000000000000000000000000000000 PUSH1 0x0 MSTORE PUSH1 0x32 PUSH1 0x4 MSTORE PUSH1 0x24 PUSH1 0x0 REVERT JUMPDEST PUSH32 0x4E487B7100000000000000000000000000000000000000000000000000000000 PUSH1 0x0 MSTORE PUSH1 0x11 PUSH1 0x4 MSTORE PUSH1 0x24 PUSH1 0x0 REVERT JUMPDEST PUSH1 0x0 PUSH2 0x26EC DUP3 PUSH2 0x2082 JUMP JUMPDEST SWAP2 POP PUSH2 0x26F7 DUP4 PUSH2 0x2082 JUMP JUMPDEST SWAP3 POP DUP3 DUP3 SUB SWAP1 POP DUP2 DUP2 GT ISZERO PUSH2 0x270F JUMPI PUSH2 0x270E PUSH2 0x26B2 JUMP JUMPDEST JUMPDEST SWAP3 SWAP2 POP POP JUMP JUMPDEST PUSH32 0x4E487B7100000000000000000000000000000000000000000000000000000000 PUSH1 0x0 MSTORE PUSH1 0x31 PUSH1 0x4 MSTORE PUSH1 0x24 PUSH1 0x0 REVERT JUMPDEST PUSH1 0x0 PUSH2 0x274F DUP3 PUSH2 0x2082 JUMP JUMPDEST SWAP2 POP PUSH32 0xFFFFFFFFFFFFFFFFFFFFFFFFFFFFFFFFFFFFFFFFFFFFFFFFFFFFFFFFFFFFFFFF DUP3 SUB PUSH2 0x2781 JUMPI PUSH2 0x2780 PUSH2 0x26B2 JUMP JUMPDEST JUMPDEST PUSH1 0x1 DUP3 ADD SWAP1 POP SWAP2 SWAP1 POP JUMP JUMPDEST PUSH32 0x4E487B7100000000000000000000000000000000000000000000000000000000 PUSH1 0x0 MSTORE PUSH1 0x22 PUSH1 0x4 MSTORE PUSH1 0x24 PUSH1 0x0 REVERT JUMPDEST PUSH1 0x0 PUSH1 0x2 DUP3 DIV SWAP1 POP PUSH1 0x1 DUP3 AND DUP1 PUSH2 0x27D3 JUMPI PUSH1 0x7F DUP3 AND SWAP2 POP JUMPDEST PUSH1 0x20 DUP3 LT DUP2 SUB PUSH2 0x27E6 JUMPI PUSH2 0x27E5 PUSH2 0x278C JUMP JUMPDEST JUMPDEST POP SWAP2 SWAP1 POP JUMP JUMPDEST PUSH1 0x0 DUP2 SWAP1 POP DUP2 PUSH1 0x0 MSTORE PUSH1 0x20 PUSH1 0x0 KECCAK256 SWAP1 POP SWAP2 SWAP1 POP JUMP JUMPDEST PUSH1 0x0 DUP2 SLOAD PUSH2 0x280E DUP2 PUSH2 0x27BB JUMP JUMPDEST PUSH2 0x2818 DUP2 DUP7 PUSH2 0x2443 JUMP JUMPDEST SWAP5 POP PUSH1 0x1 DUP3 AND PUSH1 0x0 DUP2 EQ PUSH2 0x2833 JUMPI PUSH1 0x1 DUP2 EQ PUSH2 0x2849 JUMPI PUSH2 0x287C JUMP JUMPDEST PUSH1 0xFF NOT DUP4 AND DUP7 MSTORE DUP2 ISZERO ISZERO PUSH1 0x20 MUL DUP7 ADD SWAP4 POP PUSH2 0x287C JUMP JUMPDEST PUSH2 0x2852 DUP6 PUSH2 0x27EC JUMP JUMPDEST PUSH1 0x0 JUMPDEST DUP4 DUP2 LT ISZERO PUSH2 0x2874 JUMPI DUP2 SLOAD DUP2 DUP10 ADD MSTORE PUSH1 0x1 DUP3 ADD SWAP2 POP PUSH1 0x20 DUP2 ADD SWAP1 POP PUSH2 0x2855 JUMP JUMPDEST DUP1 DUP9 ADD SWAP6 POP POP POP JUMPDEST POP POP POP SWAP3 SWAP2 POP POP JUMP JUMPDEST PUSH1 0x0 PUSH1 0x20 DUP3 ADD SWAP1 POP DUP2 DUP2 SUB PUSH1 0x0 DUP4 ADD MSTORE PUSH2 0x289F DUP2 DUP5 PUSH2 0x2801 JUMP JUMPDEST SWAP1 POP SWAP3 SWAP2 POP POP JUMP JUMPDEST PUSH32 0x4D61782072657075746174696F6E206D75737420626520677265617465722074 PUSH1 0x0 DUP3 ADD MSTORE PUSH32 0x68616E2030000000000000000000000000000000000000000000000000000000 PUSH1 0x20 DUP3 ADD MSTORE POP JUMP JUMPDEST PUSH1 0x0 PUSH2 0x2903 PUSH1 0x25 DUP4 PUSH2 0x2443 JUMP JUMPDEST SWAP2 POP PUSH2 0x290E DUP3 PUSH2 0x28A7 JUMP JUMPDEST PUSH1 0x40 DUP3 ADD SWAP1 POP SWAP2 SWAP1 POP JUMP JUMPDEST PUSH1 0x0 PUSH1 0x20 DUP3 ADD SWAP1 POP DUP2 DUP2 SUB PUSH1 0x0 DUP4 ADD MSTORE PUSH2 0x2932 DUP2 PUSH2 0x28F6 JUMP JUMPDEST SWAP1 POP SWAP2 SWAP1 POP JUMP JUMPDEST PUSH32 0x436F6E7472616374206973207061757365640000000000000000000000000000 PUSH1 0x0 DUP3 ADD MSTORE POP JUMP JUMPDEST PUSH1 0x0 PUSH2 0x296F PUSH1 0x12 DUP4 PUSH2 0x2443 JUMP JUMPDEST SWAP2 POP PUSH2 0x297A DUP3 PUSH2 0x2939 JUMP JUMPDEST PUSH1 0x20 DUP3 ADD SWAP1 POP SWAP2 SWAP1 POP JUMP JUMPDEST PUSH1 0x0 PUSH1 0x20 DUP3 ADD SWAP1 POP DUP2 DUP2 SUB PUSH1 0x0 DUP4 ADD MSTORE PUSH2 0x299E DUP2 PUSH2 0x2962 JUMP JUMPDEST SWAP1 POP SWAP2 SWAP1 POP JUMP JUMPDEST PUSH32 0x5469746C6520616E64206465736372697074696F6E2063616E6E6F7420626520 PUSH1 0x0 DUP3 ADD MSTORE PUSH32 0x656D707479000000000000000000000000000000000000000000000000000000 PUSH1 0x20 DUP3 ADD MSTORE POP JUMP JUMPDEST PUSH1 0x0 PUSH2 0x2A01 PUSH1 0x25 DUP4 PUSH2 0x2443 JUMP JUMPDEST SWAP2 POP PUSH2 0x2A0C DUP3 PUSH2 0x29A5 JUMP JUMPDEST PUSH1 0x40 DUP3 ADD SWAP1 POP SWAP2 SWAP1 POP JUMP JUMPDEST PUSH1 0x0 PUSH1 0x20 DUP3 ADD SWAP1 POP DUP2 DUP2 SUB PUSH1 0x0 DUP4 ADD MSTORE PUSH2 0x2A30 DUP2 PUSH2 0x29F4 JUMP JUMPDEST SWAP1 POP SWAP2 SWAP1 POP JUMP JUMPDEST PUSH1 0x0 PUSH1 0x20 PUSH1 0x1F DUP4 ADD DIV SWAP1 POP SWAP2 SWAP1 POP JUMP JUMPDEST PUSH1 0x0 DUP3 DUP3 SHL SWAP1 POP SWAP3 SWAP2 POP POP JUMP JUMPDEST PUSH1 0x0 PUSH1 0x8 DUP4 MUL PUSH2 0x2A84 PUSH32 0xFFFFFFFFFFFFFFFFFFFFFFFFFFFFFFFFFFFFFFFFFFFFFFFFFFFFFFFFFFFFFFFF DUP3 PUSH2 0x2A47 JUMP JUMPDEST PUSH2 0x2A8E DUP7 DUP4 PUSH2 0x2A47 JUMP JUMPDEST SWAP6 POP DUP1 NOT DUP5 AND SWAP4 POP DUP1 DUP7 AND DUP5 OR SWAP3 POP POP POP SWAP4 SWAP3 POP POP POP JUMP JUMPDEST PUSH1 0x0 PUSH2 0x2AC1 PUSH2 0x2ABC PUSH2 0x2AB7 DUP5 PUSH2 0x2082 JUMP JUMPDEST PUSH2 0x259D JUMP JUMPDEST PUSH2 0x2082 JUMP JUMPDEST SWAP1 POP SWAP2 SWAP1 POP JUMP JUMPDEST PUSH1 0x0 DUP2 SWAP1 POP SWAP2 SWAP1 POP JUMP JUMPDEST PUSH2 0x2ADB DUP4 PUSH2 0x2AA6 JUMP JUMPDEST PUSH2 0x2AEF PUSH2 0x2AE7 DUP3 PUSH2 0x2AC8 JUMP JUMPDEST DUP5 DUP5 SLOAD PUSH2 0x2A54 JUMP JUMPDEST DUP3 SSTORE POP POP POP POP JUMP JUMPDEST PUSH1 0x0 SWAP1 JUMP JUMPDEST PUSH2 0x2B04 PUSH2 0x2AF7 JUMP JUMPDEST PUSH2 0x2B0F DUP2 DUP5 DUP5 PUSH2 0x2AD2 JUMP JUMPDEST POP POP POP JUMP JUMPDEST JUMPDEST DUP2 DUP2 LT ISZERO PUSH2 0x2B33 JUMPI PUSH2 0x2B28 PUSH1 0x0 DUP3 PUSH2 0x2AFC JUMP JUMPDEST PUSH1 0x1 DUP2 ADD SWAP1 POP PUSH2 0x2B15 JUMP JUMPDEST POP POP JUMP JUMPDEST PUSH1 0x1F DUP3 GT ISZERO PUSH2 0x2B78 JUMPI PUSH2 0x2B49 DUP2 PUSH2 0x27EC JUMP JUMPDEST PUSH2 0x2B52 DUP5 PUSH2 0x2A37 JUMP JUMPDEST DUP2 ADD PUSH1 0x20 DUP6 LT ISZERO PUSH2 0x2B61 JUMPI DUP2 SWAP1 POP JUMPDEST PUSH2 0x2B75 PUSH2 0x2B6D DUP6 PUSH2 0x2A37 JUMP JUMPDEST DUP4 ADD DUP3 PUSH2 0x2B14 JUMP JUMPDEST POP POP JUMPDEST POP POP POP JUMP JUMPDEST PUSH1 0x0 DUP3 DUP3 SHR SWAP1 POP SWAP3 SWAP2 POP POP JUMP JUMPDEST PUSH1 0x0 PUSH2 0x2B9B PUSH1 0x0 NOT DUP5 PUSH1 0x8 MUL PUSH2 0x2B7D JUMP JUMPDEST NOT DUP1 DUP4 AND SWAP2 POP POP SWAP3 SWAP2 POP POP JUMP JUMPDEST PUSH1 0x0 PUSH2 0x2BB4 DUP4 DUP4 PUSH2 0x2B8A JUMP JUMPDEST SWAP2 POP DUP3 PUSH1 0x2 MUL DUP3 OR SWAP1 POP SWAP3 SWAP2 POP POP JUMP JUMPDEST PUSH2 0x2BCD DUP3 PUSH2 0x2438 JUMP JUMPDEST PUSH8 0xFFFFFFFFFFFFFFFF DUP2 GT ISZERO PUSH2 0x2BE6 JUMPI PUSH2 0x2BE5 PUSH2 0x2208 JUMP JUMPDEST JUMPDEST PUSH2 0x2BF0 DUP3 SLOAD PUSH2 0x27BB JUMP JUMPDEST PUSH2 0x2BFB DUP3 DUP3 DUP6 PUSH2 0x2B37 JUMP JUMPDEST PUSH1 0x0 PUSH1 0x20 SWAP1 POP PUSH1 0x1F DUP4 GT PUSH1 0x1 DUP2 EQ PUSH2 0x2C2E JUMPI PUSH1 0x0 DUP5 ISZERO PUSH2 0x2C1C JUMPI DUP3 DUP8 ADD MLOAD SWAP1 POP JUMPDEST PUSH2 0x2C26 DUP6 DUP3 PUSH2 0x2BA8 JUMP JUMPDEST DUP7 SSTORE POP PUSH2 0x2C8E JUMP JUMPDEST PUSH1 0x1F NOT DUP5 AND PUSH2 0x2C3C DUP7 PUSH2 0x27EC JUMP JUMPDEST PUSH1 0x0 JUMPDEST DUP3 DUP2 LT ISZERO PUSH2 0x2C64 JUMPI DUP5 DUP10 ADD MLOAD DUP3 SSTORE PUSH1 0x1 DUP3 ADD SWAP2 POP PUSH1 0x20 DUP6 ADD SWAP5 POP PUSH1 0x20 DUP2 ADD SWAP1 POP PUSH2 0x2C3F JUMP JUMPDEST DUP7 DUP4 LT ISZERO PUSH2 0x2C81 JUMPI DUP5 DUP10 ADD MLOAD PUSH2 0x2C7D PUSH1 0x1F DUP10 AND DUP3 PUSH2 0x2B8A JUMP JUMPDEST DUP4 SSTORE POP JUMPDEST PUSH1 0x1 PUSH1 0x2 DUP9 MUL ADD DUP9 SSTORE POP POP POP JUMPDEST POP POP POP POP POP POP JUMP JUMPDEST POP JUMP JUMPDEST PUSH1 0x0 PUSH2 0x2CA6 PUSH1 0x0 DUP4 PUSH2 0x2443 JUMP JUMPDEST SWAP2 POP PUSH2 0x2CB1 DUP3 PUSH2 0x2C96 JUMP JUMPDEST PUSH1 0x0 DUP3 ADD SWAP1 POP SWAP2 SWAP1 POP JUMP JUMPDEST PUSH1 0x0 PUSH1 0x60 DUP3 ADD SWAP1 POP PUSH2 0x2CD1 PUSH1 0x0 DUP4 ADD DUP6 PUSH2 0x20E5 JUMP JUMPDEST PUSH2 0x2CDE PUSH1 0x20 DUP4 ADD DUP5 PUSH2 0x251F JUMP JUMPDEST DUP2 DUP2 SUB PUSH1 0x40 DUP4 ADD MSTORE PUSH2 0x2CEF DUP2 PUSH2 0x2C99 JUMP JUMPDEST SWAP1 POP SWAP4 SWAP3 POP POP POP JUMP JUMPDEST PUSH32 0x596F7520646F206E6F74206861766520612076616C6964206C6963656E736520 PUSH1 0x0 DUP3 ADD MSTORE PUSH32 0x666F72207468697320636F6E74656E7400000000000000000000000000000000 PUSH1 0x20 DUP3 ADD MSTORE POP JUMP JUMPDEST PUSH1 0x0 PUSH2 0x2D54 PUSH1 0x30 DUP4 PUSH2 0x2443 JUMP JUMPDEST SWAP2 POP PUSH2 0x2D5F DUP3 PUSH2 0x2CF8 JUMP JUMPDEST PUSH1 0x40 DUP3 ADD SWAP1 POP SWAP2 SWAP1 POP JUMP JUMPDEST PUSH1 0x0 PUSH1 0x20 DUP3 ADD SWAP1 POP DUP2 DUP2 SUB PUSH1 0x0 DUP4 ADD MSTORE PUSH2 0x2D83 DUP2 PUSH2 0x2D47 JUMP JUMPDEST SWAP1 POP SWAP2 SWAP1 POP JUMP JUMPDEST PUSH32 0x596F7520617265206E6F74207468652063726561746F72206F66207468697320 PUSH1 0x0 DUP3 ADD MSTORE PUSH32 0x636F6E74656E7400000000000000000000000000000000000000000000000000 PUSH1 0x20 DUP3 ADD MSTORE POP JUMP JUMPDEST PUSH1 0x0 PUSH2 0x2DE6 PUSH1 0x27 DUP4 PUSH2 0x2443 JUMP JUMPDEST SWAP2 POP PUSH2 0x2DF1 DUP3 PUSH2 0x2D8A JUMP JUMPDEST PUSH1 0x40 DUP3 ADD SWAP1 POP SWAP2 SWAP1 POP JUMP JUMPDEST PUSH1 0x0 PUSH1 0x20 DUP3 ADD SWAP1 POP DUP2 DUP2 SUB PUSH1 0x0 DUP4 ADD MSTORE PUSH2 0x2E15 DUP2 PUSH2 0x2DD9 JUMP JUMPDEST SWAP1 POP SWAP2 SWAP1 POP JUMP JUMPDEST PUSH32 0x436F6E74656E7420697320616C72656164792076657269666965640000000000 PUSH1 0x0 DUP3 ADD MSTORE POP JUMP JUMPDEST PUSH1 0x0 PUSH2 0x2E52 PUSH1 0x1B DUP4 PUSH2 0x2443 JUMP JUMPDEST SWAP2 POP PUSH2 0x2E5D DUP3 PUSH2 0x2E1C JUMP JUMPDEST PUSH1 0x20 DUP3 ADD SWAP1 POP SWAP2 SWAP1 POP JUMP JUMPDEST PUSH1 0x0 PUSH1 0x20 DUP3 ADD SWAP1 POP DUP2 DUP2 SUB PUSH1 0x0 DUP4 ADD MSTORE PUSH2 0x2E81 DUP2 PUSH2 0x2E45 JUMP JUMPDEST SWAP1 POP SWAP2 SWAP1 POP JUMP JUMPDEST PUSH32 0x596F75206861766520616C726561647920766F74656400000000000000000000 PUSH1 0x0 DUP3 ADD MSTORE POP JUMP JUMPDEST PUSH1 0x0 PUSH2 0x2EBE PUSH1 0x16 DUP4 PUSH2 0x2443 JUMP JUMPDEST SWAP2 POP PUSH2 0x2EC9 DUP3 PUSH2 0x2E88 JUMP JUMPDEST PUSH1 0x20 DUP3 ADD SWAP1 POP SWAP2 SWAP1 POP JUMP JUMPDEST PUSH1 0x0 PUSH1 0x20 DUP3 ADD SWAP1 POP DUP2 DUP2 SUB PUSH1 0x0 DUP4 ADD MSTORE PUSH2 0x2EED DUP2 PUSH2 0x2EB1 JUMP JUMPDEST SWAP1 POP SWAP2 SWAP1 POP JUMP JUMPDEST PUSH32 0x43616E6E6F74207075726368617365206C6963656E736520666F7220756E7665 PUSH1 0x0 DUP3 ADD MSTORE PUSH32 0x72696669656420636F6E74656E74000000000000000000000000000000000000 PUSH1 0x20 DUP3 ADD MSTORE POP JUMP JUMPDEST PUSH1 0x0 PUSH2 0x2F50 PUSH1 0x2E DUP4 PUSH2 0x2443 JUMP JUMPDEST SWAP2 POP PUSH2 0x2F5B DUP3 PUSH2 0x2EF4 JUMP JUMPDEST PUSH1 0x40 DUP3 ADD SWAP1 POP SWAP2 SWAP1 POP JUMP JUMPDEST PUSH1 0x0 PUSH1 0x20 DUP3 ADD SWAP1 POP DUP2 DUP2 SUB PUSH1 0x0 DUP4 ADD MSTORE PUSH2 0x2F7F DUP2 PUSH2 0x2F43 JUMP JUMPDEST SWAP1 POP SWAP2 SWAP1 POP JUMP JUMPDEST PUSH32 0x4C6963656E736520616C72656164792070757263686173656400000000000000 PUSH1 0x0 DUP3 ADD MSTORE POP JUMP JUMPDEST PUSH1 0x0 PUSH2 0x2FBC PUSH1 0x19 DUP4 PUSH2 0x2443 JUMP JUMPDEST SWAP2 POP PUSH2 0x2FC7 DUP3 PUSH2 0x2F86 JUMP JUMPDEST PUSH1 0x20 DUP3 ADD SWAP1 POP SWAP2 SWAP1 POP JUMP JUMPDEST PUSH1 0x0 PUSH1 0x20 DUP3 ADD SWAP1 POP DUP2 DUP2 SUB PUSH1 0x0 DUP4 ADD MSTORE PUSH2 0x2FEB DUP2 PUSH2 0x2FAF JUMP JUMPDEST SWAP1 POP SWAP2 SWAP1 POP JUMP JUMPDEST PUSH1 0x0 DUP2 SWAP1 POP SWAP2 SWAP1 POP JUMP JUMPDEST PUSH1 0x0 PUSH2 0x3017 PUSH2 0x3012 PUSH2 0x300D DUP5 PUSH2 0x2FF2 JUMP JUMPDEST PUSH2 0x259D JUMP JUMPDEST PUSH2 0x2082 JUMP JUMPDEST SWAP1 POP SWAP2 SWAP1 POP JUMP JUMPDEST PUSH2 0x3027 DUP2 PUSH2 0x2FFC JUMP JUMPDEST DUP3 MSTORE POP POP JUMP JUMPDEST PUSH1 0x0 PUSH1 0x60 DUP3 ADD SWAP1 POP PUSH2 0x3042 PUSH1 0x0 DUP4 ADD DUP7 PUSH2 0x23E1 JUMP JUMPDEST PUSH2 0x304F PUSH1 0x20 DUP4 ADD DUP6 PUSH2 0x23E1 JUMP JUMPDEST PUSH2 0x305C PUSH1 0x40 DUP4 ADD DUP5 PUSH2 0x301E JUMP JUMPDEST SWAP5 SWAP4 POP POP POP POP JUMP JUMPDEST PUSH2 0x306D DUP2 PUSH2 0x23AB JUMP JUMPDEST DUP2 EQ PUSH2 0x3078 JUMPI PUSH1 0x0 DUP1 REVERT JUMPDEST POP JUMP JUMPDEST PUSH1 0x0 DUP2 MLOAD SWAP1 POP PUSH2 0x308A DUP2 PUSH2 0x3064 JUMP JUMPDEST SWAP3 SWAP2 POP POP JUMP JUMPDEST PUSH1 0x0 PUSH1 0x20 DUP3 DUP5 SUB SLT ISZERO PUSH2 0x30A6 JUMPI PUSH2 0x30A5 PUSH2 0x2078 JUMP JUMPDEST JUMPDEST PUSH1 0x0 PUSH2 0x30B4 DUP5 DUP3 DUP6 ADD PUSH2 0x307B JUMP JUMPDEST SWAP2 POP POP SWAP3 SWAP2 POP POP JUMP JUMPDEST PUSH32 0x4D617820766F746573206D7573742062652067726561746572207468616E2030 PUSH1 0x0 DUP3 ADD MSTORE POP JUMP JUMPDEST PUSH1 0x0 PUSH2 0x30F3 PUSH1 0x20 DUP4 PUSH2 0x2443 JUMP JUMPDEST SWAP2 POP PUSH2 0x30FE DUP3 PUSH2 0x30BD JUMP JUMPDEST PUSH1 0x20 DUP3 ADD SWAP1 POP SWAP2 SWAP1 POP JUMP JUMPDEST PUSH1 0x0 PUSH1 0x20 DUP3 ADD SWAP1 POP DUP2 DUP2 SUB PUSH1 0x0 DUP4 ADD MSTORE PUSH2 0x3122 DUP2 PUSH2 0x30E6 JUMP JUMPDEST SWAP1 POP SWAP2 SWAP1 POP JUMP JUMPDEST PUSH32 0x4F776E61626C653A206E6577206F776E657220697320746865207A65726F2061 PUSH1 0x0 DUP3 ADD MSTORE PUSH32 0x6464726573730000000000000000000000000000000000000000000000000000 PUSH1 0x20 DUP3 ADD MSTORE POP JUMP JUMPDEST PUSH1 0x0 PUSH2 0x3185 PUSH1 0x26 DUP4 PUSH2 0x2443 JUMP JUMPDEST SWAP2 POP PUSH2 0x3190 DUP3 PUSH2 0x3129 JUMP JUMPDEST PUSH1 0x40 DUP3 ADD SWAP1 POP SWAP2 SWAP1 POP JUMP JUMPDEST PUSH1 0x0 PUSH1 0x20 DUP3 ADD SWAP1 POP DUP2 DUP2 SUB PUSH1 0x0 DUP4 ADD MSTORE PUSH2 0x31B4 DUP2 PUSH2 0x3178 JUMP JUMPDEST SWAP1 POP SWAP2 SWAP1 POP JUMP JUMPDEST PUSH32 0x596F7520617265206E6F7420617574686F72697A656420746F20766572696679 PUSH1 0x0 DUP3 ADD MSTORE PUSH32 0x207468697320636F6E74656E7400000000000000000000000000000000000000 PUSH1 0x20 DUP3 ADD MSTORE POP JUMP JUMPDEST PUSH1 0x0 PUSH2 0x3217 PUSH1 0x2D DUP4 PUSH2 0x2443 JUMP JUMPDEST SWAP2 POP PUSH2 0x3222 DUP3 PUSH2 0x31BB JUMP JUMPDEST PUSH1 0x40 DUP3 ADD SWAP1 POP SWAP2 SWAP1 POP JUMP JUMPDEST PUSH1 0x0 PUSH1 0x20 DUP3 ADD SWAP1 POP DUP2 DUP2 SUB PUSH1 0x0 DUP4 ADD MSTORE PUSH2 0x3246 DUP2 PUSH2 0x320A JUMP JUMPDEST SWAP1 POP SWAP2 SWAP1 POP JUMP JUMPDEST PUSH32 0x4F776E61626C653A2063616C6C6572206973206E6F7420746865206F776E6572 PUSH1 0x0 DUP3 ADD MSTORE POP JUMP JUMPDEST PUSH1 0x0 PUSH2 0x3283 PUSH1 0x20 DUP4 PUSH2 0x2443 JUMP JUMPDEST SWAP2 POP PUSH2 0x328E DUP3 PUSH2 0x324D JUMP JUMPDEST PUSH1 0x20 DUP3 ADD SWAP1 POP SWAP2 SWAP1 POP JUMP JUMPDEST PUSH1 0x0 PUSH1 0x20 DUP3 ADD SWAP1 POP DUP2 DUP2 SUB PUSH1 0x0 DUP4 ADD MSTORE PUSH2 0x32B2 DUP2 PUSH2 0x3276 JUMP JUMPDEST SWAP1 POP SWAP2 SWAP1 POP JUMP INVALID LOG2 PUSH5 0x6970667358 0x22 SLT KECCAK256 CALLDATACOPY MSTORE EXTCODESIZE LOG4 0xEE 0xD5 CREATE PUSH3 0xCBADDA 0xE8 0x4C 0x1F SWAP6 0xBF DIV ADDRESS 0x23 0x28 CALLDATACOPY 0x4E EXP SWAP8 0xBE 0x5C 0xF6 CALLDATACOPY 0xBE CODECOPY LOG2 PUSH2 0x6473 PUSH16 0x6C634300081200330000000000000000 "
				},
				"gasEstimates": {
					"creation": {
						"codeDepositCost": "2607800",
						"executionCost": "infinite",
						"totalCost": "infinite"
					},
					"external": {
						"contentLicensees(uint256,address)": "3154",
						"contents(uint256)": "infinite",
						"expireLicense(uint256,address)": "infinite",
						"getReputation(address)": "2886",
						"grantLicense(uint256,address)": "infinite",
						"isLicenseValid(uint256,address)": "3184",
						"maxReputation()": "2475",
						"maxVotes()": "2540",
						"owner()": "2590",
						"pause()": "26721",
						"paused()": "2516",
						"purchaseLicense(uint256)": "infinite",
						"removeContent(uint256)": "infinite",
						"renounceOwnership()": "30487",
						"reputation(address)": "2925",
						"revokeLicense(uint256,address)": "29311",
						"setMaxReputation(uint256)": "24875",
						"setMaxVotes(uint256)": "24896",
						"token()": "infinite",
						"totalContent()": "2541",
						"transferOwnership(address)": "30810",
						"unpause()": "26765",
						"uploadContent(string,string)": "infinite",
						"useLicense(uint256)": "infinite",
						"userContentIds(address,uint256)": "infinite",
						"verifyContent(uint256)": "infinite",
						"voteForVerification(uint256)": "infinite"
					},
					"internal": {
						"decreaseReputation(address)": "infinite",
						"increaseReputation(address)": "infinite"
					}
				},
				"methodIdentifiers": {
					"contentLicensees(uint256,address)": "c8d80ada",
					"contents(uint256)": "b5ecf912",
					"expireLicense(uint256,address)": "32b1d75d",
					"getReputation(address)": "9c89a0e2",
					"grantLicense(uint256,address)": "6e4d6230",
					"isLicenseValid(uint256,address)": "ee6c9db4",
					"maxReputation()": "1d22899b",
					"maxVotes()": "777c3acf",
					"owner()": "8da5cb5b",
					"pause()": "8456cb59",
					"paused()": "5c975abb",
					"purchaseLicense(uint256)": "c8a028a8",
					"removeContent(uint256)": "0f64253d",
					"renounceOwnership()": "715018a6",
					"reputation(address)": "b9f79451",
					"revokeLicense(uint256,address)": "a1672a67",
					"setMaxReputation(uint256)": "1ec923f2",
					"setMaxVotes(uint256)": "da41ea93",
					"token()": "fc0c546a",
					"totalContent()": "2c59d163",
					"transferOwnership(address)": "f2fde38b",
					"unpause()": "3f4ba83a",
					"uploadContent(string,string)": "3ad3d548",
					"useLicense(uint256)": "3f193016",
					"userContentIds(address,uint256)": "27572f43",
					"verifyContent(uint256)": "fd2a176e",
					"voteForVerification(uint256)": "8efc5e9a"
				}
			},
			"storageLayout": {
				"storage": [
					{
						"astId": 7,
						"contract": "contract/XProof.sol:XProof",
						"label": "_owner",
						"offset": 0,
						"slot": "0",
						"type": "t_address"
					},
					{
						"astId": 123,
						"contract": "contract/XProof.sol:XProof",
						"label": "_status",
						"offset": 0,
						"slot": "1",
						"type": "t_uint256"
					},
					{
						"astId": 288,
						"contract": "contract/XProof.sol:XProof",
						"label": "totalContent",
						"offset": 0,
						"slot": "2",
						"type": "t_uint256"
					},
					{
						"astId": 318,
						"contract": "contract/XProof.sol:XProof",
						"label": "contents",
						"offset": 0,
						"slot": "3",
						"type": "t_mapping(t_uint256,t_struct(Content)313_storage)"
					},
					{
						"astId": 323,
						"contract": "contract/XProof.sol:XProof",
						"label": "userContentIds",
						"offset": 0,
						"slot": "4",
						"type": "t_mapping(t_address,t_array(t_uint256)dyn_storage)"
					},
					{
						"astId": 329,
						"contract": "contract/XProof.sol:XProof",
						"label": "contentLicensees",
						"offset": 0,
						"slot": "5",
						"type": "t_mapping(t_uint256,t_mapping(t_address,t_bool))"
					},
					{
						"astId": 333,
						"contract": "contract/XProof.sol:XProof",
						"label": "reputation",
						"offset": 0,
						"slot": "6",
						"type": "t_mapping(t_address,t_uint256)"
					},
					{
						"astId": 336,
						"contract": "contract/XProof.sol:XProof",
						"label": "token",
						"offset": 0,
						"slot": "7",
						"type": "t_contract(IERC20)255"
					},
					{
						"astId": 420,
						"contract": "contract/XProof.sol:XProof",
						"label": "maxVotes",
						"offset": 0,
						"slot": "8",
						"type": "t_uint256"
					},
					{
						"astId": 423,
						"contract": "contract/XProof.sol:XProof",
						"label": "maxReputation",
						"offset": 0,
						"slot": "9",
						"type": "t_uint256"
					},
					{
						"astId": 497,
						"contract": "contract/XProof.sol:XProof",
						"label": "paused",
						"offset": 0,
						"slot": "10",
						"type": "t_bool"
					}
				],
				"types": {
					"t_address": {
						"encoding": "inplace",
						"label": "address",
						"numberOfBytes": "20"
					},
					"t_array(t_uint256)dyn_storage": {
						"base": "t_uint256",
						"encoding": "dynamic_array",
						"label": "uint256[]",
						"numberOfBytes": "32"
					},
					"t_bool": {
						"encoding": "inplace",
						"label": "bool",
						"numberOfBytes": "1"
					},
					"t_contract(IERC20)255": {
						"encoding": "inplace",
						"label": "contract IERC20",
						"numberOfBytes": "20"
					},
					"t_enum(ContentStatus)291": {
						"encoding": "inplace",
						"label": "enum XProof.ContentStatus",
						"numberOfBytes": "1"
					},
					"t_mapping(t_address,t_array(t_uint256)dyn_storage)": {
						"encoding": "mapping",
						"key": "t_address",
						"label": "mapping(address => uint256[])",
						"numberOfBytes": "32",
						"value": "t_array(t_uint256)dyn_storage"
					},
					"t_mapping(t_address,t_bool)": {
						"encoding": "mapping",
						"key": "t_address",
						"label": "mapping(address => bool)",
						"numberOfBytes": "32",
						"value": "t_bool"
					},
					"t_mapping(t_address,t_uint256)": {
						"encoding": "mapping",
						"key": "t_address",
						"label": "mapping(address => uint256)",
						"numberOfBytes": "32",
						"value": "t_uint256"
					},
					"t_mapping(t_uint256,t_mapping(t_address,t_bool))": {
						"encoding": "mapping",
						"key": "t_uint256",
						"label": "mapping(uint256 => mapping(address => bool))",
						"numberOfBytes": "32",
						"value": "t_mapping(t_address,t_bool)"
					},
					"t_mapping(t_uint256,t_struct(Content)313_storage)": {
						"encoding": "mapping",
						"key": "t_uint256",
						"label": "mapping(uint256 => struct XProof.Content)",
						"numberOfBytes": "32",
						"value": "t_struct(Content)313_storage"
					},
					"t_string_storage": {
						"encoding": "bytes",
						"label": "string",
						"numberOfBytes": "32"
					},
					"t_struct(Content)313_storage": {
						"encoding": "inplace",
						"label": "struct XProof.Content",
						"members": [
							{
								"astId": 293,
								"contract": "contract/XProof.sol:XProof",
								"label": "creator",
								"offset": 0,
								"slot": "0",
								"type": "t_address"
							},
							{
								"astId": 295,
								"contract": "contract/XProof.sol:XProof",
								"label": "title",
								"offset": 0,
								"slot": "1",
								"type": "t_string_storage"
							},
							{
								"astId": 297,
								"contract": "contract/XProof.sol:XProof",
								"label": "description",
								"offset": 0,
								"slot": "2",
								"type": "t_string_storage"
							},
							{
								"astId": 299,
								"contract": "contract/XProof.sol:XProof",
								"label": "timestamp",
								"offset": 0,
								"slot": "3",
								"type": "t_uint256"
							},
							{
								"astId": 302,
								"contract": "contract/XProof.sol:XProof",
								"label": "status",
								"offset": 0,
								"slot": "4",
								"type": "t_enum(ContentStatus)291"
							},
							{
								"astId": 306,
								"contract": "contract/XProof.sol:XProof",
								"label": "licensees",
								"offset": 0,
								"slot": "5",
								"type": "t_mapping(t_address,t_bool)"
							},
							{
								"astId": 310,
								"contract": "contract/XProof.sol:XProof",
								"label": "verifiers",
								"offset": 0,
								"slot": "6",
								"type": "t_mapping(t_address,t_bool)"
							},
							{
								"astId": 312,
								"contract": "contract/XProof.sol:XProof",
								"label": "votes",
								"offset": 0,
								"slot": "7",
								"type": "t_uint256"
							}
						],
						"numberOfBytes": "256"
					},
					"t_uint256": {
						"encoding": "inplace",
						"label": "uint256",
						"numberOfBytes": "32"
					}
				}
			},
			"userdoc": {
				"kind": "user",
				"methods": {},
				"version": 1
			}
		}
	}
}